:020000040800F2
:10000000080700209D0100087D650008751600089E
:1000100079650008A50D0008EF80000800000000C9
:10002000000000000000000000000000D16A00088D
:100030009D0E0008000000004B660008D96C000807
:10004000B7010008B7010008B7010008B7010008B0
:10005000B7010008B7010008B7010008B7010008A0
:10006000B7010008B7010008B7010008B701000890
:10007000B7010008B7010008B7010008B701000880
:10008000B7010008B7010008B7010008B701000870
:10009000B7010008B7010008B7010008B701000860
:1000A000B7010008A16F0008B7010008696E0008D9
:1000B00019700008B7010008B7010008B70100086F
:1000C000B7010008B7010008B7010008B701000830
:1000D000B7010008F17C0008BD7D0008797E0008AA
:1000E000B7010008B7010008B7010008B701000810
:1000F000B7010008B7010008B7010008B701000800
:10010000B7010008B7010008B7010008B7010008EF
:10011000B7010008B7010008B7010008B7010008DF
:10012000B7010008B7010008B7010008B7010008CF
:10013000B7010008B7010008B7010008B7010008BF
:10014000B7010008B7010008B7010008B7010008AF
:10015000B7010008B7010008B7010008B70100089F
:10016000B7010008B7010008B7010008B70100088F
:10017000B7010008B7010008B7010008B70100087F
:10018000B7010008B7010008DFF80CD000F050FA02
:1001900000480047319200080807002006488047C1
:1001A00006480047FEE7FEE7FEE7FEE7FEE7FEE75C
:1001B000FEE7FEE7FEE7FEE7DD6C000889010008C8
:1001C00000F0004230F000400AD0C10D01F560712E
:1001D000C0F3160042EA0151C208400711437047BC
:1001E000002001467047000030B5041E71F1000484
:1001F00004DB4FF00044404264EB0101141E73F134
:10020000000405DB1C464FF00043524263EB04033D
:10021000994208BF904230BD01F0004330B421F054
:10022000004150EA010206D00A0DA2F56072C1F346
:100230001301002A02DC30BC00207047440F44EA5E
:10024000C104C100E01830BC00EBC25000F031B86E
:100250002DE9F05F0546002092469B4688460646FB
:10026000814640241BE0284641464746224600F08E
:1002700000FA53465A46C01A914110D31146184607
:10028000224600F0E7F92D1A67EB01084F46224697
:100290000120002100F0DEF917EB00094E41201E7D
:1002A000A4F10104DFDC484631462A464346BDE856
:1002B000F09F0029A8BF7047401C490008BF20F0EC
:1002C0000100704710B4B0FA80FC00FA0CF050EA5C
:1002D000010404BF10BC704749B1CCF1200421FADD
:1002E00004F411FA0CF118BF012121430843A3EBD8
:1002F0000C01CB1D4FEA00614FEA102042BF0020E5
:1003000010BC704700EBC35010440029A4BF10BCC0
:100310007047401C490008BF20F0010010BC704726
:100320002DE9FE4F804681EA0300C00F0C46009085
:1003300021F0004123F00045B8EB0200A94105D2AD
:100340004046214690461C460B46024623F000409C
:10035000104347D0270DC7F30A00C3F30A51029098
:10036000401A019040286BDAC3F3130040F4801B5D
:100370000098924620B10023D2EB030A63EB0B0BEB
:1003800001985946C0F14002504600F063F9064614
:100390000D4650465946019A00F07BF910EB0800D3
:1003A0006141002487EA115284EAE7731A4340D07E
:1003B000009A62B3019A012A4FEA075215DC001B2A
:1003C00061EB02014FF0004202EA0752CDE9004220
:1003D000001C41F5801132462B4600F07BF903B03A
:1003E000BDE8F08F40462146F9E7001B61EB0201B2
:1003F000001C41F5801300185B412018A2F500177E
:1004000047EB030140EAD570B6196D4111E06D0864
:100410004FEA360645EAC0754FEA0752001B61EB0A
:100420000201001C41F5801149084FEA3000001913
:10043000514132462B4603B0BDE8F04F00F03BB9C6
:100440000098012240000023D0EB020263EBE0732E
:10045000009821464FEAE074B8EB000061EB04011C
:10046000E9E783F000435BE781F0004158E72DE9BD
:10047000FE4F81EA030404F0004421F0004100949F
:100480004FF0000B23F0004350EA01045ED052EA23
:1004900003045BD0C3F30A54C1F30A552C44A4F2FD
:1004A000F3340194A0FB0254C1F3130141F4801111
:1004B000C3F3130343F4801301FB024400FB034E18
:1004C000840A970A44EA815447EA8357A4FB0768E1
:1004D00002958D0A05FB07854FEA932C04FB0C540B
:1004E0002705029D4FEA065847EA1637B5EB08057F
:1004F0006EEB070C870E920E47EA811742EA8312D1
:10050000A7FB0201B6EB0B0164EB00042B0D43EAE1
:100510000C335E1844EB1C50DA465146E7FB0201EF
:10052000C5F313044FEA0B3343EA14534FEA043282
:10053000019C43EA0603A4F10C040294009CCDE95B
:1005400000B400F0C7F803B0BDE8F08F002001460A
:10055000F9E72DE9F04D81EA030404F0004B21F0A6
:10056000004514464FF0000A23F0004150EA05020E
:1005700020D054EA01021DD0C5F30A570246C5F344
:100580001303C1F31300C1F30A5640F4801543F47A
:100590008013A7EB0608101BD64608F2FD3873EB54
:1005A000050002D308F1010801E092185B41B8F19F
:1005B000000F03DA00200146BDE8F08D00204FF463
:1005C0008011064684460EE0171B73EB050705D322
:1005D000121B63EB050306434CEA010C49084FEA82
:1005E000300092185B4150EA0107EDD152EA030056
:1005F00012D082EA040083EA0501084305D0101BEB
:10060000AB4106D20122002306E000224FF0004356
:1006100002E06FF0010253101AEB06004CEB085198
:1006200010EB0A0041EB0B01BDE8F04D00F043B8C0
:10063000064C074D06E0E06840F0010394E807002F
:1006400098471034AC42F6D3FFF7A2FDB0AB0008D8
:10065000D0AB0008202A04DB203A00FA02F1002087
:1006600070479140C2F1200320FA03F319439040F0
:100670007047202A04DB203A21FA02F0002170475B
:1006800021FA02F3D040C2F12002914008431946FA
:100690007047202A06DBCB17203A41FA02F043EAE2
:1006A000E07306E041FA02F3D040C2F1200291402B
:1006B00008431946704710B5141E73F1000408DA98
:1006C000401C41F1000192185B411A4301D120F016
:1006D000010010BD2DE9F04D92469B4611B1B1FAD3
:1006E00081F202E0B0FA80F220329046FFF7B2FFCA
:1006F00004460F4640EA0A0041EA0B0153465A46B7
:10070000084313D0114653EA010019D0C8F1400242
:100710005046FFF7AEFF05460E4650465946424644
:10072000FFF798FF084305D0012004E02046394632
:10073000BDE8F08D0020054346EAE0762C433743C0
:100740000A986305E40AA0EB08000022FD0A44EAC7
:1007500047540A3002D500200146E9E70105101987
:100760006941DDE9084500196941BDE8F04DA2E79E
:100770000EB5C10F80EAE0700844CA07002140F2BC
:1007800033438DE80E000A460B46FFF7A3FF03B084
:1007900000BD0EB540F2334102910021CDE90011B8
:1007A0000A460B46FFF796FF03B000BD70B5C1F3D4
:1007B0000A5201F000450024C1F3130140F2FF3357
:1007C00041F480119A4201DA002070BD40F23343B7
:1007D0009A42A2F2334203DC5242FFF74AFF00E0A2
:1007E00090402C43F1D0404270BD0000F0EE400A32
:1007F0009FED4F1AB0EE410AF5EEC00AF1EE10FA85
:1008000009DD9FED4C1AF4EEC10AF1EE10FA02D2A6
:10081000B0EE600A55E0F5EEC00AF1EE10FA11DD17
:100820009FED441AF4EEC10AF1EE10FA0ADB9FEDD7
:10083000421A31EE601AF0EE410AB1EE601AB0EEE3
:10084000410A3EE0F5EEC00AF1EE10FA0FD29FED3C
:100850003B1AF4EEC10AF1EE10FA08DBB1EE601AB1
:10086000F0EE410AB1EE601AB0EE410A29E0F5EE71
:10087000C00AF1EE10FA0FD29FED301AF4EEC10A61
:10088000F1EE10FA08D29FED2C1A30EE811AF0EE3C
:10089000410AB0EE600A14E09FED291AF4EEC10A95
:1008A000F1EE10FA0DD2B5EEC00AF1EE10FA04DD49
:1008B0009FED241AB0EE410A03E09FED231AB0EE3B
:1008C000410AB3EE0E1AF4EEC10AF1EE10FA0FD29D
:1008D000B3EE0E1AB4EEC10AF1EE10FA04DD9FED8C
:1008E0001B1AB0EE410A03E09FED191AB0EE410A5F
:1008F000B1EE041AF4EEC10AF1EE10FA0DD2B5EE23
:10090000C00AF1EE10FA04DD9FED121AB0EE410AB2
:1009100003E09FED111AB0EE410AF5EEC00AF1EEC8
:1009200010FA03D19FED021AB0EE410A70470000A1
:1009300000000000000034430000B443000034C352
:100940000000704200007A4400007AC4000048436E
:10095000000048C300002042000020C2F0EE400A20
:100960009FED851AF4EEC10AF1EE10FA7CDDB7EEC8
:10097000081AF4EEC10AF1EE10FA4CDDB2EE000AEC
:100980007E4890ED041ADFED7E1AB4EEE11AF1EE26
:1009900010FA04D2B6EE001AB0EE410AEAE0774847
:1009A00090ED041ADFED771AB4EEE11AF1EE10FAC9
:1009B00004D2B7EE001AB0EE410ADBE06F4890EDCA
:1009C000041ADFED711AB4EEE11AF1EE10FA04D256
:1009D000B0EE001AB0EE410ACCE0684890ED041A7F
:1009E000DFED6A1AB4EEE11AF1EE10FA04D2B1EEBC
:1009F000001AB0EE410ABDE0604890ED041AF1EE35
:100A00000E1AB4EEE11AF1EE10FA03D2B1EE081AA2
:100A1000B0EE410AAEE0B7EE081AF4EEC10AF1EE0C
:100A200010FA08D29FED571AF4EEC10AF1EE10FA4F
:100A300002DDB0EE000A9DE09FED551AF4EEC10A0A
:100A4000F1EE10FA02DDB7EE000A93E09FED4C1ACA
:100A5000F4EEC10AF1EE10FA03DDB6EE000A89E009
:100A600002E0B5EE000A85E09FED4A1AF4EEC10AF5
:100A7000F1EE10FA7CD2BFEE081AF4EEC10AF1EEE4
:100A800010FA4CD2BAEE000A3C4890ED041ADFEDA1
:100A9000421AB4EEE11AF1EE10FA04DDBEEE001ACD
:100AA000B0EE410A66E0354890ED041ADFED3B1ADE
:100AB000B4EEE11AF1EE10FA04DDBFEE001AB0EE6A
:100AC000410A57E02D4890ED041ADFED351AB4EED7
:100AD000E11AF1EE10FA04DDB8EE001AB0EE410AA8
:100AE00048E0264890ED041ADFED2E1AB4EEE11A24
:100AF000F1EE10FA04DDB9EE001AB0EE410A39E069
:100B00001E4890ED041AF9EE0E1AB4EEE11AF1EE59
:100B100010FA2FDDB9EE081AB0EE410A2AE0BFEE56
:100B2000081AF4EEC10AF1EE10FA23DD9FED1B1A4C
:100B3000F4EEC10AF1EE10FA02D2B8EE000A19E0A2
:100B40009FED191AF4EEC10AF1EE10FA02D2BFEECF
:100B5000000A0FE09FED101AF4EEC10AF1EE10FA50
:100B600003D2BEEE000A05E002E0BDEE000A01E09D
:100B70009FED0E0A70470000CDCC4C3DBC0200201A
:100B8000CDCCCC3DCDCC4C3ECDCCCC3EE17A143F4F
:100B90009A99193ECDCC4CBDCDCCCCBDCDCC4CBE64
:100BA000CDCCCCBEE17A14BF9A9919BE00000000EA
:100BB000F0EE400A9FED611AF4EEC10AF1EE10FA70
:100BC00058DDB7EE081AF4EEC10AF1EE10FA2DDB8B
:100BD000B2EE000A5A4890ED051ADFED5A1AB4EE4B
:100BE000E11AF1EE10FA04D2B0EE001AB0EE410AAA
:100BF0001CE0534890ED051AF6EE001AB4EEE11A27
:100C0000F1EE10FA04D2B1EE001AB0EE410A0DE096
:100C10004B4890ED051ADFED4C1AB4EEE11AF1EEF7
:100C200010FA03D2B1EE081AB0EE410AB7EE081A74
:100C3000F4EEC10AF1EE10FA10D29FED441AF4EE70
:100C4000C10AF1EE10FA09DDB2EE041A20EE811AA3
:100C5000F0EE001A81EE212AB0EE420A9FED3B1A17
:100C6000F4EEC10AF1EE10FA66D2B5EE001AB0EE5B
:100C7000410A61E09FED361AF4EEC10AF1EE10FA76
:100C800058D2BFEE081AF4EEC10AF1EE10FA2DD2D6
:100C9000BAEE000A2A4890ED051ADFED2E1AB4EEDE
:100CA000E11AF1EE10FA04DDB8EE001AB0EE410AD6
:100CB0001CE0234890ED051AFEEE001AB4EEE11A8E
:100CC000F1EE10FA04DDB9EE001AB0EE410A0DE0C3
:100CD0001B4890ED051ADFED201AB4EEE11AF1EE93
:100CE00010FA03DDB9EE081AB0EE410ABFEE081A99
:100CF000F4EEC10AF1EE10FA10DD9FED181AF4EED1
:100D0000C10AF1EE10FA09D2B2EE041A20EE811AED
:100D1000F0EE001A81EE212AB0EE420A9FED0F1A82
:100D2000F4EEC10AF1EE10FA06DDBDEE001AB0EEE7
:100D3000410A01E09FED0A0A70470000CDCC4C3D0E
:100D4000BC0200209A99993E6666663FCDCC4C3E27
:100D5000CDCC4CBD9A9999BE666666BFCDCC4CBED3
:100D6000000000001CB50121202005F06FFC4FF4AD
:100D70008070009001208DF8040000208DF806009E
:100D800003208DF8050002208DF80700694604480D
:100D900000F0A3F94FF48071014800F009FA1CBD7E
:100DA0000014024000BFFEE71CB50121402005F001
:100DB0004DFC4020009001208DF8040000208DF8AB
:100DC000060003208DF8050001208DF80700694614
:100DD000034800F082F94021014800F0E9F91CBD08
:100DE0000018024010B59FED290A294880ED000A3D
:100DF0009FED260A80ED010A9FED240A80ED020A8C
:100E00009FED220A80ED020A9FED200A80ED040A80
:100E10009FED1E0A80ED050A9FED1C0A80ED060A73
:100E20009FED1A0A80ED080A9FED180A80ED090A65
:100E30009FED160A80ED070A9FED140A80ED0B0A5C
:100E40009FED120A80ED0C0A9FED100A80ED0A0A50
:100E50009FED0E0A80ED100A9FED0C0A80ED110A3D
:100E600000200C49486008600B49086048609FED0D
:100E7000071ADFED060A9FED050A05F04BFE05F0A7
:100E80003DFB05F03BFB05F039FB10BD0000000009
:100E9000BC020020400000204800002070470EB532
:100EA0000121880305F002FC0021022005F012FE5A
:100EB0000121022005F00EFE0120009000208DF897
:100EC000040008208DF8050000208DF80600684613
:100ED00000F02CF80220009000208DF8040008207B
:100EE0008DF8050000208DF80600684600F01EF819
:100EF00006208DF8080000208DF8090001208DF8EB
:100F00000A008DF80B0002A805F03AFB07208DF8C7
:100F1000080000208DF809008DF80A0001208DF8E6
:100F20000B0002A805F02CFB0EBD00000021234998
:100F30008279002A3AD00A46126803689A430B461F
:100F40001A600A1D126803689A430B1D1A60027921
:100F500011440A6803681A430A60184A0832126882
:100F600003689A43154B08331A601A1D1268036808
:100F70009A43124B0C331A604279102A0ED11A1F71
:100F8000126803681A430D4B08331A601A1D126861
:100F900003681A43094B0C331A600DE00749427984
:100FA00011440A6803681A430A6005E00279114493
:100FB0000A6803689A430A6070470000003C0140D9
:100FC00051B18200A2F1C042126842F001038200D6
:100FD000A2F1C042136009E08200A2F1C04212688F
:100FE000034B1A408300A3F1C0431A60704700000E
:100FF000FEFF0F00D0E901121143C26811430269DC
:1010000011434269114382691143C2691143026A63
:101010001143426A1143826A1143C26A1143026B4F
:10102000114302689200A2F1C04211608168082950
:101030000BD101688900A1F1C041096841F040026B
:1010400001688900A1F1C0410A60416B0968426BE7
:10105000526841EA0211426B926841EA0221426BF6
:10106000928941EA0241426B128A41EA0251426B83
:10107000127D41EA0261426B926911430268521C7F
:101080009200A2F1C0421160C16AB1F5804F1BD13C
:10109000816B0968826B526841EA0211826B926827
:1010A00041EA0221826B128A41EA0251826B127D6F
:1010B00041EA0261826B9269114302689200A2F1D7
:1010C000C042C2F8041107E06FF070420168890065
:1010D000A1F1C041C1F804217047F0B50A460021D2
:1010E0000023002400BF3DE0012505FA01F3156847
:1010F00005EA03049C4234D105684F000326BE4034
:10110000B543056015794E00B54006683543056066
:101110001579012D02D01579022D16D185684F0061
:101120000326BE40B543856055794E00B5408668BC
:1011300035438560456801268E40B5434560456866
:1011400096798E40B6B235434560C5684F00032698
:10115000BE40B543C560D5794E00B540C66835433D
:10116000C560491C1029BFD3F0BDF0B50023002491
:101170004D07ED0E02FA05F3CE1000F1200555F8EB
:1011800026504E07F70E0F26BE40B543CF1000F194
:10119000200646F82750CE1000F1200555F82650BD
:1011A00045EA0304CE1000F1200545F82640F0BDC5
:1011B000418370470183704770B52DED0A8B9EB057
:1011C000B0EE408AF0EE608AB0EE419AB6EE000AC8
:1011D0008DED150A9FED920A8DED160A9FED910A8D
:1011E0008DED170ABFEE000A8DED180A9FED8E0AED
:1011F0008DED190A9FED8B0A8DED1A0AB6EE000AE5
:101200008DED1B0A9FED890A8DED1C0A9FED850A65
:101210008DED1D0A864890ED020A10EE101A084660
:10122000FEF7CEFF41EC1B0BB0EE4B0AF0EE6B0A63
:1012300006F0B2FFB0EE40AAF0EE60AA51EC1A0B35
:10124000FEF7EAFF0C907A4890ED020A10EE101AB1
:101250000846FEF7B5FF41EC1B0BB0EE4B0AF0EE73
:101260006B0A07F009F8B0EE40AAF0EE60AA51EC64
:101270001A0BFEF7D1FF0D909FED6B0A8DED0E0A54
:101280006B4890ED020A10EE101A0846FEF798FF20
:1012900041EC1C0BB0EE4C0AF0EE6C0A06F0ECFFD1
:1012A000B0EE40BAF0EE60BA51EC1B0B81F0004199
:1012B00041EC1A0BFEF7B0FF0F905D4890ED020A6B
:1012C00010EE101A0846FEF77BFF41EC1B0BB0EE48
:1012D0004B0AF0EE6B0A06F05FFFB0EE40AAF0EEAC
:1012E00060AA51EC1A0BFEF797FF10909FED4E0A83
:1012F0008DED110A9FED4C0A8DED120A9FED4A0A01
:101300008DED130AB7EE000A8DED140AB1EE480A0E
:10131000F2EE040A20EE200A8DED090AB1EE680A09
:101320008DED0A0AB1EE490A8DED0B0A00243EE06C
:10133000002538E09FED3C0A04EB4400694601EBD0
:10134000800000EB850080ED000A002627E004EB1A
:101350004400694601EB800000EB850090ED000A37
:1013600004EB440015A901EB800000EB8600D0EDF2
:10137000000A06EB46000CA901EB800000EB85009B
:1013800090ED001A00EE810A04EB4400694601EB7F
:10139000800000EB850080ED000A701CC6B2032EB1
:1013A000D5DB681CC5B2032DC4DB601CC4B2032CA2
:1013B000BEDB00242BE09FED1C0A1D48343000EBFF
:1013C000840080ED000A00251DE004EB440069461E
:1013D00001EB800000EB8500D0ED000A09A800EBCE
:1013E000850090ED001A1248343000EB840090ED37
:1013F000000A00EE810A0E48343000EB840080EDD4
:10140000000A681CC5B2032DDFDB601CC4B2032CCC
:10141000D1DB04F0D3FD1EB0BDEC0A8B70BD000023
:10142000D7B35D3F96214EBE00000000D7B35DBF2D
:10143000BC02002000B52DED088B85B06A4890ED08
:10144000020AD0ED100A30EE600AB0EE409A90ED3C
:10145000020A80ED100A90ED020A10EE101A0846FA
:10146000FEF7AEFE41EC1B0BB0EE4B0AF0EE6B0A42
:1014700006F002FFB0EE40AAF0EE60AA51EC1A0BA3
:10148000FEF7CAFE01909DED010AB1EE400A8DED16
:10149000020A554890ED020A10EE101A0846FEF7AF
:1014A0008FFE41EC1B0BB0EE4B0AF0EE6B0A06F020
:1014B00073FEB0EE40AAF0EE60AA51EC1A0BFEF7F4
:1014C000ABFE03909DED030A8DED040A464890EDB6
:1014D0000A0ADFED460A20EE200ADFED450A00EE9B
:1014E000C90AB0EE408AB1EE480AB0EE408A90EDEB
:1014F0000B0ADFED3E0A20EE200ADFED3D0A00EE8A
:10150000C90AF0EE408AB1EE680AF0EE408AF0EEC9
:10151000000AB0EE480A00EEE80AB5EEC00AF1EEA5
:1015200010FA0ED190ED000A30EE080A80ED000AA4
:1015300090ED010ADFED2F0A30EE200A80ED010A5E
:101540004DE0B5EEC08AF1EE10FA15D1264890EDC7
:10155000000ADFED280A30EE200A80ED000AB0EE26
:10156000000AC8EE800A90ED010A9FED231A00EEF2
:10157000810A80ED010A32E09FED1F0A68EE000A41
:10158000B0EE001AB0EE480A01EE680AC0EE809A8A
:1015900028EE290ADDED010A20EE200ADDED020A1F
:1015A00008EE200A1048D0ED000A30EE200A80ED47
:1015B000000A28EE290ADDED030A20EE200ADDEDFF
:1015C000040A08EE200AD0ED010A30EE200A80ED70
:1015D000010A9FED0A0A29EE000A80ED060A05B00D
:1015E000BDEC088B00BD0000BC0200200AD7233CE4
:1015F000166A4D3E00000000D7B3DD3F0000C84230
:101600001A4A1268D1B208464206100E184AD2F899
:101610001822D1B208434206100E144A083A126842
:10162000D1B208434206100E114AD2F81022D1B2AC
:1016300008434206100E0D4A103A1268D1B2084310
:101640004206100E0A4AD2F80822D1B208434206D6
:10165000100E064A183A1268D1B208434206100E1C
:10166000034AD2F80022D1B2084370471C8242429A
:101670000080424200BFFEE71CB50121202004F09B
:10168000E5FF4FF40070009000208DF80400032067
:101690008DF8050001208DF8070069460148FFF725
:1016A0001CFD1CBD0014024070B5044600261748FE
:1016B0000588408845431548808846F604018842DD
:1016C00016D112488079012812D100200F49887163
:1016D0002A2048812B2088810021084603F09EFEA5
:1016E00001200A4988712B2048812A20888103E043
:1016F0000021084603F092FE04F0A6FE002602E058
:1017000003480480761CAE42FAD370BD540000201A
:101710008000006C10B50446002C52D158498871E5
:10172000F02008804FF4A07048800846808849F275
:10173000413188420BD05248808846F604018842E5
:1017400005D04F48808845F2103188421AD12C20AC
:101750004B4908812A2048812B20888108468088AF
:1017600046F60401884205D04548808845F210318C
:10177000884206D14FF4A070414908804FF4F070C0
:10178000488079E03E48808845F21051884210D167
:101790004FF430503A4908814FF4285048814FF4B3
:1017A0002C5088814FF4F07008804FF448704880C6
:1017B00062E022203249088120204881212088814E
:1017C0005AE001202E4988714FF4A0700880F02063
:1017D00048800846808849F24131884205D028482F
:1017E000808845F21031884207D12C202449088195
:1017F0002A2048812B2088812BE02148808846F6CA
:101800000401884207D12C201D4908812B204881E2
:101810002A2088811DE01A48808845F210518842AC
:1018200010D14FF43050164908814FF428504881A8
:101830004FF42C5088814FF4487008804FF4F070BA
:10184000488006E022200E4908812120488120207E
:1018500088810B48808846F60401884205D00848F4
:10186000808845F21031884206D14FF4F070044967
:1018700008804FF4A0704880002003F079FC10BD70
:101880005400002070B504460D4616464348808833
:1018900049F24131884205D04048808845F21031F4
:1018A000884214D13D49488904F0C2FD201204F059
:1018B000B3FDE0B204F0B0FD3849888904F0B8FD0A
:1018C000281204F0A9FDE8B204F0A6FD5DE033485B
:1018D000808845F21051884220D13049488904F06F
:1018E000A7FD201204F098FD2C494989491C88B2B3
:1018F00004F09EFDE0B204F08FFD2849888904F0D1
:1019000097FD281204F088FD24498989491C88B272
:1019100004F08EFDE8B204F07FFD36E01F488088B9
:1019200046F6040188421DD11C488079012804D163
:101930001A480088401E001B84B21849488904F0E8
:1019400077FD201204F068FDE0B204F065FD134954
:10195000888904F06DFD281204F05EFDE8B204F001
:101960005BFD12E00D488079012804D10B48008806
:10197000401E001B84B209494889214604F06EFDCF
:1019800006498889294604F069FD0448008904490C
:1019900008804FF0D840A0F8806070BD540000204F
:1019A0007E00006C00B5A1B00020209001217A20BB
:1019B00004F04CFE0121084604F058FE4FF40040AC
:1019C0001E9001208DF87C0000208DF87E00022002
:1019D0008DF87D0001208DF87F001EA9FE48FFF7DD
:1019E0007CFB4CF233701E9002208DF87C000020AE
:1019F0008DF87E0003208DF87D0001208DF87F009A
:101A00001EA9F648FFF769FB4FF680701E90022072
:101A10008DF87C0000208DF87E0003208DF87D007D
:101A200001208DF87F001EA9ED48FFF756FB4FF40B
:101A300080501E9002208DF87C0000208DF87E00E2
:101A400003208DF87D0001208DF87F001EA9E54858
:101A5000FFF743FB4FF480501E9002208DF87C006E
:101A600000208DF87E0003208DF87D0001208DF888
:101A70007F001EA9DC48FFF730FB0C220021D7486D
:101A8000FFF773FB0C220121D448FFF76EFB0C22F9
:101A90000421D248FFF769FB0C220521CF48FFF74C
:101AA00064FB0C220821CD48FFF75FFB0C220921C3
:101AB000CA48FFF75AFB0C220A21C848FFF755FB1A
:101AC0000C220E21C548FFF750FB0C220F21C34802
:101AD000FFF74BFB0C220721C148FFF746FB0C2206
:101AE0000821BF48FFF741FB0C220921BC48FFF742
:101AF0003CFB0C220A21BA48FFF737FB0C220B21D2
:101B0000B748FFF732FB0C221146B548FFF72DFB13
:101B10000C220D21B248FFF728FB0C220E21B04801
:101B2000FFF723FB0C220F21AD48FFF71EFB0C2211
:101B30001146AC48FFF719FB0C221146AA48FFF7E3
:101B400014FB0F200890002009903C200A900020F0
:101B50000B900C900D900E900920019000200290A7
:101B6000082003900020049005900690079006201E
:101B70000F900020109011901020129000201390D0
:101B800015901490169017904FF4805018900020E4
:101B900019904FF480401A9000201B9008A81C90C8
:101BA00001A81D900FA8FFF725FA01210620FFF7D5
:101BB00007FA322007F06CF90121002004F04EFCF6
:101BC000322007F065F9002003F0C6FA87498880C3
:101BD00008468088FF280ADB084680884FF6FF7198
:101BE000884204D081488088B0F5134F7ED1D3203D
:101BF00004F01EFC03F0A6FA7C49888003F0A2FAE8
:101C00007A49888003F09EFA78498880084680885F
:101C10004FF6FF7101EA00207449888003F092FAC0
:101C2000724989880843714988800846808849F24A
:101C30004131884278D0BF2004F0FAFB03F082FAE9
:101C40006A49888003F07EFA6849888003F07AFA4E
:101C50006649888003F076FA64498880084680885F
:101C60004FF6FF7101EA00206049888003F06AFAAC
:101C70005E49898808435D4988800846808846F621
:101C80000401884250D0D42004F0D2FB03F05AFA69
:101C90005649888003F056FA5449888003F052FA76
:101CA00052498880084680884FF6FF7101EA00207B
:101CB0004E49888003F046FA4C49898808434B49CD
:101CC00088800846808845F2103188422CD04FF435
:101CD0005A4004F0ADFB03F035FA444988804FF4D4
:101CE0005B4004F0A5FB03F02DFA00E01CE03F4947
:101CF0008880084680884FF6FF7101EA00203B4942
:101D000088804FF45C4004F093FB03F01BFA3749E2
:101D1000898808433549888008468088B0F5004F97
:101D200002D145F2105088803048808849F2413114
:101D300088420BD02D48808845F21031884205D06A
:101D40002A48808845F2105188421DD128480068F1
:101D500020F00F004FF02041C1F81C010846D0F8D8
:101D60001C0120F47060C1F81C010846D0F81C0169
:101D700040F00300C1F81C010846D0F81C0140F4F3
:101D80000070C1F81C0137E01848808846F604014D
:101D9000884205D0154880884CF2055188422BD1E5
:101DA0001348006820F00F004FF02041C1F81C01DB
:101DB0000846D0F81C0120F47060C1F81C010846E8
:101DC000D0F81C0140F00A00C1F81C010846D0F808
:101DD0001C0140F440600DE000040240000C024091
:101DE000001002400014024000180240540000207D
:101DF0001C0100A0C1F81C01FE488188FEA006F06D
:101E0000A3F9FC48808849F2413188427ED1CF2035
:101E100004F00EFB002004F0FFFA2098401C2090F4
:101E2000C12004F0F9FA302004F0F6FAED2004F0B5
:101E3000FFFA642004F0F0FA032004F0EDFA122017
:101E400004F0EAFA812004F0E7FAE82004F0F0FA5E
:101E5000852004F0E1FA102004F0DEFA7A2004F084
:101E6000DBFACB2004F0E4FA392004F0D5FA2C2078
:101E700004F0D2FA002004F0CFFA342004F0CCFAB7
:101E8000022004F0C9FAF72004F0D2FA202004F06E
:101E9000C3FAEA2004F0CCFA002004F0BDFA0020D6
:101EA00004F0BAFAC02004F0C3FA1B2004F0B4FA1C
:101EB000C12004F0BDFA012004F0AEFAC52004F000
:101EC000B7FA302004F0A8FA302004F0A5FAC720B1
:101ED00004F0AEFAB72004F09FFA362004F0A8FA16
:101EE000482004F099FA3A2004F0A2FA552004F0B0
:101EF00093FAB12004F09CFA002004F08DFA1A2025
:101F000004F08AFAB62004F093FA00E09AE00A207E
:101F100004F082FAA22004F07FFAF22004F088FA9A
:101F2000002004F079FA262004F082FA012004F05F
:101F300073FAE02004F07CFA0F2004F06DFA2A20F6
:101F400004F06AFA282004F067FA082004F064FA22
:101F50000E2004F061FA082004F05EFA542004F028
:101F60005BFAA92004F058FA432004F055FA0A203D
:101F700004F052FA0F2004F04FFA002004F04CFA5B
:101F8000002004F049FA002004F046FA002004F092
:101F900043FAE12004F04CFA002004F03DFA152049
:101FA00004F03AFA172004F037FA072004F034FA64
:101FB000112004F031FA062004F02EFA2B2004F050
:101FC0002BFA562004F028FA3C2004F025FA0520CC
:101FD00004F022FA102004F01FFA0F2004F01CFA7B
:101FE0003F2004F019FA3F2004F016FA0F2004F005
:101FF00013FA2B2004F01CFA002004F00DFA002044
:1020000004F00AFA012004F007FA3F2004F004FA71
:102010002A2004F00DFA002004F0FEF9002004F05C
:10202000FBF9002004F0F8F9EF2004F0F5F9112095
:1020300004F0FEF9782006F02BFF292004F0F8F9CF
:1020400003F064B86B48808846F6040188427CD16E
:10205000112004F0EDF9142006F01AFFD02004F04E
:10206000E7F9072004F0D8F9422004F0D5F91D2043
:1020700004F0D2F9D12004F0DBF9002004F0CCF90F
:102080001A2004F0C9F9092004F0C6F9D22004F09E
:10209000CFF9012004F0C0F9222004F0BDF9C020DE
:1020A00004F0C6F9102004F0B7F93B2004F0B4F9AD
:1020B000002004F0B1F9022004F0AEF9112004F080
:1020C000ABF9C52004F0B4F9032004F0A5F9C82049
:1020D00004F0AEF9002004F09FF9252004F09CF9EB
:1020E000212004F099F9052004F096F9002004F06D
:1020F00093F90A2004F090F9652004F08DF9252069
:1021000004F08AF9772004F087F9502004F084F96C
:102110000F2004F081F9002004F07EF9F82004F08B
:1021200087F9012004F078F9FE2004F081F90020FD
:1021300004F072F9022004F06FF9202004F078F91D
:10214000362004F075F9082000E02CE004F064F972
:102150003A2004F06DF9552004F05EF92B2004F0CC
:1021600067F9002004F058F9002004F055F9012027
:1021700004F052F93F2004F04FF92A2004F058F9F6
:10218000002004F049F9002004F046F9012004F091
:1021900043F9DF2004F040F9782006F079FE292089
:1021A00004F046F94CE71348808845F21031884224
:1021B00040F08487ED2004F03BF9012004F02CF975
:1021C000FE2004F029F9EE2004F032F9DE2004F0BC
:1021D00023F9212004F020F9F12004F029F901204D
:1021E00004F01AF9DF2004F023F9102004F014F9A8
:1021F000C42009E054000020204C43442049443AC4
:1022000025780D0A0000000004F012F98F2004F078
:1022100003F9C62004F00CF9002004F0FDF8E220D8
:1022200004F0FAF8E22004F0F7F8E22004F0F4F801
:10223000BF2004F0FDF8AA2004F0EEF8B02004F06E
:10224000F7F80D2004F0E8F8002004F0E5F80D2080
:1022500004F0E2F8002004F0DFF8112004F0DCF8CC
:10226000002004F0D9F8192004F0D6F8002004F07A
:10227000D3F8212004F0D0F8002004F0CDF82D2070
:1022800004F0CAF8002004F0C7F83D2004F0C4F8B8
:10229000002004F0C1F85D2004F0BEF8002004F036
:1022A000BBF85D2004F0B8F8002004F0B5F8B120C8
:1022B00004F0BEF8802004F0AFF8002004F0ACF881
:1022C0008B2004F0A9F8002004F0A6F8962004F072
:1022D000A3F8002004F0A0F8B22004F0A9F8002030
:1022E00004F09AF8002004F097F8022004F094F823
:1022F000002004F091F8032004F08EF8002004F090
:102300008BF8B32004F094F8002004F085F8002046
:1023100004F082F8002004F07FF8002004F07CF83C
:10232000002004F079F8002004F076F8002004F092
:1023300073F8002004F070F8002004F06DF800201D
:1023400004F06AF8002004F067F8002004F064F854
:10235000002004F061F8002004F05EF8002004F092
:102360005BF8002004F058F8002004F055F8002035
:1023700004F052F8002004F04FF8002004F04CF86C
:10238000002004F049F8002004F046F8002004F092
:1023900043F8002004F040F8B42004F049F88B2002
:1023A00004F03AF8002004F037F8962004F034F8EE
:1023B000002004F031F8A12004F02EF8002004F0F1
:1023C0002BF8B52004F034F8022004F025F80020A2
:1023D00004F022F8032004F01FF8002004F01CF899
:1023E000042004F019F8002004F016F8B62004F0D8
:1023F0001FF8002004F010F8002004F00DF8B720BA
:1024000004F016F8002004F007F8002004F004F8A7
:102410003F2004F001F8002003F0FEFF5E2003F0EF
:10242000FBFF002003F0F8FF642003F0F5FF00201D
:1024300003F0F2FF8C2003F0EFFF002003F0ECFF2D
:10244000AC2003F0E9FF002003F0E6FFDC2003F0FE
:10245000E3FF002003F0E0FF702003F0DDFF002029
:1024600003F0DAFF902003F0D7FF002003F0D4FF41
:10247000EB2003F0D1FF002003F0CEFFDC2003F0BF
:10248000CBFF002003F0C8FFB82003F0D1FF0020ED
:1024900003F0C2FF002003F0BFFF002003F0BCFFE9
:1024A000002003F0B9FF002003F0B6FF002003F086
:1024B000B3FF002003F0B0FF002003F0ADFFBA200F
:1024C00003F0B6FF242003F0A7FF002003F0A4FFD1
:1024D000002003F0A1FF002003F09EFFC12003F0C5
:1024E000A7FF202003F098FF002003F095FF542061
:1024F00003F092FF002003F08FFFFF2003F08CFF1A
:10250000002003F089FFC22003F092FF0A2003F0AD
:1025100083FF002003F080FF042003F07DFF0020F4
:1025200003F07AFFC32003F083FF3C2003F074FF25
:10253000002003F071FF3A2003F06EFF002003F04B
:102540006BFF392003F068FF002003F065FF3720A0
:1025500003F062FF002003F05FFF3C2003F05CFF0C
:10256000002003F059FF362003F056FF002003F04F
:1025700053FF322003F050FF002003F04DFF2F20C7
:1025800003F04AFF002003F047FF2C2003F044FF34
:10259000002003F041FF292003F03EFF002003F05C
:1025A0003BFF262003F038FF002003F035FF2420F6
:1025B00003F032FF002003F02FFF242003F02CFF54
:1025C000002003F029FF232003F026FF002003F062
:1025D00023FF3C2003F020FF002003F01DFF3620E6
:1025E00003F01AFF002003F017FF322003F014FF5E
:1025F000002003F011FF2F2003F00EFF002003F056
:102600000BFF2C2003F008FF002003F005FF29201A
:1026100003F002FF002003F0FFFE262003F0FCFE83
:10262000002003F0F9FE242003F0F6FE002003F062
:10263000F3FE242003F0F0FE002003F0EDFE232043
:1026400003F0EAFE002003F0E7FEC42003F0F0FEF2
:10265000622003F0E1FE002003F0DEFE052003F01F
:10266000DBFE002003F0D8FE842003F0D5FE00201E
:1026700003F0D2FEF02003F0CFFE002003F0CCFEEA
:10268000182003F0C9FE002003F0C6FEA42003F0CA
:10269000C3FE002003F0C0FE182003F0BDFE0020A2
:1026A00003F0BAFE502003F0B7FE002003F0B4FEA2
:1026B0000C2003F0B1FE002003F0AEFE172003F063
:1026C000ABFE002003F0A8FE952003F0A5FE00203D
:1026D00003F0A2FEF32003F09FFE002003F09CFE17
:1026E000E62003F099FE002003F096FEC52003F0DB
:1026F0009FFE322003F090FE002003F08DFE442068
:1027000003F08AFE002003F087FE652003F084FEBC
:10271000002003F081FE762003F07EFE002003F00F
:102720007BFE882003F078FE002003F075FEC620B3
:1027300003F07EFE202003F06FFE002003F06CFE0D
:10274000172003F069FE002003F066FE012003F06D
:1027500063FE002003F060FEC72003F069FE002046
:1027600003F05AFE002003F057FE002003F054FE51
:10277000002003F051FEC82003F05AFE002003F0B1
:102780004BFE002003F048FE002003F045FE002031
:1027900003F042FEC92003F04BFE002003F03CFE94
:1027A000002003F039FE002003F036FE002003F085
:1027B00033FE002003F030FE002003F02DFE002049
:1027C00003F02AFE002003F027FE002003F024FE81
:1027D000002003F021FE002003F01EFE002003F085
:1027E0001BFE002003F018FE002003F015FE002061
:1027F00003F012FE002003F00FFEE02003F018FEAD
:10280000162003F009FE002003F006FE1C2003F052
:1028100003FE002003F000FE212003F0FDFD002058
:1028200003F0FAFD362003F0F7FD002003F0F4FD7D
:10283000462003F0F1FD002003F0EEFD522003F0EE
:10284000EBFD002003F0E8FD642003F0E5FD00202F
:1028500003F0E2FD7A2003F0DFFD002003F0DCFD51
:102860008B2003F0D9FD002003F0D6FD992003F062
:10287000D3FD002003F0D0FDA82003F0CDFD002003
:1028800003F0CAFDB92003F0C7FD002003F0C4FD2A
:10289000C42003F0C1FD002003F0BEFDCA2003F0F8
:1028A000BBFD002003F0B8FDD22003F0B5FD0020F1
:1028B00003F0B2FDD92003F0AFFD002003F0ACFD22
:1028C000E02003F0A9FD002003F0A6FDF32003F0B3
:1028D000A3FD002003F0A0FDE12003F0A9FD1620D8
:1028E00003F09AFD002003F097FD1C2003F094FDF7
:1028F000002003F091FD222003F08EFD002003F064
:102900008BFD362003F088FD002003F085FD452077
:1029100003F082FD002003F07FFD522003F07CFDD8
:10292000002003F079FD642003F076FD002003F021
:1029300073FD7A2003F070FD002003F06DFD8B2005
:1029400003F06AFD002003F067FD992003F064FDA9
:10295000002003F061FDA82003F05EFD002003F0DD
:102960005BFDB92003F058FD002003F055FDC420A5
:1029700003F052FD002003F04FFDCA2003F04CFD90
:10298000002003F049FDD22003F046FD002003F0B3
:1029900043FDD82003F040FD002003F03DFDE02082
:1029A00003F03AFD002003F037FDF32003F034FD7F
:1029B000002003F031FDE22003F03AFD052003F092
:1029C0002BFD002003F028FD0B2003F025FD002047
:1029D00003F022FD1B2003F01FFD002003F01CFD6F
:1029E000342003F019FD002003F016FD442003F00D
:1029F00013FD002003F010FD4F2003F00DFD00201B
:102A000003F00AFD612003F007FD002003F004FD40
:102A1000792003F001FD002003F0FEFC882003F084
:102A2000FBFC002003F0F8FC972003F0F5FC0020ED
:102A300003F0F2FCA62003F0EFFC002003F0ECFC16
:102A4000B72003F0E9FC002003F0E6FCC22003F00D
:102A5000E3FC002003F0E0FCC72003F0DDFC0020D5
:102A600003F0DAFCD12003F0D7FC002003F0D4FC03
:102A7000D62003F0D1FC002003F0CEFCDD2003F0D3
:102A8000CBFC002003F0C8FCF32003F0C5FC0020C1
:102A900003F0C2FCE32003F0CBFC052003F0BCFCF8
:102AA000002003F0B9FC0A2003F0B6FC002003F07C
:102AB000B3FC1C2003F0B0FC002003F0ADFC33207D
:102AC00003F0AAFC002003F0A7FC442003F0A4FCC0
:102AD000002003F0A1FC502003F09EFC002003F036
:102AE0009BFC622003F098FC002003F095FC78200A
:102AF00003F092FC002003F08FFC882003F08CFC94
:102B0000002003F089FC972003F086FC002003F0EE
:102B100083FCA62003F080FC002003F07DFCB7209E
:102B200003F07AFC002003F077FCC22003F074FC71
:102B3000002003F071FCC72003F06EFC002003F0BE
:102B40006BFCD12003F068FC002003F065FCD5206D
:102B500003F062FC002003F05FFCDD2003F05CFC6E
:102B6000002003F059FCF32003F056FC002003F092
:102B700053FCE42003F05CFC012003F04DFC00203A
:102B800003F04AFC012003F047FC002003F044FC62
:102B9000022003F041FC002003F03EFC2A2003F059
:102BA0003BFC002003F038FC3C2003F035FC002007
:102BB00003F032FC4B2003F02FFC002003F02CFC30
:102BC0005D2003F029FC002003F026FC742003F0B4
:102BD00023FC002003F020FC842003F01DFC0020D7
:102BE00003F01AFC932003F017FC002003F014FC00
:102BF000A22003F011FC002003F00EFCB32003F030
:102C00000BFC002003F008FCBE2003F005FC0020B4
:102C100003F002FCC42003F0FFFB002003F0FCFBE8
:102C2000CD2003F0F9FB002003F0F6FBD32003F0E6
:102C3000F3FB002003F0F0FBDD2003F0EDFB0020B0
:102C400003F0EAFBF32003F0E7FB002003F0E4FBD2
:102C5000E52003F0EDFB002003F0DEFB002003F095
:102C6000DBFB002003F0D8FB002003F0D5FB0220A3
:102C700003F0D2FB002003F0CFFB292003F0CCFBB4
:102C8000002003F0C9FB3C2003F0C6FB002003F04A
:102C9000C3FB4B2003F0C0FB002003F0BDFB5D2015
:102CA00003F0BAFB002003F0B7FB742003F0B4FB81
:102CB000002003F0B1FB842003F0AEFB002003F002
:102CC000ABFB932003F0A8FB002003F0A5FBA220A0
:102CD00003F0A2FB002003F09FFBB32003F09CFB5A
:102CE000002003F099FBBE2003F096FB002003F0C8
:102CF00093FBC42003F090FB002003F08DFBCD205C
:102D000003F08AFB002003F087FBD32003F084FB51
:102D1000002003F081FBDC2003F07EFB002003F0A9
:102D20007BFBF32003F078FB002003F075FBE6202B
:102D300003F07EFB112003F06FFB002003F06CFB1F
:102D4000342003F069FB002003F066FB562003F0FB
:102D500063FB002003F060FB762003F05DFB0020A6
:102D600003F05AFB772003F057FB002003F054FBDD
:102D7000662003F051FB002003F04EFB882003F097
:102D80004BFB002003F048FB992003F045FB00209B
:102D900003F042FBBB2003F03FFB002003F03CFBB1
:102DA000992003F039FB002003F036FB662003F086
:102DB00033FB002003F030FB552003F02DFB0020F7
:102DC00003F02AFB552003F027FB002003F024FB2F
:102DD000452003F021FB002003F01EFB432003F0FD
:102DE0001BFB002003F018FB442003F015FB002020
:102DF00003F012FBE72003F01BFB322003F00CFB77
:102E0000002003F009FB552003F006FB002003F02F
:102E100003FB762003F000FB002003F0FDFA6620A0
:102E200003F0FAFA002003F0F7FA672003F0F4FA4F
:102E3000002003F0F1FA672003F0EEFA002003F01F
:102E4000EBFA872003F0E8FA002003F0E5FA992076
:102E500003F0E2FA002003F0DFFABB2003F0DCFA13
:102E6000002003F0D9FA992003F0D6FA002003F0ED
:102E7000D3FA772003F0D0FA002003F0CDFA4420F3
:102E800003F0CAFA002003F0C7FA562003F0C4FA90
:102E9000002003F0C1FA232003F0BEFA002003F063
:102EA000BBFA332003F0B8FA002003F0B5FA45204E
:102EB00003F0B2FA002003F0AFFAE82003F0B8FA0A
:102EC000002003F0A9FA002003F0A6FA992003F0ED
:102ED000A3FA002003F0A0FA872003F09DFA002057
:102EE00003F09AFA882003F097FA002003F094FA8E
:102EF000772003F091FA002003F08EFA662003F0A9
:102F00008BFA002003F088FA882003F085FA00206D
:102F100003F082FAAA2003F07FFA002003F07CFA83
:102F2000BB2003F079FA002003F076FA992003F031
:102F300073FA002003F070FA662003F06DFA0020A7
:102F400003F06AFA552003F067FA002003F064FAF0
:102F5000552003F061FA002003F05EFA442003F0EC
:102F60005BFA002003F058FA442003F055FA0020E1
:102F700003F052FA552003F04FFA002003F04CFA08
:102F8000E92003F055FAAA2003F046FA002003F0E6
:102F900043FA002003F040FA002003F03DFA00203D
:102FA00003F046FAAA2003F037FACF2003F040FAE4
:102FB000002003F031FA002003F02EFA002003F085
:102FC0002BFA002003F028FA002003F025FA002055
:102FD00003F022FA002003F01FFA002003F01CFA8D
:102FE000002003F019FA002003F016FA002003F085
:102FF00013FA002003F010FA002003F00DFA00206D
:1030000003F00AFA002003F007FA002003F004FAA4
:10301000002003F001FAF02003F00AFA002003F088
:10302000FBF9502003F0F8F9002003F0F5F9002037
:1030300003F0F2F9002003F0EFF9F32003F0F8F9C0
:10304000002003F0E9F9F92003F0F2F9062003F07B
:10305000E3F9102003F0E0F9292003F0DDF9002066
:1030600003F0DAF93A2003F0E3F9552003F0D4F93C
:10307000112003F0DDF9642005F00AFF292003F098
:10308000D7F9352003F0D4F9002003F0C5F9512019
:1030900003F0CEF9FF2003F0BFF9532003F0C8F985
:1030A0002C2003F0B9F9552003F0C2F9822003F077
:1030B000B3F92C2003F0BCF902F028B8FE48808850
:1030C00045F2105188427DD155214FF4704003F0F4
:1030D000C5F9AA214FF2010003F0C0F952214FF2C5
:1030E000020003F0BBF908214FF2030003F0B6F928
:1030F00001214FF2040003F0B1F90D214FF43040EB
:1031000003F0ACF90D214BF2010003F0A7F90D21FA
:103110004BF2020003F0A2F934214FF4364003F0E1
:103120009DF934214BF2016003F098F934214BF200
:10313000026003F093F90D214FF4314003F08EF952
:103140000D214BF2011003F089F90D214BF2021011
:1031500003F084F934214FF4374003F07FF9342130
:103160004BF2017003F07AF934214BF2027003F054
:1031700075F900214FF4324003F070F900214BF251
:10318000012003F06BF900214BF2022003F066F9F5
:1031900024214FF4384003F061F924214BF601005B
:1031A00003F05CF924214BF6020003F057F90121EA
:1031B0004FF43F4003F052F90F214FF4334003F036
:1031C0004DF900E0FDE30F214BF2013003F046F929
:1031D0000F214BF2023003F041F934214FF4394012
:1031E00003F03CF934214BF6011003F037F9342198
:1031F0004BF6021003F032F908214FF4354003F08A
:103200002DF908214BF2015003F028F908214BF267
:10321000025003F023F903214FF4424003F01EF95A
:1032200024214FF43A4003F019F924214BF60120F0
:1032300003F014F924214BF6022003F00FF90021CA
:103240004FF43C4003F00AF978214BF6014003F0BB
:1032500005F900214BF6024003F000F900214FF47C
:103260003D4003F0FBF878214BF6015003F0F6F8EF
:1032700000214BF6025003F0F1F800214FF43E40DC
:1032800003F0ECF864214BF6016003F0E7F800214D
:103290004FF4514003F0E2F833214DF2011003F0F6
:1032A000DDF800214DF2021003F0D8F834214DF280
:1032B000031003F0D3F800214DF2041003F0CEF810
:1032C0003A214DF2051003F0C9F800214DF2061025
:1032D00003F0C4F84A214DF2071003F0BFF80021B3
:1032E0004DF2081003F0BAF85C214DF2091003F01A
:1032F000B5F800214DF20A1003F0B0F881214DF22B
:103300000B1003F0ABF800214DF20C1003F0A6F8FF
:10331000A6214DF20D1003F0A1F800214DF20E1080
:1033200003F09CF8E5214DF20F1003F097F801210E
:103330004DF2101003F092F813214DF2111003F02A
:103340008DF801214DF2121003F088F854214DF24E
:10335000131003F083F801214DF2141003F07EF8EE
:1033600082214DF2151003F079F801214DF216106B
:1033700003F074F8CA214DF2171003F06FF8022120
:103380004DF2181003F06AF800214DF2191003F005
:1033900065F802214DF21A1003F060F801214DF298
:1033A0001B1003F05BF802214DF21C1003F056F8DD
:1033B00034214DF21D1003F051F802214DF21E1080
:1033C00003F04CF867214DF21F1003F047F802217B
:1033D0004DF2201003F042F884214DF2211003F049
:1033E0003DF802214DF2221003F038F8A4214DF2ED
:1033F000231003F033F802214DF2241003F02EF8CD
:10340000B7214DF2251003F029F802214DF22610C4
:1034100003F024F8CF214DF2271003F01FF802210A
:103420004DF2281003F01AF8DE214DF2291003F0B6
:1034300015F802214DF22A1003F010F8F2214DF296
:103440002B1003F00BF802214DF22C1003F006F8BC
:10345000FE214DF22D1003F001F803214DF22E1044
:1034600002F0FCFF10214DF22F1002F0F7FF0321B4
:103470004DF2301002F0F2FF33214DF2311002F024
:10348000EDFF03214DF2321002F0E8FF6D214DF205
:10349000331002F0E3FF00214FF4524002F0DEFF50
:1034A00033214DF2012002F0D9FF00214DF202201C
:1034B00002F0D4FF342101E0540000204DF203203B
:1034C00002F0CCFF00214DF2042002F0C7FF3A21A8
:1034D0004DF2052002F0C2FF00214DF2062002F05D
:1034E000BDFF4A214DF2072002F0B8FF00214DF246
:1034F000082002F0B3FF5C214DF2092002F0AEFF7C
:1035000000214DF20A2002F0A9FF81214DF20B208B
:1035100002F0A4FF00214DF20C2002F09FFFA62133
:103520004DF20D2002F09AFF00214DF20E2002F024
:1035300095FFE5214DF20F2002F090FF01214DF2A1
:10354000102002F08BFF13214DF2112002F086FFB4
:1035500001214DF2122002F081FF54214DF213207F
:1035600002F07CFF01214DF2142002F077FF82214E
:103570004DF2152002F072FF01214DF2162002F0EB
:103580006DFFCA214DF2172002F068FF02214DF2B3
:10359000182002F063FF00214DF2192002F05EFFB7
:1035A00002214DF21A2002F059FF01214DF21B2099
:1035B00002F054FF02214DF21C2002F04FFF342193
:1035C0004DF21D2002F04AFF02214DF21E2002F0B2
:1035D00045FF67214DF21F2002F040FF02214DF20E
:1035E000202002F03BFF84214DF2212002F036FF23
:1035F00002214DF2222002F031FFA4214DF22320BE
:1036000002F02CFF02214DF2242002F027FFB72107
:103610004DF2252002F022FF02214DF2262002F079
:103620001DFFCF214DF2272002F018FF02214DF29D
:10363000282002F013FFDE214DF2292002F00EFFB8
:1036400002214DF22A2002F009FFF2214DF22B2037
:1036500002F004FF02214DF22C2002F0FFFEFE21B9
:103660004DF22D2002F0FAFE03214DF22E2002F041
:10367000F5FE10214DF22F2002F0F0FE03214DF255
:10368000302002F0EBFE33214DF2312002F0E6FE55
:1036900003214DF2322002F0E1FE6D214DF2332084
:1036A00002F0DCFE00214FF4534002F0D7FE33213C
:1036B0004DF2013002F0D2FE00214DF2023002F054
:1036C000CDFE34214DF2033002F0C8FE00214DF250
:1036D000043002F0C3FE3A214DF2053002F0BEFE86
:1036E00000214DF2063002F0B9FE4A214DF20730BA
:1036F00002F0B4FE00214DF2083002F0AFFE5C2172
:103700004DF2093002F0AAFE00214DF20A3002F01B
:10371000A5FE81214DF20B3002F0A0FE00214DF2FA
:103720000C3002F09BFEA6214DF20D3002F096FE09
:1037300000214DF20E3002F091FEE5214DF20F30E6
:1037400002F08CFE01214DF2103002F087FE1321B1
:103750004DF2113002F082FE01214DF2123002F0E2
:103760007DFE54214DF2133002F078FE01214DF21E
:10377000143002F073FE82214DF2153002F06EFE1D
:1037800001214DF2163002F069FECA214DF21730C8
:1037900002F064FE02214DF2183002F05FFE0021BB
:1037A0004DF2193002F05AFE02214DF21A3002F0A9
:1037B00055FE01214DF21B3002F050FE02214DF268
:1037C0001C3002F04BFE34214DF21D3002F046FE5B
:1037D00002214DF21E3002F041FE67214DF21F30F2
:1037E00002F03CFE02214DF2203002F037FE84212F
:1037F0004DF2213002F032FE02214DF2223002F071
:103800002DFEA4214DF2233002F028FE02214DF2BC
:10381000243002F023FEB7214DF2253002F01EFEC7
:1038200002214DF2263002F019FECF214DF2273051
:1038300002F014FE02214DF2283002F00FFEDE21CC
:103840004DF2293002F00AFE02214DF22A3002F038
:1038500005FEF2214DF22B3002F000FE02214DF266
:103860002C3002F0FBFDFE214DF22D3002F0F6FD72
:1038700003214DF22E3002F0F1FD10214DF22F30D8
:1038800002F0ECFD03214DF2303002F0E7FD332170
:103890004DF2313002F0E2FD03214DF2323002F000
:1038A000DDFD6D214DF2333002F0D8FD00214FF4E3
:1038B000544002F0D3FD33214DF2014002F0CEFD21
:1038C00000214DF2024002F0C9FD34214DF20340C7
:1038D00002F0C4FD00214DF2044002F0BFFD3A2188
:1038E0004DF2054002F0BAFD00214DF2064002F013
:1038F000B5FD4A214DF2074002F0B0FD00214DF226
:10390000084002F0ABFD5C214DF2094002F0A6FD3B
:1039100000214DF20A4002F0A1FD81214DF20B4041
:1039200002F09CFD00214DF20C4002F097FDA62113
:103930004DF20D4002F092FD00214DF20E4002F0DA
:103940008DFDE5214DF20F4002F088FD01214DF281
:10395000104002F083FD13214DF2114002F07EFD74
:1039600001214DF2124002F079FD54214DF2134035
:1039700002F074FD01214DF2144002F06FFD82212E
:103980004DF2154002F06AFD01214DF2164002F0A1
:1039900065FDCA214DF2174002F060FD02214DF293
:1039A000184002F05BFD00214DF2194002F056FD77
:1039B00002214DF21A4002F051FD01214DF21B404F
:1039C00000E006E302F04AFD02214DF21C4002F045
:1039D00045FD34214DF21D4002F040FD02214DF223
:1039E0001E4002F03BFD67214DF21F4002F036FD04
:1039F00002214DF2204002F031FD84214DF22140A0
:103A000002F02CFD02214DF2224002F027FDA421FC
:103A10004DF2234002F022FD02214DF2244002F03B
:103A20001DFDB7214DF2254002F018FD02214DF297
:103A3000264002F013FDCF214DF2274002F00EFD8B
:103A400002214DF2284002F009FDDE214DF229400D
:103A500002F004FD02214DF22A4002F0FFFCF221A7
:103A60004DF22B4002F0FAFC02214DF22C4002F004
:103A7000F5FCFE214DF22D4002F0F0FC03214DF249
:103A80002E4002F0EBFC10214DF22F4002F0E6FC3C
:103A900003214DF2304002F0E1FC33214DF2314080
:103AA00002F0DCFC03214DF2324002F0D7FC6D2124
:103AB0004DF2334002F0D2FC00214FF4554002F0A9
:103AC000CDFC33214DF2015002F0C8FC00214DF233
:103AD000025002F0C3FC34214DF2035002F0BEFC50
:103AE00000214DF2045002F0B9FC3A214DF205508C
:103AF00002F0B4FC00214DF2065002F0AFFC4A2166
:103B00004DF2075002F0AAFC00214DF2085002F0DD
:103B1000A5FC5C214DF2095002F0A0FC00214DF201
:103B20000A5002F09BFC81214DF20B5002F096FCF2
:103B300000214DF20C5002F091FCA6214DF20D50E7
:103B400002F08CFC00214DF20E5002F087FCE521C2
:103B50004DF20F5002F082FC01214DF2105002F0A4
:103B60007DFC13214DF2115002F078FC01214DF241
:103B7000125002F073FC54214DF2135002F06EFC0F
:103B800001214DF2145002F069FC82214DF21550D2
:103B900002F064FC01214DF2165002F05FFCCA21D4
:103BA0004DF2175002F05AFC02214DF2185002F06B
:103BB00055FC00214DF2195002F050FC02214DF24B
:103BC0001A5002F04BFC01214DF21B5002F046FC52
:103BD00002214DF21C5002F041FC34214DF21D50E7
:103BE00002F03CFC02214DF21E5002F037FC67212E
:103BF0004DF21F5002F032FC02214DF2205002F033
:103C00002DFC84214DF2215002F028FC02214DF2BE
:103C1000225002F023FCA4214DF2235002F01EFC9E
:103C200002214DF2245002F019FCB7214DF225502B
:103C300002F014FC02214DF2265002F00FFCCF21BD
:103C40004DF2275002F00AFC02214DF2285002F0FA
:103C500005FCDE214DF2295002F000FC02214DF25C
:103C60002A5002F0FBFBF2214DF22B5002F0F6FB42
:103C700002214DF22C5002F0F1FBFE214DF22D50AD
:103C800002F0ECFB03214DF22E5002F0E7FB102175
:103C90004DF22F5002F0E2FB03214DF2305002F0C2
:103CA000DDFB33214DF2315002F0D8FB03214DF200
:103CB000325002F0D3FB6D214DF2335002F0CEFBB7
:103CC00000214FF4564002F0C9FB33214DF2016050
:103CD00002F0C4FB00214DF2026002F0BFFB342170
:103CE0004DF2036002F0BAFB00214DF2046002F0D5
:103CF000B5FB3A214DF2056002F0B0FB00214DF218
:103D0000066002F0ABFB4A214DF2076002F0A6FB11
:103D100000214DF2086002F0A1FB5C214DF2096028
:103D200002F09CFB00214DF20A6002F097FB81211A
:103D30004DF20B6002F092FB00214DF20C6002F09C
:103D40008DFBA6214DF20D6002F088FB00214DF2A3
:103D50000E6002F083FBE5214DF20F6002F07EFB66
:103D600001214DF2106002F079FB13214DF2116038
:103D700002F074FB01214DF2126002F06FFB54213E
:103D80004DF2136002F06AFB01214DF2146002F063
:103D900065FB82214DF2156002F060FB01214DF2BE
:103DA000166002F05BFBCA214DF2176002F056FB71
:103DB00002214DF2186002F051FB00214DF2196012
:103DC00002F04CFB02214DF21A6002F047FB012188
:103DD0004DF21B6002F042FB02214DF21C6002F02A
:103DE0003DFB34214DF21D6002F038FB02214DF203
:103DF0001E6002F033FB67214DF21F6002F02EFBC4
:103E000002214DF2206002F029FB84214DF2216055
:103E100002F024FB02214DF2226002F01FFBA421DC
:103E20004DF2236002F01AFB02214DF2246002F0F1
:103E300015FBB7214DF2256002F010FB02214DF277
:103E4000266002F00BFBCF214DF2276002F006FB4B
:103E500002214DF2286002F001FBDE214DF22960C3
:103E600002F0FCFA02214DF22A6002F0F7FAF22188
:103E70004DF22B6002F0F2FA02214DF22C6002F0BA
:103E8000EDFAFE214DF22D6002F0E8FA03214DF229
:103E90002E6002F0E3FA10214DF22F6002F0DEFAFC
:103EA00003214DF2306002F0D9FA33214DF2316036
:103EB00002F0D4FA03214DF2326002F0CFFA6D2104
:103EC0004DF2336002F0CAFA55214FF4704002F00F
:103ED000C5FAAA214FF2010002F0C0FA52214FF2B6
:103EE000020002F0BBFA08214FF2030002F0B6FA1A
:103EF00000214FF2040002F0B1FACC214FF431401E
:103F000002F0ACFA00214BF2011002F0A7FA0521F1
:103F10004FF4364002F0A2FA70214FF4374002F01D
:103F20009DFA70214BF2017002F098FA01214FF4D2
:103F3000384002F093FA03214BF6010002F08EFAAA
:103F400003214BF6020002F089FA03214BF603002D
:103F500002F084FA02214FF43C4002F07FFA002183
:103F60004BF6014002F07AFA00214BF6024002F0D3
:103F700075FAD0214FF4494002F070FA02214CF654
:103F8000011002F06BFA50214CF6021002F066FAB2
:103F900050214CF6031002F061FA50214CF6041047
:103FA00002F05CFA00214FF4545002F057FA552108
:103FB0004FF4685002F052FA4FF4885002F038FA89
:103FC000782004F081FF4FF4245002F031FA01F020
:103FD0009DB8FE48808849F2253188427ED147F657
:103FE000F001E52002F03AFA4FF48071012002F06E
:103FF00035FA4FF4E061022002F030FA41F230016C
:10400000032002F02BFA0021042002F027FA40F2EC
:104010000221082002F022FA0021092002F01EFAF3
:1040200000210A2002F01AFA00210C2002F016FAF0
:1040300000210D2002F012FA00210F2002F00EFAEA
:104040000021102002F00AFA0721112002F006FADE
:104050000021122002F002FA0021132002F0FEF9E2
:104060000021072002F0FAF941F29061102002F0DD
:10407000F5F940F22721112002F0F0F99D211220DC
:1040800002F0ECF94FF4C851132002F0E7F92521B2
:10409000292002F0E3F90D212B2002F0DFF907219E
:1040A000302002F0DBF940F20331312002F0D6F982
:1040B0000321322002F0D2F940F20621352002F02D
:1040C000CDF90821362002F0C9F940F20641372027
:1040D00002F0C4F94FF44171382000E057E002F0DB
:1040E000BDF90721392002F0B9F940F202613C2004
:1040F00002F0B4F908213D2002F0B0F9002150206F
:1041000002F0ACF9EF21512002F0A8F90021522071
:1041100002F0A4F940F23F11532002F09FF94FF44E
:104120002741602002F09AF90121612002F096F9FE
:1041300000216A2002F092F90021802002F08EF91D
:104140000021812002F08AF90021822002F086F904
:104150000021832002F082F90021842002F07EF900
:104160000021852002F07AF91021902002F076F9E2
:104170004FF4C061922002F071F940F23311072030
:1041800002F06CF92221002002F068F91FE78F4845
:10419000808849F2283188427ED141F28F01EC209B
:1041A00002F05CF941F23421EF2002F057F94FF4AC
:1041B0008071012002F052F94FF4E061022002F018
:1041C0004DF941F23001032002F048F900210420AA
:1041D00002F044F940F20221082002F03FF90021E8
:1041E000092002F03BF900210A2002F037F90121F1
:1041F0000C2002F033F900210D2002F02FF90021EC
:104200000F2002F02BF90021102002F027F90721DE
:10421000112002F023F90021122002F01FF90021E1
:10422000132002F01BF90121072002F017F93220B8
:1042300004F02EFE41F29041102002F00FF940F2FE
:104240002721112002F00AF9322004F021FE8A21F0
:10425000122002F003F9322004F01AFE4FF4D0517C
:10426000132002F0FBF80621292002F0F7F80D21B7
:104270002B2002F0F3F8322004F00AFE0021202067
:1042800002F0ECF80021212002F0E8F8322004F0DE
:10429000FFFD0021302000E074E002F0DFF840F282
:1042A0000461312002F0DAF840F20531322002F0E8
:1042B000D5F80021352002F0D1F840F6094136202A
:1042C00002F0CCF84FF40171372002F0C7F840F249
:1042D0000131382002F0C2F840F20771392002F0B3
:1042E000BDF800213C2002F0B9F840F60A213D203B
:1042F00002F0B4F8322004F0CBFD0021502002F08F
:10430000ADF8EF21512002F0A9F80021522002F06F
:10431000A5F840F23F11532002F0A0F84FF42741D6
:10432000602002F09BF80121612002F097F8002143
:104330006A2002F093F80021802002F08FF800211B
:10434000812002F08BF80021822002F087F8002102
:10435000832002F083F80021842002F07FF80021FE
:10436000852002F07BF81021902002F077F84FF4BE
:10437000C061922002F072F840F23311072002F07F
:104380006DF824E61148808849F2203188427DD1B9
:104390000021084602F062F84FF48071012002F01B
:1043A0005DF84FF4E061022002F058F841F230016C
:1043B000032002F053F80021042002F04FF840F2ED
:1043C0000221082002F04AF8002101E054000020F8
:1043D000092002F043F800210A2002F03FF80121F1
:1043E0000C2002F03BF800210D2002F037F80021EC
:1043F0000F2002F033F8322004F04AFD40F20111A0
:10440000072002F02BF8322004F042FD4FF48651D1
:10441000102002F023F80721112002F01FF84FF4BA
:104420008871122002F01AF84FF43061132002F064
:1044300015F80021292002F011F844F210012B2078
:1044400002F00CF80021502002F008F8EF21512072
:1044500002F004F80021522002F000F840F23F116F
:10446000532001F0FBFF4FF41C51602001F0F6FFD8
:104470000121612001F0F2FF00216A2001F0EEFF2E
:104480000021802001F0EAFF002100E031E08120DE
:1044900001F0E4FF0021822001F0E0FF00218320F1
:1044A00001F0DCFF0021842001F0D8FF00218520ED
:1044B00001F0D4FF1021902001F0D0FF00219220C4
:1044C00001F0CCFF0121932001F0C8FF4FF4887167
:1044D000952001F0C3FF0021972001F0BFFF0021CC
:1044E000982001F0BBFF40F27311072001F0B6FFE6
:1044F0006DE5FE48808849F2313188427DD141F234
:104500001401E72001F0AAFF4FF48071012001F0AF
:10451000A5FF4FF40071022001F0A0FF41F2380125
:10452000032001F09BFF40F20221082001F096FFDA
:104530000021092001F092FF00210A2001F08EFFE6
:1045400000210C2001F08AFF00210D2001F086FFE0
:1045500000210F2001F082FF0021102001F07EFFDA
:104560000721112001F07AFF0021122001F076FFCF
:104570000021132001F072FFC82004F089FC41F2F1
:104580009061102001F06AFF40F22721112001F014
:1045900065FF322004F07CFC0C21122001F05EFF4C
:1045A000322004F075FC4FF40061132001F056FF37
:1045B0001121292001F052FF0B212B2001F04EFF89
:1045C000322004F065FC0021202001F047FF40F27A
:1045D0003F11212001F042FF0021302001F03EFF79
:1045E0004FF48371312001F039FF0021322001F0B6
:1045F00035FF4FF40171352000E064E001F02EFF3B
:1046000041F20A61362001F029FF40F2077137209C
:1046100001F024FF4FF48371382001F01FFF40F2B6
:104620000771392001F01AFF40F202413C2001F0ED
:1046300015FF40F60F413D2001F010FF00215020F2
:1046400001F00CFFEF21512001F008FF0021522062
:1046500001F004FF40F23F11532001F0FFFE4FF440
:104660001C51602001F0FAFE0121612001F0F6FEEC
:1046700000216A2001F0F2FE0021802001F0EEFE10
:104680000021812001F0EAFE0021822001F0E6FEF7
:104690000021832001F0E2FE0021842001F0DEFEF3
:1046A0000021852001F0DAFE1021902001F0D6FED5
:1046B0004FF4C061922001F0D1FE40F23311072087
:1046C00001F0CCFE83E48948808845F208418842A5
:1046D0007ED14FF48071012001F0C0FE4FF4E06103
:1046E000022001F0BBFE41F23001032001F0B6FED2
:1046F0000021042001F0B2FE40F20721082001F061
:10470000ADFE0021092001F0A9FE00210A2001F0E0
:10471000A5FE00210C2001F0A1FE00210D2001F0DA
:104720009DFE00210F2001F099FE142004F0B0FB43
:1047300041F2B061102001F091FE0121112001F041
:104740008DFE0121172001F089FE4FF49C7112208B
:1047500001F084FE4FF40061132001F07FFE092177
:10476000292001F07BFE09212A2001F077FE00219B
:10477000A42001F073FE0021502001F06FFEEF2114
:10478000512001F06BFE0021522001F067FE40F243
:104790003F11532001F062FE4FF41C51602001F0E4
:1047A0005DFE0121612001F059FE00216A2001F027
:1047B00055FE0021802001F051FE0021812001F0F2
:1047C0004DFE0021822001F049FE0021832000E0FF
:1047D00023E001F043FE0021842001F03FFE002190
:1047E000852001F03BFE1321902001F037FE0021CF
:1047F000922001F033FE0321932001F02FFE4FF4AD
:104800008871952001F02AFE40F27311072001F013
:1048100025FE322004F03CFBB8E43448808841F2A5
:10482000055188427ED10021072001F017FE322079
:1048300004F02EFB4FF48E71122001F00FFE0121C7
:10484000A42001F00BFE0F21082001F007FE082133
:104850000A2001F003FE08210D2001F0FFFD40F2C7
:104860000771302001F0FAFD0721312001F0F6FD3B
:1048700040F20361322001F0F1FD4FF4E06133209A
:1048800001F0ECFD40F20221342001F0E7FD0221AD
:10489000352001F0E3FD41F60F71362001F0DEFD19
:1048A00040F20771372001F0D9FD0021382001F0D6
:1048B000D5FD0021392001F0D1FD40F207713A20E9
:1048C00001F0CCFD00213B2001F0C8FD07213C2078
:1048D00001F0C4FD00213D2001F0C0FD322004F0B4
:1048E000D7FA0121072001F0B9FD01E054000020B2
:1048F0000121172001F0B2FD322004F0C9FA4FF473
:10490000BD51102001F0AAFD40F21721112001F045
:10491000A5FD4FF48F71122001F0A0FD4FF47061DE
:10492000132000E097E001F099FD00212A2001F01A
:1049300095FD0A21292001F091FD4FF49F7112206D
:1049400001F08CFD0021502001F088FDEF21512065
:1049500001F084FD0021522001F080FD40F23F1162
:10496000532001F07BFD4FF41C51602001F076FDD7
:104970000121612001F072FD00216A2001F06EFD2D
:104980000021802001F06AFD0021812001F066FDF8
:104990000021822001F062FD0021832001F05EFDF4
:1049A0000021842001F05AFD0021852001F056FDF0
:1049B0001321902001F052FD4FF44071922001F03C
:1049C0004DFD0521932001F049FD0021952001F0C6
:1049D00045FD0021972001F041FD0021982001F0C4
:1049E0003DFD4FF48071012001F038FD4FF4E0618E
:1049F000022001F033FD41F23801032001F02EFDC9
:104A00000021042001F02AFD00210C2001F026FDE8
:104A100000210F2001F022FD0021202001F01EFDC9
:104A20000021212001F01AFD2121072001F016FDAF
:104A3000142004F02DFA6121072001F00FFD14204D
:104A400004F026FA40F27311072001F007FD14204C
:104A500004F01EFA5AE3FE4880884BF20551884262
:104A60007ED10021084601F0F9FC0021084601F042
:104A7000F5FC0021084601F0F1FC0021084601F098
:104A8000EDFC0121A42001F0E9FC142004F000FA5F
:104A90004FF41C51602001F0E1FC40F2022108209B
:104AA00001F0DCFC4FF40571302001F0D7FC43F23B
:104AB0001571312001F0D2FC40F20461322001F086
:104AC000CDFC40F61661332001F0C8FC42F2112102
:104AD000342001F0C3FC4FF4A851352001F0BEFC96
:104AE00048F20751362001F0B9FC41F20741372066
:104AF00001F0B4FC41F20341382001F0AFFC202169
:104B0000392001F0ABFC1A21902001F0A7FC002114
:104B1000102001F0A3FC0721112001F09FFC0021CF
:104B2000122001F09BFC0021132001F097FC1420BF
:104B300004F0AEF94FF4E661102001F08FFC40F272
:104B40003711112001F08AFC142004F0A1F94FF470
:104B5000DC71122001F082FC142004F099F900E0CD
:104B600083E04FF47061132001F078FC80212A204B
:104B700001F074FC4821292001F070FC142004F09D
:104B800087F94FF48071012001F068FC4FF4E06177
:104B9000022001F063FC41F23801032001F05EFCC9
:104BA00040F20221082001F059FC00210A2001F006
:104BB00055FC00210C2001F051FC00210D2001F0DA
:104BC0004DFC30210E2001F049FC0021502001F065
:104BD00045FCEF21512001F041FC0021522001F061
:104BE0003DFC40F23F11532001F038FC4FF41C51C2
:104BF000602001F033FC0121612001F02FFC002135
:104C00006A2001F02BFC1121902001F027FC4FF4C9
:104C1000C061922001F022FC40F20241932001F099
:104C20001DFC0221942001F019FC142004F030F93D
:104C30000121072001F012FC142004F029F9612160
:104C4000072001F00BFC40F27311072001F006FC75
:104C50000021202001F002FC0021212001F0FEFBB8
:104C60002221002001F0FAFB50E2794880884CF2C2
:104C7000055188427ED10021084601F0EFFB00215A
:104C8000084601F0EBFB142004F002F9002108466D
:104C900001F0E4FB0021084601F0E0FB002108469A
:104CA00001F0DCFB0021084601F0D8FB0121A42023
:104CB00001F0D4FB142004F0EBF84FF41C516020F9
:104CC00001F0CCFB40F60601082001F0C7FB40F2E2
:104CD0000371302001F0C2FB0121312001F0BEFB45
:104CE0000421322001F0BAFB4FF48171332001F02E
:104CF000B5FB4FF44071342001F0B0FB40F20311DA
:104D0000352001F0ABFB1F21362001F0A7FB40F25C
:104D10000371372001F0A2FB0121382001F09EFB36
:104D20000421392001F09AFB1521902001F096FB17
:104D30004FF48261102001F091FB40F247211120D5
:104D400001F08CFB4FF4DE71122001F087FB4FF471
:104D50006061132001F082FB782004F099F84FF491
:104D60008071012001F07AFB4FF40071022001F004
:104D700075FB00E050E041F23001032001F06EFBD2
:104D800008210A2001F06AFB00210C2001F066FBDB
:104D900020210E2001F062FB00210F2001F05EFBBC
:104DA0000021202001F05AFB0021212001F056FBB8
:104DB0003D212A2001F052FB142004F069F82D2136
:104DC000292001F04BFB0021502001F047FB4DF260
:104DD000EF01512001F042FB0021522001F03EFB87
:104DE00040F23F11532001F039FB0021612001F016
:104DF00035FB00216A2001F031FB4FF44071922015
:104E000001F02CFB0521932001F028FB4FF4807169
:104E1000072001F023FB79E10D48808844F23151ED
:104E200088427CD10121002001F018FB0A2004F007
:104E30002FF841F22861102001F010FB0E21122002
:104E400001F00CFB40F63921132001F007FB01E0D3
:104E5000540000200A2004F01BF84021112001F02A
:104E6000FDFA5021152001F0F9FA0A2004F010F89B
:104E70001E21122001F0F2FA0A2004F009F84FF482
:104E8000B151102001F0EAFA42F63921132001F065
:104E9000E5FA0A2003F0FCFF4FF48071012001F0D5
:104EA000DDFA4FF44071022001F0D8FA41F23801E6
:104EB000032001F0D3FA40F20221082001F0CEFADB
:104EC00008210A2001F0CAFA0021302001F0C6FAB8
:104ED00040F20241312001F0C1FA4FF483713220D7
:104EE00001F0BCFA40F20351332001F0B7FA4FF45D
:104EF0008271342001F0B2FA40F20131352001F024
:104F0000ADFA40F20771362001F0A8FA40F20531FF
:104F1000372001F0A3FA4FF40271382000E040E09E
:104F200001F09CFA40F60B71392001F097FA02214A
:104F3000412001F093FA4FF41C51602001F08EFAE9
:104F40000121612001F08AFA4FF40471902001F0F0
:104F500085FA4FF48571922001F080FA04219320A4
:104F600001F07CFA4FF48071A02001F077FA012162
:104F7000072001F073FA2121072001F06FFA2321A5
:104F8000072001F06BFA3321072001F067FA40F2A5
:104F90003311072001F062FA0021A02001F05EFA2F
:104FA000B4E06048808844F235518842F8D130211D
:104FB000152001F053FA10219A2001F04FFA202118
:104FC000112001F04BFA43F22841102001F046FA7B
:104FD0000221122001F042FA41F23801132001F0BF
:104FE0003DFA282003F054FF1221084601F036FA5A
:104FF000282003F04DFF43F22041102001F02EFA4B
:1050000043F23801132001F029FA462003F040FF53
:105010000021302001F022FA40F20241312001F05B
:105020001DFA40F20731322001F018FA4FF44171B5
:10503000332001F013FA0421342001F00FFA40F27A
:105040000141352001F00AFA40F20771362001F0E3
:1050500005FA40F20531372001F000FA4FF4C26141
:10506000382001F0FBF94FF4C261392001F0F6F964
:105070004FF48071012001F0F1F94FF440710220EA
:1050800001F0ECF941F23001032001F0E7F940F6BC
:105090000801082001F0E2F908210A2001F0DEF9F8
:1050A0004FF41C51602001F0D9F90121612001F079
:1050B000D5F94FF49F71902001F0D0F94FF4807131
:1050C000922001F0CBF94FF48071932001F0C6F9E2
:1050D0004FF44051A02001F0C1F91021A32001F0AC
:1050E000BDF90121072001F0B9F92121072001F0C4
:1050F000B5F92321072001F0B1F93321072001F090
:10510000ADF940F23311072001F0A8F90020FCF7B7
:1051100001FB0120044908604FF6FF70FCF7C4FA58
:1051200021B000BD54000020BC82404210B50246B0
:10513000012000E050430B00A1F10104E1B2F9D1DC
:1051400010BD000008B5034800880090BDF80000BD
:1051500008BD00008000006C01B5BDF8000001F042
:1051600067F9052003F0B0FEFFF7ECFF08BD000073
:10517000F0B5054600240027A748807901281ED1F4
:10518000A548808846F60401884218D0082D15D21B
:10519000DFE805F00406080A0C0E101206250DE0E3
:1051A00007250BE0042509E0052507E0012505E0BA
:1051B000002503E0032501E0022500BF00BF96485B
:1051C000808849F24131884211D09348808846F660
:1051D000040188420BD09048808845F21031884203
:1051E00005D08D48808845F2105188427ED1082D27
:1051F0001CD2DFE805F00406090C0F12151800BFD9
:1052000014E044F0800411E044F040040EE044F067
:10521000C0040BE044F0200408E044F0600405E022
:1052200044F0A00402E044F0E00400BF00BF7A486C
:10523000808845F21051884202D14FF4585700E05F
:1052400036277548808845F21031884207D0724869
:10525000808845F21051884201D044F008046E481D
:10526000808846F60401884201D144F002042146B8
:10527000384601F0F3F804F0200068B16648008871
:1052800065494988884214DA63480688408862493B
:105290000880084646800CE05F4800885E494988DF
:1052A000884206DD5C48068840885B4908800846DD
:1052B00046805948808845F21051884254D1564959
:1052C000488901F0B5F8002001F0A6F85249498953
:1052D000491C88B201F0ACF8002001F09DF84E495D
:1052E0004989891C88B201F0A3F800E06BE04A49C3
:1052F0000988491EC1F30F2001F08EF846494989FB
:10530000C91C88B201F094F843490978491EC8B213
:1053100001F082F84049888901F08AF8002001F004
:105320007BF83D498989491C88B201F081F8002049
:1053300001F072F838498989891C88B201F078F83F
:1053400035494988491EC1F30F2001F065F83249FB
:105350008989C91C88B201F06BF82F498978491EE8
:10536000C8B201F059F855E02B49488901F060F8BE
:10537000002001F051F8002001F04EF8264909887C
:10538000491EC1F30F2001F047F823490978491E4F
:10539000C8B201F041F82049888901F049F800209D
:1053A00001F03AF8002001F037F81B494988491EFE
:1053B000C1F30F2001F030F817498978491EC8B2AF
:1053C00001F02AF826E0082D1CD2DFE805F00407DA
:1053D0000A0D0F12151844F0300413E044F01004C5
:1053E00010E044F020040DE000BF0BE044F038046E
:1053F00008E044F0280405E044F0180402E044F01A
:10540000080400BF00BF032744F4805421463846F7
:1054100001F024F8F0BD00005400002030B504462F
:105420000D464048808849F24131884205D03D48C8
:10543000808845F21031884214D13A49488900F0F9
:10544000F7FF201200F0E8FFE0B200F0E5FF354979
:10545000888900F0EDFF281200F0DEFFE8B200F0CE
:10546000DBFF5DE02F48808846F6040188421DD1AD
:105470002C488079012804D12A480088401E001B4E
:1054800084B22849488900F0D3FF201200F0C4FFFD
:10549000E0B200F0C1FF2349888900F0C9FF28125B
:1054A00000F0BAFFE8B200F0B7FF39E01D4880888D
:1054B00045F21051884220D11A49488900F0B8FFBE
:1054C000201200F0A9FF17494989491C88B200F051
:1054D000AFFFE0B200F0A0FF1249888900F0A8FFFA
:1054E000281200F099FF0F498989491C88B200F001
:1054F0009FFFE8B200F090FF12E00A48807901288F
:1055000004D108480088401E001B84B20549488920
:10551000214600F0A3FF03498889294600F09EFF39
:1055200030BD0000540000202DE9F84F80460E46A3
:1055300017461C46B3462046E31704EB5373DB10B3
:1055400021464FEAE47C04EB5C7C4FEAEC0CA4EBD4
:10555000CC0CBCF1000F02D04FF0010C01E04FF079
:10556000000C6344224604EBD27C4FEA6C0C03FB34
:105570000CF3DBB20093A7F12000C7B2002556E080
:105580000C2C07D107EB47002B4901EB800010F8EA
:10559000059013E0102C05D1284800EB071010F8F7
:1055A00005900BE0182C07D107EBC700244901EB4D
:1055B000800010F8059001E0BDE8F88F4FF0000A78
:1055C0002FE009F0800030B11E4802883146404685
:1055D000FCF758F907E00A9828B91B4802883146B9
:1055E0004046FCF74FF94FEA49604FEA1069701CDA
:1055F00086B216484088B04200DCDDE7A6EB0B001F
:10560000A0420AD15E4608F101001FFA80F80F4857
:105610000088404500DCCFE706E00AF1010000F019
:10562000FF0ABAF1080FCCDB00BF681CC5B20098B6
:105630008542A5DB00BFBFE7D09200084497000871
:10564000349D0008100000201200002054000020AB
:105650002DE9F84704460D4690469946DDE909676D
:1056600004F0FF0A08EB04001FFA80F809EB0500BC
:105670001FFA80F916E0444502DB5446A81985B2AA
:105680004D4500DB14E0002000903A78334629466F
:105690002046FFF749FF304606EBD07104EB61016D
:1056A0008CB27F1C38787E2802DC38782028E2DA39
:1056B00000BFBDE8F88700000CB51F20974908809F
:1056C00097A010210B46C822CDE90010AA211E2068
:1056D000FFF7BEFF95A010210B46C822CDE90010B0
:1056E00011461E20FFF7B4FF96A010210B46C822DA
:1056F000CDE90010DC211E20FFF7AAFF97A01021A2
:105700000B46C822CDE90010F0211E20FFF7A0FFB4
:1057100098A010210B46C822CDE900101146E620C2
:10572000FFF796FF99A010210B46C822CDE9001083
:10573000DC21E620FFF78CFF9AA010210B46C8223F
:10574000CDE90010F021E620FFF782FF9BA0102199
:105750000B46C822CDE900104FF48271E620FFF716
:1057600077FF98A010210B46C822CDE900104FF416
:105770008C71E620FFF76CFF94A010210B46C82225
:10578000CDE900104FF49671E620FFF761FF91A07C
:1057900010210B46C822CDE900104FF482711E2063
:1057A000FFF756FF90A010210B46C822CDE900104C
:1057B0004FF48C711E20FFF74BFF8DA010210B467C
:1057C000C822CDE900104FF496711E20FFF740FF6C
:1057D00089A010210B46C822CDE900104FF4A0711A
:1057E0001E20FFF735FF85A010210B46C822CDE90A
:1057F00000104FF4AA711E20FFF72AFF80A010218D
:105800000B46C822CDE900104FF4B4711E20FFF7FB
:105810001FFF7CA010210B46C822CDE900104FF4D9
:10582000BE711E20FFF714FF78A010210B46C8227E
:10583000CDE900104FF4E1711E20FFF709FF78A0B9
:1058400010210B46C822CDE900104FF4EB711E2049
:10585000FFF7FEFE75A010210B46C822CDE900100F
:105860004FF4F5711E20FFF7F3FE74A010210B46D4
:10587000C822CDE900104FF4FF711E20FFF7E8FEAB
:1058800071A010210B46C822CDE9001040F2122170
:105890001E20FFF7DDFE6EA010210B46C822CDE9C9
:1058A000001040F226211E20FFF7D2FE6AA0102130
:1058B0000B46C822CDE9001040F23A211E20FFF726
:1058C000C7FE67A010210B46C822CDE900104FF497
:1058D000A071E620FFF7BCFE63A010210B46C82292
:1058E000CDE900104FF4AA71E620FFF7B1FE5FA0EA
:1058F00010210B46C822CDE900104FF4B471E62008
:10590000FFF7A6FE5BA010210B46C822CDE90010D0
:105910005100E620FFF79CFE0CBD000010000020A7
:1059200055504C4F4144204F4E20000056313A20F4
:1059300020202020202020202020202020206D2F0B
:105940007300000056323A20202020202020202002
:105950002020202020206D2F7300000056333A2095
:1059600020202020202020202020202020206D2FDB
:10597000730000004C434A313A2020202020202090
:105980002020202020202020202000004C434A32CC
:105990003A202020202020202020202020202020ED
:1059A000202000004C434A333A2020202020202091
:1059B00020202020202020202020000070776D3122
:1059C0003A00000070776D323A00000070776D3356
:1059D0003A00000020596177203A20202020202022
:1059E00020202020430000002076782000000000C6
:1059F0002076792000000000207720002058200029
:105A00002059200020546865746120004578706C2E
:105A10006F7265722053544D3332463400000000DB
:105A200052454D4F544520544553540041544F4D19
:105A300040414C49454E54454B0000003230313412
:105A40002F352F37000000004B455956414C3A0086
:105A50004B4559434E543A0053594D424F4C3A002E
:105A60006368656E67787500716975006368616E5B
:105A700067646900202020202020202000000000F2
:105A80003CB5002400257E48D0ED040AB0EE600A43
:105A9000B5EEC00AF1EE10FA0DD2F1EE400AB0EE0A
:105AA000600A002010232D224FF48C7100903C20BE
:105AB000FFF73AFD08E00020102320224FF48C71FC
:105AC00000903C20FFF730FDFCEEC00A10EE900A7B
:105AD00084B200EE904AF8EE600A70EE600A9FED24
