:020000040800F2
:10000000080700209D010008115D0008F90F000895
:100010000D5D00082D08000847760008000000006C
:100020000000000000000000000000002D6000083B
:100030002509000800000000DF5D000835620008A7
:10004000B7010008B7010008B7010008B7010008B0
:10005000B7010008B7010008B7010008B7010008A0
:10006000B7010008B7010008B7010008B701000890
:10007000B7010008B7010008B7010008B701000880
:10008000B7010008B7010008B7010008B701000870
:10009000B7010008B7010008B7010008B701000860
:1000A000B7010008FD640008B7010008C563000837
:1000B00075650008B7010008B7010008B70100081E
:1000C000B7010008B7010008B7010008B701000830
:1000D000B70100084972000815730008D1730008C1
:1000E000B7010008B7010008B7010008B701000810
:1000F000B7010008B7010008B7010008B701000800
:10010000B7010008B7010008B7010008B7010008EF
:10011000B7010008B7010008B7010008B7010008DF
:10012000B7010008B7010008B7010008B7010008CF
:10013000B7010008B7010008B7010008B7010008BF
:10014000B7010008B7010008B7010008B7010008AF
:10015000B7010008B7010008B7010008B70100089F
:10016000B7010008B7010008B7010008B70100088F
:10017000B7010008B7010008B7010008B70100087F
:10018000B7010008B7010008DFF80CD000F050FA02
:100190000048004789870008080700200648804774
:1001A00006480047FEE7FEE7FEE7FEE7FEE7FEE75C
:1001B000FEE7FEE7FEE7FEE7396200088901000876
:1001C00000F0004230F000400AD0C10D01F560712E
:1001D000C0F3160042EA0151C208400711437047BC
:1001E000002001467047000030B5041E71F1000484
:1001F00004DB4FF00044404264EB0101141E73F134
:10020000000405DB1C464FF00043524263EB04033D
:100210008B4208BF824230BD01F0004330B421F070
:10022000004150EA010206D00A0DA2F56072C1F346
:100230001301002A02DC30BC00207047440F44EA5E
:10024000C104C100E01830BC00EBC25000F031B86E
:100250002DE9F05F0546002092469B4688460646FB
:10026000814640241BE0284641464746224600F08E
:1002700000FA53465A46C01A914110D31146184607
:10028000224600F0E7F92D1A67EB01084F46224697
:100290000120002100F0DEF917EB00094E41201E7D
:1002A000A4F10104DFDC484631462A464346BDE856
:1002B000F09F0029A8BF7047401C490008BF20F0EC
:1002C0000100704710B4B0FA80FC00FA0CF050EA5C
:1002D000010404BF10BC704749B1CCF1200421FADD
:1002E00004F411FA0CF118BF012121430843A3EBD8
:1002F0000C01CB1D4FEA00614FEA102042BF0020E5
:1003000010BC704700EBC35010440029A4BF10BCC0
:100310007047401C490008BF20F0010010BC704726
:100320002DE9FE4F804681EA0300C00F0C46009085
:1003300021F0004123F00045B8EB0200A94105D2AD
:100340004046214690461C460B46024623F000409C
:10035000104347D0270DC7F30A00C3F30A51029098
:10036000401A019040286BDAC3F3130040F4801B5D
:100370000098924620B10023D2EB030A63EB0B0BEB
:1003800001985946C0F14002504600F063F9064614
:100390000D4650465946019A00F07BF910EB0800D3
:1003A0006141002487EA115284EAE7731A4340D07E
:1003B000009A62B3019A012A4FEA075215DC001B2A
:1003C00061EB02014FF0004202EA0752CDE9004220
:1003D000001C41F5801132462B4600F07BF903B03A
:1003E000BDE8F08F40462146F9E7001B61EB0201B2
:1003F000001C41F5801300185B412018A2F500177E
:1004000047EB030140EAD570B6196D4111E06D0864
:100410004FEA360645EAC0754FEA0752001B61EB0A
:100420000201001C41F5801149084FEA3000001913
:10043000514132462B4603B0BDE8F04F00F03BB9C6
:100440000098012240000023D0EB020263EBE0732E
:10045000009821464FEAE074B8EB000061EB04011C
:10046000E9E783F000435BE781F0004158E72DE9BD
:10047000FE4F81EA030404F0004421F0004100949F
:100480004FF0000B23F0004350EA01045ED052EA23
:1004900003045BD0C3F30A54C1F30A552C44A4F2FD
:1004A000F3340194A0FB0254C1F3130141F4801111
:1004B000C3F3130343F4801301FB024400FB034E18
:1004C000840A970A44EA815447EA8357A4FB0768E1
:1004D00002958D0A05FB07854FEA932C04FB0C540B
:1004E0002705029D4FEA065847EA1637B5EB08057F
:1004F0006EEB070C870E920E47EA811742EA8312D1
:10050000A7FB0201B6EB0B0164EB00042B0D43EAE1
:100510000C335E1844EB1C50DA465146E7FB0201EF
:10052000C5F313044FEA0B3343EA14534FEA043282
:10053000019C43EA0603A4F10C040294009CCDE95B
:1005400000B400F0C7F803B0BDE8F08F002001460A
:10055000F9E72DE9F04D81EA030404F0004B21F0A6
:10056000004514464FF0000A23F0004150EA05020E
:1005700020D054EA01021DD0C5F30A570246C5F344
:100580001303C1F31300C1F30A5640F4801543F47A
:100590008013A7EB0608101BD64608F2FD3873EB54
:1005A000050002D308F1010801E092185B41B8F19F
:1005B000000F03DA00200146BDE8F08D00204FF463
:1005C0008011064684460EE0171B73EB050705D322
:1005D000121B63EB050306434CEA010C49084FEA82
:1005E000300092185B4150EA0107EDD152EA030056
:1005F00012D082EA040083EA0501084305D0101BEB
:10060000AB4106D20122002306E000224FF0004356
:1006100002E06FF0010253101AEB06004CEB085198
:1006200010EB0A0041EB0B01BDE8F04D00F043B8C0
:10063000064C074D06E0E06840F0010394E807002F
:1006400098471034AC42F6D3FFF7A2FDF8A000089B
:1006500018A10008202A04DB203A00FA02F1002049
:1006600070479140C2F1200320FA03F319439040F0
:100670007047202A04DB203A21FA02F0002170475B
:1006800021FA02F3D040C2F12002914008431946FA
:100690007047202A06DBCB17203A41FA02F043EAE2
:1006A000E07306E041FA02F3D040C2F1200291402B
:1006B00008431946704710B5141E73F1000408DA98
:1006C000401C41F1000192185B411A4301D120F016
:1006D000010010BD2DE9F04D92469B4611B1B1FAD3
:1006E00081F202E0B0FA80F220329046FFF7B2FFCA
:1006F00004460F4640EA0A0041EA0B0153465A46B7
:10070000084313D0114653EA010019D0C8F1400242
:100710005046FFF7AEFF05460E4650465946424644
:10072000FFF798FF084305D0012004E02046394632
:10073000BDE8F08D0020054346EAE0762C433743C0
:100740000A986305E40AA0EB08000022FD0A44EAC7
:1007500047540A3002D500200146E9E70105101987
:100760006941DDE9084500196941BDE8F04DA2E79E
:100770000EB5C10F80EAE0700844CA07002140F2BC
:1007800033438DE80E000A460B46FFF7A3FF03B084
:1007900000BD0EB540F2334102910021CDE90011B8
:1007A0000A460B46FFF796FF03B000BD70B5C1F3D4
:1007B0000A5201F000450024C1F3130140F2FF3357
:1007C00041F480119A4201DA002070BD40F23343B7
:1007D0009A42A2F2334203DC5242FFF74AFF00E0A2
:1007E00090402C43F1D0404270BD00001CB5012167
:1007F000202005F0F5FA4FF48070009001208DF86C
:10080000040000208DF8060003208DF8050002206A
:100810008DF807006946044800F0A3F94FF4807191
:10082000014800F009FA1CBD0014024000BFFEE7B9
:100830001CB50121402005F0D3FA40200090012092
:100840008DF8040000208DF8060003208DF80500C7
:1008500001208DF807006946034800F082F9402125
:10086000014800F0E9F91CBD0018024010B59FEDE9
:10087000290A294880ED000A9FED260A80ED010A29
:100880009FED240A80ED020A9FED220A80ED020A04
:100890009FED200A80ED040A9FED1E0A80ED050AF7
:1008A0009FED1C0A80ED060A9FED1A0A80ED080AEA
:1008B0009FED180A80ED090A9FED160A80ED070AE0
:1008C0009FED140A80ED0B0A9FED120A80ED0C0AD1
:1008D0009FED100A80ED0A0A9FED0E0A80ED100AC6
:1008E0009FED0C0A80ED110A00200C494860086059
:1008F0000B49086048609FED071ADFED060A9FED7F
:10090000050A05F0B5FB05F0C3F905F0C1F905F0DE
:10091000BFF910BD00000000BC0200204000002014
:100920004800002070470EB50121880305F088FAC1
:100930000021022005F07CFB0121022005F078FB5C
:100940000120009000208DF8040008208DF805009B
:1009500000208DF80600684600F02CF80220009078
:1009600000208DF8040008208DF8050000208DF887
:100970000600684600F01EF806208DF808000020EA
:100980008DF8090001208DF80A008DF80B0002A8EF
:1009900005F0C0F907208DF8080000208DF8090047
:1009A0008DF80A0001208DF80B0002A805F0B2F9BD
:1009B0000EBD0000002123498279002A3AD00A4660
:1009C000126803689A430B461A600A1D126803688E
:1009D0009A430B1D1A60027911440A6803681A438E
:1009E0000A60184A0832126803689A43154B0833A4
:1009F0001A601A1D126803689A43124B0C331A606E
:100A00004279102A0ED11A1F126803681A430D4B3F
:100A100008331A601A1D126803681A43094B0C3315
:100A20001A600DE00749427911440A6803681A43C5
:100A30000A6005E0027911440A6803689A430A6073
:100A400070470000003C014051B18200A2F1C04259
:100A5000126842F001038200A2F1C042136009E073
:100A60008200A2F1C0421268034B1A408300A3F136
:100A7000C0431A6070470000FEFF0F00D0E901126A
:100A80001143C268114302691143426911438269EB
:100A90001143C2691143026A1143426A1143826AD7
:100AA0001143C26A1143026B114302689200A2F122
:100AB000C0421160816808290BD101688900A1F149
:100AC000C041096841F0400201688900A1F1C041BC
:100AD0000A60416B0968426B526841EA0211426B3D
:100AE000926841EA0221426B928941EA0241426BDB
:100AF000128A41EA0251426B127D41EA0261426B65
:100B0000926911430268521C9200A2F1C042116026
:100B1000C16AB1F5804F1BD1816B0968826B526845
:100B200041EA0211826B926841EA0221826B128AC9
:100B300041EA0251826B127D41EA0261826B926945
:100B4000114302689200A2F1C042C2F8041107E00A
:100B50006FF0704201688900A1F1C041C1F8042121
:100B60007047F0B50A4600210023002400BF3DE095
:100B7000012505FA01F3156805EA03049C4234D106
:100B800005684F000326BE40B543056015794E0049
:100B9000B5400668354305601579012D02D01579F9
:100BA000022D16D185684F000326BE40B5438560EF
:100BB00055794E00B5408668354385604568012605
:100BC0008E40B5434560456896798E40B6B2354350
:100BD0004560C5684F000326BE40B543C560D57962
:100BE0004E00B540C6683543C560491C1029BFD3C7
:100BF000F0BDF0B5002300244D07ED0E02FA05F319
:100C0000CE1000F1200555F826504E07F70E0F269E
:100C1000BE40B543CF1000F1200646F82750CE1055
:100C200000F1200555F8265045EA0304CE1000F1E6
:100C3000200545F82640F0BD418370470183704789
:100C400070B52DED088B9CB0C34890ED020AD0ED35
:100C5000100A30EE600A10EE101A0846FFF7B0FADC
:100C600041EC1A0BB0EE4A0AF0EE6A0A06F0A4FD57
:100C7000B0EE409AF0EE609A9FEDB80B53EC102B5B
:100C800051EC190BFFF7B0FA0BD2B34890ED020A02
:100C9000D0ED100A30EE200AF0EE000A80EE208A35
:100CA0000EE0AD4890ED020AD0ED100A70EE200A79
:100CB000B0EE001A80EE810ADFEDAA0A30EE208A3B
:100CC000A54890ED020A80ED100A18EE100AFFF711
:100CD00077FA41EC1A0BB0EE4A0AF0EE6A0A06F017
:100CE00007FDB0EE409AF0EE609A51EC190BFFF759
:100CF00093FA0A9018EE100AFFF762FA41EC1B0B08
:100D0000B0EE4B0AF0EE6B0A06F062FDB0EE40AAC0
:100D1000F0EE60AA51EC1A0B81F0004141EC190B86
:100D2000FFF77AFA0B909FED900A8DED0C0A18EE02
:100D3000100AFFF745FA41EC1A0BB0EE4A0AF0EE42
:100D40006A0A06F045FDB0EE409AF0EE609A51EC6A
:100D5000190BFFF761FA0D9018EE100AFFF730FA41
:100D600041EC1A0BB0EE4A0AF0EE6A0A06F0C0FC3B
:100D7000B0EE409AF0EE609A51EC190BFFF74CFA86
:100D80000E909FED790A8DED0F0A9FED770A8DED9C
:100D9000100A9FED750A8DED110AB7EE000A8DED70
:100DA000120A9FED720A8DED130A9FED710A8DED07
:100DB000140A9FED6F0A8DED150A9FED6B0A8DEDFC
:100DC000160A9FED6C0A8DED170A9FED6B0A8DEDEB
:100DD000180A9FED6A0A8DED190A9FED680A8DEDDC
:100DE0001A0A9FED660A8DED1B0A00253EE00024DD
:100DF00038E09FED5D0A05EB450001A901EB80009D
:100E000000EB840080ED000A002627E005EB45009A
:100E100001A901EB800000EB840090ED000A05EBD6
:100E200045000AA901EB800000EB8600D0ED000A26
:100E300006EB460013A901EB800000EB840090ED67
:100E4000001A00EE810A05EB450001A901EB8000C4
:100E500000EB840080ED000A701CC6B2032ED5DBC7
:100E6000601CC4B2032CC4DB681CC5B2032DBEDBFE
:100E70009FED3D0A384880ED040A002414E036480E
:100E800090ED040A01A800EB8400D0ED000A32487E
:100E9000283000EB840090ED001A00EE810A2E4805
:100EA00080ED040A601CC4B2032CE8DB9FED2E0A1F
:100EB000294880ED050A002414E0274890ED050A32
:100EC00004A800EB8400D0ED000A2348283000EB92
:100ED000840090ED001A00EE810A1F4880ED050A9B
:100EE000601CC4B2032CE8DB9FED1F0A1A4880ED9A
:100EF000060A002414E0184890ED060A07A800EB43
:100F00008400D0ED000A1448283000EB840090EDF6
:100F1000001A00EE810A104880ED060A601CC4B277
:100F2000032CE8DB0C4890ED000AD0ED040A9FED9D
:100F3000141A00EE810A80ED000A90ED010AD0ED4E
:100F4000050A9FED0F1A00EE810A80ED010A1CB020
:100F5000BDEC088B70BD0000BC02002000000060EA
:100F6000FB210940DB0F494000000000ABAA2ABF6B
:100F7000ABAAAA3E3ACD13BF3ACD133F5555D53F44
:100F80000AD7233C1A4A1268D1B208464206100E0C
:100F9000184AD2F81822D1B208434206100E144A59
:100FA000083A1268D1B208434206100E114AD2F82C
:100FB0001022D1B208434206100E0D4A103A1268B0
:100FC000D1B208434206100E0A4AD2F80822D1B222
:100FD00008434206100E064A183A1268D1B2084376
:100FE0004206100E034AD2F80022D1B208437047DD
:100FF0001C8242420080424200BFFEE71CB5012134
:10100000202004F0EDFE4FF40070009000208DF8D9
:10101000040003208DF8050001208DF807006946C3
:101020000148FFF79EFD1CBD0014024070B5044648
:10103000002617480588408845431548808846F6AD
:101040000401884216D112488079012812D100206B
:101050000F4988712A2048812B2088810021084669
:1010600003F09EFE01200A4988712B2048812A2026
:10107000888103E00021084603F092FE04F0AEFDF3
:10108000002602E003480480761CAE42FAD370BD0D
:10109000540000208000006C10B50446002C52D192
:1010A00058498871F02008804FF4A07048800846A5
:1010B000808849F2413188420BD05248808846F6F8
:1010C0000401884205D04F48808845F2103188429B
:1010D0001AD12C204B4908812A2048812B20888155
:1010E0000846808846F60401884205D04548808835
:1010F00045F21031884206D14FF4A0704149088072
:101100004FF4F070488079E03E48808845F21051F5
:10111000884210D14FF430503A4908814FF428509A
:1011200048814FF42C5088814FF4F07008804FF4C0
:101130004870488062E0222032490881202048819E
:10114000212088815AE001202E4988714FF4A07037
:101150000880F02048800846808849F24131884262
:1011600005D02848808845F21031884207D12C20CC
:10117000244908812A2048812B2088812BE021489E
:10118000808846F60401884207D12C201D49088139
:101190002B2048812A2088811DE01A48808845F24A
:1011A0001051884210D14FF43050164908814FF445
:1011B000285048814FF42C5088814FF448700880A3
:1011C0004FF4F070488006E022200E49088121206B
:1011D0004881202088810B48808846F60401884297
:1011E00005D00848808845F21031884206D14FF476
:1011F000F070044908804FF4A0704880002003F08C
:1012000079FC10BD5400002070B504460D4616460A
:101210004348808849F24131884205D0404880885F
:1012200045F21031884214D13D49488904F0CAFC86
:10123000201204F0BBFCE0B204F0B8FC3849888905
:1012400004F0C0FC281204F0B1FCE8B204F0AEFCDB
:101250005DE03348808845F21051884220D1304902
:10126000488904F0AFFC201204F0A0FC2C49498905
:10127000491C88B204F0A6FCE0B204F097FC2849AF
:10128000888904F09FFC281204F090FC2449898985
:10129000491C88B204F096FCE8B204F087FC36E002
:1012A0001F48808846F6040188421DD11C48807979
:1012B000012804D11A480088401E001B84B2184936
:1012C000488904F07FFC201204F070FCE0B204F0C6
:1012D0006DFC1349888904F075FC281204F066FC43
:1012E000E8B204F063FC12E00D488079012804D1D3
:1012F0000B480088401E001B84B2094948892146DA
:1013000004F076FC06498889294604F071FC0448FB
:101310000089044908804FF0D840A0F8806070BD73
:10132000540000207E00006C00B5A1B00020209089
:1013300001217A2004F054FD0121084604F060FDEB
:101340004FF400401E9001208DF87C0000208DF8A5
:101350007E0002208DF87D0001208DF87F001EA9FF
:10136000FE48FFF7FEFB4CF233701E9002208DF812
:101370007C0000208DF87E0003208DF87D00012088
:101380008DF87F001EA9F648FFF7EBFB4FF6807043
:101390001E9002208DF87C0000208DF87E00032036
:1013A0008DF87D0001208DF87F001EA9ED48FFF724
:1013B000D8FB4FF480501E9002208DF87C00002056
:1013C0008DF87E0003208DF87D0001208DF87F00D0
:1013D0001EA9E548FFF7C5FB4FF480501E90022080
:1013E0008DF87C0000208DF87E0003208DF87D00B4
:1013F00001208DF87F001EA9DC48FFF7B2FB0C220C
:101400000021D748FFF7F5FB0C220121D448FFF754
:10141000F0FB0C220421D248FFF7EBFB0C22052144
:10142000CF48FFF7E6FB0C220821CD48FFF7E1FB90
:101430000C220921CA48FFF7DCFB0C220A21C8480C
:10144000FFF7D7FB0C220E21C548FFF7D2FB0C2279
:101450000F21C348FFF7CDFB0C220721C148FFF73E
:10146000C8FB0C220821BF48FFF7C3FB0C2209214F
:10147000BC48FFF7BEFB0C220A21BA48FFF7B9FBB4
:101480000C220B21B748FFF7B4FB0C221146B548DC
:10149000FFF7AFFB0C220D21B248FFF7AAFB0C228D
:1014A0000E21B048FFF7A5FB0C220F21AD48FFF736
:1014B000A0FB0C221146AC48FFF79BFB0C22114607
:1014C000AA48FFF796FB0F200890002009903C20C7
:1014D0000A9000200B900C900D900E900920019026
:1014E00000200290082003900020049005900690B0
:1014F000079006200F90002010901190102012905D
:101500000020139015901490169017904FF480506F
:101510001890002019904FF480401A9000201B90E2
:1015200008A81C9001A81D900FA8FFF7A7FA012199
:101530000620FFF789FA322006F056FF012100202D
:1015400004F056FB322006F04FFF002003F0C6FAED
:101550008749888008468088FF280ADB08468088FB
:101560004FF6FF71884204D081488088B0F5134F50
:101570007ED1D32004F026FB03F0A6FA7C498880B4
:1015800003F0A2FA7A49888003F09EFA78498880AD
:10159000084680884FF6FF7101EA00207449888070
:1015A00003F092FA72498988084371498880084695
:1015B000808849F24131884278D0BF2004F002FB94
:1015C00003F082FA6A49888003F07EFA68498880CD
:1015D00003F07AFA6649888003F076FA64498880D5
:1015E000084680884FF6FF7101EA00206049888034
:1015F00003F06AFA5E49898808435D498880084695
:10160000808846F60401884250D0D42004F0DAFAEB
:1016100003F05AFA5649888003F056FA54498880F4
:1016200003F052FA52498880084680884FF6FF71CD
:1016300001EA00204E49888003F046FA4C49898827
:1016400008434B4988800846808845F2103188421B
:101650002CD04FF45A4004F0B5FA03F035FA44495F
:1016600088804FF45B4004F0ADFA03F02DFA00E0FF
:101670001CE03F498880084680884FF6FF7101EAE8
:1016800000203B4988804FF45C4004F09BFA03F053
:101690001BFA37498988084335498880084680887D
:1016A000B0F5004F02D145F2105088803048808854
:1016B00049F2413188420BD02D48808845F21031E3
:1016C000884205D02A48808845F2105188421DD1B1
:1016D0002848006820F00F004FF02041C1F81C019D
:1016E0000846D0F81C0120F47060C1F81C010846BF
:1016F000D0F81C0140F00300C1F81C010846D0F8E6
:101700001C0140F40070C1F81C0137E018488088C3
:1017100046F60401884205D0154880884CF20551F0
:1017200088422BD11348006820F00F004FF0204171
:10173000C1F81C010846D0F81C0120F47060C1F803
:101740001C010846D0F81C0140F00A00C1F81C0139
:101750000846D0F81C0140F440600DE0000402404F
:10176000000C024000100240001402400018024029
:10177000540000201C0100A0C1F81C01FE48818813
:10178000FEA005F08DFFFC48808849F24131884277
:101790007ED1CF2004F016FA002004F007FA20983A
:1017A000401C2090C12004F001FA302004F0FEF922
:1017B000ED2004F007FA642004F0F8F9032004F0A7
:1017C000F5F9122004F0F2F9812004F0EFF9E82095
:1017D00004F0F8F9852004F0E9F9102004F0E6F9A6
:1017E0007A2004F0E3F9CB2004F0ECF9392004F07E
:1017F000DDF92C2004F0DAF9002004F0D7F93420C8
:1018000004F0D4F9022004F0D1F9F72004F0DAF959
:10181000202004F0CBF9EA2004F0D4F9002004F0F1
:10182000C5F9002004F0C2F9C02004F0CBF91B2058
:1018300004F0BCF9C12004F0C5F9012004F0B6F9A8
:10184000C52004F0BFF9302004F0B0F9302004F0D6
:10185000ADF9C72004F0B6F9B72004F0A7F9362097
:1018600004F0B0F9482004F0A1F93A2004F0AAF9F4
:10187000552004F09BF9B12004F0A4F9002004F0F5
:1018800095F91A2004F092F9B62004F09BF900E0D3
:101890009AE00A2004F08AF9A22004F087F9F220E5
:1018A00004F090F9002004F081F9262004F08AF970
:1018B000012004F07BF9E02004F084F90F2004F00B
:1018C00075F92A2004F072F9282004F06FF9082035
:1018D00004F06CF90E2004F069F9082004F066F9B0
:1018E000542004F063F9A92004F060F9432004F0C7
:1018F0005DF90A2004F05AF90F2004F057F900208E
:1019000004F054F9002004F051F9002004F04EF9DD
:10191000002004F04BF9E12004F054F9002004F019
:1019200045F9152004F042F9172004F03FF907208B
:1019300004F03CF9112004F039F9062004F036F9DE
:101940002B2004F033F9562004F030F93C2004F049
:101950002DF9052004F02AF9102004F027F90F20B2
:1019600004F024F93F2004F021F93F2004F01EF98F
:101970000F2004F01BF92B2004F024F9002004F0C0
:1019800015F9002004F012F9012004F00FF93F20AE
:1019900004F00CF92A2004F015F9002004F006F9EF
:1019A000002004F003F9002004F000F9EF2004F017
:1019B000FDF8112004F006F9782006F015FD292025
:1019C00004F000F903F064B86B48808846F604011F
:1019D00088427CD1112004F0F5F8142006F004FDB3
:1019E000D02004F0EFF8072004F0E0F8422004F0E3
:1019F000DDF81D2004F0DAF8D12004F0E3F800202F
:101A000004F0D4F81A2004F0D1F8092004F0CEF83C
:101A1000D22004F0D7F8012004F0C8F8222004F006
:101A2000C5F8C02004F0CEF8102004F0BFF83B2029
:101A300004F0BCF8002004F0B9F8022004F0B6F875
:101A4000112004F0B3F8C52004F0BCF8032004F022
:101A5000ADF8C82004F0B6F8002004F0A7F825205F
:101A600004F0A4F8212004F0A1F8052004F09EF869
:101A7000002004F09BF80A2004F098F8652004F098
:101A800095F8252004F092F8772004F08FF8502084
:101A900004F08CF80F2004F089F8002004F086F898
:101AA000F82004F08FF8012004F080F8FE2004F004
:101AB00089F8002004F07AF8022004F077F820205A
:101AC00004F080F8362004F07DF8082000E02CE0D7
:101AD00004F06CF83A2004F075F8552004F066F82C
:101AE0002B2004F06FF8002004F060F8002004F0D0
:101AF0005DF8012004F05AF83F2004F057F82A203E
:101B000004F060F8002004F051F8002004F04EF8D2
:101B1000012004F04BF8DF2004F048F8782006F0AC
:101B200063FC292004F04EF84CE71348808845F206
:101B30001031884240F08487ED2004F043F8012002
:101B400004F034F8FE2004F031F8EE2004F03AF806
:101B5000DE2004F02BF8212004F028F8F12004F016
:101B600031F8012004F022F8DF2004F02BF81020D7
:101B700004F01CF8C42009E054000020204C434429
:101B80002049443A25780D0A0000000004F01AF8B4
:101B90008F2004F00BF8C62004F014F8002004F0A5
:101BA00005F8E22004F002F8E22003F0FFFFE22053
:101BB00003F0FCFFBF2004F005F8AA2003F0F6FFB5
:101BC000B02003F0FFFF0D2003F0F0FF002003F032
:101BD000EDFF0D2003F0EAFF002003F0E7FF1120E6
:101BE00003F0E4FF002003F0E1FF192003F0DEFF23
:101BF000002003F0DBFF212003F0D8FF002003F0DA
:101C0000D5FF2D2003F0D2FF002003F0CFFF3D20B1
:101C100003F0CCFF002003F0C9FF5D2003F0C6FFF6
:101C2000002003F0C3FF5D2003F0C0FF002003F09D
:101C3000BDFFB12003F0C6FF802003F0B7FF0020F6
:101C400003F0B4FF8B2003F0B1FF002003F0AEFFE0
:101C5000962003F0ABFF002003F0A8FFB22003F0B2
:101C6000B1FF002003F0A2FF002003F09FFF02203D
:101C700003F09CFF002003F099FF032003F096FF80
:101C8000002003F093FFB32003F09CFF002003F03B
:101C90008DFF002003F08AFF002003F087FF002063
:101CA00003F084FF002003F081FF002003F07EFF9B
:101CB000002003F07BFF002003F078FF002003F0FA
:101CC00075FF002003F072FF002003F06FFF00207B
:101CD00003F06CFF002003F069FF002003F066FFB3
:101CE000002003F063FF002003F060FF002003F0FA
:101CF0005DFF002003F05AFF002003F057FF002093
:101D000003F054FF002003F051FF002003F04EFFCA
:101D1000002003F04BFF002003F048FFB42003F045
:101D200051FF8B2003F042FF002003F03FFF96207D
:101D300003F03CFF002003F039FFA12003F036FF41
:101D4000002003F033FFB52003F03CFF022003F036
:101D50002DFF002003F02AFF032003F027FF0020BF
:101D600003F024FF042003F021FF002003F01EFFF6
:101D7000B62003F027FF002003F018FF002003F037
:101D800015FFB72003F01EFF002003F00FFF002017
:101D900003F00CFF3F2003F009FF002003F006FFD3
:101DA0005E2003F003FF002003F000FF642003F037
:101DB000FDFE002003F0FAFE8C2003F0F7FE002069
:101DC00003F0F4FEAC2003F0F1FE002003F0EEFE81
:101DD000DC2003F0EBFE002003F0E8FE702003F0AF
:101DE000E5FE002003F0E2FE902003F0DFFE00207D
:101DF00003F0DCFEEB2003F0D9FE002003F0D6FE5A
:101E0000DC2003F0D3FE002003F0D0FEB82003F066
:101E1000D9FE002003F0CAFE002003F0C7FE002018
:101E200003F0C4FE002003F0C1FE002003F0BEFE5C
:101E3000002003F0BBFE002003F0B8FE002003F0FA
:101E4000B5FEBA2003F0BEFE242003F0AFFE002052
:101E500003F0ACFE002003F0A9FE002003F0A6FE74
:101E6000C12003F0AFFE202003F0A0FE002003F00D
:101E70009DFE542003F09AFE002003F097FEFF2001
:101E800003F094FE002003F091FEC22003F09AFEBE
:101E90000A2003F08BFE002003F088FE042003F0EC
:101EA00085FE002003F082FEC32003F08BFE3C2061
:101EB00003F07CFE002003F079FE3A2003F076FE6A
:101EC000002003F073FE392003F070FE002003F0C1
:101ED0006DFE372003F06AFE002003F067FE3C2011
:101EE00003F064FE002003F061FE362003F05EFE86
:101EF000002003F05BFE322003F058FE002003F0C8
:101F000055FE2F2003F052FE002003F04FFE2C2040
:101F100003F04CFE002003F049FE292003F046FEAA
:101F2000002003F043FE262003F040FE002003F0D3
:101F30003DFE242003F03AFE002003F037FE24206B
:101F400003F034FE002003F031FE232003F02EFEC8
:101F5000002003F02BFE3C2003F028FE002003F0BD
:101F600025FE362003F022FE002003F01FFE322063
:101F700003F01CFE002003F019FE2F2003F016FED4
:101F8000002003F013FE2C2003F010FE002003F0CD
:101F90000DFE292003F00AFE002003F007FE262094
:101FA00003F004FE002003F001FE242003F0FEFDF8
:101FB000002003F0FBFD242003F0F8FD002003F0D7
:101FC000F5FD232003F0F2FD002003F0EFFDC42017
:101FD00003F0F8FD622003F0E9FD002003F0E6FDC8
:101FE000052003F0E3FD002003F0E0FD842003F072
:101FF000DDFD002003F0DAFDF02003F0D7FD002026
:1020000003F0D4FD182003F0D1FD002003F0CEFD35
:10201000A42003F0CBFD002003F0C8FD182003F03E
:10202000C5FD002003F0C2FD502003F0BFFD0020DD
:1020300003F0BCFD0C2003F0B9FD002003F0B6FD59
:10204000172003F0B3FD002003F0B0FD952003F04E
:10205000ADFD002003F0AAFDF32003F0A7FD002052
:1020600003F0A4FDE62003F0A1FD002003F09EFD97
:10207000C52003F0A7FD322003F098FD002003F0F7
:1020800095FD442003F092FD002003F08FFD6520B4
:1020900003F08CFD002003F089FD762003F086FD1F
:1020A000002003F083FD882003F080FD002003F072
:1020B0007DFDC62003F086FD202003F077FD002083
:1020C00003F074FD172003F071FD002003F06EFD96
:1020D000012003F06BFD002003F068FDC72003F032
:1020E00071FD002003F062FD002003F05FFD002081
:1020F00003F05CFD002003F059FDC82003F062FDF1
:10210000002003F053FD002003F050FD002003F0F9
:102110004DFD002003F04AFDC92003F053FD0020CF
:1021200003F044FD002003F041FD002003F03EFDDC
:10213000002003F03BFD002003F038FD002003F0F9
:1021400035FD002003F032FD002003F02FFD0020BC
:1021500003F02CFD002003F029FD002003F026FDF4
:10216000002003F023FD002003F020FD002003F0F9
:102170001DFD002003F01AFD002003F017FDE020F4
:1021800003F020FD162003F011FD002003F00EFDEA
:102190001C2003F00BFD002003F008FD212003F0BC
:1021A00005FD002003F002FD362003F0FFFC0020B7
:1021B00003F0FCFC462003F0F9FC002003F0F6FCE1
:1021C000522003F0F3FC002003F0F0FC642003F045
:1021D000EDFC002003F0EAFC7A2003F0E7FC00208D
:1021E00003F0E4FC8B2003F0E1FC002003F0DEFCB4
:1021F000992003F0DBFC002003F0D8FCA82003F0BA
:10220000D5FC002003F0D2FCB92003F0CFFC002065
:1022100003F0CCFCC42003F0C9FC002003F0C6FC92
:10222000CA2003F0C3FC002003F0C0FCD22003F05E
:10223000BDFC002003F0BAFCD92003F0B7FC00205D
:1022400003F0B4FCE02003F0B1FC002003F0AEFC8E
:10225000F32003F0ABFC002003F0A8FCE12003F026
:10226000B1FC162003F0A2FC002003F09FFC1C2010
:1022700003F09CFC002003F099FC222003F096FC64
:10228000002003F093FC362003F090FC002003F0C4
:102290008DFC452003F08AFC002003F087FC5220CF
:1022A00003F084FC002003F081FC642003F07EFC3A
:1022B000002003F07BFC7A2003F078FC002003F080
:1022C00075FC8B2003F072FC002003F06FFC99205A
:1022D00003F06CFC002003F069FCA82003F066FC0E
:1022E000002003F063FCB92003F060FC002003F041
:1022F0005DFCC42003F05AFC002003F057FCCA2008
:1023000003F054FC002003F051FCD22003F04EFCFB
:10231000002003F04BFCD82003F048FC002003F021
:1023200045FCE02003F042FC002003F03FFCF320DA
:1023300003F03CFC002003F039FCE22003F042FCF7
:10234000052003F033FC002003F030FC0B2003F0E9
:102350002DFC002003F02AFC1B2003F027FC0020AA
:1023600003F024FC342003F021FC002003F01EFCC9
:10237000442003F01BFC002003F018FC4F2003F066
:1023800015FC002003F012FC612003F00FFC00207C
:1023900003F00CFC792003F009FC002003F006FC9C
:1023A000882003F003FC002003F000FC972003F0DA
:1023B000FDFB002003F0FAFBA62003F0F7FB002052
:1023C00003F0F4FBB72003F0F1FB002003F0EEFB79
:1023D000C22003F0EBFB002003F0E8FBC72003F072
:1023E000E5FB002003F0E2FBD12003F0DFFB00203F
:1023F00003F0DCFBD62003F0D9FB002003F0D6FB72
:10240000DD2003F0D3FB002003F0D0FBF32003F02A
:10241000CDFB002003F0CAFBE32003F0D3FB052033
:1024200003F0C4FB002003F0C1FB0A2003F0BEFB55
:10243000002003F0BBFB1C2003F0B8FB002003F0DE
:10244000B5FB332003F0B2FB002003F0AFFB4420C8
:1024500003F0ACFB002003F0A9FB502003F0A6FB27
:10246000002003F0A3FB622003F0A0FB002003F098
:102470009DFB782003F09AFB002003F097FB882057
:1024800003F094FB002003F091FB972003F08EFBF8
:10249000002003F08BFBA62003F088FB002003F054
:1024A00085FBB72003F082FB002003F07FFBC220F6
:1024B00003F07CFB002003F079FBC72003F076FBE0
:1024C000002003F073FBD12003F070FB002003F029
:1024D0006DFBD52003F06AFB002003F067FBDD20D5
:1024E00003F064FB002003F061FBF32003F05EFBCC
:1024F000002003F05BFBE42003F064FB012003F009
:1025000055FB002003F052FB012003F04FFB00209D
:1025100003F04CFB022003F049FB002003F046FBD4
:102520002A2003F043FB002003F040FB3C2003F093
:102530003DFB002003F03AFB4B2003F037FB00206B
:1025400003F034FB5D2003F031FB002003F02EFB91
:10255000742003F02BFB002003F028FB842003F001
:1025600025FB002003F022FB932003F01FFB00203B
:1025700003F01CFBA22003F019FB002003F016FB64
:10258000B32003F013FB002003F010FBBE2003F088
:102590000DFB002003F00AFBC42003F007FB002022
:1025A00003F004FBCD2003F001FB002003F0FEFA52
:1025B000D32003F0FBFA002003F0F8FADD2003F04B
:1025C000F5FA002003F0F2FAF32003F0EFFA00200E
:1025D00003F0ECFAE52003F0F5FA002003F0E6FA48
:1025E000002003F0E3FA002003F0E0FA002003F0FB
:1025F000DDFA022003F0DAFA002003F0D7FA2920EE
:1026000003F0D4FA002003F0D1FA3C2003F0CEFA14
:10261000002003F0CBFA4B2003F0C8FA002003F0AF
:10262000C5FA5D2003F0C2FA002003F0BFFA74205F
:1026300003F0BCFA002003F0B9FA842003F0B6FAE4
:10264000002003F0B3FA932003F0B0FA002003F067
:10265000ADFAA22003F0AAFA002003F0A7FAB320F3
:1026600003F0A4FA002003F0A1FABE2003F09EFAC2
:10267000002003F09BFAC42003F098FA002003F036
:1026800095FACD2003F092FA002003F08FFAD320C0
:1026900003F08CFA002003F089FADC2003F086FABC
:1026A000002003F083FAF32003F080FA002003F007
:1026B0007DFAE62003F086FA112003F077FA002075
:1026C00003F074FA342003F071FA002003F06EFA7C
:1026D000562003F06BFA002003F068FA762003F02E
:1026E00065FA002003F062FA772003F05FFA002019
:1026F00003F05CFA662003F059FA002003F056FA62
:10270000882003F053FA002003F050FA992003F0D8
:102710004DFA002003F04AFABB2003F047FA0020EC
:1027200003F044FA992003F041FA002003F03EFA46
:10273000662003F03BFA002003F038FA552003F03E
:1027400035FA002003F032FA552003F02FFA00206A
:1027500003F02CFA452003F029FA002003F026FAB2
:10276000432003F023FA002003F020FA442003F072
:102770001DFA002003F01AFAE72003F023FA3220B2
:1027800003F014FA002003F011FA552003F00EFABA
:10279000002003F00BFA762003F008FA002003F083
:1027A00005FA662003F002FA002003F0FFF9672023
:1027B00003F0FCF9002003F0F9F9672003F0F6F9C3
:1027C000002003F0F3F9872003F0F0F9002003F074
:1027D000EDF9992003F0EAF9002003F0E7F9BB20B6
:1027E00003F0E4F9002003F0E1F9992003F0DEF9A9
:1027F000002003F0DBF9772003F0D8F9002003F084
:10280000D5F9442003F0D2F9002003F0CFF9562087
:1028100003F0CCF9002003F0C9F9232003F0C6F936
:10282000002003F0C3F9332003F0C0F9002003F0C7
:10283000BDF9452003F0BAF9002003F0B7F9E8200C
:1028400003F0C0F9002003F0B1F9002003F0AEF965
:10285000992003F0ABF9002003F0A8F9872003F0DA
:10286000A5F9002003F0A2F9882003F09FF90020C9
:1028700003F09CF9772003F099F9002003F096F912
:10288000662003F093F9002003F090F9882003F00C
:102890008DF9002003F08AF9AA2003F087F90020BF
:1028A00003F084F9BB2003F081F9002003F07EF9E6
:1028B000992003F07BF9002003F078F9662003F0FB
:1028C00075F9002003F072F9552003F06FF900202C
:1028D00003F06CF9552003F069F9002003F066F964
:1028E000442003F063F9002003F060F9442003F072
:1028F0005DF9002003F05AF9552003F057F9002044
:1029000003F054F9E92003F05DF9AA2003F04EF931
:10291000002003F04BF9002003F048F9002003F0F9
:1029200045F9002003F04EF9AA2003F03FF9CF202B
:1029300003F048F9002003F039F9002003F036F9DC
:10294000002003F033F9002003F030F9002003F0F9
:102950002DF9002003F02AF9002003F027F90020C8
:1029600003F024F9002003F021F9002003F01EF900
:10297000002003F01BF9002003F018F9002003F0F9
:1029800015F9002003F012F9002003F00FF90020E0
:1029900003F00CF9002003F009F9F02003F012F91C
:1029A000002003F003F9502003F000F9002003F0A9
:1029B000FDF8002003F0FAF8002003F0F7F8F32008
:1029C00003F000F9002003F0F1F8F92003F0FAF821
:1029D000062003F0EBF8102003F0E8F8292003F0BC
:1029E000E5F8002003F0E2F83A2003F0EBF8552078
:1029F00003F0DCF8112003F0E5F8642005F0F4FCA6
:102A0000292003F0DFF8352003F0DCF8002003F084
:102A1000CDF8512003F0D6F8FF2003F0C7F853207B
:102A200003F0D0F82C2003F0C1F8552003F0CAF8C9
:102A3000822003F0BBF82C2003F0C4F802F028B881
:102A4000FE48808845F2105188427DD155214FF4CF
:102A5000704003F0CDF8AA214FF2010003F0C8F84E
:102A600052214FF2020003F0C3F808214FF2030095
:102A700003F0BEF801214FF2040003F0B9F80D2174
:102A80004FF4304003F0B4F80D214BF2010003F095
:102A9000AFF80D214BF2020003F0AAF834214FF4F5
:102AA000364003F0A5F834214BF2016003F0A0F8A2
:102AB00034214BF2026003F09BF80D214FF43140BA
:102AC00003F096F80D214BF2011003F091F80D215F
:102AD0004BF2021003F08CF834214FF4374003F02E
:102AE00087F834214BF2017003F082F834214BF265
:102AF000027003F07DF800214FF4324003F078F8C3
:102B000000214BF2012003F073F800214BF2022068
:102B100003F06EF824214FF4384003F069F82421C3
:102B20004BF6010003F064F824214BF6020003F099
:102B30005FF801214FF43F4003F05AF80F214FF4A2
:102B4000334003F055F800E0FDE30F214BF2013074
:102B500003F04EF80F214BF2023003F049F8342114
:102B60004FF4394003F044F834214BF6011003F0E0
:102B70003FF834214BF6021003F03AF808214FF4E5
:102B8000354003F035F808214BF2015003F030F8DE
:102B900008214BF2025003F02BF803214FF442407E
:102BA00003F026F824214FF43A4003F021F82421C1
:102BB0004BF6012003F01CF824214BF6022003F011
:102BC00017F800214FF43C4003F012F878214BF63F
:102BD000014003F00DF800214BF6024003F008F825
:102BE00000214FF43D4003F003F878214BF60150EB
:102BF00002F0FEFF00214BF6025002F0F9FF002127
:102C00004FF43E4002F0F4FF64214BF6016002F005
:102C1000EFFF00214FF4514002F0EAFF33214DF263
:102C2000011002F0E5FF00214DF2021002F0E0FF7A
:102C300034214DF2031002F0DBFF00214DF20410AD
:102C400002F0D6FF3A214DF2051002F0D1FF00212B
:102C50004DF2061002F0CCFF4A214DF2071002F0AF
:102C6000C7FF00214DF2081002F0C2FF5C214DF2B7
:102C7000091002F0BDFF00214DF20A1002F0B8FF6A
:102C800081214DF20B1002F0B3FF00214DF20C1028
:102C900002F0AEFFA6214DF20D1002F0A9FF0021B7
:102CA0004DF20E1002F0A4FFE5214DF20F1002F0DC
:102CB0009FFF01214DF2101002F09AFF13214DF2F7
:102CC000111002F095FF01214DF2121002F090FF59
:102CD00054214DF2131002F08BFF01214DF214101C
:102CE00002F086FF82214DF2151002F081FF0121D2
:102CF0004DF2161002F07CFFCA214DF2171002F0BF
:102D000077FF02214DF2181002F072FF00214DF200
:102D1000191002F06DFF02214DF21A1002F068FF47
:102D200001214DF21B1002F063FF02214DF21C1035
:102D300002F05EFF34214DF21D1002F059FF022116
:102D40004DF21E1002F054FF67214DF21F1002F0E9
:102D50004FFF02214DF2201002F04AFF84214DF274
:102D6000211002F045FF02214DF2221002F040FF37
:102D7000A4214DF2231002F03BFF02214DF224105A
:102D800002F036FFB7214DF2251002F031FF02218B
:102D90004DF2261002F02CFFCF214DF2271002F049
:102DA00027FF02214DF2281002F022FFDE214DF212
:102DB000291002F01DFF02214DF22A1002F018FF27
:102DC000F2214DF22B1002F013FF02214DF22C10D4
:102DD00002F00EFFFE214DF22D1002F009FF03213B
:102DE0004DF22E1002F004FF10214DF22F1002F0D0
:102DF000FFFE03214DF2301002F0FAFE33214DF2B6
:102E0000311002F0F5FE03214DF2321002F0F0FE17
:102E10006D214DF2331002F0EBFE00214FF45240D1
:102E200002F0E6FE33214DF2012002F0E1FE002126
:102E30004DF2022002F0DCFE342101E054000020BB
:102E40004DF2032002F0D4FE00214DF2042002F0E6
:102E5000CFFE3A214DF2052002F0CAFE00214DF2CC
:102E6000062002F0C5FE4A214DF2072002F0C0FE06
:102E700000214DF2082002F0BBFE5C214DF209203A
:102E800002F0B6FE00214DF20A2002F0B1FE8121CF
:102E90004DF20B2002F0ACFE00214DF20C2002F0AE
:102EA000A7FEA6214DF20D2002F0A2FE00214DF258
:102EB0000E2002F09DFEE5214DF20F2002F098FE5B
:102EC00001214DF2102002F093FE13214DF211204A
:102ED00002F08EFE01214DF2122002F089FE5421F3
:102EE0004DF2132002F084FE01214DF2142002F075
:102EF0007FFE82214DF2152002F07AFE01214DF273
:102F0000162002F075FECA214DF2172002F070FE65
:102F100002214DF2182002F06BFE00214DF2192023
:102F200002F066FE02214DF21A2002F061FE01213C
:102F30004DF21B2002F05CFE02214DF21C2002F03B
:102F400057FE34214DF21D2002F052FE02214DF2B7
:102F50001E2002F04DFE67214DF21F2002F048FEB8
:102F600002214DF2202002F043FE84214DF2212067
:102F700002F03EFE02214DF2222002F039FEA42191
:102F80004DF2232002F034FE02214DF2242002F003
:102F90002FFEB7214DF2252002F02AFE02214DF22C
:102FA000262002F025FECF214DF2272002F020FE40
:102FB00002214DF2282002F01BFEDE214DF22920D5
:102FC00002F016FE02214DF22A2002F011FEF2213B
:102FD0004DF22B2002F00CFE02214DF22C2002F0CB
:102FE00007FEFE214DF22D2002F002FE03214DF2DC
:102FF0002E2002F0FDFD10214DF22F2002F0F8FDF1
:1030000003214DF2302002F0F3FD33214DF2312047
:1030100002F0EEFD03214DF2322002F0E9FD6D21B8
:103020004DF2332002F0E4FD00214FF4534002F052
:10303000DFFD33214DF2013002F0DAFD00214DF2C7
:10304000023002F0D5FD34214DF2033002F0D0FD04
:1030500000214DF2043002F0CBFD3A214DF2053053
:1030600002F0C6FD00214DF2063002F0C1FD4A21FA
:103070004DF2073002F0BCFD00214DF2083002F0A5
:10308000B7FD5C214DF2093002F0B2FD00214DF296
:103090000A3002F0ADFD81214DF20B3002F0A8FDA7
:1030A00000214DF20C3002F0A3FDA6214DF20D30AF
:1030B00002F09EFD00214DF20E3002F099FDE52157
:1030C0004DF20F3002F094FD01214DF2103002F06C
:1030D0008FFD13214DF2113002F08AFD01214DF2D6
:1030E000123002F085FD54214DF2133002F080FDC4
:1030F00001214DF2143002F07BFD82214DF215309A
:1031000002F076FD01214DF2163002F071FDCA2168
:103110004DF2173002F06CFD02214DF2183002F032
:1031200067FD00214DF2193002F062FD02214DF2DF
:103130001A3002F05DFD01214DF21B3002F058FD06
:1031400002214DF21C3002F053FD34214DF21D30AE
:1031500002F04EFD02214DF21E3002F049FD6721C2
:103160004DF21F3002F044FD02214DF2203002F0FA
:103170003FFD84214DF2213002F03AFD02214DF253
:10318000223002F035FDA4214DF2233002F030FD53
:1031900002214DF2243002F02BFDB7214DF22530F3
:1031A00002F026FD02214DF2263002F021FDCF2152
:1031B0004DF2273002F01CFD02214DF2283002F0C2
:1031C00017FDDE214DF2293002F012FD02214DF2F1
:1031D0002A3002F00DFDF2214DF22B3002F008FDF5
:1031E00002214DF22C3002F003FDFE214DF22D3074
:1031F00002F0FEFC03214DF22E3002F0F9FC10210A
:103200004DF22F3002F0F4FC03214DF2303002F089
:10321000EFFC33214DF2313002F0EAFC03214DF294
:10322000323002F0E5FC6D214DF2333002F0E0FC6B
:1032300000214FF4544002F0DBFC33214DF20140F9
:1032400002F0D6FC00214DF2024002F0D1FC342104
:103250004DF2034002F0CCFC00214DF2044002F09C
:10326000C7FC3A214DF2054002F0C2FC00214DF2AC
:10327000064002F0BDFC4A214DF2074002F0B8FCC6
:1032800000214DF2084002F0B3FC5C214DF20940F0
:1032900002F0AEFC00214DF20A4002F0A9FC8121AF
:1032A0004DF20B4002F0A4FC00214DF20C4002F064
:1032B0009FFCA6214DF20D4002F09AFC00214DF238
:1032C0000E4002F095FCE5214DF20F4002F090FC1B
:1032D00001214DF2104002F08BFC13214DF2114000
:1032E00002F086FC01214DF2124002F081FC5421D3
:1032F0004DF2134002F07CFC01214DF2144002F02B
:1033000077FC82214DF2154002F072FC01214DF252
:10331000164002F06DFCCA214DF2174002F068FC25
:1033200002214DF2184002F063FC00214DF21940D9
:1033300002F05EFC02214DF21A4002F059FC01211C
:103340004DF21B4000E006E302F052FC02214DF278
:103350001C4002F04DFC34214DF21D4002F048FCAF
:1033600002214DF21E4002F043FC67214DF21F4046
:1033700002F03EFC02214DF2204002F039FC842193
:103380004DF2214002F034FC02214DF2224002F0C5
:103390002FFCA4214DF2234002F02AFC02214DF221
:1033A000244002F025FCB7214DF2254002F020FC1C
:1033B00002214DF2264002F01BFCCF214DF22740A6
:1033C00002F016FC02214DF2284002F011FCDE2131
:1033D0004DF2294002F00CFC02214DF22A4002F08D
:1033E00007FCF2214DF22B4002F002FC02214DF2CB
:1033F0002C4002F0FDFBFE214DF22D4002F0F8FBC7
:1034000003214DF22E4002F0F3FB10214DF22F402C
:1034100002F0EEFB03214DF2304002F0E9FB3321D4
:103420004DF2314002F0E4FB03214DF2324002F054
:10343000DFFB6D214DF2334002F0DAFB00214FF447
:10344000554002F0D5FB33214DF2015002F0D0FB84
:1034500000214DF2025002F0CBFB34214DF203501B
:1034600002F0C6FB00214DF2045002F0C1FB3A21EC
:103470004DF2055002F0BCFB00214DF2065002F067
:10348000B7FB4A214DF2075002F0B2FB00214DF28A
:10349000085002F0ADFB5C214DF2095002F0A8FB90
:1034A00000214DF20A5002F0A3FB81214DF20B5096
:1034B00002F09EFB00214DF20C5002F099FBA62178
:1034C0004DF20D5002F094FB00214DF20E5002F02F
:1034D0008FFBE5214DF20F5002F08AFB01214DF2E6
:1034E000105002F085FB13214DF2115002F080FBC9
:1034F00001214DF2125002F07BFB54214DF213508A
:1035000002F076FB01214DF2145002F071FB822192
:103510004DF2155002F06CFB01214DF2165002F0F5
:1035200067FBCA214DF2175002F062FB02214DF2F7
:10353000185002F05DFB00214DF2195002F058FBCB
:1035400002214DF21A5002F053FB01214DF21B50A3
:1035500002F04EFB02214DF21C5002F049FB3421D7
:103560004DF21D5002F044FB02214DF21E5002F0BC
:103570003FFB67214DF21F5002F03AFB02214DF252
:10358000205002F035FB84214DF2215002F030FB37
:1035900002214DF2225002F02BFBA4214DF22350C8
:1035A00002F026FB02214DF2245002F021FBB7214C
:1035B0004DF2255002F01CFB02214DF2265002F084
:1035C00017FBCF214DF2275002F012FB02214DF2E2
:1035D000285002F00DFBDE214DF2295002F008FBCD
:1035E00002214DF22A5002F003FBF2214DF22B5042
:1035F00002F0FEFA02214DF22C5002F0F9FAFE21FF
:103600004DF22D5002F0F4FA03214DF22E5002F04B
:10361000EFFA10214DF22F5002F0EAFA03214DF299
:10362000305002F0E5FA33214DF2315002F0E0FA69
:1036300003214DF2325002F0DBFA6D214DF233508E
:1036400002F0D6FA00214FF4564002F0D1FA3321AD
:103650004DF2016002F0CCFA00214DF2026002F05E
:10366000C7FA34214DF2036002F0C2FA00214DF294
:10367000046002F0BDFA3A214DF2056002F0B8FA9A
:1036800000214DF2066002F0B3FA4A214DF20760C4
:1036900002F0AEFA00214DF2086002F0A9FA5C21B6
:1036A0004DF2096002F0A4FA00214DF20A6002F026
:1036B0009FFA81214DF20B6002F09AFA00214DF23F
:1036C0000C6002F095FAA6214DF20D6002F090FA1E
:1036D00000214DF20E6002F08BFAE5214DF20F60F1
:1036E00002F086FA01214DF2106002F081FA1321F6
:1036F0004DF2116002F07CFA01214DF2126002F0ED
:1037000077FA54214DF2136002F072FA01214DF262
:10371000146002F06DFA82214DF2156002F068FA31
:1037200001214DF2166002F063FACA214DF21760D2
:1037300002F05EFA02214DF2186002F059FA0021FF
:103740004DF2196002F054FA02214DF21A6002F0B3
:103750004FFA01214DF21B6002F04AFA02214DF2AC
:103760001C6002F045FA34214DF21D6002F040FA6F
:1037700002214DF21E6002F03BFA67214DF21F60FC
:1037800002F036FA02214DF2206002F031FA842173
:103790004DF2216002F02CFA02214DF2226002F07B
:1037A00027FAA4214DF2236002F022FA02214DF201
:1037B000246002F01DFAB7214DF2256002F018FADC
:1037C00002214DF2266002F013FACF214DF227605C
:1037D00002F00EFA02214DF2286002F009FADE2111
:1037E0004DF2296002F004FA02214DF22A6002F043
:1037F000FFF9F2214DF22B6002F0FAF902214DF2AD
:103800002C6002F0F5F9FE214DF22D6002F0F0F986
:1038100003214DF22E6002F0EBF910214DF22F60E2
:1038200002F0E6F903214DF2306002F0E1F93321B4
:103830004DF2316002F0DCF903214DF2326002F00A
:10384000D7F96D214DF2336002F0D2F955214FF4D2
:10385000704002F0CDF9AA214FF2010002F0C8F940
:1038600052214FF2020002F0C3F908214FF2030087
:1038700002F0BEF900214FF2040002F0B9F9CC21A8
:103880004FF4314002F0B4F900214BF2011002F084
:10389000AFF905214FF4364002F0AAF970214FF438
:1038A000374002F0A5F970214BF2017002F0A0F947
:1038B00001214FF4384002F09BF903214BF601003F
:1038C00002F096F903214BF6020002F091F9032170
:1038D0004BF6030002F08CF902214FF43C4002F059
:1038E00087F900214BF6014002F082F900214BF6E6
:1038F000024002F07DF9D0214FF4494002F078F9FE
:1039000002214CF6011002F073F950214CF602101E
:1039100002F06EF950214CF6031002F069F95021C3
:103920004CF6041002F064F900214FF4545002F0F8
:103930005FF955214FF4685002F05AF94FF488505E
:1039400002F040F9782004F06BFD4FF4245002F0AF
:1039500039F901F09DB8FE48808849F22531884246
:103960007ED147F6F001E52002F042F94FF4807174
:10397000012002F03DF94FF4E061022002F038F935
:1039800041F23001032002F033F90021042002F05B
:103990002FF940F20221082002F02AF90021092023
:1039A00002F026F900210A2002F022F900210C2061
:1039B00002F01EF900210D2002F01AF900210F205B
:1039C00002F016F90021102002F012F9072111204F
:1039D00002F00EF90021122002F00AF90021132052
:1039E00002F006F90021072002F002F941F290618D
:1039F000102002F0FDF840F22721112002F0F8F823
:103A00009D21122002F0F4F84FF4C851132002F067
:103A1000EFF82521292002F0EBF80D212B2002F0F0
:103A2000E7F80721302002F0E3F840F203313120BB
:103A300002F0DEF80321322002F0DAF840F206212B
:103A4000352002F0D5F80821362002F0D1F840F2F6
:103A50000641372002F0CCF84FF44171382000E0E5
:103A600057E002F0C5F80721392002F0C1F840F212
:103A700002613C2002F0BCF808213D2002F0B8F8B9
:103A80000021502002F0B4F8EF21512002F0B0F8EC
:103A90000021522002F0ACF840F23F11532002F016
:103AA000A7F84FF42741602002F0A2F8012161201D
:103AB00002F09EF800216A2002F09AF8002180208E
:103AC00002F096F80021812002F092F80021822075
:103AD00002F08EF80021832002F08AF80021842071
:103AE00002F086F80021852002F082F81021902053
:103AF00002F07EF84FF4C061922002F079F840F2B3
:103B00003311072002F074F82221002002F070F82F
:103B10001FE78F48808849F2283188427ED141F2E0
:103B20008F01EC2002F064F841F23421EF2002F022
:103B30005FF84FF48071012002F05AF84FF4E06111
:103B4000022002F055F841F23001032002F050F853
:103B50000021042002F04CF840F20221082002F07B
:103B600047F80021092002F043F800210A2002F062
:103B70003FF801210C2002F03BF800210D2002F05B
:103B800037F800210F2002F033F80021102002F056
:103B90002FF80721112002F02BF80021122002F04B
:103BA00027F80021132002F023F80121072002F05A
:103BB0001FF8322004F018FC41F29041102002F06E
:103BC00017F840F22721112002F012F8322004F0F9
:103BD0000BFC8A21122002F00BF8322004F004FCC6
:103BE0004FF4D051132002F003F80621292001F0F0
:103BF000FFFF0D212B2001F0FBFF322004F0F4FB2E
:103C00000021202001F0F4FF0021212001F0F0FF2D
:103C1000322004F0E9FB0021302000E074E001F0E4
:103C2000E7FF40F20461312001F0E2FF40F205318C
:103C3000322001F0DDFF0021352001F0D9FF40F6F0
:103C40000941362001F0D4FF4FF40171372001F013
:103C5000CFFF40F20131382001F0CAFF40F2077176
:103C6000392001F0C5FF00213C2001F0C1FF40F6E2
:103C70000A213D2001F0BCFF322004F0B5FB0021F9
:103C8000502001F0B5FFEF21512001F0B1FF0021DC
:103C9000522001F0ADFF40F23F11532001F0A8FF88
:103CA0004FF42741602001F0A3FF0121612001F0C2
:103CB0009FFF00216A2001F09BFF0021802001F07E
:103CC00097FF0021812001F093FF0021822001F065
:103CD0008FFF0021832001F08BFF0021842001F061
:103CE00087FF0021852001F083FF1021902001F043
:103CF0007FFF4FF4C061922001F07AFF40F2331150
:103D0000072001F075FF24E61148808849F2203130
:103D100088427DD10021084601F06AFF4FF480718E
:103D2000012001F065FF4FF4E061022001F060FF27
:103D300041F23001032001F05BFF0021042001F07B
:103D400057FF40F20221082001F052FF002101E05C
:103D500054000020092001F04BFF00210A2001F04F
:103D600047FF01210C2001F043FF00210D2001F04D
:103D70003FFF00210F2001F03BFF322004F034FB15
:103D800040F20111072001F033FF322004F02CFB38
:103D90004FF48651102001F02BFF0721112001F074
:103DA00027FF4FF48871122001F022FF4FF4306199
:103DB000132001F01DFF0021292001F019FF44F21A
:103DC00010012B2001F014FF0021502001F010FF02
:103DD000EF21512001F00CFF0021522001F008FFDB
:103DE00040F23F11532001F003FF4FF41C516020BB
:103DF00001F0FEFE0121612001F0FAFE00216A209F
:103E000001F0F6FE0021802001F0F2FE002100E02A
:103E100031E0812001F0ECFE0021822001F0E8FE7B
:103E20000021832001F0E4FE0021842001F0E0FE67
:103E30000021852001F0DCFE1021902001F0D8FE49
:103E40000021922001F0D4FE0121932001F0D0FE48
:103E50004FF48871952001F0CBFE0021972001F0EE
:103E6000C7FE0021982001F0C3FE40F27311072025
:103E700001F0BEFE6DE5FE48808849F2313188428E
:103E80007DD141F21401E72001F0B2FE4FF48071C0
:103E9000012001F0ADFE4FF40071022001F0A8FEF8
:103EA00041F23801032001F0A3FE40F20221082074
:103EB00001F09EFE0021092001F09AFE00210A2057
:103EC00001F096FE00210C2001F092FE00210D2051
:103ED00001F08EFE00210F2001F08AFE002110204B
:103EE00001F086FE0721112001F082FE0021122040
:103EF00001F07EFE0021132001F07AFEC82004F0BC
:103F000073FA41F29061102001F072FE40F2272115
:103F1000112001F06DFE322004F066FA0C2112200F
:103F200001F066FE322004F05FFA4FF400611320C6
:103F300001F05EFE1121292001F05AFE0B212B20F9
:103F400001F056FE322004F04FFA0021202001F04B
:103F50004FFE40F23F11212001F04AFE00213020A7
:103F600001F046FE4FF48371312001F041FE002143
:103F7000322001F03DFE4FF40171352000E064E095
:103F800001F036FE41F20A61362001F031FE40F2C6
:103F90000771372001F02CFE4FF48371382001F0B7
:103FA00027FE40F20771392001F022FE40F2024163
:103FB0003C2001F01DFE40F60F413D2001F018FEAF
:103FC0000021502001F014FEEF21512001F010FEDD
:103FD0000021522001F00CFE40F23F11532001F06D
:103FE00007FE4FF41C51602001F002FE0121612008
:103FF00001F0FEFD00216A2001F0FAFD0021802081
:1040000001F0F6FD0021812001F0F2FD0021822067
:1040100001F0EEFD0021832001F0EAFD0021842063
:1040200001F0E6FD0021852001F0E2FD1021902045
:1040300001F0DEFD4FF4C061922001F0D9FD40F2A5
:104040003311072001F0D4FD83E48948808845F2CC
:10405000084188427ED14FF48071012001F0C8FDF3
:104060004FF4E061022001F0C3FD41F23001032072
:1040700001F0BEFD0021042001F0BAFD40F207214D
:10408000082001F0B5FD0021092001F0B1FD00215B
:104090000A2001F0ADFD00210C2001F0A9FD002156
:1040A0000D2001F0A5FD00210F2001F0A1FD14203D
:1040B00004F09AF941F2B061102001F099FD01215C
:1040C000112001F095FD0121172001F091FD4FF421
:1040D0009C71122001F08CFD4FF40061132001F05F
:1040E00087FD0921292001F083FD09212A2001F003
:1040F0007FFD0021A42001F07BFD0021502001F074
:1041000077FDEF21512001F073FD0021522001F0D5
:104110006FFD40F23F11532001F06AFD4FF41C5136
:10412000602001F065FD0121612001F061FD0021A9
:104130006A2001F05DFD0021802001F059FD002181
:10414000812001F055FD0021822001F051FD002168
:10415000832000E023E001F04BFD0021842001F0EA
:1041600047FD0021852001F043FD1321902001F03F
:104170003FFD0021922001F03BFD0321932001F03F
:1041800037FD4FF48871952001F032FD40F2731134
:10419000072001F02DFD322004F026F9B8E4344860
:1041A000808841F2055188427ED10021072001F02C
:1041B0001FFD322004F018F94FF48E71122001F027
:1041C00017FD0121A42001F013FD0F21082001F0AB
:1041D0000FFD08210A2001F00BFD08210D2001F040
:1041E00007FD40F20771302001F002FD0721312068
:1041F00001F0FEFC40F20361322001F0F9FC4FF4C3
:10420000E061332001F0F4FC40F20221342001F09F
:10421000EFFC0221352001F0EBFC41F60F71362056
:1042200001F0E6FC40F20771372001F0E1FC0021CB
:10423000382001F0DDFC0021392001F0D9FC40F2EA
:1042400007713A2001F0D4FC00213B2001F0D0FCA2
:1042500007213C2001F0CCFC00213D2001F0C8FCEE
:10426000322004F0C1F80121072001F0C1FC01E077
:10427000540000200121172001F0BAFC322004F084
:10428000B3F84FF4BD51102001F0B2FC40F21721F9
:10429000112001F0ADFC4FF48F71122001F0A8FC49
:1042A0004FF47061132000E097E001F0A1FC0021C1
:1042B0002A2001F09DFC0A21292001F099FC4FF4ED
:1042C0009F71122001F094FC0021502001F090FC1D
:1042D000EF21512001F08CFC0021522001F088FCDC
:1042E00040F23F11532001F083FC4FF41C51602039
:1042F00001F07EFC0121612001F07AFC00216A209E
:1043000001F076FC0021802001F072FC0021812068
:1043100001F06EFC0021822001F06AFC0021832064
:1043200001F066FC0021842001F062FC0021852060
:1043300001F05EFC1321902001F05AFC4FF4407113
:10434000922001F055FC0521932001F051FC002141
:10435000952001F04DFC0021972001F049FC00213F
:10436000982001F045FC4FF48071012001F040FCE1
:104370004FF4E061022001F03BFC41F238010320E0
:1043800001F036FC0021042001F032FC00210C2059
:1043900001F02EFC00210F2001F02AFC002120203A
:1043A00001F026FC0021212001F022FC2121072020
:1043B00001F01EFC142004F017F86121072001F021
:1043C00017FC142004F010F840F27311072001F0DC
:1043D0000FFC142004F008F85AE3FE4880884BF2E2
:1043E000055188427ED10021084601F001FC0021E0
:1043F000084601F0FDFB0021084601F0F9FB002111
:10440000084601F0F5FB0121A42001F0F1FB142086
:1044100003F0EAFF4FF41C51602001F0E9FB40F289
:104420000221082001F0E4FB4FF40571302001F077
:10443000DFFB43F21571312001F0DAFB40F2046139
:10444000322001F0D5FB40F61661332001F0D0FB9D
:1044500042F21121342001F0CBFB4FF4A85135205A
:1044600001F0C6FB48F20751362001F0C1FB41F2D2
:104470000741372001F0BCFB41F20341382001F035
:10448000B7FB2021392001F0B3FB1A21902001F065
:10449000AFFB0021102001F0ABFB0721112001F040
:1044A000A7FB0021122001F0A3FB0021132001F043
:1044B0009FFB142003F098FF4FF4E661102001F0F9
:1044C00097FB40F23711112001F092FB142003F00A
:1044D0008BFF4FF4DC71122001F08AFB142003F0F3
:1044E00083FF00E083E04FF47061132001F080FB54
:1044F00080212A2001F07CFB4821292001F078FB53
:10450000142003F071FF4FF48071012001F070FB63
:104510004FF4E061022001F06BFB41F2380103200F
:1045200001F066FB40F20221082001F061FB00214E
:104530000A2001F05DFB00210C2001F059FB002155
:104540000D2001F055FB30210E2001F051FB002120
:10455000502001F04DFBEF21512001F049FB0021DB
:10456000522001F045FB40F23F11532001F040FB87
:104570004FF41C51602001F03BFB0121612001F050
:1045800037FB00216A2001F033FB1121902001F05C
:104590002FFB4FF4C061922001F02AFB40F2024150
:1045A000932001F025FB0221942001F021FB14202F
:1045B00003F01AFF0121072001F01AFB142003F079
:1045C00013FF6121072001F013FB40F27311072054
:1045D00001F00EFB0021202001F00AFB0021212028
:1045E00001F006FB2221002001F002FB50E2794895
:1045F00080884CF2055188427ED10021084601F0A6
:10460000F7FA0021084601F0F3FA142003F0ECFE5B
:104610000021084601F0ECFA0021084601F0E8FA12
:104620000021084601F0E4FA0021084601F0E0FA12
:104630000121A42001F0DCFA142003F0D5FE4FF490
:104640001C51602001F0D4FA40F60601082001F068
:10465000CFFA40F20371302001F0CAFA0121312073
:1046600001F0C6FA0421322001F0C2FA4FF4817140
:10467000332001F0BDFA4FF44071342001F0B8FA54
:1046800040F20311352001F0B3FA1F21362001F06A
:10469000AFFA40F20371372001F0AAFA0121382065
:1046A00001F0A6FA0421392001F0A2FA1521902088
:1046B00001F09EFA4FF48261102001F099FA40F265
:1046C0004721112001F094FA4FF4DE71122001F01D
:1046D0008FFA4FF46061132001F08AFA782003F01A
:1046E00083FE4FF48071012001F082FA4FF40071D3
:1046F000022001F07DFA00E050E041F23001032099
:1047000001F076FA08210A2001F072FA00210C204B
:1047100001F06EFA20210E2001F06AFA00210F202C
:1047200001F066FA0021202001F062FA0021212028
:1047300001F05EFA3D212A2001F05AFA142003F01C
:1047400053FE2D21292001F053FA0021502001F0C1
:104750004FFA4DF2EF01512001F04AFA00215220A8
:1047600001F046FA40F23F11532001F041FA0021D6
:10477000612001F03DFA00216A2001F039FA4FF47E
:104780004071922001F034FA0521932001F030FAB3
:104790004FF48071072001F02BFA79E10D488088F1
:1047A00044F2315188427CD10121002001F020FAED
:1047B0000A2003F019FE41F22861102001F018FAD6
:1047C0000E21122001F014FA40F63921132001F0D5
:1047D0000FFA01E0540000200A2003F005FE4021FA
:1047E000112001F005FA5021152001F001FA0A20EC
:1047F00003F0FAFD1E21122001F0FAF90A2003F05D
:10480000F3FD4FF4B151102001F0F2F942F63921D5
:10481000132001F0EDF90A2003F0E6FD4FF480715A
:10482000012001F0E5F94FF44071022001F0E0F9B8
:1048300041F23801032001F0DBF940F202210820A7
:1048400001F0D6F908210A2001F0D2F90021302028
:1048500001F0CEF940F20241312001F0C9F94FF4E4
:104860008371322001F0C4F940F20351332001F08A
:10487000BFF94FF48271342001F0BAF940F20131EE
:10488000352001F0B5F940F20771362001F0B0F99A
:1048900040F20531372001F0ABF94FF402713820B6
:1048A00000E040E001F0A4F940F60B71392001F07E
:1048B0009FF90221412001F09BF94FF41C51602027
:1048C00001F096F90121612001F092F94FF4047191
:1048D000902001F08DF94FF48571922001F088F954
:1048E0000421932001F084F94FF48071A02001F09D
:1048F0007FF90121072001F07BF92121072001F038
:1049000077F92321072001F073F93321072001F003
:104910006FF940F23311072001F06AF90021A0205D
:1049200001F066F9B4E06048808844F2355188426D
:10493000F8D13021152001F05BF910219A2001F007
:1049400057F92021112001F053F943F2284110209A
:1049500001F04EF90221122001F04AF941F238012A
:10496000132001F045F9282003F03EFD12210846EE
:1049700001F03EF9282003F037FD43F220411020DA
:1049800001F036F943F23801132001F031F94620E5
:1049900003F02AFD0021302001F02AF940F2024103
:1049A000312001F025F940F20731322001F020F9E1
:1049B0004FF44171332001F01BF90421342001F040
:1049C00017F940F20141352001F012F940F2077168
:1049D000362001F00DF940F20531372001F008F9D9
:1049E0004FF4C261382001F003F94FF4C26139205D
:1049F00001F0FEF84FF48071012001F0F9F84FF456
:104A00004071022001F0F4F841F23001032001F07E
:104A1000EFF840F60801082001F0EAF808210A2022
:104A200001F0E6F84FF41C51602001F0E1F801219B
:104A3000612001F0DDF84FF49F71902001F0D8F86B
:104A40004FF48071922001F0D3F84FF480719320DD
:104A500001F0CEF84FF44051A02001F0C9F8102128
:104A6000A32001F0C5F80121072001F0C1F82121A0
:104A7000072001F0BDF82321072001F0B9F8332108
:104A8000072001F0B5F840F23311072001F0B0F82B
:104A90000020FCF701FB0120044908604FF6FF707D
:104AA000FCF7C4FA21B000BD54000020BC82404293
:104AB00010B50246012000E050430B00A1F10104B3
:104AC000E1B2F9D110BD000008B50348008800909C
:104AD000BDF8000008BD00008000006C01B5BDF805
:104AE000000001F06FF8052003F09AFCFFF7ECFFDF
:104AF00008BD0000F0B5054600240027A7488079CE
:104B000001281ED1A548808846F60401884218D0A5
:104B1000082D15D2DFE805F00406080A0C0E101265
:104B200006250DE007250BE0042509E0052507E033
:104B3000012505E0002503E0032501E0022500BF73
:104B400000BF9648808849F24131884211D093488D
:104B5000808846F6040188420BD09048808845F250
:104B60001031884205D08D48808845F21051884226
:104B70007ED1082D1CD2DFE805F00406090C0F12C7
:104B8000151800BF14E044F0800411E044F0400424
:104B90000EE044F0C0040BE044F0200408E044F0D0
:104BA000600405E044F0A00402E044F0E00400BF2B
:104BB00000BF7A48808845F21051884202D14FF4F4
:104BC000585700E036277548808845F210318842F2
:104BD00007D07248808845F21051884201D044F0D5
:104BE00008046E48808846F60401884201D144F0EA
:104BF00002042146384600F0FBFF04F0200068B1B3
:104C00006648008865494988884214DA63480688FE
:104C1000408862490880084646800CE05F4800886A
:104C20005E494988884206DD5C48068840885B49C1
:104C30000880084646805948808845F210518842CD
:104C400054D15649488900F0BDFF002000F0AEFF66
:104C500052494989491C88B200F0B4FF002000F095
:104C6000A5FF4E494989891C88B200F0ABFF00E0DE
:104C70006BE04A490988491EC1F30F2000F096FFF6
:104C800046494989C91C88B200F09CFF434909780C
:104C9000491EC8B200F08AFF4049888900F092FF9F
:104CA000002000F083FF3D498989491C88B200F04B
:104CB00089FF002000F07AFF38498989891C88B271
:104CC00000F080FF35494988491EC1F30F2000F0EC
:104CD0006DFF32498989C91C88B200F073FF2F49E2
:104CE0008978491EC8B200F061FF55E02B49488918
:104CF00000F068FF002000F059FF002000F056FF90
:104D000026490988491EC1F30F2000F04FFF2349AF
:104D10000978491EC8B200F049FF2049888900F08F
:104D200051FF002000F042FF002000F03FFF1B4930
:104D30004988491EC1F30F2000F038FF17498978D0
:104D4000491EC8B200F032FF26E0082D1CD2DFE871
:104D500005F004070A0D0F12151844F0300413E093
:104D600044F0100410E044F020040DE000BF0BE01C
:104D700044F0380408E044F0280405E044F0180446
:104D800002E044F0080400BF00BF032744F480544D
:104D90002146384600F02CFFF0BD000054000020F2
:104DA00030B504460D464048808849F2413188427A
:104DB00005D03D48808845F21031884214D13A49E7
:104DC000488900F0FFFE201200F0F0FEE0B200F093
:104DD000EDFE3549888900F0F5FE281200F0E6FE68
:104DE000E8B200F0E3FE5DE02F48808846F604015B
:104DF00088421DD12C488079012804D12A48008896
:104E0000401E001B84B22849488900F0DBFE2012B6
:104E100000F0CCFEE0B200F0C9FE2349888900F022
:104E2000D1FE281200F0C2FEE8B200F0BFFE39E069
:104E30001D48808845F21051884220D11A4948897E
:104E400000F0C0FE201200F0B1FE17494989491C4C
:104E500088B200F0B7FEE0B200F0A8FE12498889DF
:104E600000F0B0FE281200F0A1FE0F498989491C0C
:104E700088B200F0A7FEE8B200F098FE12E00A48FF
:104E80008079012804D108480088401E001B84B2A4
:104E900005494889214600F0ABFE03498889294627
:104EA00000F0A6FE30BD0000540000202DE9F84FB0
:104EB00080460E4617461C46B3462046E31704EBD1
:104EC0005373DB1021464FEAE47C04EB5C7C4FEA31
:104ED000EC0CA4EBCC0CBCF1000F02D04FF0010C99
:104EE00001E04FF0000C6344224604EBD27C4FEA11
:104EF0006C0C03FB0CF3DBB20093A7F12000C7B2EC
:104F0000002556E00C2C07D107EB47002B4901EB9D
:104F1000800010F8059013E0102C05D1284800EB14
:104F2000071010F805900BE0182C07D107EBC7000D
:104F3000244901EB800010F8059001E0BDE8F88FEE
:104F40004FF0000A2FE009F0800030B11E480288BF
:104F500031464046FCF758F907E00A9828B91B4843
:104F6000028831464046FCF74FF94FEA49604FEA64
:104F70001069701C86B216484088B04200DCDDE73C
:104F8000A6EB0B00A0420AD15E4608F101001FFA11
:104F900080F80F480088404500DCCFE706E00AF1C2
:104FA000010000F0FF0ABAF1080FCCDB00BF681C5B
:104FB000C5B200988542A5DB00BFBFE7188800088E
:104FC0008C8C00087C920008100000201200002049
:104FD000540000202DE9F84704460D4690469946B6
:104FE000DDE9096704F0FF0A08EB04001FFA80F806
:104FF00009EB05001FFA80F916E0444502DB544630
:10500000A81985B24D4500DB14E0002000903A78E5
:10501000334629462046FFF749FF304606EBD0715C
:1050200004EB61018CB27F1C38787E2802DC387872
:105030002028E2DA00BFBDE8F88700000CB51F2089
:105040009749088097A010210B46C822CDE900108F
:10505000AA211E20FFF7BEFF95A010210B46C822F3
:10506000CDE9001011461E20FFF7B4FF96A01021D5
:105070000B46C822CDE90010DC211E20FFF7AAFF55
:1050800097A010210B46C822CDE90010F0211E2068
:10509000FFF7A0FF98A010210B46C822CDE9001011
:1050A0001146E620FFF796FF99A010210B46C82273
:1050B000CDE90010DC21E620FFF78CFF9AA010213B
:1050C0000B46C822CDE90010F021E620FFF782FF51
:1050D0009BA010210B46C822CDE900104FF482712D
:1050E000E620FFF777FF98A010210B46C822CDE9F4
:1050F00000104FF48C71E620FFF76CFF94A0102194
:105100000B46C822CDE900104FF49671E620FFF758
:1051100061FF91A010210B46C822CDE900104FF489
:1051200082711E20FFF756FF90A010210B46C82267
:10513000CDE900104FF48C711E20FFF74BFF8DA0BE
:1051400010210B46C822CDE900104FF496711E20A5
:10515000FFF740FF89A010210B46C822CDE90010BF
:105160004FF4A0711E20FFF735FF85A010210B46DC
:10517000C822CDE900104FF4AA711E20FFF72AFFC4
:1051800080A010210B46C822CDE900104FF4B47165
:105190001E20FFF71FFF7CA010210B46C822CDE97F
:1051A00000104FF4BE711E20FFF714FF78A01021ED
:1051B0000B46C822CDE900104FF4E1711E20FFF725
:1051C00009FF78A010210B46C822CDE900104FF44A
:1051D000EB711E20FFF7FEFE75A010210B46C822C2
:1051E000CDE900104FF4F5711E20FFF7F3FE74A017
:1051F00010210B46C822CDE900104FF4FF711E208C
:10520000FFF7E8FE71A010210B46C822CDE900107F
:1052100040F212211E20FFF7DDFE6EA010210B468A
:10522000C822CDE9001040F226211E20FFF7D2FE51
:105230006AA010210B46C822CDE9001040F23A21A5
:105240001E20FFF7C7FE67A010210B46C822CDE93C
:1052500000104FF4A071E620FFF7BCFE63A0102100
:105260000B46C822CDE900104FF4AA71E620FFF7E3
:10527000B1FE5FA010210B46C822CDE900104FF40B
:10528000B471E620FFF7A6FE5BA010210B46C822F2
:10529000CDE900105100E620FFF79CFE0CBD000098
:1052A0001000002055504C4F4144204F4E2000002C
:1052B00056313A202020202020202020202020208D
:1052C00020206D2F7300000056323A20202020202D
:1052D000202020202020202020206D2F730000007F
:1052E00056333A202020202020202020202020205B
:1052F00020206D2F730000004C434A313A202020BB
:1053000020202020202020202020202020200000DD
:105310004C434A323A2020202020202020202020E8
:1053200020202020202000004C434A333A20202017
:1053300020202020202020202020202020200000AD
:1053400070776D313A00000070776D323A000000DE
:1053500070776D333A00000020596177203A2020A1
:1053600020202020202020204300000020767820CC
:105370000000000020767920000000002077200047
:1053800020582000205920002054686574612000B6
:105390004578706C6F7265722053544D33324634C9
:1053A0000000000052454D4F5445205445535400D1
:1053B00041544F4D40414C49454E54454B0000002F
:1053C000323031342F352F37000000004B4559560D
:1053D000414C3A004B4559434E543A0053594D42C3
:1053E0004F4C3A006368656E6778750071697500A7
:1053F0006368616E676469002020202020202020DF
:10540000000000003CB5002400257E48D0ED040AD1
:10541000B0EE600AB5EEC00AF1EE10FA0DD2F1EE70
:10542000400AB0EE600A002010232D224FF48C7148
:1054300000903C20FFF73AFD08E0002010232022D6
:105440004FF48C7100903C20FFF730FDFCEEC00A59
:1054500010EE900A84B200EE904AF8EE600A70EE08
:10546000600A9FED691A60EE810AFCEEE00A10EE18
:10547000900A85B20020102103232246CDE90010B6
:105480004FF48C715A2000F031FB002010232E22A3
:105490004FF48C7100907320FFF708FD002010215D
:1054A00003232A46CDE900104FF48C717E2000F0D2
:1054B0001DFB5448D0ED050AB0EE600AB5EEC00AF7
:1054C000F1EE10FA0DD2F1EE400AB0EE600A0020C3
:1054D00010232D224FF4967100903C20FFF7E6FC3C
:1054E00008E00020102320224FF4967100903C2009
:1054F000FFF7DCFCFCEEC00A10EE900A84B200EE6E
:10550000904AF8EE600A70EE600A9FED3F1A60EE76
:10551000810AFCEEE00A10EE900A85B2002010210C
:1055200003232246CDE900104FF496715A2000F073
:10553000DDFA002010232E224FF496710090732084
:10554000FFF7B4FC0020102103232A46CDE9001008
:105550004FF496717E2000F0C9FA2A48D0ED060A71
:10556000B0EE600AB5EEC00AF1EE10FA0DD2F1EE1F
:10557000400AB0EE600A002010232D224FF4A071E3
:1055800000903C20FFF792FC08E00020102320222E
:105590004FF4A07100903C20FFF788FCFCEEC00A9D
:1055A00010EE900A84B200EE904AF8EE600A70EEB7
:1055B000600A9FED151A60EE810AFCEEE00A10EE1B
:1055C000900A85B20020102103232246CDE9001065
:1055D0004FF4A0715A2000F089FA002010232E22E7
:1055E0004FF4A07100907320FFF760FC00201021A1
:1055F00003232A46CDE900104FF4A0717E2000F06D
:1056000075FA3CBDBC02002000007A443CB5002580
:1056100000248BE0474800EB8400D0ED000AB0EE98
:10562000600AB5EEC00AF1EE10FA28D2F1EE400A97
:10563000B0EE600A24B1012C0CD0022C1ED113E074
:10564000002010232D22C82100904FF48770FFF70F
:105650002DFC13E0002010232D22DC2100904FF4BC
:105660008770FFF723FC09E0002010232D22F02192
:1056700000904FF48770FFF719FC00BF24E024B1BD
:10568000012C0CD0022C1ED113E00020102320226C
:10569000C82100904FF48770FFF708FC13E000204A
:1056A00010232022DC2100904FF48770FFF7FEFBCF
:1056B00009E0002010232022F02100904FF4877091
:1056C000FFF7F4FB00BF00BFFCEEC00A10EE900A2B
:1056D00085B224B1012C0ED0022C24D117E0002079
:1056E00010210A232A46CDE90010C8214FF49170F9
:1056F00000F0FCF917E0002010210A232A46CDE92A
:105700000010DC214FF4917000F0F0F90BE0002064
:1057100010210A232A46CDE90010F0214FF49170A0
:1057200000F0E4F900BF00BF601CC4B2032C7FF797
:1057300071AF3CBDD80200203CB5002400257E4856
:10574000D0ED000AB0EE600AB5EEC00AF1EE10FA34
:105750000DD2F1EE400AB0EE600A002010232D2297
:105760004FF4AA7100906420FFF7A0FB08E000202E
:10577000102320224FF4AA7100906420FFF796FBBB
:10578000FCEEC00A10EE900A84B200EE904AF8EEE9
:10579000600A70EE600A9FED691A60EE810AFCEE05
:1057A000E00A10EE900A85B2002010210323224661
:1057B000CDE900104FF4AA71822000F097F9002083
:1057C00010232E224FF4AA7100909B20FFF76EFB4E
:1057D0000020102103232A46CDE900104FF4AA71BE
:1057E000A62000F083F95448D0ED010AB0EE600A1B
:1057F000B5EEC00AF1EE10FA0CD2F1EE400AB0EEAE
:10580000600A002010232D22D10000906420FFF7B1
:105810004DFB08E00020102320224FF4B4710090CB
:105820006420FFF743FBFCEEC00A10EE900A84B23E
:1058300000EE904AF8EE600A70EE600A9FED3F1AA3
:1058400060EE810AFCEEE00A10EE900A85B20020BC
:10585000102103232246CDE900104FF4B4718220B9
:1058600000F044F9002010232E224FF4B471009070
:105870009B20FFF71BFB0020102103232A46CDE9C4
:1058800000104FF4B471A62000F030F92A48D0ED92
:10589000020AB0EE600AB5EEC00AF1EE10FA0DD2BF
:1058A000F1EE400AB0EE600A002010232D224FF4E2
:1058B000BE7100906420FFF7F9FA08E00020102381
:1058C00020224FF4BE7100906420FFF7EFFAFCEE47
:1058D000C00A10EE900A84B200EE904AF8EE600A18
:1058E00070EE600A9FED151A60EE810AFCEEE00A88
:1058F00010EE900A85B20020102103232246CDE944
:1059000000104FF4BE71822000F0F0F80020102348
:105910002E224FF4BE7100909B20FFF7C7FA0020A3
:10592000102103232A46CDE900104FF4BE71A620B2
:1059300000F0DCF83CBD0000BC02002000007A440E
:105940007CB5002500260024C7E0664800EB8400F3
:10595000D0ED000AB0EE600AB5EEC00AF1EE10FA22
:1059600025D2F1EE400AB0EE600A24B1012C0BD032
:10597000022C1BD111E0002010232D22C821009001
:105980003C20FFF793FA11E0002010232D22DC21A8
:1059900000903C20FFF78AFA08E0002010232D2217
:1059A000F02100903C20FFF781FA00BF21E024B1F4
:1059B000012C0BD0022C1BD111E00020102320223F
:1059C000C82100903C20FFF771FA11E0002010235D
:1059D0002022DC2100903C20FFF768FA08E000203C
:1059E00010232022F02100903C20FFF75FFA00BF37
:1059F00000BFFCEEC00A10EE900A85B200EE905A8D
:105A0000F8EE600A70EE600A9FED371A60EE810AC8
:105A1000FCEEE00A10EE900A86B224B1012C1FD0F1
:105A2000022C57D139E00020102103232A46CDE96A
:105A30000010C8215A2000F059F8002010232E220F
:105A4000C82100907320FFF731FA002010210323B2
:105A50003246CDE90010C8217E2000F047F839E039
:105A60000020102103232A46CDE90010DC215A2012
:105A700000F03CF8002010232E22DC21009073203F
:105A8000FFF714FA0020102103233246CDE900105D
:105A9000DC217E2000F02AF81CE0002010210323E6
:105AA0002A46CDE90010F0215A2000F01FF800200E
:105AB00010232E22F02100907320FFF7F7F9002029
:105AC000102103233246CDE90010F0217E2000F0A2
:105AD0000DF800BF00BF601CC4B2032C7FF735AFC8
