:020000040800F2
:10000000600900209D01000809860008C539000824
:10001000058600081908000833A600080000000043
:1000200000000000000000000000000039920008FD
:100030001909000800000000C5860008899400081E
:10004000B7010008B7010008B7010008B7010008B0
:10005000B7010008B70100081D0900084D09000894
:10006000B7010008B7010008B7010008B701000890
:10007000B7010008B7010008B7010008B701000880
:10008000B7010008B7010008B7010008B701000870
:10009000B7010008B7010008B7010008B701000860
:1000A000B701000851970008B70100081996000829
:1000B000B7010008B7010008B7010008B701000840
:1000C000B7010008B7010008B7010008B701000830
:1000D000B701000845A100084DA2000849A3000887
:1000E000B7010008B7010008B7010008B701000810
:1000F000B7010008B7010008B7010008B701000800
:10010000B7010008B7010008A9990008B701000865
:10011000B7010008B7010008B7010008B7010008DF
:10012000B7010008B7010008B7010008B7010008CF
:10013000B7010008B7010008B7010008B7010008BF
:10014000B7010008B7010008B7010008B7010008AF
:10015000B7010008B7010008B7010008B70100089F
:10016000B7010008B7010008B7010008B70100088F
:10017000B7010008B7010008B7010008B70100087F
:10018000B7010008B7010008DFF80CD000F0C2FA90
:100190000048004731B70008600900200648804742
:1001A00006480047FEE7FEE7FEE7FEE7FEE7FEE75C
:1001B000FEE7FEE7FEE7FEE78D94000889010008F0
:1001C0002DE9FE4F804681EA0300C00F0C460090E7
:1001D00021F0004123F00045B8EB0200A94105D20F
:1001E0004046214690461C460B46024623F00040FE
:1001F000104347D0270DC7F30A00C3F30A510290FA
:10020000401A019040286BDAC3F3130040F4801BBE
:100210000098924620B10023D2EB030A63EB0B0B4C
:1002200001985946C0F14002504600F0BDF906461B
:100230000D4650465946019A00F0C5F910EB0800EA
:100240006141002487EA115284EAE7731A4340D0DF
:10025000009A62B3019A012A4FEA075215DC001B8B
:1002600061EB02014FF0004202EA0752CDE9004281
:10027000001C41F5801132462B4600F0FCF903B01A
:10028000BDE8F08F40462146F9E7001B61EB020113
:10029000001C41F5801300185B412018A2F50017DF
:1002A00047EB030140EAD570B6196D4111E06D08C6
:1002B0004FEA360645EAC0754FEA0752001B61EB6C
:1002C0000201001C41F5801149084FEA3000001975
:1002D000514132462B4603B0BDE8F04F00F0BCB9A7
:1002E0000098012240000023D0EB020263EBE07390
:1002F000009821464FEAE074B8EB000061EB04017E
:10030000E9E783F000435BE781F0004158E72DE91E
:10031000FE4F81EA030404F0004421F00041009400
:100320004FF0000B23F0004350EA01045ED052EA84
:1003300003045BD0C3F30A54C1F30A552C44A4F25E
:10034000F3340194A0FB0254C1F3130141F4801172
:10035000C3F3130343F4801301FB024400FB034E79
:10036000840A970A44EA815447EA8357A4FB076842
:1003700002958D0A05FB07854FEA932C04FB0C546C
:100380002705029D4FEA065847EA1637B5EB0805E0
:100390006EEB070C870E920E47EA811742EA831232
:1003A000A7FB0201B6EB0B0164EB00042B0D43EA43
:1003B0000C335E1844EB1C50DA465146E7FB020151
:1003C000C5F313044FEA0B3343EA14534FEA0432E4
:1003D000019C43EA0603A4F10C040294009CCDE9BD
:1003E00000B400F048F903B0BDE8F08F00200146EA
:1003F000F9E72DE9F04D81EA030404F0004B21F008
:10040000004514464FF0000A23F0004150EA05026F
:1004100020D054EA01021DD0C5F30A570246C5F3A5
:100420001303C1F31300C1F30A5640F4801543F4DB
:100430008013A7EB0608101BD64608F2FD3873EBB5
:10044000050002D308F1010801E092185B41B8F100
:10045000000F03DA00200146BDE8F08D00204FF4C4
:100460008011064684460EE0171B73EB050705D383
:10047000121B63EB050306434CEA010C49084FEAE3
:10048000300092185B4150EA0107EDD152EA0300B7
:1004900012D082EA040083EA0501084305D0101B4C
:1004A000AB4106D20122002306E000224FF00043B8
:1004B00002E06FF0010253101AEB06004CEB0851FA
:1004C00010EB0A0041EB0B01BDE8F04D00F0C4B8A1
:1004D0000EB540F2334102910021CDE900110A46E8
:1004E0000B4600F0C8F803B000BD00F0004230F049
:1004F00000400AD0C10D01F56071C0F3160042EA58
:100500000151C2084007114370470020014670475F
:1005100030B5041E71F1000404DB4FF0004440428A
:1005200064EB0101141E73F1000405DB1C464FF05F
:100530000043524263EB04038B4208BF824230BD4A
:1005400030B5041E71F1000404DB4FF0004440425A
:1005500064EB0101141E73F1000405DB1C464FF02F
:100560000043524263EB0403994208BF904230BDFE
:1005700001F0004330B421F0004150EA010206D0FE
:100580000A0DA2F56072C1F31301002A02DC30BC2F
:1005900000207047440F44EAC104C100E01830BC99
:1005A00000EBC25000F021B8202A04DB203A00FA08
:1005B00002F1002070479140C2F1200320FA03F3BA
:1005C000194390407047202A06DBCB17203A41FAA6
:1005D00002F043EAE07306E041FA02F3D040C2F1D0
:1005E000200291400843194670470029A8BF704770
:1005F000401C490008BF20F00100704710B4B0FA59
:1006000080FC00FA0CF050EA010404BF10BC7047F3
:1006100049B1CCF1200421FA04F411FA0CF118BF0D
:10062000012121430843A3EB0C01CB1D4FEA0061DC
:100630004FEA102042BF002010BC704700EBC350AF
:1006400010440029A4BF10BC7047401C490008BFDB
:1006500020F0010010BC704710B5141E73F10004A7
:1006600008DA401C41F1000192185B411A4301D1A4
:1006700020F0010010BD2DE9F04D92469B4611B1CE
:10068000B1FA81F202E0B0FA80F220329046FFF730
:100690008BFF04460F4640EA0A0041EA0B0153462D
:1006A0005A46084313D0114653EA010019D0C8F145
:1006B0004002504600F040F805460E465046594666
:1006C0004246FFF771FF084305D0012004E02046B1
:1006D0003946BDE8F08D0020054346EAE0762C431C
:1006E00037430A986305E40AA0EB08000022FD0ADC
:1006F00044EA47540A3002D500200146E9E70105E3
:1007000010196941DDE9084500196941BDE8F04D5E
:10071000A2E70000064C074D06E0E06840F0010348
:1007200094E8070098471034AC42F6D3FFF730FD49
:1007300048E4000868E40008202A04DB203A21FA93
:1007400002F00021704721FA02F3D040C2F12002EA
:1007500091400843194670470EB5C10F80EAE0701A
:100760000844CA07002140F233438DE80E000A46D0
:100770000B46FFF780FF03B000BD70B5C1F30A520E
:1007800001F000450024C1F3130140F2FF3341F4AE
:1007900080119A4201DA002070BD40F233439A4240
:1007A000A2F2334203DC5242FFF7C6FF00E0904062
:1007B0002C43F1D0404270BD10B507F0DDFE00F0D3
:1007C0000BF800F02BF808F009FE07F0F5FE03F037
:1007D00043F90CF0A7F910BD1CB50121082007F062
:1007E00073FF4020009001208DF8040000208DF858
:1007F000060003208DF8050002208DF807006946E9
:10080000044802F099FB4FF48071024802F0FFFBAC
:100810001CBD0000000C024000BFFEE71CB501211A
:10082000402007F051FF4020009001208DF8040087
:1008300000208DF8060003208DF8050001208DF8BA
:1008400007006946034802F077FB4021014802F0A7
:10085000DEFB1CBD0018024010B59FED2B0A2B4893
:1008600080ED000A9FED280A80ED010A9FED260A1F
:1008700080ED040A9FED240A80ED050A9FED220A0F
:1008800080ED060A9FED200A80ED070A9FED1E0A03
:1008900080ED080A0021C184018500201B4988845D
:1008A000002208468263C263002008644864002175
:1008B000164A116351639FED140A104680ED150A24
:1008C0009FED110A80ED160A9FED0F0A80ED170AC1
:1008D0009FED0D0A80ED180A00200D49C86188615E
:1008E0000C498861C8619FED081ADFED070A9FED8A
:1008F000060A08F0C3FC00200CF0E2F803F06EF8E2
:1009000003F06CF810BD000000000000B0020020F1
:10091000180300203C0300207047000010B50A486F
:10092000006801280CD105200AF088FD06480068FF
:10093000012805D100200CF0C3F8012000F01EF8BA
:10094000012000F0A7F810BD0002414210B50A488E
:10095000006801280CD105200AF070FD06480068E7
:10096000012805D100200CF0ABF8022000F006F8B9
:10097000022000F08FF810BD040241421CB504466D
:10098000012C0AD1009000208DF8040008208DF879
:10099000050000208DF806000EE0022C0BD102208D
:1009A000009000208DF8040008208DF8050000203C
:1009B0008DF8060000E01CBD684600F071F800BF2D
:1009C000F9E71CB50446012C0AD1009000208DF8EF
:1009D000040008208DF8050001208DF806000EE0C7
:1009E000022C0BD10220009000208DF8040008207A
:1009F0008DF8050001208DF8060000E01CBD68465A
:100A000000F04EF800BFF9E70EB50121880307F0AA
:100A10008BFE0021022008F011FC0121022008F0C9
:100A20000DFC0120009000208DF8040008208DF8B6
:100A3000050000208DF80600684600F031F802201D
:100A4000009000208DF8040008208DF8050000209B
:100A50008DF80600684600F023F806208DF808009F
:100A600000208DF8090001208DF80A008DF80B0098
:100A700002A807F0CBFD07208DF8080000208DF8B4
:100A800009008DF80A0001208DF80B0002A807F07C
:100A9000BDFD0EBD0149086070470000143C0140D7
:100AA000002123498279002A3AD00A461268036855
:100AB0009A430B461A600A1D126803689A430B1D7D
:100AC0001A60027911440A6803681A430A60184AD6
:100AD0000832126803689A43154B08331A601A1DCE
:100AE000126803689A43124B0C331A604279102A39
:100AF0000ED11A1F126803681A430D4B08331A608F
:100B00001A1D126803681A43094B0C331A600DE072
:100B10000749427911440A6803681A430A6005E0EC
:100B2000027911440A6803689A430A60704700001A
:100B3000003C014010B50121084607F0E5FD012108
:100B4000042007F0E1FD0121022007F0EDFD012165
:100B5000042007F0B9FD0121082007F0B5FD0121AF
:100B6000084607F0B1FD0AF0D1FC0AF023FD0AF0B7
:100B700073FD10BD51B18200A2F1C042126842F073
:100B800001038200A2F1C042136009E08200A2F1D9
:100B9000C0421268034B1A408300A3F1C0431A609D
:100BA00070470000FEFF0F00D0E901121143C26838
:100BB0001143026911434269114382691143C269B9
:100BC0001143026A1143426A1143826A1143C26AA5
:100BD0001143026B114302689200A2F1C0421160FE
:100BE000816808290BD101688900A1F1C041096819
:100BF00041F0400201688900A1F1C0410A60416BE7
:100C00000968426B526841EA0211426B926841EAFC
:100C10000221426B928941EA0241426B128A41EA07
:100C20000251426B127D41EA0261426B92691143AB
:100C30000268521C9200A2F1C0421160C16AB1F573
:100C4000804F1BD1816B0968826B526841EA0211A7
:100C5000826B926841EA0221826B128A41EA025158
:100C6000826B127D41EA0261826B926911430268D4
:100C70009200A2F1C042C2F8041107E06FF0704286
:100C800001688900A1F1C041C1F80421704700004A
:100C900030B52DED048B83B005469FEDFA0AF0EEDA
:100CA000408A0124F84890ED050AB0EE409A9FED85
:100CB000F70AB0EE408A092D6ED2DFE805F06D0527
:100CC000121F2C394653600002F026F964200AF006
:100CD000B5FB02F021F964200AF0B0FB02F01CF928
:100CE0005AE002F021F964200AF0A8FB02F01CF996
:100CF00064200AF0A3FB02F017F94DE001F0C0FDFB
:100D000064200AF09BFB01F0BBFD64200AF096FB17
:100D100001F0B6FD40E001F0C3FD64200AF08EFB57
:100D200001F0BEFD64200AF089FB01F0B9FD33E05B
:100D300001F0AEFD64200AF081FB01F0A9FD642002
:100D40000AF07CFB01F0A4FD26E002F0CDF864205F
:100D50000AF074FB02F0C8F864200AF06FFB02F09E
:100D6000C3F819E002F0C8F864200AF067FB02F04B
:100D7000C3F864200AF062FB02F0BEF80CE002F057
:100D8000C3F864200AF05AFB02F0BEF864200AF0AF
:100D900055FB02F0B9F800BF00BF9FEDBC1ADFEDB4
:100DA000BB0A9FEDBA0A08F069FA07F0C7F90020FC
:100DB000B7490880B749088000BF00BFB448008821
:100DC00000F400400028F9D000BFB248008800F4C9
:100DD00000400028F9D002F0C1FC88B98CB120464F
:100DE000611CCCB2052808DA9FEDA81ADFEDA70A2E
:100DF0009FEDA60A08F042FA60E114B1002400E079
:100E0000012402F043FCE4BB9F4890ED050A30EE5C
:100E1000490AB0EE408AB3EE0E0AB4EEC08AF1EE93
:100E200010FA06DD9FED9C0AB4EEC08AF1EE10FACE
:100E30000DD39FED9A0AB4EEC08AF1EE10FA0AD2F1
:100E40009FED970AB4EEC08AF1EE10FA03DD9FED34
:100E5000950AF0EE408ABBEE0E0AB4EEC08AF1EEBF
:100E600010FA06D29FED8D0AB4EEC08AF1EE10FAA8
:100E70000FDC9FED890AB4EEC08AF1EE10FA0CDDAA
:100E800000E015E09FED880AB4EEC08AF1EE10FA9A
:100E900003D29FED860AF0EE408AB0EE681AF0EEBB
:100EA000680AB0EE680A08F0E9F907F047F904E1CA
:100EB00077488069B0F57A6F08D99FED741ADFED35
:100EC000730A9FED720A08F0D9F9F6E07048C0691C
:100ED000E2281CD26E488069B0F5FA6F17D99FEDF1
:100EE0006B1ADFED730AB2EE0E0A02F0DBF9664808
:100EF000D0ED141AB0EE611AD0ED131AF0EE610ABB
:100F0000D0ED121AB0EE610A08F0B8F9D5E06048E9
:100F1000C069B0F58F7F1CD95D488069B0F5FA6F64
:100F200017D99FED5A1ADFED620ABAEE0E0A02F0E7
:100F3000B9F95548D0ED141AB0EE611AD0ED131A74
:100F4000F0EE610AD0ED121AB0EE610A08F096F9DF
:100F5000B3E04F48C069E22817D29FED4C1ADFED8D
:100F60004B0AB2EE040A02F09DF94748D0ED141A7C
:100F7000B0EE611AD0ED131AF0EE610AD0ED121A3C
:100F8000B0EE610A08F07AF997E04148C069B0F51F
:100F90008F7F17D99FED3D1ADFED3C0ABAEE040AA8
:100FA00002F080F93848D0ED141AB0EE611AD0ED95
:100FB000131AF0EE610AD0ED121AB0EE610A08F0D1
:100FC0005DF97AE03248C069EC281CD2304880696B
:100FD000B0F57A7F17D99FED2D1ADFED360AB2EE04
:100FE000040A02F05FF92848D0ED141AB0EE611A35
:100FF000D0ED131AF0EE610AD0ED121AB0EE610ACC
:1010000008F03CF959E02248C069B0F58A7F1CD944
:101010001F488069B0F57A7F17D99FED1C1ADFED64
:10102000250ABAEE040A02F03DF91748D0ED141A69
:10103000B0EE611AD0ED131AF0EE610AD0ED121A7B
:10104000B0EE610A08F01AF937E011488069B0F58E
:101050007A7F31D99FED0D1ADFED160A9FED0B0A4D
:1010600002F020F90848D0ED141AB0EE611AD0ED64
:10107000131AF0EE610AD0ED121AB0EE610A08F010
:10108000FDF81AE00000A042B002002000000000BD
:101090003C0300201803002000003443000034C348
:1010A0000000A5C30000C8C20000A5430000C8425C
:1010B0000000964300007A4301E000BF7DE600BFD8
:1010C000FA488069B0F57A7F7BD9F9A010210B46E8
:1010D000C822CDE900104FF4FA71E62006F0E6FCD4
:1010E0002AE100BFF448008800F400400028F9D04D
:1010F00002F0CCFAED488069B0F57A7F00D21CE1AD
:1011000002F02CFB38B91FED1F1A5FED200A1FED0E
:10111000210A08F0B3F8E848C069E22817D21FEDA9
:10112000251A5FED260AB2EE0E0A02F0BBF8E3487C
:10113000D0ED141AB0EE611AD0ED131AF0EE610A78
:10114000D0ED121AB0EE610A08F098F8F4E0DA482F
:10115000C069B0F58F7F17D91FED341A5FED350ADE
:10116000BAEE0E0A02F09EF8D448D0ED141AB0EE92
:10117000611AD0ED131AF0EE610AD0ED121AB0EE3A
:10118000610A08F07BF8D7E0CB488069B0F57A7F38
:1011900018D91FED421ADFEDCA0A1FED440A02F00A
:1011A00081F8C648D0ED141AB0EE611AD0ED131ACA
:1011B000F0EE610AD0ED121AB0EE610A08F05EF8A6
:1011C000BAE0BBE0BC488069B0F52F7F17D91FEDAE
:1011D000511ADFEDBC0A1FED530A02F063F8B7485D
:1011E000D0ED141AB0EE611AD0ED131AF0EE610AC8
:1011F000D0ED121AB0EE610A08F040F89CE0AE485B
:10120000C069EC2817D21FED5F1A5FED600AB2EEDD
:10121000040A02F047F8A948D0ED141AB0EE611A9A
:10122000D0ED131AF0EE610AD0ED121AB0EE610A99
:1012300008F024F880E0A048C069B0F58A7F17D98B
:101240001FED6E1A5FED6F0ABAEE040A02F02AF87B
:101250009A48D0ED141AB0EE611AD0ED131AF0EEE0
:10126000610AD0ED121AB0EE610A08F007F863E0E7
:101270009148C069B0F58A7F1CD88F48C069B0F525
:10128000857F17D91FED7F1A5FED800AB9EE040A3A
:1012900002F008F88948D0ED141AB0EE611AD0EDCA
:1012A000131AF0EE610AD0ED121AB0EE610A07F0DF
:1012B000E5FF41E08048C069EC281BD37E48C06947
:1012C000F62817D21FED8F1A5FED900AB1EE040ACF
:1012D00001F0E8FF7948D0ED141AB0EE611AD0EDB4
:1012E000131AF0EE610AD0ED121AB0EE610A07F09F
:1012F000C5FF21E01FED9B1A5FED9C0A1FED9D0AC3
:1013000007F0BCFF07F044FF1FEDA01ADFED6D0AE8
:101310001FEDA20A01F0C6FF6848D0ED141AB0EE26
:10132000611AD0ED131AF0EE610AD0ED121AB0EE88
:10133000610A07F0A3FF00E0D3E600BF5B488069C5
:10134000B0F57A7F77D860A010210B46C822CDE98E
:1013500000104FF4FA71E62006F0A8FBFFE000BF92
:101360005248008800F400400028F9D002F0F6F955
:1013700002F08CF940B91FEDBB1A5FEDBC0A1FEDFE
:10138000BD0A07F07BFFEAE048488069B0F5617F5D
:1013900017D91FEDC21ADFED4A0A1FEDC40A01F08A
:1013A00081FF4648D0ED141AB0EE611AD0ED131A41
:1013B000F0EE610AD0ED121AB0EE610A07F05EFF9E
:1013C000CCE03A48C069B0F5817F17D21FEDD11A41
:1013D0005FEDD20ABAEE040A01F064FF3748D0ED9F
:1013E000141AB0EE611AD0ED131AF0EE610AD0EDC6
:1013F000121AB0EE610A07F041FFAFE02B48C06956
:10140000B0F58B7F18D91FEDDF1A5FEDE00AB2EE61
:10141000040A01F047FF2948D0ED141AB0EE611A12
:10142000D0ED131AF0EE610AD0ED121AB0EE610A97
:1014300007F024FF92E094E01C488069B0F52F7F0C
:1014400017D91FEDEE1ADFED1F0A1FEDF00A01F0AC
:1014500029FF1A48D0ED141AB0EE611AD0ED131A14
:10146000F0EE610AD0ED121AB0EE610A07F006FF45
:1014700074E00E48C069B0F5847F2BD81FEDFD1ACB
:10148000DFED130AB9EE040A01F00CFF0B48D0EDB2
:10149000141AB0EE611AD0ED131AF0EE610AD0ED15
:1014A000121AB0EE610A07F0E9FE57E018030020B7
:1014B00056696577210000003C030020B00200203F
:1014C000000048430000164352616461722100002D
:1014D000000000003448C069B0F5887F17D31FEDC5
:1014E000041A5FED050AB1EE040A01F0DBFE2F4895
:1014F000D0ED141AB0EE611AD0ED131AF0EE610AB5
:10150000D0ED121AB0EE610A07F0B8FE26E01FED2A
:10151000101A5FED110A1FED120A07F0AFFE07F077
:1015200037FE1FED151A5FED190A1FED170A01F0BE
:10153000B9FE1E48D0ED141AB0EE611AD0ED131AA0
:10154000F0EE610AD0ED121AB0EE610A07F096FED5
:1015500015488069B0F5AF7F00D201E000BFFEE61C
:1015600000BF01F059FD1FED261A5FED270A1FEDA0
:10157000280A07F083FE012007F02CFA4FF4FA70D6
:1015800009F05CFF06F0DAFD09A010210B46C82225
:10159000CDE900104FF4E671E62006F087FA03B0BB
:1015A000BDEC048B30BD000018030020B002002009
:1015B000202020202020200070B52DED088B82B047
:1015C00005469FEDFB0AF0EE408A01240026F9480B
:1015D00090ED050AB0EE40BA9FEDF70AB0EE408AF2
:1015E000F648007818B99FEDF60AF0EE408A092D0A
:1015F0006ED2DFE805F06D05121F2C3946536000EE
:1016000001F08AFC642009F019FF01F085FC6420D8
:1016100009F014FF01F080FC5AE001F085FC642021
:1016200009F00CFF01F080FC642009F007FF01F0D5
:101630007BFC4DE001F024F9642009F0FFFE01F08D
:101640001FF9642009F0FAFE01F01AF940E001F0F8
:1016500027F9642009F0F2FE01F022F9642009F074
:10166000EDFE01F01DF933E001F012F9642009F0FC
:10167000E5FE01F00DF9642009F0E0FE01F008F943
:1016800026E001F031FC642009F0D8FE01F02CFCCA
:10169000642009F0D3FE01F027FC19E001F02CFCD6
:1016A000642009F0CBFE01F027FC642009F0C6FE9F
:1016B00001F022FC0CE001F027FC642009F0BEFEE2
:1016C00001F022FC642009F0B9FE01F01DFC00BF0E
:1016D00000BF9FEDB91ADFEDB80A9FEDB70A07F01A
:1016E000CDFD06F02BFD0020B6490880B6490880E4
:1016F00000BF00BFB348008800F400400028F9D0C4
:1017000000BFB148008800F400400028F9D002F082
:1017100025F888B98CB12046611CCCB2052808DABE
:101720009FEDA51ADFEDA40A9FEDA30A07F0A6FD21
:10173000A1E114B1002400E0012401F0A7FF002C76
:101740007DD19C4890ED050AB0EE408A90ED010AEB
:10175000F0EE080AB4EEE00AF1EE10FA1BDA90EDB2
:10176000000A10EE101A0846FEF7BFFE41EC1A0BF5
:10177000B0EE4A0AF0EE6A0A09F00EF8B0EE409AAE
:10178000F0EE609A9FED910B53EC102B51EC190B7E
:10179000FEF7D6FE14D28948007840B99FED861A2C
:1017A000F0EE040ABFEE000A07F0DEFB4AE09FED10
:1017B000821AF0EE040AB7EE000A07F0D5FB41E00A
:1017C0009FED840AB4EEC08AF1EE10FA06DD9FEDBB
:1017D000820AB4EEC08AF1EE10FA0DD39FED7F0AB3
:1017E000B4EEC08AF1EE10FA0AD29FED7D0AB4EE93
:1017F000C08AF1EE10FA03DD9FED710AF0EE408A27
:101800009FED780AB4EEC08AF1EE10FA06D29FED91
:10181000730AB4EEC08AF1EE10FA0DDC9FED6E0A89
:10182000B4EEC08AF1EE10FA0CDD9FED6F0AB4EE53
:10183000C08AF1EE10FA05D29FED5D0A00E00CE0DF
:10184000F0EE408AB0EE681AF0EE680AB0EE680A70
:1018500007F014FD06F072FC0CE15A488069B0F5FF
:101860007A6F08D99FED541ADFED530A9FED520AA3
:1018700007F004FDFEE05348C069E2281CD251483D
:101880008069B0F5FA6F17D99FED4B1ADFED570A53
:10189000B2EE0E0A01F006FD4648D0ED141AB0EE85
:1018A000611AD0ED131AF0EE610AD0ED121AB0EE03
:1018B000610A07F0E3FCDDE04248C069B0F58F7FC4
:1018C0001CD940488069B0F5FA6F17D99FED3A1AD4
:1018D000DFED460ABAEE0E0A01F0E4FC3548D0ED21
:1018E000141AB0EE611AD0ED131AF0EE610AD0EDC1
:1018F000121AB0EE610A07F0C1FCBBE03148C069C2
:10190000E22817D29FED2C1ADFED2B0AB2EE040A63
:1019100001F0C8FC2748D0ED141AB0EE611AD0EDE2
:10192000131AF0EE610AD0ED121AB0EE610A07F058
:10193000A5FC9FE02348C069B0F58F7F17D99FEDC4
:101940001E1ADFED1D0ABAEE040A01F0ABFC1948BD
:10195000D0ED141AB0EE611AD0ED131AF0EE610A50
:10196000D0ED121AB0EE610A07F088FC82E015484B
:10197000C069EC283ED213488069B0F57A7F39D926
:101980009FED0D1ADFED1A0AB2EE040A01F08AFC8F
:101990000848D0ED141AB0EE611AD0ED131AF0EE2B
:1019A000610AD0ED121AB0EE610A07F067FC61E03F
:1019B0000000C842B0020020000000002300002008
:1019C0000000C8C23C0300201803002000000000F3
:1019D0000000F83F0000344200003443000034C3EC
:1019E00000809DC3000034C200809D4300009643E8
:1019F00000007A43FE48C069B0F58A7F1CD9FC48D4
:101A00008069B0F57A7F17D91FED151A5FED080AC6
:101A1000BAEE040A01F046FCF648D0ED141AB0EE16
:101A2000611AD0ED131AF0EE610AD0ED121AB0EE81
:101A3000610A07F023FC1DE0ED488069B0F57A7F6C
:101A400017D91FED231A5FED160A1FED250A01F0C5
:101A500029FCE848D0ED141AB0EE611AD0ED131A43
:101A6000F0EE610AD0ED121AB0EE610A07F006FC42
:101A700000E001E000BF3CE600BFDF488069B0F550
:101A80007A7F7BD9DDA010210B46C822CDE900105A
:101A90004FF4FA71E62006F009F82AE100BFD448B5
:101AA000008800F400400028F9D001F0EFFDD24892
:101AB0008069B0F57A7F00D21CE101F04FFE38B9A1
:101AC0001FED431A5FED440A1FED450A07F0D6FBF0
:101AD000C748C069E22817D21FED491A5FED4A0ACC
:101AE000B2EE0E0A01F0DEFBC248D0ED141AB0EEE1
:101AF000611AD0ED131AF0EE610AD0ED121AB0EEB1
:101B0000610A07F0BBFBF4E0B948C069B0F58F7F0C
:101B100017D91FED571A5FED580ABAEE0E0A01F0F9
:101B2000C1FBB448D0ED141AB0EE611AD0ED131A0F
:101B3000F0EE610AD0ED121AB0EE610A07F09EFBDA
:101B4000D7E0AB488069B0F57A7F18D91FED661AE7
:101B5000DFEDAC0A1FED680A01F0A4FBA548D0ED4B
:101B6000141AB0EE611AD0ED131AF0EE610AD0ED3E
:101B7000121AB0EE610A07F081FBBAE0BBE09C48A4
:101B80008069B0F52F7F17D91FED751ADFED9E0A1A
:101B90001FED770A01F086FB9648D0ED141AB0EEDF
:101BA000611AD0ED131AF0EE610AD0ED121AB0EE00
:101BB000610A07F063FB9CE08D48C069EC2817D2EE
:101BC0001FED831A5FED840AB2EE040A01F06AFB8E
:101BD0008848D0ED141AB0EE611AD0ED131AF0EE69
:101BE000610AD0ED121AB0EE610A07F047FB80E0FF
:101BF0007F48C069B0F58A7F17D91FED911A5FED54
:101C0000920ABAEE040A01F04DFB7A48D0ED141A9C
:101C1000B0EE611AD0ED131AF0EE610AD0ED121A8F
:101C2000B0EE610A07F02AFB63E07148C069B0F5C5
:101C30008A7F1CD86E48C069B0F5857F17D91FED23
:101C4000A21A5FEDA30AB9EE040A01F02BFB694862
:101C5000D0ED141AB0EE611AD0ED131AF0EE610A4D
:101C6000D0ED121AB0EE610A07F008FB41E06048BF
:101C7000C069EC281BD35E48C069F62817D21FED57
:101C8000B21A5FEDB30AB1EE040A01F00BFB59483A
:101C9000D0ED141AB0EE611AD0ED131AF0EE610A0D
:101CA000D0ED121AB0EE610A07F0E8FA21E01FED5C
:101CB000BE1A5FEDBF0A1FEDC00A07F0DFFA07F09A
:101CC00067FA1FEDC31ADFED500A1FEDC50A01F0D8
:101CD000E9FA4848D0ED141AB0EE611AD0ED131AA3
:101CE000F0EE610AD0ED121AB0EE610A07F0C6FA02
:101CF00000E0D3E600BF40488069B0F57A7F75D830
:101D000042A010210B46C822CDE900104FF4FA7111
:101D1000E62005F0CBFE01E100BF3748008800F463
:101D200000400028F9D001F019FD01F0AFFC40B9E6
:101D30001FEDDF1A5FEDE00A1FEDE10A07F09EFAE2
:101D4000ECE02D488069B0F5487F17D91FEDE61A01
:101D5000DFED2C0A1FEDE80A01F0A4FA2548D0EDCA
:101D6000141AB0EE611AD0ED131AF0EE610AD0ED3C
:101D7000121AB0EE610A07F081FACEE01E48C0697F
:101D8000B0F5817F17D21FEDF41A5FEDF50ABAEEB8
:101D9000040A01F087FA1748D0ED141AB0EE611A60
:101DA000D0ED131AF0EE610AD0ED121AB0EE610A0E
:101DB00007F064FAB1E01048C069B0F58B7F2ED906
:101DC0009FED141ADFED130AB2EE040A01F06AFA6D
:101DD0000848D0ED141AB0EE611AD0ED131AF0EEE7
:101DE000610AD0ED121AB0EE610A15E098E0000029
:101DF0003C030020B00200201803002056696577DC
:101E00002100000000004843000016435261646155
:101E1000722100000000000007F030FA7DE0514818
:101E20008069B0F52F7F17D91FED061A5FED0A0AFA
:101E30001FED080A01F036FA4B48D0ED141AB0EE47
:101E4000611AD0ED131AF0EE610AD0ED121AB0EE5D
:101E5000610A07F013FA60E04248C069B0F5847F78
:101E600017D81FED141A5FED150AB9EE040A01F038
:101E700019FA3D48D0ED141AB0EE611AD0ED131ADC
:101E8000F0EE610AD0ED121AB0EE610A07F0F6F931
:101E900043E03448C069B0F5887F17D31FED231A9B
:101EA0005FED240AB1EE040A01F0FCF92E48D0EDF2
:101EB000141AB0EE611AD0ED131AF0EE610AD0EDEB
:101EC000121AB0EE610A07F0D9F926E01FED2F1AB9
:101ED0005FED300A1FED310A07F0D0F907F058F92D
:101EE0001FED341A5FED380A1FED360A01F0DAF9FA
:101EF0001D48D0ED141AB0EE611AD0ED131AF0EEB1
:101F0000610AD0ED121AB0EE610A07F0B7F9154870
:101F10008069B0F5AF7F00D201E000BFFCE600BFF2
:101F200001F07AF81FED451A5FED460A1FED470AEA
:101F300007F0A4F9012006F04DFD4FF4FA7009F006
:101F40007DFA06F0FBF809A010210B46C822CDE966
:101F500000104FF4E671E62005F0A8FD02B0BDECDC
:101F6000088B70BD18030020B00200202020202024
:101F70002020200000B52DED048B83B09FEDEE0AEC
:101F8000F0EE408AED4890ED050AB0EE409A9FEDE4
:101F9000EC0AB0EE408A9FEDEA1ADFEDE90A9FED08
:101FA000E80A07F06BF906F0C9F80020E549088057
:101FB00000BF00BFE348008800F400400028F9D0CB
:101FC00001F064FB00B9A2E1DFA010210B46C8229A
:101FD000CDE900104FF4E671E62005F067FD102012
:101FE0000090D84804234FF4E671C26940F24B10C8
:101FF00005F012FDD7A010210B46C822CDE9001034
:102000004FF4F071E62005F051FD10200090CD480E
:1020100004234FF4F071826940F24B1005F0FCFC90
:102020000020C84981F820000846806940F6B83190
:10203000884251D9C14890ED050A30EE490AB0EE08
:10204000408AB3EE0E0AB4EEC08AF1EE10FA06DD55
:102050009FEDC40AB4EEC08AF1EE10FA0DD39FEDE5
:10206000C20AB4EEC08AF1EE10FA0AD29FEDBF0A9E
:10207000B4EEC08AF1EE10FA03DD9FEDBD0AF0EE7A
:10208000408ABBEE0E0AB4EEC08AF1EE10FA06D218
:102090009FEDB50AB4EEC08AF1EE10FA0DDC9FEDAB
:1020A000B10AB4EEC08AF1EE10FA0ADD9FEDB10A72
:1020B000B4EEC08AF1EE10FA03D29FED9F0AF0EE63
:1020C000408AB0EE681AF0EE680AB0EE680A07F0CF
:1020D000D5F806F033F817E19A48C069FD2817D201
:1020E0009FED971ADFED960ABBEE040A01F0DAF8CD
:1020F0009248D0ED141AB0EE611AD0ED131AF0EE3A
:10210000610AD0ED121AB0EE610A07F0B7F8FBE0F1
:102110008C48C069B0F58E7F17D39FED891ADFED2B
:10212000880AB3EE040A01F0BDF88448D0ED141A11
:10213000B0EE611AD0ED131AF0EE610AD0ED121A6A
:10214000B0EE610A07F09AF8DEE07E488069B0F5EB
:102150007A7F17D99FED7A1ADFED870A9FED780A0B
:1021600001F0A0F87548D0ED141AB0EE611AD0ED68
:10217000131AF0EE610AD0ED121AB0EE610A07F000
:102180007DF8C1E06F48C069B0F5817F1CD26D4811
:102190008069B0F52F7F17D99FED691ADFED680AC6
:1021A000BAEE0E0A01F07EF86448D0ED141AB0EED3
:1021B000611AD0ED131AF0EE610AD0ED121AB0EEEA
:1021C000610A07F05BF89FE05E48C069B0F58B7F5D
:1021D0001CD95C488069B0F52F7F17D99FED581A3C
:1021E000DFED570AB2EE0E0A01F05CF85348D0ED6D
:1021F000141AB0EE611AD0ED131AF0EE610AD0EDA8
:10220000121AB0EE610A07F039F87DE04D48806996
:10221000B0F52F7F17D99FED4A1ADFED580A9FEDD1
:10222000480A01F03FF84548D0ED141AB0EE611AA3
:10223000D0ED131AF0EE610AD0ED121AB0EE610A79
:1022400007F01CF860E03F48C069B0F5847F17D8FC
:102250009FED3B1ADFED3A0ABAEE040A01F022F8CC
:102260003648D0ED141AB0EE611AD0ED131AF0EE24
:10227000610AD0ED121AB0EE610A06F0FFFF43E0EA
:102280003048C069B0F5887F17D39FED2D1ADFED78
:102290002C0AB2EE040A01F005F82848D0ED141A11
:1022A000B0EE611AD0ED131AF0EE610AD0ED121AF9
:1022B000B0EE610A06F0E2FF26E09FED211ADFEDA5
:1022C000200A9FED1F0A06F0D9FF06F061FF9FED7F
:1022D0001C1ADFED2B0A9FED1A0A00F0E3FF1748E6
:1022E000D0ED141AB0EE611AD0ED131AF0EE610AB7
:1022F000D0ED121AB0EE610A06F0C0FF11488069F5
:10230000B0F5C87F00D203E005F018FF00BF50E62B
:1023100000BF00F081FE9FED0A1ADFED090A9FED74
:10232000080A06F0ABFF06F065FF05F007FF03B0F3
:10233000BDEC048B00BD00000000C842B0020020CC
:10234000000000001803002052616461723A72615B
:102350006400000052616461723A6C656E67746873
:102360000000000000003443000034C30000A5C397
:102370000000C8C20000A543000096430000484387
:102380000000164370B52DED048B05469FEDFE0A47
:10239000F0EE408A0124FD4890ED050AB0EE409A27
:1023A0009FEDFB0AB0EE408A012D06D0022D11D020
:1023B000032D1CD0042D34D126E000F0ADFD6420A7
:1023C00009F03CF800F0A8FD642009F037F800F0AF
:1023D000A3FD26E000F0A8FD642009F02FF800F02E
:1023E000A3FD642009F02AF800F09EFD19E000F03A
:1023F00047FA642009F022F800F042FA642009F05C
:102400001DF800F03DFA0CE000F04AFA642009F0F3
:1024100015F800F045FA642009F010F800F040FAD1
:1024200000BF00BF9FEDDA1ADFEDD90A9FEDD80A91
:1024300006F024FF05F082FE0020D649088000BF88
:1024400000BFD448008800F400400028F9D001F013
:1024500085F948B94CB12046611CCCB2052800DA98
:10246000F0E114B1002400E00124E4BBC74890ED82
:10247000050A30EE490AB0EE408AB3EE0E0AB4EE19
:10248000C08AF1EE10FA06DD9FEDC30AB4EEC08AF1
:10249000F1EE10FA0DD39FEDC10AB4EEC08AF1EE51
:1024A00010FA0AD29FEDBE0AB4EEC08AF1EE10FA1D
:1024B00003DD9FEDBC0AF0EE408ABBEE0E0AB4EEDF
:1024C000C08AF1EE10FA06D29FEDB40AB4EEC08ACB
:1024D000F1EE10FA0FDC9FEDB00AB4EEC08AF1EE17
:1024E00010FA0CDD00E015E09FEDAF0AB4EEC08AF3
:1024F000F1EE10FA03D29FEDA40AF0EE408AB0EE9E
:10250000681AF0EE680AB0EE680A06F0B7FE05F049
:1025100015FE96E19F488069B0F57A6F17D99FED57
:102520009C1ADFED9B0A9FED9A0A00F07FFD974809
:10253000D0ED141AB0EE611AD0ED131AF0EE610A64
:10254000D0ED121AB0EE610A06F098FE79E19148DA
:10255000C069E2281DD28F48806940F2DC51884270
:1025600017D99FED8B1ADFED910AB2EE0E0A00F03B
:1025700099FE8648D0ED141AB0EE611AD0ED131A08
:10258000F0EE610AD0ED121AB0EE610A06F076FEA6
:1025900057E18048C069B0F58F7F1DD97D488069BB
:1025A00040F2DC51884217D99FED791ADFED7F0A9E
:1025B000BAEE0E0A00F076FE7448D0ED141AB0EEB2
:1025C000611AD0ED131AF0EE610AD0ED121AB0EED6
:1025D000610A06F053FE34E16E48806940F21451FE
:1025E000884217D99FED6A1ADFED710A9FED680ADC
:1025F00000F058FE6548D0ED141AB0EE611AD0ED27
:10260000131AF0EE610AD0ED121AB0EE610A06F06C
:1026100035FE16E15F48C069EC281CD25D48806930
:10262000B0F5966F17D99FED5A1ADFED590AB2EE41
:10263000040A00F037FE5548D0ED141AB0EE611AC6
:10264000D0ED131AF0EE610AD0ED121AB0EE610A65
:1026500006F014FEF5E04F48C069B0F58A7F1CD93A
:102660004C488069B0F5966F17D99FED491ADFED98
:10267000510ABAEE040A00F015FE4448D0ED141ACF
:10268000B0EE611AD0ED131AF0EE610AD0ED121A15
:10269000B0EE610A06F0F2FDD3E03E488069B0F585
:1026A0007A7F17D99FED3A1ADFED420A9FED380A7B
:1026B00000F0F8FD3548D0ED141AB0EE611AD0EDF7
:1026C000131AF0EE610AD0ED121AB0EE610A06F0AC
:1026D000D5FDB6E02F48C069E22817D29FED2C1A2D
:1026E000DFED2B0AB2EE040A00F0DCFD2748D0ED46
:1026F000141AB0EE611AD0ED131AF0EE610AD0EDA3
:10270000121AB0EE610A06F0B9FD9AE02148C069DC
:10271000B0F58F7F17D99FED1E1ADFED1D0ABAEEB7
:10272000040A00F0BFFD1948D0ED141AB0EE611A8A
:10273000D0ED131AF0EE610AD0ED121AB0EE610A74
:1027400006F09CFD7DE01348C069B0F58F7F36D858
:102750001048C069B0F5857F31D99FED0D1ADFEDC6
:102760000C0AB9EE040A00F09DFD0848D0ED141AD9
:10277000B0EE611AD0ED131AF0EE610AD0ED121A24
:10278000B0EE610A18E000000000A042B002002094
:10279000000000003C03002000003443000034C36C
:1027A0000000A5C30000A0C20000A543000096439E
:1027B00000007A430000484306F060FD41E02D48E8
:1027C000C069E2281BD32B48C069F62817D21FED39
:1027D000101A5FED110AB1EE040A00F063FD2648FD
:1027E000D0ED141AB0EE611AD0ED131AF0EE610AB2
:1027F000D0ED121AB0EE610A06F040FD21E01FEDA7
:102800001C1A5FED1D0A1FED1E0A06F037FD06F0CB
:10281000BFFC1FED211ADFED190A1FED230A00F09E
:1028200041FD1548D0ED141AB0EE611AD0ED131A1F
:10283000F0EE610AD0ED121AB0EE610A06F01EFD4C
:1028400001E000BFFCE500BF00F0E6FB1FED301A21
:102850005FED310A1FED320A06F010FD012006F08F
:10286000B9F84FF47A7008F0E9FD05F067FCBDECAB
:10287000048B70BD3C030020B00200200000164312
:1028800010B53321014807F0D0FE10BD0010014003
:1028900010B53521014807F0C8FE10BD00100140F9
:1028A00010B53421014807F0C0FE10BD00100140F2
:1028B00010B52DED048B9FEDFE0AF0EE408AFD4829
:1028C00090ED050AB0EE409A9FEDFB0AB0EE408A0B
:1028D000FA480078012802D140F2071401E040F2E2
:1028E0000F149FEDF51ADFEDF40A9FEDF30A06F0E1
:1028F000C5FC05F023FC00BF00BFF148008800F4D0
:1029000000400028F9D000F0C1FEB8B99FEDEA1AE6
:10291000DFEDEC0A9FEDE80A00F0C4FCE548D0EDDD
:10292000141AB0EE611AD0ED131AF0EE610AD0ED70
:10293000121AB0EE610A06F0A1FCCCE2E048806910
:1029400040F2DC51884200D2C5E2DD488069B0F532
:102950007A6F51D9D74890ED050A30EE490AB0EEAA
:10296000408AB3EE0E0AB4EEC08AF1EE10FA06DD2C
:102970009FEDD50AB4EEC08AF1EE10FA0DD39FEDAB
:10298000D30AB4EEC08AF1EE10FA0AD29FEDD00A53
:10299000B4EEC08AF1EE10FA03DD9FEDCE0AF0EE40
:1029A000408ABBEE0E0AB4EEC08AF1EE10FA06D2EF
:1029B0009FEDC60AB4EEC08AF1EE10FA0DDC9FED71
:1029C000C20AB4EEC08AF1EE10FA0ADD9FEDC20A27
:1029D000B4EEC08AF1EE10FA03D29FEDB50AF0EE24
:1029E000408AB0EE681AF0EE680AB0EE680A06F0A7
:1029F00045FC05F0A3FB6DE2B148806940F6B831B3
:102A000088421DD9AE48C169A4F10A00814217D29B
:102A10009FEDA91ADFEDB10ABBEE040A00F042FCFB
:102A2000A448D0ED141AB0EE611AD0ED131AF0EEEE
:102A3000610AD0ED121AB0EE610A06F01FFC49E2FD
:102A40009F48806940F6B83188421DD99C48C169C9
:102A500004F10A00814217D99FED971ADFED9F0A12
:102A6000B3EE040A00F01EFC9248D0ED141AB0EE4A
:102A7000611AD0ED131AF0EE610AD0ED121AB0EE21
:102A8000610A06F0FBFB25E28D48806940F6B8310B
:102A9000884217D99FED881ADFED900A9FED860ACC
:102AA00000F000FC8348D0ED141AB0EE611AD0EDAE
:102AB000131AF0EE610AD0ED121AB0EE610A06F0B8
:102AC000DDFB07E27E48C169A4F10A00814217D20A
:102AD0009FED791ADFED780ABBEE040A00F0E2FB05
:102AE0007448D0ED141AB0EE611AD0ED131AF0EE5E
:102AF000610AD0ED121AB0EE610A06F0BFFBE9E1FF
:102B00006F48C16904F10A00814217D99FED6A1A22
:102B1000DFED690AB3EE040A00F0C4FB6548D0EDAE
:102B2000141AB0EE611AD0ED131AF0EE610AD0ED6E
:102B3000121AB0EE610A06F0A1FBCBE16048806991
:102B4000B0F5166F17D99FED5C1ADFED5E0A9FEDA9
:102B50005A0A00F0A7FB5748D0ED141AB0EE611ADC
:102B6000D0ED131AF0EE610AD0ED121AB0EE610A40
:102B700006F084FBAEE15248806940F69801884235
:102B800017D29FED4D1ADFED560A9FED4B0A00F06C
:102B900089FB4848D0ED141AB0EE611AD0ED131A33
:102BA000F0EE610AD0ED121AB0EE610A06F066FB93
:102BB00090E14348C169601F81421DD2404880694D
:102BC00040F62411884217D99FED3B1ADFED450AE4
:102BD000B9EE040A00F066FB3648D0ED141AB0EEE8
:102BE000611AD0ED131AF0EE610AD0ED121AB0EEB0
:102BF000610A06F043FB6DE13148C169601D814205
:102C00001DD92F48806940F62411884217D99FEDBD
:102C10002A1ADFED340AB1EE040A00F043FB25481E
:102C2000D0ED141AB0EE611AD0ED131AF0EE610A6D
:102C3000D0ED121AB0EE610A06F020FB4AE12048FE
:102C4000C169601F81421DD21D48806940F6D401D0
:102C5000884217D29FED181ADFED230AB9EE040A55
:102C600000F020FB1348D0ED141AB0EE611AD0ED3D
:102C7000131AF0EE610AD0ED121AB0EE610A06F0F6
:102C8000FDFA27E10E48C169601D81423DD90C481B
:102C9000806940F6D401884237D29FED071ADFEDF4
:102CA000120AB1EE040A00F0FDFA02481EE000002C
:102CB0000000C842B00200200000000023000020F5
:102CC000180300200000484300003443000034C3D0
:102CD0000000A5C30000C8C20000A5430000964341
:102CE000000048C30000A0420000A0C2D0ED141AAA
:102CF000B0EE611AD0ED131AF0EE610AD0ED121A9F
:102D0000B0EE610A06F0BAFAE4E07548C169601FE6
:102D1000814217D21FED181A5FED190AB9EE040AA5
:102D200000F0C0FA6F48D0ED141AB0EE611AD0ED81
:102D3000131AF0EE610AD0ED121AB0EE610A06F035
:102D40009DFAC7E06648C169601D814217D91FED31
:102D5000261A5FED270AB1EE040A00F0A3FA6148D3
:102D6000D0ED141AB0EE611AD0ED131AF0EE610A2C
:102D7000D0ED121AB0EE610A06F080FAAAE05848C7
:102D8000C169601F81421CD25548C169A01E8142A1
:102D900017D91FED371A5FED380AB8EE080A00F0B0
:102DA00081FA5048D0ED141AB0EE611AD0ED131A22
:102DB000F0EE610AD0ED121AB0EE610A06F05EFA8A
:102DC00088E04748C169601D81421CD94448C169F7
:102DD000A01C814217D91FED481A5FED490AB0EED9
:102DE000080A00F05FFA3F48D0ED141AB0EE611AFD
:102DF000D0ED131AF0EE610AD0ED121AB0EE610AAE
:102E000006F03CFA66E03648C169601E81420AD28B
:102E1000B3EE0E1A5FED580A1FED590A06F02EFAAE
:102E200005F08CF956E02E48C169601C81420AD930
:102E3000BBEE0E1A5FED600A1FED610A06F01EFA86
:102E400005F07CF946E02648806940F60611884284
:102E500017D91FED671AF3EE0E0A1FED690A00F08D
:102E600021FA2048D0ED141AB0EE611AD0ED131AF1
:102E7000F0EE610AD0ED121AB0EE610A06F0FEF92A
:102E800028E01748806940F6F201884217D21FED0A
:102E9000761AFBEE0E0A1FED780A00F003FA1148CD
:102EA000D0ED141AB0EE611AD0ED131AF0EE610AEB
:102EB000D0ED121AB0EE610A06F0E0F90AE01FED5B
:102EC000821A5FED830A1FED840A06F0D7F906F037
:102ED0005FF901E000BF0FE500BFBDEC048B10BD42
:102EE00018030020B002002010B53621014807F079
:102EF0009CFB10BD0010014010B53721014807F0C0
:102F000094FB10BD0010014010B53821014807F0B6
:102F10008CFB10BD0010014010B53121014807F0B5
:102F200084FB10BD0010014010B53221014807F0AC
:102F30007CFB10BD00100140F0B50A4600210023C3
:102F4000002400BF3DE0012505FA01F3156805EAFC
:102F500003049C4234D105684F000326BE40B543AC
:102F6000056015794E00B540066835430560157952
:102F7000012D02D01579022D16D185684F00032648
:102F8000BE40B543856055794E00B54086683543EF
:102F90008560456801268E40B54345604568967951
:102FA0008E40B6B235434560C5684F000326BE402B
:102FB000B543C560D5794E00B540C6683543C56098
:102FC000491C1029BFD3F0BDF0B5002300244D07E4
:102FD000ED0E02FA05F3CE1000F1200555F826504B
:102FE0004E07F70E0F26BE40B543CF1000F1200666
:102FF00046F82750CE1000F1200555F8265045EA36
:103000000304CE1000F1200545F82640F0BD4183B1
:10301000704701837047000003E00348006800B96F
:1030200000E0FAE700BF70470802414270B52DED9D
:103030000A8B9EB0B0EE408AF0EE608AB0EE419A04
:10304000B6EE000A8DED150A9FED920A8DED160A77
:10305000BFEE000A8DED170ABFEE000A8DED180ACB
:103060009FED8D0A8DED190ABFEE000A8DED1A0A4B
:10307000B6EE000A8DED1B0A9FED880A8DED1C0A45
:10308000BFEE000A8DED1D0A854890ED040A10EE92
:10309000101A0846FDF729FA41EC1B0BB0EE4B0A5B
:1030A000F0EE6B0A07F014FBB0EE40AAF0EE60AA57
:1030B00051EC1A0BFDF75CFA0C90794890ED040A7C
:1030C00010EE101A0846FDF710FA41EC1B0BB0EE9B
:1030D0004B0AF0EE6B0A07F06BFBB0EE40AAF0EE85
:1030E00060AA51EC1A0BFDF743FA0D909FED6A0AA6
:1030F0008DED0E0A6A4890ED040A10EE101A08468B
:10310000FDF7F3F941EC1C0BB0EE4C0AF0EE6C0A43
:1031100007F04EFBB0EE40BAF0EE60BA51EC1B0B7C
:1031200081F0004141EC1A0BFDF722FA0F905C4848
:1031300090ED040A10EE101A0846FDF7D6F941EC9E
:103140001B0BB0EE4B0AF0EE6B0A07F0C1FAB0EEC3
:1031500040AAF0EE60AA51EC1A0BFDF709FA1090A4
:103160009FED4D0A8DED110A9FED4B0A8DED120A70
:103170009FED490A8DED130AB7EE000A8DED140A92
:10318000B1EE480AF2EE040A20EE200A8DED090A9B
:10319000B1EE680A8DED0A0AB1EE490A8DED0B0A0F
:1031A00000243EE0002538E09FED3B0A04EB44009C
:1031B000694601EB800000EB850080ED000A0026E7
:1031C00027E004EB4400694601EB800000EB85003A
:1031D00090ED000A04EB440015A901EB800000EB20
:1031E0008600D0ED000A06EB46000CA901EB80003A
:1031F00000EB850090ED001A00EE810A04EB44001C
:10320000694601EB800000EB850080ED000A701C30
:10321000C6B2032ED5DB681CC5B2032DC4DB601C0F
:10322000C4B2032CBEDB00242BE09FED1B0A1C481C
:10323000483000EB840080ED000A00251DE004EB1F
:103240004400694601EB800000EB8500D0ED000AE8
:1032500009A800EB850090ED001A1148483000EBFA
:10326000840090ED000A00EE810A0D48483000EB22
:10327000840080ED000A681CC5B2032DDFDB601CF2
:10328000C4B2032CD1DB04F059FF1EB0BDEC0A8B95
:1032900070BD0000D7B35D3F00000000D7B35DBF35
:1032A000B002002070B52DED048B9EB0B0EE408AC8
:1032B000F0EE608AB0EE419AB6EE000A8DED150A86
:1032C0009FED640A8DED160ABFEE000A8DED170A18
:1032D000BFEE000A8DED180A9FED5F0A8DED190A09
:1032E000BFEE000A8DED1A0AB6EE000A8DED1B0A3C
:1032F0009FED5A0A8DED1C0ABFEE000A8DED1D0AE6
:10330000B7EE000A8DED0C0A9FED530A8DED0D0A04
:103310009FED510A8DED0E0A9FED4F0A8DED0F0ABC
:10332000B7EE000A8DED100A9FED4B0A8DED110AE4
:103330009FED490A8DED120A9FED470A8DED130AA4
:10334000B7EE000A8DED140AB1EE480AF2EE040A57
:1033500020EE200A8DED090AB1EE680A8DED0A0A09
:10336000B1EE490A8DED0B0A00243EE0002538E05D
:103370009FED390A04EB4400694601EB800000EB45
:10338000850080ED000A002627E004EB4400694632
:1033900001EB800000EB850090ED000A04EB440097
:1033A00015A901EB800000EB8600D0ED000A06EBCA
:1033B00046000CA901EB800000EB850090ED001A9F
:1033C00000EE810A04EB4400694601EB800000EB4B
:1033D000850080ED000A701CC6B2032ED5DB681C88
:1033E000C5B2032DC4DB601CC4B2032CBEDB0024B9
:1033F00028E09FED190A1A4800EB840080ED000ACE
:1034000000251BE004EB4400694601EB800000EB63
:103410008500D0ED000A09A800EB850090ED001AA8
:103420000F4800EB840090ED000A00EE810A0C4882
:1034300000EB840080ED000A681CC5B2032DE1DBBF
:10344000601CC4B2032CD4DB04F078FE1EB0BDECCB
:10345000048B70BDD7B35D3F00000000D7B35DBFE4
:10346000F802002010B52DED0A8B84B07E4890ED57
:10347000050AD0ED150A30EE600AB0EE409A9FEDD5
:103480007B0AB4EEC09AF1EE10FA05DD9FED780AE2
:1034900039EE400AB0EE409A9FED760AB4EEC09A3B
:1034A000F1EE10FA05D29FED720A39EE000AB0EE85
:1034B000409A05F0BDF96C4890ED040A10EE101A20
:1034C0000846FDF712F841EC1C0BB0EE4C0AF0EE8A
:1034D0006C0A07F0FDF8B0EE40BAF0EE60BA51ECBD
:1034E0001B0BFDF745F800905F4890ED040A10EEC5
:1034F000101A0846FCF7F9FF41EC1C0BB0EE4C0A21
:10350000F0EE6C0A07F054F9B0EE40BAF0EE60BA93
:1035100051EC1B0BFDF72CF802909DED020AB1EE69
:10352000400A8DED010A9DED000A8DED030ADFEDE5
:10353000520A89EE200ADFED510A60EE209A4A48CD
:10354000B0F9240000EE100AB8EEC00A30EE69AA05
:103550004548B0F9260000EE100AB8EEC00A70EE39
:1035600069AAB1EE4A0ADFED460A80EE208AF0EE43
:10357000000AB0EE4A0A00EEAA0A9FED421AC0EE17
:10358000010A9FED3F0AC0EE808A9DED000A20EE01
:10359000080ADDED010A08EEA00A3348D0ED000A62
:1035A00030EE200A80ED000A9DED020A20EE080AA6
:1035B000DDED030A08EEA00AD0ED010A30EE200A84
:1035C00080ED010A9FED300A28EE000ADDED000AC9
:1035D00020EE200ADFED2C0A68EEA00A9DED011A0C
:1035E00000EE810A80ED060A9FED270A28EE000A08
:1035F000DDED020A20EE200ADFED230A68EEA00AC4
:103600009DED031A00EE810A80ED070A9FED1E0A68
:1036100029EE800ADFED1A0A80EE201A80ED081AE2
:10362000D0E90C31B0F92400C217181851410E4AE4
:10363000C2E90C011046D0E90E31B0F92600C217DC
:1036400018185141084AC2E90E011146D1E910305B
:10365000B1F928105B1840EBE1701146C1E9103058
:1036600004B0BDEC0A8B10BDB002002000009643F0
:103670000000B443000096C30000364300C0644617
:103680000000AF46D7B3DD3F0000C8427CB52B48F1
:10369000008800F4004060B128488179407941EA0F
:1036A00000242648017AC07941EA002500202349F8
:1036B0000880F02C07D3B4F5967F04D8B5F57A6F5F
:1036C00001D80A2D04D200201C4981F820007CBDBD
:1036D0001A48C46185610120184981F8200018A0AA
:1036E00010210B46C822CDE900104FF4E671E62008
:1036F00004F0DCF910200090104804234FF4E67128
:10370000C26940F24B1004F087F910A010210B465B
:10371000C822CDE900104FF4F071E62004F0C6F99C
:1037200010200090054804234FF4F071826940F2A4
:103730004B1004F071F90120C9E7000018030020C4
:1037400052616461723A72616400000052616461A6
:10375000723A6C656E677468000000007CB535488D
:10376000008800F4004060B13248017AC07941EA33
:1037700000243048817A407A41EA002500202D4912
:1037800008800A2C06D340F27620844202D8B5F590
:10379000FA7F04D20020274981F821007CBD25480A
:1037A000C46185610120234981F8210008468079A0
:1037B00081F8200020A010210B46C822CDE900107E
:1037C0004FF4D271E62004F071F9102000901948EE
:1037D00004234FF4D271C26940F24B1004F01CF97B
:1037E000144890F820007A280BD116A010210B461F
:1037F000C822CDE900104FF4DC71E62004F056F940
:1038000015E014A010210B46C822CDE900104FF49A
:10381000DC71E62004F04AF91020009005480423EA
:103820004FF4DC71826940F24B1004F0F5F801208E
:10383000B4E700003C03002056696577203A7069C0
:103840007800000056696577203A476F206261630F
:103850006B00000056696577203A6C656E67746886
:10386000000000004D48008800F4004000287DD092
:103870004B4890ED050A80ED150A4A488079494980
:10388000C97940EA012000EE100AB8EEC00ADFED67
:10389000460A80EE201A9FED450A21EE000A4048B4
:1038A00080ED050A90ED050ADFED410A20EE200AC1
:1038B000DFED3E0A80EE201A80ED041A0CE0384855
:1038C00090ED040ADFED3A0A30EE200ADFED380A07
:1038D00030EE200A80ED040A314890ED040AB5EE7E
:1038E000C00AF1EE10FAEAD30CE02D4890ED040A7C
:1038F000DFED2F0A30EE600ADFED2D0A30EE600AB0
:1039000080ED040A264890ED040ADFED2A0AB4EEA1
:10391000E00AF1EE10FAE8DC08E0214890ED050A33
:10392000DFED250A30EE200A80ED050A1C4890EDF7
:10393000050AB5EEC00AF1EE10FAEED308E0184819
:1039400090ED050ADFED1C0A30EE600A80ED050AF5
:10395000134890ED050ADFED180AB4EEE00AF1EE27
:1039600010FAECDC00200D49088000E013E0134859
:10397000006808B9012000E00020104908601048E4
:10398000D0F8A80208B9012000E000200B49091F67
:103990000860012070470020FCE700001E000020A6
:1039A000B00200201A01002000000047000034434C
:1039B000DB0F4940DB0FC9400000B443A8824242FC
:1039C0000080424206E04FF4FA7007F037FD02A093
:1039D00006F05CFEF7E700006572720010B5FF218B
:1039E0001C4806F022FE00BF40211A4806F051FD97
:1039F0000128F9D1AA21174806F017FE00BF40217F
:103A0000144806F046FD0128F9D10121114806F0BD
:103A10000CFE00BF40210F4806F03BFD0128F9D104
:103A200004210C4806F001FE00BF4021094806F0C1
:103A300030FD0128F9D10021064806F0F6FD00BF4F
:103A40004021044806F025FD0128F9D10A2007F09D
:103A5000F5FC10BD004400401CB50121042004F019
:103A600033FE0420009000208DF8040003208DF820
:103A7000050001208DF8070069460248FFF75CFA4F
:103A80001CBD00000008024070B50446002617481F
:103A90000588408845431548808846F604018842D9
:103AA00016D112488079012812D100200F4988715F
:103AB0002A2048812B2088810021084603F092FEAD
:103AC00001200A4988712B2048812A20888103E03F
:103AD0000021084603F086FE04F036FD002602E0D1
:103AE00003480480761CAE42FAD370BD4400002027
:103AF0008000006C10B50446002C52D158498871E2
:103B0000F02008804FF4A07048800846808849F271
:103B1000413188420BD05248808846F604018842E1
:103B200005D04F48808845F2103188421AD12C20A8
:103B30004B4908812A2048812B20888108468088AB
:103B400046F60401884205D04548808845F2103188
:103B5000884206D14FF4A070414908804FF4F070BC
:103B6000488079E03E48808845F21051884210D163
:103B70004FF430503A4908814FF4285048814FF4AF
:103B80002C5088814FF4F07008804FF448704880C2
:103B900062E022203249088120204881212088814A
:103BA0005AE001202E4988714FF4A0700880F0205F
:103BB00048800846808849F24131884205D028482B
:103BC000808845F21031884207D12C202449088191
:103BD0002A2048812B2088812BE02148808846F6C6
:103BE0000401884207D12C201D4908812B204881DF
:103BF0002A2088811DE01A48808845F210518842A9
:103C000010D14FF43050164908814FF428504881A4
:103C10004FF42C5088814FF4487008804FF4F070B6
:103C2000488006E022200E4908812120488120207A
:103C300088810B48808846F60401884205D00848F0
:103C4000808845F21031884206D14FF4F070044963
:103C500008804FF4A0704880002003F06DFC10BD78
:103C60004400002070B504460D461646434880883F
:103C700049F24131884205D04048808845F21031F0
:103C8000884214D13D49488904F052FC201204F0C6
:103C900043FCE0B204F040FC3849888904F048FC59
:103CA000281204F039FCE8B204F036FC5DE0334839
:103CB000808845F21051884220D13049488904F06B
:103CC00037FC201204F028FC2C494989491C88B291
:103CD00004F02EFCE0B204F01FFC2849888904F0AF
:103CE00027FC281204F018FC24498989491C88B251
:103CF00004F01EFCE8B204F00FFC36E01F48808898
:103D000046F6040188421DD11C488079012804D15F
:103D10001A480088401E001B84B21849488904F0E4
:103D200007FC201204F0F8FBE0B204F0F5FB1349A5
:103D3000888904F0FDFB281204F0EEFBE8B204F0E1
:103D4000EBFB12E00D488079012804D10B48008874
:103D5000401E001B84B209494889214604F0FEFB3D
:103D600006498889294604F0F9FB0448008904497A
:103D700008804FF0D840A0F8806070BD440000205B
:103D80007E00006C00B5A1B00020209001217A20B7
:103D900004F09AFC0121084604F0A6FC4FF4004010
:103DA0001E9001208DF87C0000208DF87E000220FE
:103DB0008DF87D0001208DF87F001EA9FE48FFF7D9
:103DC000BBF84CF233701E9002208DF87C0000206E
:103DD0008DF87E0003208DF87D0001208DF87F0096
:103DE0001EA9F648FFF7A8F84FF680701E90022033
:103DF0008DF87C0000208DF87E0003208DF87D007A
:103E000001208DF87F001EA9ED48FFF795F84FF4CB
:103E100080501E9002208DF87C0000208DF87E00DE
:103E200003208DF87D0001208DF87F001EA9E54854
:103E3000FFF782F84FF480501E9002208DF87C002E
:103E400000208DF87E0003208DF87D0001208DF884
:103E50007F001EA9DC48FFF76FF80C220021D7482D
:103E6000FFF7B2F80C220121D448FFF7ADF80C227D
:103E70000421D248FFF7A8F80C220521CF48FFF70C
:103E8000A3F80C220821CD48FFF79EF80C22092147
:103E9000CA48FFF799F80C220A21C848FFF794F89E
:103EA0000C220E21C548FFF78FF80C220F21C348C2
:103EB000FFF78AF80C220721C148FFF785F80C228A
:103EC0000821BF48FFF780F80C220921BC48FFF702
:103ED0007BF80C220A21BA48FFF776F80C220B2156
:103EE000B748FFF771F80C221146B548FFF76CF898
:103EF0000C220D21B248FFF767F80C220E21B048C2
:103F0000FFF762F80C220F21AD48FFF75DF80C2295
:103F10001146AC48FFF758F80C221146AA48FFF7A3
:103F200053F80F200890002009903C200A900020B0
:103F30000B900C900D900E900920019000200290A3
:103F4000082003900020049005900690079006201A
:103F50000F900020109011901020129000201390CC
:103F600015901490169017904FF4805018900020E0
:103F700019904FF480401A9000201B9008A81C90C4
:103F800001A81D900FA8FCF70FFE01210620FCF7E9
:103F9000F1FD322007F052FA0121002004F0DEFA90
:103FA000322007F04BFA002003F0BAFA87498880E4
:103FB00008468088FF280ADB084680884FF6FF7194
:103FC000884204D081488088B0F5134F7ED1D32039
:103FD00004F0AEFA03F09AFA7C49888003F096FA6E
:103FE0007A49888003F092FA784988800846808868
:103FF0004FF6FF7101EA00207449888003F086FAC9
:10400000724989880843714988800846808849F246
:104010004131884278D0BF2004F08AFA03F076FA62
:104020006A49888003F072FA6849888003F06EFA62
:104030006649888003F06AFA644988800846808867
:104040004FF6FF7101EA00206049888003F05EFAB4
:104050005E49898808435D4988800846808846F61D
:104060000401884250D0D42004F062FA03F04EFAE2
:104070005649888003F04AFA5449888003F046FA8A
:1040800052498880084680884FF6FF7101EA002077
:104090004E49888003F03AFA4C49898808434B49D5
:1040A00088800846808845F2103188422CD04FF431
:1040B0005A4004F03DFA03F029FA444988804FF44D
:1040C0005B4004F035FA03F021FA00E01CE03F49C0
:1040D0008880084680884FF6FF7101EA00203B493E
:1040E00088804FF45C4004F023FA03F00FFA37495C
:1040F000898808433549888008468088B0F5004F94
:1041000002D145F2105088803048808849F2413110
:1041100088420BD02D48808845F21031884205D066
:104120002A48808845F2105188421DD128480068ED
:1041300020F00F004FF02041C1F81C010846D0F8D4
:104140001C0120F47060C1F81C010846D0F81C0165
:1041500040F00300C1F81C010846D0F81C0140F4EF
:104160000070C1F81C0137E01848808846F6040149
:10417000884205D0154880884CF2055188422BD1E1
:104180001348006820F00F004FF02041C1F81C01D7
:104190000846D0F81C0120F47060C1F81C010846E4
:1041A000D0F81C0140F00A00C1F81C010846D0F804
:1041B0001C0140F440600DE000040240000C02408D
:1041C0000010024000140240001802404400002089
:1041D0001C0100A0C1F81C01FE48808849F2413151
:1041E00088427CD1CF2004F0A3F9002004F094F998
:1041F0002098401C2090C12004F08EF9302004F05B
:104200008BF9ED2004F094F9642004F085F9032083
:1042100004F082F9122004F07FF9812004F07CF987
:10422000E82004F085F9852004F076F9102004F0E8
:1042300073F97A2004F070F9CB2004F079F9392071
:1042400004F06AF92C2004F067F9002004F064F906
:10425000342004F061F9022004F05EF9F72004F044
:1042600067F9202004F058F9EA2004F061F90020F1
:1042700004F052F9002004F04FF9C02004F058F97E
:104280001B2004F049F9C12004F052F9012004F088
:1042900043F9C52004F04CF9302004F03DF93020FA
:1042A00004F03AF9C72004F043F9B72004F034F9D8
:1042B000362004F03DF9482004F02EF93A2004F0AD
:1042C00037F9552004F028F9B12004F031F9002025
:1042D00004F022F91A2004F01FF9B62000E09CE057
:1042E00004F026F90A2004F017F9A22004F014F9CA
:1042F000F22004F01DF9002004F00EF9262004F04D
:1043000017F9012004F008F9E02004F011F90F205A
:1043100004F002F92A2004F0FFF8282004F0FCF849
:10432000082004F0F9F80E2004F0F6F8082004F054
:10433000F3F8542004F0F0F8A92004F0EDF843203D
:1043400004F0EAF80A2004F0E7F80F2004F0E4F89B
:10435000002004F0E1F8002004F0DEF8002004F072
:10436000DBF8002004F0D8F8E12004F0E1F80020A8
:1043700004F0D2F8152004F0CFF8172004F0CCF8A0
:10438000072004F0C9F8112004F0C6F8062004F054
:10439000C3F82B2004F0C0F8562004F0BDF83C20F0
:1043A00004F0BAF8052004F0B7F8102004F0B4F8CF
:1043B0000F2004F0B1F83F2004F0AEF83F2004F0E5
:1043C000ABF80F2004F0A8F82B2004F0B1F800207F
:1043D00004F0A2F8002004F09FF8012004F09CF8FB
:1043E0003F2004F099F82A2004F0A2F8002004F0FD
:1043F00093F8002004F090F8002004F08DF8EF20EE
:1044000004F08AF8112004F093F8782007F016F8E9
:10441000292004F08DF803F05CB86E48808846F6D9
:10442000040188427ED1112004F082F8142007F0A4
:1044300005F8D02004F07CF8072004F06DF8422045
:1044400004F06AF81D2004F067F8D12004F070F839
:10445000002004F061F81A2004F05EF8092004F04E
:104460005BF8D22004F064F8012004F055F8222013
:1044700004F052F8C02004F05BF8102004F04CF86F
:104480003B2004F049F8002004F046F8022004F034
:1044900043F8112004F040F8C52004F049F8032047
:1044A00004F03AF8C82004F043F8002004F034F88F
:1044B000252004F031F8212004F02EF8052004F026
:1044C0002BF8002004F028F80A2004F025F86520D5
:1044D00004F022F8252004F01FF8772004F01CF8DF
:1044E000502004F019F80F2004F016F8002004F012
:1044F00013F8F82004F01CF8012004F00DF8FE2059
:1045000004F016F8002004F007F8022004F004F884
:10451000202004F00DF8362004F00AF8082003F0FB
:10452000FBFF00E02AE03A2004F002F8552003F0F7
:10453000F3FF2B2003F0FCFF002003F0EDFF002031
:1045400003F0EAFF012003F0E7FF3F2003F0E4FF60
:104550002A2003F0EDFF002003F0DEFF002003F02F
:10456000DBFF012003F0D8FFDF2003F0D5FF782028
:1045700006F064FF292003F0DBFF4CE71548808834
:1045800045F21031884240F07C87ED2003F0D0FFE7
:10459000012003F0C1FFFE2003F0BEFFEE2003F078
:1045A000C7FFDE2003F0B8FF212003F0B5FFF120A4
:1045B00003F0BEFF012003F0AFFFDF2003F0B8FFE0
:1045C000102003F0A9FFC42003F0B2FF8F2003F0F6
:1045D000A3FF01E044000020C62003F0A9FF002053
:1045E00003F09AFFE22003F097FFE22003F094FF2C
:1045F000E22003F091FFBF2003F09AFFAA2003F00E
:104600008BFFB02003F094FF0D2003F085FF002006
:1046100003F082FF0D2003F07FFF002003F07CFFFA
:10462000112003F079FF002003F076FF192003F03A
:1046300073FF002003F070FF212003F06DFF0020C6
:1046400003F06AFF2D2003F067FF002003F064FFF2
:104650003D2003F061FF002003F05EFF5D2003F0CA
:104660005BFF002003F058FF5D2003F055FF0020A2
:1046700003F052FFB12003F05BFF802003F04CFFFA
:10468000002003F049FF8B2003F046FF002003F0D9
:1046900043FF962003F040FF002003F03DFFB220CF
:1046A00003F046FF002003F037FF002003F034FF43
:1046B000022003F031FF002003F02EFF032003F05F
:1046C0002BFF002003F028FFB32003F031FF002070
:1046D00003F022FF002003F01FFF002003F01CFF67
:1046E000002003F019FF002003F016FF002003F064
:1046F00013FF002003F010FF002003F00DFF002047
:1047000003F00AFF002003F007FF002003F004FF7E
:10471000002003F001FF002003F0FEFE002003F064
:10472000FBFE002003F0F8FE002003F0F5FE002061
:1047300003F0F2FE002003F0EFFE002003F0ECFE99
:10474000002003F0E9FE002003F0E6FE002003F065
:10475000E3FE002003F0E0FE002003F0DDFEB420C5
:1047600003F0E6FE8B2003F0D7FE002003F0D4FE1A
:10477000962003F0D1FE002003F0CEFEA12003F02E
:10478000CBFE002003F0C8FEB52003F0D1FE0220CE
:1047900003F0C2FE002003F0BFFE032003F0BCFEC6
:1047A000002003F0B9FE042003F0B6FE002003F061
:1047B000B3FEB62003F0BCFE002003F0ADFE0020E7
:1047C00003F0AAFEB72003F0B3FE002003F0A4FE1E
:1047D000002003F0A1FE3F2003F09EFE002003F026
:1047E0009BFE5E2003F098FE002003F095FE6420FF
:1047F00003F092FE002003F08FFE8C2003F08CFE6D
:10480000002003F089FEAC2003F086FE002003F0B8
:1048100083FEDC2003F080FE002003F07DFE70208C
:1048200003F07AFE002003F077FE902003F074FE80
:10483000002003F071FEEB2003F06EFE002003F079
:104840006BFEDC2003F068FE002003F065FEB8205C
:1048500003F06EFE002003F05FFE002003F05CFE1C
:10486000002003F059FE002003F056FE002003F064
:1048700053FE002003F050FE002003F04DFE002008
:1048800003F04AFEBA2003F053FE242003F044FE56
:10489000002003F041FE002003F03EFE002003F064
:1048A0003BFEC12003F044FE202003F035FE002033
:1048B00003F032FE542003F02FFE002003F02CFE04
:1048C000FF2003F029FE002003F026FEC22003F0A3
:1048D0002FFE0A2003F020FE002003F01DFE04201E
:1048E00003F01AFE002003F017FEC32003F020FEA1
:1048F0003C2003F011FE002003F00EFE3A2003F0EE
:104900000BFE002003F008FE392003F005FE002016
:1049100003F002FE372003F0FFFD002003F0FCFD52
:104920003C2003F0F9FD002003F0F6FD362003F0F3
:10493000F3FD002003F0F0FD322003F0EDFD002038
:1049400003F0EAFD2F2003F0E7FD002003F0E4FD73
:104950002C2003F0E1FD002003F0DEFD292003F010
:10496000DBFD002003F0D8FD262003F0D5FD00205C
:1049700003F0D2FD242003F0CFFD002003F0CCFD96
:10498000242003F0C9FD002003F0C6FD232003F01E
:10499000C3FD002003F0C0FD3C2003F0BDFD00205E
:1049A00003F0BAFD362003F0B7FD002003F0B4FD9C
:1049B000322003F0B1FD002003F0AEFD2F2003F004
:1049C000ABFD002003F0A8FD2C2003F0A5FD002086
:1049D00003F0A2FD292003F09FFD002003F09CFDC1
:1049E000262003F099FD002003F096FD242003F01B
:1049F00093FD002003F090FD242003F08DFD0020A6
:104A000003F08AFD232003F087FD002003F084FDDE
:104A1000C42003F08DFD622003F07EFD002003F032
:104A20007BFD052003F078FD002003F075FD842058
:104A300003F072FD002003F06FFDF02003F06CFD29
:104A4000002003F069FD182003F066FD002003F04C
:104A500063FDA42003F060FD002003F05DFD18203D
:104A600003F05AFD002003F057FD502003F054FDE1
:104A7000002003F051FD0C2003F04EFD002003F058
:104A80004BFD172003F048FD002003F045FD952065
:104A900003F042FD002003F03FFDF32003F03CFD56
:104AA000002003F039FDE62003F036FD002003F07E
:104AB00033FDC52003F03CFD322003F02DFD002026
:104AC00003F02AFD442003F027FD002003F024FD1D
:104AD000652003F021FD002003F01EFD762003F089
:104AE0001BFD002003F018FD882003F015FD0020B9
:104AF00003F012FDC62003F01BFD202003F00CFD87
:104B0000002003F009FD172003F006FD002003F04C
:104B100003FD012003F000FD002003F0FDFCC72091
:104B200003F006FD002003F0F7FC002003F0F4FC86
:104B3000002003F0F1FC002003F0EEFCC82003F09D
:104B4000F7FC002003F0E8FC002003F0E5FC002067
:104B500003F0E2FC002003F0DFFCC92003F0E8FCD6
:104B6000002003F0D9FC002003F0D6FC002003F065
:104B7000D3FC002003F0D0FC002003F0CDFC00208B
:104B800003F0CAFC002003F0C7FC002003F0C4FCC3
:104B9000002003F0C1FC002003F0BEFC002003F065
:104BA000BBFC002003F0B8FC002003F0B5FC0020A3
:104BB00003F0B2FC002003F0AFFC002003F0ACFCDB
:104BC000E02003F0B5FC162003F0A6FC002003F063
:104BD000A3FC1C2003F0A0FC002003F09DFC21207E
:104BE00003F09AFC002003F097FC362003F094FCBD
:104BF000002003F091FC462003F08EFC002003F01F
:104C00008BFC522003F088FC002003F085FC64201C
:104C100003F082FC002003F07FFC7A2003F07CFC90
:104C2000002003F079FC8B2003F076FC002003F0D9
:104C300073FC992003F070FC002003F06DFCA820A9
:104C400003F06AFC002003F067FCB92003F064FC69
:104C5000002003F061FCC42003F05EFC002003F0A0
:104C60005BFCCA2003F058FC002003F055FCD22066
:104C700003F052FC002003F04FFCD92003F04CFC61
:104C8000002003F049FCE02003F046FC002003F084
:104C900043FCF32003F040FC002003F03DFCE12046
:104CA00003F046FC162003F037FC002003F034FC30
:104CB0001C2003F031FC002003F02EFC222003F026
:104CC0002BFC002003F028FC362003F025FC0020FC
:104CD00003F022FC452003F01FFC002003F01CFC25
:104CE000522003F019FC002003F016FC642003F0AE
:104CF00013FC002003F010FC7A2003F00DFC0020D0
:104D000003F00AFC8B2003F007FC002003F004FCF6
:104D1000992003F001FC002003F0FEFBA82003F023
:104D2000FBFB002003F0F8FBB92003F0F5FB0020AB
:104D300003F0F2FBC42003F0EFFB002003F0ECFBD8
:104D4000CA2003F0E9FB002003F0E6FBD22003F0C9
:104D5000E3FB002003F0E0FBD82003F0DDFB0020A4
:104D600003F0DAFBE02003F0D7FB002003F0D4FBD4
:104D7000F32003F0D1FB002003F0CEFBE22003F090
:104D8000D7FB052003F0C8FB002003F0C5FB0B2078
:104D900003F0C2FB002003F0BFFB1B2003F0BCFBB1
:104DA000002003F0B9FB342003F0B6FB002003F031
:104DB000B3FB442003F0B0FB002003F0ADFB4F2019
:104DC00003F0AAFB002003F0A7FB612003F0A4FB83
:104DD000002003F0A1FB792003F09EFB002003F0EC
:104DE0009BFB882003F098FB002003F095FB9720A5
:104DF00003F092FB002003F08FFBA62003F08CFB56
:104E0000002003F089FBB72003F086FB002003F0AD
:104E100083FBC22003F080FB002003F07DFBC72052
:104E200003F07AFB002003F077FBD12003F074FB42
:104E3000002003F071FBD62003F06EFB002003F08E
:104E40006BFBDD2003F068FB002003F065FBF32023
:104E500003F062FB002003F05FFBE32003F068FB3C
:104E6000052003F059FB002003F056FB0A2003F055
:104E700053FB002003F050FB1C2003F04DFB0020EF
:104E800003F04AFB332003F047FB002003F044FB10
:104E9000442003F041FB002003F03EFB502003F0D0
:104EA0003BFB002003F038FB622003F035FB0020C1
:104EB00003F032FB782003F02FFB002003F02CFBE3
:104EC000882003F029FB002003F026FB972003F045
:104ED00023FB002003F020FBA62003F01DFB002095
:104EE00003F01AFBB72003F017FB002003F014FBBC
:104EF000C22003F011FB002003F00EFBC72003F0DB
:104F00000BFB002003F008FBD12003F005FB002081
:104F100003F002FBD52003F0FFFA002003F0FCFAB7
:104F2000DD2003F0F9FA002003F0F6FAF32003F095
:104F3000F3FA002003F0F0FAE42003F0F9FA01207C
:104F400003F0EAFA002003F0E7FA012003F0E4FAA4
:104F5000002003F0E1FA022003F0DEFA002003F063
:104F6000DBFA2A2003F0D8FA002003F0D5FA3C201F
:104F700003F0D2FA002003F0CFFA4B2003F0CCFA72
:104F8000002003F0C9FA5D2003F0C6FA002003F008
:104F9000C3FA742003F0C0FA002003F0BDFA8420A5
:104FA00003F0BAFA002003F0B7FA932003F0B4FA42
:104FB000002003F0B1FAA22003F0AEFA002003F0C3
:104FC000ABFAB32003F0A8FA002003F0A5FABE2044
:104FD00003F0A2FA002003F09FFAC42003F09CFA29
:104FE000002003F099FACD2003F096FA002003F098
:104FF00093FAD32003F090FA002003F08DFADD201D
:1050000003F08AFA002003F087FAF32003F084FA11
:10501000002003F081FAE52003F08AFA002003F073
:105020007BFA002003F078FA002003F075FA0020E4
:1050300003F072FA022003F06FFA002003F06CFA1A
:10504000292003F069FA002003F066FA3C2003F0FF
:1050500063FA002003F060FA4B2003F05DFA0020B1
:1050600003F05AFA5D2003F057FA002003F054FAD7
:10507000742003F051FA002003F04EFA842003F06C
:105080004BFA002003F048FA932003F045FA002081
:1050900003F042FAA22003F03FFA002003F03CFAAA
:1050A000B32003F039FA002003F036FABE2003F0F3
:1050B00033FA002003F030FAC42003F02DFA002068
:1050C00003F02AFACD2003F027FA002003F024FA97
:1050D000D32003F021FA002003F01EFADC2003F0B5
:1050E0001BFA002003F018FAF32003F015FA002051
:1050F00003F012FAE62003F01BFA112003F00CFA79
:10510000002003F009FA342003F006FA002003F02F
:1051100003FA562003F000FA002003F0FDF9762090
:1051200003F0FAF9002003F0F7F9772003F0F4F91F
:10513000002003F0F1F9662003F0EEF9002003F0FF
:10514000EBF9882003F0E8F9002003F0E5F9992055
:1051500003F0E2F9002003F0DFF9BB2003F0DCF9F3
:10516000002003F0D9F9992003F0D6F9002003F0CC
:10517000D3F9662003F0D0F9002003F0CDF95520D3
:1051800003F0CAF9002003F0C7F9552003F0C4F971
:10519000002003F0C1F9452003F0BEF9002003F020
:1051A000BBF9432003F0B8F9002003F0B5F944201F
:1051B00003F0B2F9002003F0AFF9E72003F0B8F9EB
:1051C000322003F0A9F9002003F0A6F9552003F0DE
:1051D000A3F9002003F0A0F9762003F09DF9002048
:1051E00003F09AF9662003F097F9002003F094F990
:1051F000672003F091F9002003F08EF9672003F097
:105200008BF9002003F088F9872003F085F900204E
:1052100003F082F9992003F07FF9002003F07CF974
:10522000BB2003F079F9002003F076F9992003F010
:1052300073F9002003F070F9772003F06DF9002076
:1052400003F06AF9442003F067F9002003F064F9E1
:10525000562003F061F9002003F05EF9232003F0EB
:105260005BF9002003F058F9332003F055F90020D2
:1052700003F052F9452003F04FF9002003F04CF9F8
:10528000E82003F055F9002003F046F9002003F070
:1052900043F9992003F040F9002003F03DF98720FD
:1052A00003F03AF9002003F037F9882003F034F9CD
:1052B000002003F031F9772003F02EF9002003F0ED
:1052C0002BF9662003F028F9002003F025F9882047
:1052D00003F022F9002003F01FF9AA2003F01CF9C3
:1052E000002003F019F9BB2003F016F9002003F0A9
:1052F00013F9992003F010F9002003F00DF966204E
:1053000003F00AF9002003F007F9552003F004F92F
:10531000002003F001F9552003F0FEF8002003F00F
:10532000FBF8442003F0F8F8002003F0F5F84420DF
:1053300003F0F2F8002003F0EFF8552003F0ECF84A
:10534000002003F0E9F8E92003F0F2F8AA2003F0C6
:10535000E3F8002003F0E0F8002003F0DDF800207F
:1053600003F0DAF8002003F0E3F8AA2003F0D4F801
:10537000CF2003F0DDF8002003F0CEF8002003F08A
:10538000CBF8002003F0C8F8002003F0C5F8002097
:1053900003F0C2F8002003F0BFF8002003F0BCF8CF
:1053A000002003F0B9F8002003F0B6F8002003F065
:1053B000B3F8002003F0B0F8002003F0ADF80020AF
:1053C00003F0AAF8002003F0A7F8002003F0A4F8E7
:1053D000002003F0A1F8002003F09EF8F02003F075
:1053E000A7F8002003F098F8502003F095F800206B
:1053F00003F092F8002003F08FF8002003F08CF8FF
:10540000F32003F095F8002003F086F8F92003F06C
:105410008FF8062003F080F8102003F07DF8292093
:1054200003F07AF8002003F077F83A2003F080F8D0
:10543000552003F071F8112003F07AF8642005F08C
:10544000FDFF292003F074F8352003F071F80020E7
:1054500003F062F8512003F06BF8FF2003F05CF8D2
:10546000532003F065F82C2003F056F8552003F084
:105470005FF8822003F050F82C2003F059F802F076
:1054800028B8FE48808845F2105188427ED15521C7
:105490004FF4704003F062F8AA214FF2010003F0CC
:1054A0005DF852214FF2020003F058F808214FF244
:1054B000030003F053F801214FF2040003F04EF80B
:1054C0000D214FF4304003F049F80D214BF201005B
:1054D00003F044F80D214BF2020003F03FF83421B1
:1054E0004FF4364003F03AF834214BF2016003F0F8
:1054F00035F834214BF2026003F030F80D214FF4FF
:10550000314003F02BF80D214BF2011003F026F887
:105510000D214BF2021003F021F834214FF43740F3
:1055200003F01CF834214BF2017003F017F834211A
:105530004BF2027003F012F800214FF4324003F0F6
:105540000DF800214BF2012003F008F800214BF286
:10555000022003F003F824214FF4384002F0FEFF4C
:1055600024214BF6010002F0F9FF24214BF6020042
:1055700002F0F4FF01214FF43F4002F0EFFF0F2152
:105580004FF4334002F0EAFF0F2100E0FEE34BF25C
:10559000013002F0E3FF0F214BF2023002F0DEFF98
:1055A00034214FF4394002F0D9FF34214BF6011079
:1055B00002F0D4FF34214BF6021002F0CFFF082195
:1055C0004FF4354002F0CAFF08214BF2015002F0BF
:1055D000C5FF08214BF2025002F0C0FF03214FF437
:1055E000424002F0BBFF24214FF43A4002F0B6FFE4
:1055F00024214BF6012002F0B1FF24214BF60220BA
:1056000002F0ACFF00214FF43C4002F0A7FF7821EC
:105610004BF6014002F0A2FF00214BF6024002F0DF
:105620009DFF00214FF43D4002F098FF78214BF69A
:10563000015002F093FF00214BF6025002F08EFF62
:1056400000214FF43E4002F089FF64214BF60160D7
:1056500002F084FF00214FF4514002F07FFF33211C
:105660004DF2011002F07AFF00214DF2021002F01B
:1056700075FF34214DF2031002F070FF00214DF24E
:10568000041002F06BFF3A214DF2051002F066FFA4
:1056900000214DF2061002F061FF4A214DF2071081
:1056A00002F05CFF00214DF2081002F057FF5C2170
:1056B0004DF2091002F052FF00214DF20A1002F0E3
:1056C0004DFF81214DF20B1002F048FF00214DF2F9
:1056D0000C1002F043FFA6214DF20D1002F03EFF28
:1056E00000214DF20E1002F039FFE5214DF20F10AE
:1056F00002F034FF01214DF2101002F02FFF1321B0
:105700004DF2111002F02AFF01214DF2121002F0A9
:1057100025FF54214DF2131002F020FF01214DF21C
:10572000141002F01BFF82214DF2151002F016FF3B
:1057300001214DF2161002F011FFCA214DF217108F
:1057400002F00CFF02214DF2181002F007FF0021B9
:105750004DF2191002F002FF02214DF21A1002F070
:10576000FDFE01214DF21B1002F0F8FE02214DF268
:105770001C1002F0F3FE34214DF21D1002F0EEFE7B
:1057800002214DF21E1002F0E9FE67214DF21F10BA
:1057900002F0E4FE02214DF2201002F0DFFE84212F
:1057A0004DF2211002F0DAFE02214DF2221002F039
:1057B000D5FEA4214DF2231002F0D0FE02214DF2BD
:1057C000241002F0CBFEB7214DF2251002F0C6FEE8
:1057D00002214DF2261002F0C1FECF214DF227101A
:1057E00002F0BCFE02214DF2281002F0B7FEDE21CD
:1057F0004DF2291002F0B2FE02214DF22A1002F001
:10580000ADFEF2214DF22B1002F0A8FE02214DF266
:105810002C1002F0A3FEFE214DF22D1002F09EFE90
:1058200003214DF22E1002F099FE10214DF22F109F
:1058300002F094FE03214DF2301002F08FFE33216E
:105840004DF2311002F08AFE03214DF2321002F0C7
:1058500085FE6D214DF2331002F080FE00214FF4E1
:10586000524002F07BFE33214DF2012002F076FE21
:1058700000214DF2022002F071FE01E04400002000
:1058800034214DF2032002F069FE00214DF2042084
:1058900002F064FE3A214DF2052002F05FFE002185
:1058A0004DF2062002F05AFE4A214DF2072002F086
:1058B00055FE00214DF2082002F050FE5C214DF211
:1058C000092002F04BFE00214DF20A2002F046FEB4
:1058D00081214DF20B2002F041FE00214DF20C20FF
:1058E00002F03CFEA6214DF20D2002F037FE002111
:1058F0004DF20E2002F032FEE5214DF20F2002F0B3
:105900002DFE01214DF2102002F028FE13214DF250
:10591000112002F023FE01214DF2122002F01EFEA2
:1059200054214DF2132002F019FE01214DF21420F2
:1059300002F014FE82214DF2152002F00FFE01212B
:105940004DF2162002F00AFECA214DF2172002F095
:1059500005FE02214DF2182002F000FE00214DF25A
:10596000192002F0FBFD02214DF21A2002F0F6FD93
:1059700001214DF21B2002F0F1FD02214DF21C200D
:1059800002F0ECFD34214DF21D2002F0E7FD022172
:105990004DF21E2002F0E2FD67214DF21F2002F0C1
:1059A000DDFD02214DF2202002F0D8FD84214DF2D0
:1059B000212002F0D3FD02214DF2222002F0CEFD83
:1059C000A4214DF2232002F0C9FD02214DF2242032
:1059D00002F0C4FDB7214DF2252002F0BFFD0221E7
:1059E0004DF2262002F0BAFDCF214DF2272002F021
:1059F000B5FD02214DF2282002F0B0FDDE214DF26E
:105A0000292002F0ABFD02214DF22A2002F0A6FD72
:105A1000F2214DF22B2002F0A1FD02214DF22C20AB
:105A200002F09CFDFE214DF22D2002F097FD032196
:105A30004DF22E2002F092FD10214DF22F2002F0A7
:105A40008DFD03214DF2302002F088FD33214DF20F
:105A5000312002F083FD03214DF2322002F07EFD61
:105A60006D214DF2332002F079FD00214FF45340B7
:105A700002F074FD33214DF2013002F06FFD002180
:105A80004DF2023002F06AFD34214DF2033002F093
:105A900065FD00214DF2043002F060FD3A214DF227
:105AA000053002F05BFD00214DF2063002F056FD9C
:105AB0004A214DF2073002F051FD00214DF208302D
:105AC00002F04CFD5C214DF2093002F047FD00214F
:105AD0004DF20A3002F042FD81214DF20B3002F00E
