:020000040800F2
:10000000700900209D010008657500086929000835
:1000100061750008490800082B91000800000000E5
:10002000000000000000000000000000397E000811
:100030007D090008000000002B76000841800008C0
:10004000B7010008B7010008B7010008B7010008B0
:10005000B7010008B7010008B7010008B7010008A0
:10006000B7010008B7010008B7010008B701000890
:10007000B7010008B7010008B7010008B701000880
:10008000B7010008B7010008B7010008B701000870
:10009000B7010008B7010008B7010008B701000860
:1000A000B701000809830008B7010008D1810008E2
:1000B000B7010008B7010008B7010008B701000840
:1000C000B7010008B7010008B7010008B701000830
:1000D000B7010008918D00087D8E0008618F00082F
:1000E000B7010008B7010008B7010008B701000810
:1000F000B7010008B7010008B7010008B701000800
:10010000B7010008B701000861850008B7010008C1
:10011000B7010008B7010008B7010008B7010008DF
:10012000B7010008B7010008B7010008B7010008CF
:10013000B7010008B7010008B7010008B7010008BF
:10014000B7010008B7010008B7010008B7010008AF
:10015000B7010008B7010008B7010008B70100089F
:10016000B7010008B7010008B7010008B70100088F
:10017000B7010008B7010008B7010008B70100087F
:10018000B7010008B7010008DFF80CD000F0BAFA98
:10019000004800476DA70008700900200648804706
:1001A00006480047FEE7FEE7FEE7FEE7FEE7FEE75C
:1001B000FEE7FEE7FEE7FEE745800008890100084C
:1001C0002DE9FE4F81EA030404F0004421F00041D0
:1001D00000944FF0000B23F0004350EA01045ED07E
:1001E00052EA03045BD0C3F30A54C1F30A552C440A
:1001F000A4F2F3340194A0FB0254C1F3130141F4BF
:100200008011C3F3130343F4801301FB024400FB8A
:10021000034E840A970A44EA815447EA8357A4FBB1
:10022000076802958D0A05FB07854FEA932C04FBAE
:100230000C542705029D4FEA065847EA1637B5EBDE
:1002400008056EEB070C870E920E47EA811742EA0B
:100250008312A7FB0201B6EB0B0164EB00042B0D2C
:1002600043EA0C335E1844EB1C50DA465146E7FB78
:100270000201C5F313044FEA0B3343EA14534FEA68
:100280000432019C43EA0603A4F10C040294009C8E
:10029000CDE900B400F0D1F803B0BDE8F08F002044
:1002A0000146F9E70EB540F2334102910021CDE954
:1002B00000110A460B4600F0C0F803B000BD00F084
:1002C000004230F000400AD0C10D01F56071C0F36A
:1002D000160042EA0151C20840071143704700204E
:1002E0000146704730B5041E71F1000404DB4FF085
:1002F0000044404264EB0101141E73F1000405DB6D
:100300001C464FF00043524263EB0403994208BF7E
:10031000904230BD01F0004330B421F0004150EA7A
:10032000010206D00A0DA2F56072C1F31301002A82
:1003300002DC30BC00207047440F44EAC104C10015
:10034000E01830BC00EBC25000F031B82DE9F05F8E
:100350000546002092469B46884606468146402434
:100360001BE0284641464746224600F0ECF953463A
:100370005A46C01A914110D311461846224600F041
:10038000D3F92D1A67EB01084F46224601200021C0
:1003900000F0CAF917EB00094E41201EA4F1010438
:1003A000DFDC484631462A464346BDE8F09F002937
:1003B000A8BF7047401C490008BF20F001007047EB
:1003C00010B4B0FA80FC00FA0CF050EA010404BF4B
:1003D00010BC704749B1CCF1200421FA04F411FAA1
:1003E0000CF118BF012121430843A3EB0C01CB1DE5
:1003F0004FEA00614FEA102042BF002010BC704756
:1004000000EBC35010440029A4BF10BC7047401C2F
:10041000490008BF20F0010010BC704710B5141E41
:1004200073F1000408DA401C41F1000192185B41AD
:100430001A4301D120F0010010BD2DE9F04D924684
:100440009B4611B1B1FA81F202E0B0FA80F220329B
:10045000904600F069F904460F4640EA0A0041EA76
:100460000B0153465A46084313D0114653EA010084
:1004700019D0C8F14002504600F065F905460E4615
:1004800050465946424600F04FF9084305D0012036
:1004900004E020463946BDE8F08D0020054346EAD9
:1004A000E0762C4337430A986305E40AA0EB080082
:1004B0000022FD0A44EA47540A3002D500200146D2
:1004C000E9E7010510196941DDE9084500196941AD
:1004D000BDE8F04DA2E72DE9FE4F804681EA03001A
:1004E000C00F0C46009021F0004123F00045B8EB0E
:1004F0000200A94105D24046214690461C460B46C3
:10050000024623F00040104347D0270DC7F30A00EE
:10051000C3F30A510290401A019040286BDAC3F3EA
:10052000130040F4801B0098924620B10023D2EBC8
:10053000030A63EB0B0B01985946C0F14002504689
:1005400000F0F2F806460D4650465946019A00F072
:100550000AF910EB08006141002487EA115284EA8D
:10056000E7731A4340D0009A62B3019A012A4FEA16
:10057000075215DC001B61EB02014FF0004202EA5A
:100580000752CDE90042001C41F5801132462B464E
:10059000FFF753FF03B0BDE8F08F40462146F9E76F
:1005A000001B61EB0201001C41F5801300185B4148
:1005B0002018A2F5001747EB030140EAD570B619E1
:1005C0006D4111E06D084FEA360645EAC0754FEA05
:1005D0000752001B61EB0201001C41F58011490824
:1005E0004FEA30000019514132462B4603B0BDE8B6
:1005F000F04FFFF713BF0098012240000023D0EB1B
:10060000020263EBE073009821464FEAE074B8EB16
:10061000000061EB0401E9E783F000435BE781F050
:10062000004158E72DE9F04D81EA030404F0004B46
:1006300021F0004514464FF0000A23F0004150EA33
:10064000050220D054EA01021DD0C5F30A57024624
:10065000C5F31303C1F31300C1F30A5640F4801528
:1006600043F48013A7EB0608101BD64608F2FD38AA
:1006700073EB050002D308F1010801E092185B4119
:10068000B8F1000F03DA00200146BDE8F08D00202C
:100690004FF48011064684460EE0171B73EB0507E6
:1006A00005D3121B63EB050306434CEA010C490812
:1006B0004FEA300092185B4150EA0107EDD152EA4F
:1006C000030012D082EA040083EA0501084305D042
:1006D000101BAB4106D20122002306E000224FF09E
:1006E000004302E06FF0010253101AEB06004CEBDE
:1006F000085110EB0A0041EB0B01BDE8F04DFFF78C
:100700008DBE0000064C074D06E0E06840F0010396
:1007100094E8070098471034AC42F6D3FFF738FD51
:10072000A0CD0008C0CD0008202A04DB203A00FA42
:1007300002F1002070479140C2F1200320FA03F338
:10074000194390407047202A04DB203A21FA02F036
:100750000021704721FA02F3D040C2F120029140FB
:10076000084319467047202A06DBCB17203A41FA86
:1007700002F043EAE07306E041FA02F3D040C2F12E
:10078000200291400843194670470EB5C10F80EA18
:10079000E0700844CA07002140F233438DE80E00A0
:1007A0000A460B46FFF749FE03B000BD70B5C1F322
:1007B0000A5201F000450024C1F3130140F2FF3357
:1007C00041F480119A4201DA002070BD40F23343B7
:1007D0009A42A2F2334203DC5242FFF7B4FF00E038
:1007E00090402C43F1D0404270BD10B506F072FE2F
:1007F00000F00AF800F02AF807F0F0FB06F08AFE95
:1008000002F0F8F810BD00001CB50121082006F028
:100810000DFF4020009001208DF8040000208DF88D
:10082000060003208DF8050002208DF807006946B8
:10083000044801F041FC4FF48071024801F0A7FC2C
:100840001CBD0000000C024000BFFEE71CB50121EA
:10085000402006F0EBFE4020009001208DF80400BF
:1008600000208DF8060003208DF8050001208DF88A
:1008700007006946034801F01FFC4021014801F0D0
:1008800086FC1CBD0018024010B59FED380A3848A0
:1008900080ED000A9FED350A80ED010A9FED330AD5
:1008A00080ED040A9FED310A80ED040A9FED2F0AC6
:1008B00080ED060A9FED2D0A80ED070A9FED2B0AB9
:1008C00080ED080A9FED290A80ED090A9FED270AAD
:1008D00080ED0A0A9FED250A80ED0B0A9FED230AA1
:1008E00080ED0C0A9FED210A80ED0D0A9FED1F0A95
:1008F00080ED0E0A9FED1D0A80ED100A9FED1B0A88
:1009000080ED110A9FED190A80ED0F0A00220265A1
:1009100042658265C265002102469164D1649FED03
:10092000130A80ED1B0A9FED110A80ED1C0A9FED52
:100930000F0A80ED1D0A9FED0D0A80ED1E0A0020B2
:100940000C49C86188610C498861C8619FED071A2C
:10095000DFED060A9FED050A07F090FA00200AF085
:1009600089FD02F009F802F007F810BD0000000050
:10097000A8020020280300204C030020704700003C
:1009800010B507F0D3F900200E4908600E48D0F8E2
:100990000402012812D1002008604FF4FA7009F017
:1009A00079FD01200949C1F89C024FF4FA7009F061
:1009B00071FD00200349091D086010BD07F0FCF916
:1009C0000120FAE7980243420000414200004342FE
:1009D0000EB50121880306F059FE0021022007F020
:1009E0002DFA0121022007F029FA012000900020B1
:1009F0008DF8040008208DF8050000208DF8060011
:100A0000684600F02BF80220009000208DF80400CA
:100A100008208DF8050000208DF80600684600F0DB
:100A20001DF806208DF8080000208DF8090001202F
:100A30008DF80A008DF80B0002A806F095FD07203E
:100A40008DF8080000208DF809008DF80A000120BB
:100A50008DF80B0002A806F087FD0EBD002123498A
:100A60008279002A3AD00A46126803689A430B46F4
:100A70001A600A1D126803689A430B1D1A600279F6
:100A800011440A6803681A430A60184A0832126857
:100A900003689A43154B08331A601A1D12680368DD
:100AA0009A43124B0C331A604279102A0ED11A1F46
:100AB000126803681A430D4B08331A601A1D126836
:100AC00003681A43094B0C331A600DE00749427959
:100AD00011440A6803681A430A6005E00279114468
:100AE0000A6803689A430A6070470000003C0140AE
:100AF00010B50121084606F0B9FD0121042006F0D9
:100B0000B5FD0121022006F0C1FD0121042006F0FF
:100B10008DFD0121082006F089FD0121084606F01F
:100B200085FD09F01FFD09F069FD09F0B3FD10BD59
:100B300051B18200A2F1C042126842F0010382006A
:100B4000A2F1C042136009E08200A2F1C042126823
:100B5000034B1A408300A3F1C0431A6070470000A2
:100B6000FEFF0F00D0E901121143C2681143026970
:100B700011434269114382691143C2691143026AF8
:100B80001143426A1143826A1143C26A1143026BE4
:100B9000114302689200A2F1C042116081680829E5
:100BA0000BD101688900A1F1C041096841F0400200
:100BB00001688900A1F1C0410A60416B0968426B7C
:100BC000526841EA0211426B926841EA0221426B8B
:100BD000928941EA0241426B128A41EA0251426B18
:100BE000127D41EA0261426B926911430268521C14
:100BF0009200A2F1C0421160C16AB1F5804F1BD1D1
:100C0000816B0968826B526841EA0211826B9268BB
:100C100041EA0221826B128A41EA0251826B127D03
:100C200041EA0261826B9269114302689200A2F16B
:100C3000C042C2F8041107E06FF0704201688900F9
:100C4000A1F1C041C1F804217047000030B52DED7D
:100C5000048B83B005469FEDF70AF0EE408A01242D
:100C6000F54890ED040AB0EE409A9FEDF40AB0EE1C
:100C7000408A012D02D0032D1ED10EE001F032F882
:100C800042F2107009F006FC01F02CF842F21070EC
:100C900009F000FC01F026F80EE001F005FA42F23E
:100CA000107009F0F7FB01F0FFF942F2107009F043
:100CB000F1FB01F0F9F900BF00BF9FEDE01ADFED95
:100CC000DF0A9FEDDE0A07F0D9F806F07BFA002074
:100CD000DB490880DB4908809FEDD81ADFEDD70A91
:100CE0009FEDD60A07F0CAF806F06CFA0020D54945
:100CF000088000BF00BFD248008800F400400028F0
:100D0000F9D100BFCF48008800F400400028F9D195
:100D100001F0C6FC88B98CB12046611CCCB2052814
:100D200008DA9FEDC61ADFEDC50A9FEDC40A07F089
:100D3000A5F8DAE014B1002400E0012401F056FC2B
:100D4000E4BBBD4890ED040A30EE490AB0EE408A9B
:100D50009FEDBD0AB4EEC08AF1EE10FA06DD9FEDFC
:100D6000BB0AB4EEC08AF1EE10FA0DD39FEDB80ABB
:100D7000B4EEC08AF1EE10FA0AD29FEDB60AB4EED4
:100D8000C08AF1EE10FA03DD9FEDB30AF0EE408A5F
:100D90009FEDB20AB4EEC08AF1EE10FA06D29FEDD2
:100DA000AC0AB4EEC08AF1EE10FA0FDC9FEDA70A90
:100DB000B4EEC08AF1EE10FA0CDD00E024E09FED05
:100DC000A80AB4EEC08AF1EE10FA03D29FED990A98
:100DD000F0EE408AB0EE681ADFED980A9FED970AB0
:100DE00001F0E4F99448D0ED1A1AB0EE611AD0ED92
:100DF000191AF0EE610AD0ED181AB0EE610A07F088
:100E00003DF806F0DFF96FE08D488069B0F57A6F44
:100E100008D99FED8A1ADFED890A9FED880A07F04D
:100E20002DF861E08648C069B0F5917F1CD28448F6
:100E30008069B0F57A7F17D99FED801AF3EE000A2A
:100E4000BAEE000A01F0F0FA7B48D0ED1A1AB0EEC3
:100E5000611AD0ED191AF0EE610AD0ED181AB0EE51
:100E6000610A07F00BF83FE07548C069B0F5AF7F45
:100E70001CD973488069B0F57A7F17D99FED6F1A36
:100E8000F3EE000AB2EE000A01F0CEFA6A48D0EDA5
:100E90001A1AB0EE611AD0ED191AF0EE610AD0ED0F
:100EA000181AB0EE610A06F0E9FF1DE06448806997
:100EB000B0F57A7F17D99FED611AF3EE0E0A9FED18
:100EC0005F0A01F0B1FA5C48D0ED1A1AB0EE611A6F
:100ED000D0ED191AF0EE610AD0ED181AB0EE610AE1
:100EE00006F0CCFF00E001E000BF03E700BF55487B
:100EF0008069B0F5487F7CD95AA010210B46C822E2
:100F0000CDE900104FF4FA71E62005F0A9FD30E1BB
:100F100000BF4B48008800F400400028F9D101F0E0
:100F2000BFFB01F063FB47488069B0F5487F00D202
:100F300020E101F0B5FB38B99FED401ADFED3F0A23
:100F40009FED3E0A06F09AFF3D48C069B0F5967FD6
:100F500017D29FED3A1ADFED390AB9EE080A01F00F
:100F600063FA3548D0ED1A1AB0EE611AD0ED191AAD
:100F7000F0EE610AD0ED181AB0EE610A06F07EFFBD
:100F8000F7E02F48C069B0F5AA7F17D99FED2B1A5B
:100F9000DFED2A0AB1EE080A01F046FA2648D0ED44
:100FA0001A1AB0EE611AD0ED191AF0EE610AD0EDFE
:100FB000181AB0EE610A06F061FFDAE02048806995
:100FC000B0F52F7F19D99FED1D1AF3EE040A9FED9E
:100FD0001B0A01F029FA1848D0ED1A1AB0EE611A6E
:100FE000D0ED191AF0EE610AD0ED181AB0EE610AD0
:100FF00000E0C0E006F042FFBBE01148C069B0F578
:10100000917F33D29FED0D1ADFED0C0AB9EE080A7D
:1010100001F00AFA0848D0ED1A1AB0EE611AD0EDC4
:10102000191AF0EE610AD0ED181AB0EE610A06F056
:1010300025FF9EE000004843A802002000000000B9
:101040004C03002028030020920A063FDB0F494092
:10105000DB0F49C0894EB8C0000048C3920A06BFE2
:10106000894EB8405669657721000000CE48C069B6
:10107000B0F5AF7F17D91FED0F1A5FED100AB1EE73
:10108000080A01F0D1F9C948D0ED1A1AB0EE611A78
:10109000D0ED191AF0EE610AD0ED181AB0EE610A1F
:1010A00006F0ECFE65E0C048C069B0F5AF7F1CD823
:1010B000BD48C069B0F5A57F17D91FED201A5FEDB7
:1010C000210AB0EE080A01F0AFF9B848D0ED1A1ABB
:1010D000B0EE611AD0ED191AF0EE610AD0ED181ACF
:1010E000B0EE610A06F0CAFE43E0AF48C069B0F551
:1010F000917F1CD3AC48C069B0F59B7F17D21FED20
:10110000311A5FED320AB8EE080A01F08DF9A748EE
:10111000D0ED1A1AB0EE611AD0ED191AF0EE610A8C
:10112000D0ED181AB0EE610A06F0A8FE21E01FED1E
:101130003D1A5FED3E0A1FED3F0A06F09FFE06F0E6
:10114000F5FD1FED421AF1EE0C0A1FED440A01F005
:101150006BF99648D0ED1A1AB0EE611AD0ED191A53
:10116000F0EE610AD0ED181AB0EE610A06F086FEC4
:1011700000E0CDE600BF8E488069B0F5487F75D8A5
:101180008CA010210B46C822CDE900104FF4FA7153
:10119000E62005F065FCE8E000BF8548008800F423
:1011A00000400028F9D101F021FA01F079FA01F0AC
:1011B0001DFAB8B91FED5F1A5FED600A1FED610AF5
:1011C00001F032F97948D0ED1A1AB0EE611AD0ED7B
:1011D000191AF0EE610AD0ED181AB0EE610A06F0A5
:1011E0004DFEC2E07248C069B0F5817F1CD27048E4
:1011F0008069B0F52F7F17D91FED701A5FED710A66
:10120000BAEE040A01F010F96848D0ED1A1AB0EEEF
:10121000611AD0ED191AF0EE610AD0ED181AB0EE8D
:10122000610A06F02BFEA0E06148C069B0F58B7F33
:101230001DD95F488069B0F52F7F18D91FED811A3D
:101240005FED820AB2EE040A01F0EEF85748D0EDE5
:101250001A1AB0EE611AD0ED191AF0EE610AD0ED4B
:10126000181AB0EE610A06F009FE7EE07FE05048F1
:101270008069B0F52F7F17D91FED901AF3EE040A9D
:101280001FED920A01F0D0F84848D0ED1A1AB0EEDE
:10129000611AD0ED191AF0EE610AD0ED181AB0EE0D
:1012A000610A06F0EBFD60E04148C069B0F5837F5C
:1012B00017D81FED9E1A5FED9F0ABAEE040A01F0DF
:1012C000B3F83A48D0ED1A1AB0EE611AD0ED191AF7
:1012D000F0EE610AD0ED181AB0EE610A06F0CEFD0C
:1012E00043E03348C069B0F5897F17D31FEDAD1ACD
:1012F0005FEDAE0AB2EE040A01F096F82B48D0ED8D
:101300001A1AB0EE611AD0ED191AF0EE610AD0ED9A
:10131000181AB0EE610A06F0B1FD26E01FEDB91A09
:101320005FEDBA0A1FEDBB0A06F0A8FD06F0FEFC51
:101330001FEDBE1AF1EE0C0A1FEDC00A01F074F8A1
:101340001A48D0ED1A1AB0EE611AD0ED191AF0EE63
:10135000610AD0ED181AB0EE610A06F08FFD14484C
:101360008069B0F5AF7F00D200E015E700BF00F064
:1013700013FF1FEDCE1A5FEDCF0A1FEDD00A06F066
:101380007DFD06F019FD05F01DFF0CA010210B4698
:10139000C822CDE900104FF4E671E62005F060FBAD
:1013A00003B0BDEC048B30BD4C030020A80200202C
:1013B0002803002052616461722100002020202057
:1013C0002020200000B52DED048B83B09FEDFA0A9C
:1013D000F0EE408AF94890ED050AB0EE409A9FED94
:1013E000F80AB0EE408A9FEDF61ADFEDF50A9FEDA0
:1013F000F40A06F043FD05F0E5FE00BF01F0F6F843
:1014000040B99FEDEF1ADFEDEE0A9FEDED0A06F011
:1014100035FDBCE1EB48006808B9012000E0002080
:10142000E8490860E8A010210B46C822CDE9001069
:101430004FF4E671E62005F013FB10200090E5481C
:1014400004234FF4E671C26940F24B1005F0BEFA76
:10145000E1A010210B46C822CDE900104FF4F07135
:10146000E62005F0FDFA10200090DA4804234FF43E
:10147000F071826940F24B1005F0A8FA0020D549BE
:1014800081F820000846806940F6B83188425ED96C
:10149000CA4890ED040A30EE490AB0EE408A9FED4A
:1014A000D20AB4EEC08AF1EE10FA06DD9FEDCF0A43
:1014B000B4EEC08AF1EE10FA0DD39FEDCD0AB4EE72
:1014C000C08AF1EE10FA0AD29FEDCA0AB4EEC08AC1
:1014D000F1EE10FA03DD9FEDC80AF0EE408A9FEDB1
:1014E000C70AB4EEC08AF1EE10FA06D29FEDC00A28
:1014F000B4EEC08AF1EE10FA0DDC9FEDBC0AB4EE3A
:10150000C08AF1EE10FA0ADD9FEDBD0AB4EEC08A82
:10151000F1EE10FA03D29FEDA80AF0EE408AB0EE89
:10152000681ADFEDA70A9FEDA60A00F03FFEA34868
:10153000D0ED1A1AB0EE611AD0ED191AF0EE610A68
:10154000D0ED181AB0EE610A06F098FC1EE1A14831
:10155000C069FD2817D29FEDAB1ADFED990A9FED08
:10156000980A00F061FF9548D0ED1A1AB0EE611AA2
:10157000D0ED191AF0EE610AD0ED181AB0EE610A3A
:1015800006F07CFC02E19348C069B0F58E7F17D36A
:101590009FED9D1ADFED8A0A9FED890A00F044FF56
:1015A0008648D0ED1A1AB0EE611AD0ED191AF0EE95
:1015B000610AD0ED181AB0EE610A06F05FFCE5E0B2
:1015C00084488069B0F57A7F17D99FED7D1AF3EED4
:1015D0000E0A9FED7B0A00F027FF7848D0ED1A1A1B
:1015E000B0EE611AD0ED191AF0EE610AD0ED181ABA
:1015F000B0EE610A06F042FCC8E07648C069B0F57A
:10160000817F1CD273488069B0F52F7F17D99FED79
:101610007F1ADFED6B0A9FED6A0A00F005FF67484D
:10162000D0ED1A1AB0EE611AD0ED191AF0EE610A77
:10163000D0ED181AB0EE610A06F020FCA6E065486D
:10164000C069B0F58B7F1CD962488069B0F52F7FE7
:1016500017D99FED6F1ADFED5A0A9FED590A00F076
:10166000E3FE5648D0ED1A1AB0EE611AD0ED191A01
:10167000F0EE610AD0ED181AB0EE610A06F0FEFB3A
:1016800084E054488069B0F52F7F17D99FED4C1A3C
:10169000F3EE040A9FED4A0A00F0C6FE4748D0ED7B
:1016A0001A1AB0EE611AD0ED191AF0EE610AD0EDF7
:1016B000181AB0EE610A06F0E1FB67E04548C06920
:1016C000B0F5837F17D89FED3E1ADFED3D0ABAEEE5
:1016D000000A00F0A9FE3948D0ED1A1AB0EE611ADE
:1016E000D0ED191AF0EE610AD0ED181AB0EE610AC9
:1016F00006F0C4FB4AE03748C069B0F5897F17D3CC
:101700009FED2F1ADFED2E0AB2EE000A00F08CFEDC
:101710002A48D0ED1A1AB0EE611AD0ED191AF0EE7F
:10172000610AD0ED181AB0EE610A06F0A7FB2DE0B1
:101730002248D0ED1A1AB0EE611AD0ED191AF0EE67
:10174000610AD0ED181AB0EE610A06F097FB06F0B8
:10175000EDFA9FED1B1AF1EE0C0A9FED190A00F04D
:1017600063FE1648D0ED1A1AB0EE611AD0ED191AC0
:10177000F0EE610AD0ED181AB0EE610A06F07EFBB9
:1017800014488069B0F5AF7F00D201E000BF35E6B4
:1017900000BF00F001FD9FED0A1ADFED090A9FED81
:1017A000080A06F06BFB06F007FB05F00BFD03B023
:1017B000BDEC048B00BD000000009643A802002091
:1017C00000000000A882424252616461723A726174
:1017D000640000002803002052616461723A6C6565
:1017E0006E67746800000000920A063FDB0F4940F4
:1017F000DB0F49C0894EB8C0000096C3920A06BFED
:10180000894EB84000004843000048C3000016431A
:10181000000016C370B52DED048B05469FEDF80A48
:10182000F0EE408A0124F74890ED040AB0EE409AA9
:101830009FEDF50AB0EE408A012D02D0032D1AD19A
:101840000CE000F04FFA642008F024FE00F04AFAA1
:10185000642008F01FFE00F045FA0CE000F024FCC4
:10186000642008F017FE00F01FFC642008F012FE50
:1018700000F01AFC00BF00BF9FEDE31ADFEDE20AA3
:101880009FEDE10A06F0FAFA05F09CFC0020DF4922
:10189000088000BF00BFDD4800880128FBD100F0B0
:1018A000FFFE48B94CB12046611CCCB2052800DAD5
:1018B00001E214B1002400E00124E4BBD14890ED22
:1018C000040A30EE490AB0EE408A9FEDD10AB4EE28
:1018D000C08AF1EE10FA06DD9FEDCE0AB4EEC08AA2
:1018E000F1EE10FA0DD39FEDCC0AB4EEC08AF1EE02
:1018F00010FA0AD29FEDC90AB4EEC08AF1EE10FACE
:1019000003DD9FEDC70AF0EE408A9FEDC60AB4EEF4
:10191000C08AF1EE10FA06D29FEDBF0AB4EEC08A7B
:10192000F1EE10FA0FDC9FEDBB0AB4EEC08AF1EEC7
:1019300010FA0CDD00E024E09FEDBB0AB4EEC08A93
:10194000F1EE10FA03D29FEDAE0AF0EE408AB0EE4F
:10195000681ADFEDAD0A9FEDAC0A00F027FCA9483C
:10196000D0ED1A1AB0EE611AD0ED191AF0EE610A34
:10197000D0ED181AB0EE610A06F080FA05F022FCEC
:1019800098E1A2488069B0F57A6F17D99FED9E1A49
:10199000DFED9D0A9FED9C0A00F008FC9948D0ED10
:1019A0001A1AB0EE611AD0ED191AF0EE610AD0EDF4
:1019B000181AB0EE610A06F061FA7BE19348C0693B
:1019C000B0F5917F1DD29148806940F21451884250
:1019D00017D99FED8D1AF2EE040AB9EE040A00F051
:1019E00023FD8848D0ED1A1AB0EE611AD0ED191A0D
:1019F000F0EE610AD0ED181AB0EE610A06F03EFA78
:101A000058E18248C069B0F5AF7F1DD97F48806931
:101A100040F21451884217D99FED7B1AF2EE040A66
:101A2000B1EE040A00F000FD7648D0ED1A1AB0EECF
:101A3000611AD0ED191AF0EE610AD0ED181AB0EE65
:101A4000610A06F01BFA35E17048806940F21451D2
:101A5000884217D99FED6C1AF3EE040A9FED6A0ACB
:101A600000F0E2FC6748D0ED1A1AB0EE611AD0ED32
:101A7000191AF0EE610AD0ED181AB0EE610A06F0FC
:101A8000FDF917E16148C069B0F5967F1CD25F4847
:101A90008069B0F52F7F17D99FED5B1ADFED5A0AE9
:101AA000B9EE000A00F0C0FC5648D0ED1A1AB0EEAC
:101AB000611AD0ED191AF0EE610AD0ED181AB0EEE5
:101AC000610A06F0DBF9F5E05048C069B0F5AA7F7D
:101AD0001CD94E488069B0F52F7F17D99FED4A1A5F
:101AE000DFED490AB1EE000A00F09EFC4548D0ED5A
:101AF0001A1AB0EE611AD0ED191AF0EE610AD0EDA3
:101B0000181AB0EE610A06F0B9F9D3E03F488069CF
:101B1000B0F52F7F17D99FED3C1AF2EE080A9FED22
:101B20003A0A00F081FC3748D0ED1A1AB0EE611A7B
:101B3000D0ED191AF0EE610AD0ED181AB0EE610A74
:101B400006F09CF9B6E03148C069B0F5917F17D234
:101B50009FED2D1ADFED2C0AB8EE080A00F064FCA8
:101B60002848D0ED1A1AB0EE611AD0ED191AF0EE2D
:101B7000610AD0ED181AB0EE610A06F07FF999E01B
:101B80002248C069B0F5AF7F17D99FED1F1ADFED6E
:101B90001E0AB0EE080A00F047FC1A48D0ED1A1AE7
:101BA000B0EE611AD0ED191AF0EE610AD0ED181AF4
:101BB000B0EE610A06F062F97CE01448C069B0F545
:101BC000AF7F33D81148C069B0F5A57F2ED99FEDFE
:101BD0000E1ADFED0D0AB7EE080A00F025FC0948E1
:101BE000D0ED1A1AB0EE611AD0ED191AF0EE610AB2
:101BF000D0ED181AB0EE610A06F040F95AE0000084
:101C000000004843A8020020000000004C03002010
:101C1000920A063FDB0F4940DB0F49C0894EB8C02E
:101C2000000048C3920A06BF894EB8402B48C069DD
:101C3000B0F5917F1CD32948C069B0F59B7F17D2BE
:101C40001FED0F1A5FED100ABFEE080A00F0ECFB63
:101C50002348D0ED1A1AB0EE611AD0ED191AF0EE41
:101C6000610AD0ED181AB0EE610A06F007F921E01A
:101C70001FED1B1A5FED1C0A1FED1D0A06F0FEF892
:101C800006F054F81FED201AF1EE0C0A1FED220A9F
:101C900000F0CAFB1248D0ED1A1AB0EE611AD0ED6E
:101CA000191AF0EE610AD0ED181AB0EE610A06F0CA
:101CB000E5F801E000BFEDE500BF00F06DFA1FEDB3
:101CC0002E1A5FED2F0A1FED300A06F0D7F806F046
:101CD00073F805F077FABDEC048B70BD4C0300205F
:101CE000A802002010B53121014807F01AFA10BDF2
:101CF0000010014010B52DED048B9FEDDF0AF0EED2
:101D0000408ADE4890ED050AB0EE409A9FEDDC0A6D
:101D1000B0EE408A9FEDDA1ADFEDD90A9FEDD80ABE
:101D200006F0ACF805F04EFA00BF00BFD5480088B9
:101D300000F400400028F9D100F058FC38B99FEDBC
:101D4000D01ADFEDCF0A9FEDCE0A06F097F8CE4805
:101D5000006808B9012000E00020CB490860C948AC
:101D6000806940F2DC51884200D27FE1C548806939
:101D700040F6B83188425ED9C04890ED040A30EE92
:101D8000490AB0EE408A9FEDC10AB4EEC08AF1EE76
:101D900010FA06DD9FEDBE0AB4EEC08AF1EE10FA2D
:101DA0000DD39FEDBC0AB4EEC08AF1EE10FA0AD250
:101DB0009FEDB90AB4EEC08AF1EE10FA03DD9FED93
:101DC000B70AF0EE408A9FEDB60AB4EEC08AF1EE93
:101DD00010FA06D29FEDAF0AB4EEC08AF1EE10FA07
:101DE0000DDC9FEDAB0AB4EEC08AF1EE10FA0ADD0D
:101DF0009FEDAC0AB4EEC08AF1EE10FA03D29FED6B
:101E00009E0AF0EE408AB0EE681ADFED9D0A9FED63
:101E10009C0A00F0CBF99948D0ED1A1AB0EE611A7D
:101E2000D0ED191AF0EE610AD0ED181AB0EE610A81
:101E300006F024F819E19348C069B0F5817F17D204
:101E40009FED8F1ADFED8E0AB2EE040A00F0ECFA75
:101E50008A48D0ED1A1AB0EE611AD0ED191AF0EED8
:101E6000610AD0ED181AB0EE610A06F007F8FCE03E
:101E70008448C069B0F58B7F17D99FED811ADFEDDB
:101E8000800ABAEE040A00F0CFFA7C48D0ED1A1AA4
:101E9000B0EE611AD0ED191AF0EE610AD0ED181A01
:101EA000B0EE610A05F0EAFFDFE07648806940F6AF
:101EB000B831884217D99FED721AF3EE0E0A9FEDE2
:101EC000700A00F0B1FA6D48D0ED1A1AB0EE611A3E
:101ED000D0ED191AF0EE610AD0ED181AB0EE610AD1
:101EE00005F0CCFFC1E06748806940F628218842B0
:101EF00017D99FED631AF3EE040A9FED610A00F013
:101F000093FA5E48D0ED1A1AB0EE611AD0ED191AA4
:101F1000F0EE610AD0ED181AB0EE610A05F0AEFFDE
:101F2000A3E058488069B0F5166F17D29FED541A98
:101F3000FBEE040A9FED520A00F076FA4F48D0ED0E
:101F40001A1AB0EE611AD0ED191AF0EE610AD0ED4E
:101F5000181AB0EE610A05F091FF86E04948C069A1
:101F6000B0F5837F17D89FED461ADFED450AB1EE35
:101F7000040A00F059FA4148D0ED1A1AB0EE611A7D
:101F8000D0ED191AF0EE610AD0ED181AB0EE610A20
:101F900005F074FF69E03B48C069B0F5897F17D34D
:101FA0009FED371ADFED360AB9EE040A00F03CFA6D
:101FB0003248D0ED1A1AB0EE611AD0ED191AF0EECF
:101FC000610AD0ED181AB0EE610A05F057FF4CE037
:101FD0002C48C069B0F5837F1CD82A48C069B0F589
:101FE000857F17D99FED261ADFED250AB0EE080A86
:101FF00000F01AFA2148D0ED1A1AB0EE611AD0EDAD
:10200000191AF0EE610AD0ED181AB0EE610A05F067
:1020100035FF2AE01B48C069B0F5897F1CD31948F9
:10202000C069B0F5877F17D99FED151ADFED140A47
:10203000B8EE080A00F0F8F91048D0ED1A1AB0EE20
:10204000611AD0ED191AF0EE610AD0ED181AB0EE4F
:10205000610A05F013FF08E09FED091ADFED080A99
:102060009FED070A05F00AFF01E000BF5DE600BF33
:10207000BDEC048B10BD000000009643A8020020B8
:102080000000000028030020A8824242920A063F76
:10209000DB0F4940DB0F49C0894EB8C0000096C332
:1020A000920A06BF894EB84010B53321014807F0A7
:1020B00038F810BD00100140F0B50A460021002399
:1020C000002400BF3DE0012505FA01F3156805EA8B
:1020D00003049C4234D105684F000326BE40B5433B
:1020E000056015794E00B5400668354305601579E1
:1020F000012D02D01579022D16D185684F000326D7
:10210000BE40B543856055794E00B540866835437D
:102110008560456801268E40B543456045689679DF
:102120008E40B6B235434560C5684F000326BE40B9
:10213000B543C560D5794E00B540C6683543C56026
:10214000491C1029BFD3F0BDF0B5002300244D0772
:10215000ED0E02FA05F3CE1000F1200555F82650D9
:102160004E07F70E0F26BE40B543CF1000F12006F4
:1021700046F82750CE1000F1200555F8265045EAC4
:102180000304CE1000F1200545F82640F0BD418340
:10219000704701837047000003E00348006800B9FE
:1021A00000E0FAE700BF70470802414270B52DED2C
:1021B0000A8B9EB0B0EE408AF0EE608AB0EE419A93
:1021C000B6EE000A8DED150A9FED920A8DED160A06
:1021D0009FED910A8DED170ABFEE000A8DED180AEA
:1021E0009FED8E0A8DED190A9FED8B0A8DED1A0A6F
:1021F000B6EE000A8DED1B0A9FED890A8DED1C0AD3
:102200009FED850A8DED1D0A864890ED040A10EEBB
:10221000101A0846FEF753F841EC1B0BB0EE4B0AC0
:10222000F0EE6B0A06F0D8FFB0EE40AAF0EE60AA1E
:1022300051EC1A0BFEF76EF80C907A4890ED040AF8
:1022400010EE101A0846FEF73AF841EC1B0BB0EE00
:102250004B0AF0EE6B0A07F02FF8B0EE40AAF0EE52
:1022600060AA51EC1A0BFEF755F80D909FED6B0A22
:102270008DED0E0A6B4890ED040A10EE101A084618
:10228000FEF71DF841EC1C0BB0EE4C0AF0EE6C0AA8
:1022900007F012F8B0EE40BAF0EE60BA51EC1B0B4A
:1022A00081F0004141EC1A0BFEF734F80F905D48C5
:1022B00090ED040A10EE101A0846FEF700F841EC03
:1022C0001B0BB0EE4B0AF0EE6B0A06F085FFB0EE8A
:1022D00040AAF0EE60AA51EC1A0BFEF71BF8109022
:1022E0009FED4E0A8DED110A9FED4C0A8DED120AFD
:1022F0009FED4A0A8DED130AB7EE000A8DED140A20
:10230000B1EE480AF2EE040A20EE200A8DED090A29
:10231000B1EE680A8DED0A0AB1EE490A8DED0B0A9D
:1023200000243EE0002538E09FED3C0A04EB440029
:10233000694601EB800000EB850080ED000A002675
:1023400027E004EB4400694601EB800000EB8500C8
:1023500090ED000A04EB440015A901EB800000EBAE
:102360008600D0ED000A06EB46000CA901EB8000C8
:1023700000EB850090ED001A00EE810A04EB4400AA
:10238000694601EB800000EB850080ED000A701CBF
:10239000C6B2032ED5DB681CC5B2032DC4DB601C9E
:1023A000C4B2032CBEDB00242BE09FED1C0A1D48A9
:1023B000603000EB840080ED000A00251DE004EB96
:1023C0004400694601EB800000EB8500D0ED000A77
:1023D00009A800EB850090ED001A1248603000EB70
:1023E000840090ED000A00EE810A0E48603000EB98
:1023F000840080ED000A681CC5B2032DDFDB601C81
:10240000C4B2032CD1DB04F0DDFE1EB0BDEC0A8BA0
:1024100070BD0000D7B35D3F96214EBE00000000A6
:10242000D7B35DBFA802002070B52DED048B9EB020
:10243000B0EE408AF0EE608AB0EE419AB6EE000A45
:102440008DED150A9FED640A8DED160A9FED630A66
:102450008DED170ABFEE000A8DED180A9FED600A98
:102460008DED190A9FED5D0A8DED1A0AB6EE000A90
:102470008DED1B0A9FED5B0A8DED1C0A9FED570A3F
:102480008DED1D0AB7EE000A8DED0C0A9FED540A82
:102490008DED0D0A9FED520A8DED0E0A9FED500A4B
:1024A0008DED0F0AB7EE000A8DED100A9FED4C0A74
:1024B0008DED110A9FED4A0A8DED120A9FED480A33
:1024C0008DED130AB7EE000A8DED140AB1EE480A3D
:1024D000F2EE040A20EE200A8DED090AB1EE680A38
:1024E0008DED0A0AB1EE490A8DED0B0A00243EE09B
:1024F000002538E09FED3A0A04EB4400694601EB01
:10250000800000EB850080ED000A002627E004EB48
:102510004400694601EB800000EB850090ED000A65
:1025200004EB440015A901EB800000EB8600D0ED20
:10253000000A06EB46000CA901EB800000EB8500C9
:1025400090ED001A00EE810A04EB4400694601EBAD
:10255000800000EB850080ED000A701CC6B2032EDF
:10256000D5DB681CC5B2032DC4DB601CC4B2032CD0
:10257000BEDB002428E09FED1A0A1B4800EB840014
:1025800080ED000A00251BE004EB4400694601EBE6
:10259000800000EB8500D0ED000A09A800EB850063
:1025A00090ED001A104800EB840090ED000A00EE58
:1025B000810A0D4800EB840080ED000A681CC5B25A
:1025C000032DE1DB601CC4B2032CD4DB04F0FAFD64
:1025D0001EB0BDEC048B70BDD7B35D3F96214EBEDF
:1025E00000000000D7B35DBF080300207CB524487D
:1025F000008800F4004060B121488179407941EAC7
:1026000000241F48017AC07941EA002500201C49B6
:1026100008801B48C46185610120194981F82000A8
:102620000020088017A010210B46C822CDE9001019
:102630004FF4E671E62004F013FA102000901048E1
:1026400004234FF4E671C26940F24B1004F0BEF966
:102650000FA010210B46C822CDE900104FF4F071F5
:10266000E62004F0FDF910200090054804234FF403
:10267000F071826940F24B1004F0A8F901207CBD92
:102680002803002052616461723A726164000000A4
:1026900052616461723A6C656E6774680000000094
:1026A0007CB55448008800F4004000285ED05148B2
:1026B0008078202806D04F4880783038642110FB7D
:1026C00001F400E0002420204A4988700846C078C0
:1026D000202806D00846C078303800EB800004EB94
:1026E000400420214348C1700079202803D041488C
:1026F00000793038044420213E4801714079202877
:1027000007D03C48407930384FF47A7110FB01F51E
:1027100000E000252021374841718079202808D029
:1027200034488079303800EBC00101EB001005EB34
:10273000800520212F488171C079202806D02D489E
:10274000C079303800EB800005EB40052021294896
:10275000C171007A202803D02648007A3038054419
:102760002021244801720020224908800A2C06D327
:1027700040F27620844202D8B5F5FA7F04D20020D8
:102780001C4981F820007CBD1A48C4618561012084
:10279000184981F8200018A010210B46C822CDE965
:1027A00000104FF4D271E62004F05AF91020009086
:1027B000104804234FF4D271C26940F24B1004F068
:1027C00005F910A010210B46C822CDE900104FF4E6
:1027D000DC71E62004F044F9102000900548042341
:1027E0004FF4DC71826940F24B1004F0EFF80120E5
:1027F000C9E700004C03002056696577203A7069EC
:102800007800000056696577203A6C656E677468D9
:10281000000000004A48008800F4004000287CD0F6
:10282000484880794749C97940EA012000EE100AFA
:10283000B8EEC00ADFED440A80EE201A9FED430A8D
:1028400021EE000A424880ED050A90ED050ADFED11
:10285000410A20EE200ADFED3D0A80EE201A80EDCD
:10286000041A0CE03A4890ED040ADFED3A0A30EE23
:10287000200ADFED380A30EE200A80ED040A3448E1
:1028800090ED040AB5EEC00AF1EE10FAEAD30CE0BE
:102890002F4890ED040ADFED2F0A30EE600ADFEDDD
:1028A0002D0A30EE600A80ED040A294890ED040AF2
:1028B000DFED290AB4EEE00AF1EE10FAE8DC08E0F8
:1028C000234890ED050ADFED250A30EE200A80ED61
:1028D000050A1F4890ED050AB5EEC00AF1EE10FAA0
:1028E000EED308E01A4890ED050ADFED1C0A30EE41
:1028F000600A80ED050A164890ED050ADFED170A1B
:10290000B4EEE00AF1EE10FAECDC00200C4908808D
:102910001348006810B9012001E00EE000201049C2
:1029200008601048D0F8A80208B9012000E0002093
:102930000B49091F0860012070470020FCE70000D8
:102940001E00002012010020000000470000344358
:10295000A8020020DB0F4940DB0FC9400000B44350
:10296000A88242420080424202E002A006F00AFC35
:10297000FBE700006572720010B5FF211C4806F0ED
:10298000D0FB00BF40211A4806F000FB0128F9D116
:10299000AA21174806F0C5FB00BF4021144806F0E5
:1029A000F5FA0128F9D10121114806F0BAFB00BF60
:1029B00040210F4806F0EAFA0128F9D104210C4819
:1029C00006F0AFFB00BF4021094806F0DFFA0128FE
:1029D000F9D10021064806F0A4FB00BF40210448BD
:1029E00006F0D4FA0128F9D10A2007F053FD10BDF2
:1029F000004400401CB50121042004F017FE04200F
:102A0000009000208DF8040003208DF805000120BF
:102A10008DF8070069460248FFF74EFB1CBD000019
:102A20000008024070B50446002617480588408813
:102A300045431548808846F60401884216D112485D
:102A40008079012812D100200F4988712A204881FD
:102A50002B2088810021084603F09EFE01200A49B0
:102A600088712B2048812A20888103E000210846B4
:102A700003F092FE04F016FD002602E003480480F5
:102A8000761CAE42FAD370BD3C0000208000006C82
:102A900010B50446002C52D158498871F0200880A6
:102AA0004FF4A07048800846808849F2413188423E
:102AB0000BD05248808846F60401884205D04F4822
:102AC000808845F2103188421AD12C204B49088168
:102AD0002A2048812B2088810846808846F60401F8
:102AE000884205D04548808845F21031884206D199
:102AF0004FF4A070414908804FF4F070488079E0AD
:102B00003E48808845F21051884210D14FF4305031
:102B10003A4908814FF4285048814FF42C5088815D
:102B20004FF4F07008804FF44870488062E0222033
:102B30003249088120204881212088815AE00120E3
:102B40002E4988714FF4A0700880F0204880084614
:102B5000808849F24131884205D02848808845F272
:102B60001031884207D12C20244908812A2048812D
:102B70002B2088812BE02148808846F6040188427A
:102B800007D12C201D4908812B2048812A208881CB
:102B90001DE01A48808845F21051884210D14FF448
:102BA0003050164908814FF4285048814FF42C507A
:102BB00088814FF4487008804FF4F070488006E038
:102BC00022200E49088121204881202088810B483D
:102BD000808846F60401884205D00848808845F27E
:102BE0001031884206D14FF4F070044908804FF448
:102BF000A0704880002003F079FC10BD3C0000204C
:102C000070B504460D4616464348808849F2413166
:102C1000884205D04048808845F21031884214D15E
:102C20003D49488904F032FC201204F023FCE0B254
:102C300004F020FC3849888904F028FC281204F0AC
:102C400019FCE8B204F016FC5DE03348808845F2D8
:102C50001051884220D13049488904F017FC2012D5
:102C600004F008FC2C494989491C88B204F00EFC88
:102C7000E0B204F0FFFB2849888904F007FC281221
:102C800004F0F8FB24498989491C88B204F0FEFB52
:102C9000E8B204F0EFFB36E01F48808846F60401F6
:102CA00088421DD11C488079012804D11A48008827
:102CB000401E001B84B21849488904F0E7FB20122B
:102CC00004F0D8FBE0B204F0D5FB1349888904F086
:102CD000DDFB281204F0CEFBE8B204F0CBFB12E0DF
:102CE0000D488079012804D10B480088401E001B44
:102CF00084B209494889214604F0DEFB06498889E7
:102D0000294604F0D9FB04480089044908804FF0A3
:102D1000D840A0F8806070BD3C0000207E00006CB0
:102D200000B5A1B00020209001217A2004F07EFCA3
:102D30000121084604F08AFC4FF400401E90012057
:102D40008DF87C0000208DF87E0002208DF87D003B
:102D500001208DF87F001EA9FE48FFF7ADF94CF267
:102D600033701E9002208DF87C0000208DF87E00CC
:102D700003208DF87D0001208DF87F001EA9F64804
:102D8000FFF79AF94FF680701E9002208DF87C00B4
:102D900000208DF87E0003208DF87D0001208DF845
:102DA0007F001EA9ED48FFF787F94FF480501E9071
:102DB00002208DF87C0000208DF87E0003208DF825
:102DC0007D0001208DF87F001EA9E548FFF774F90A
:102DD0004FF480501E9002208DF87C0000208DF86A
:102DE0007E0003208DF87D0001208DF87F001EA954
:102DF000DC48FFF761F90C220021D748FFF7A4F95E
:102E00000C220121D448FFF79FF90C220421D2485B
:102E1000FFF79AF90C220521CF48FFF795F90C220C
:102E20000821CD48FFF790F90C220921CA48FFF785
:102E30008BF90C220A21C848FFF786F90C220E21D3
:102E4000C548FFF781F90C220F21C348FFF77CF931
:102E50000C220721C148FFF777F90C220821BF484F
:102E6000FFF772F90C220921BC48FFF76DF90C221B
:102E70000A21BA48FFF768F90C220B21B748FFF77F
:102E800063F90C221146B548FFF75EF90C220D21BB
:102E9000B248FFF759F90C220E21B048FFF754F958
:102EA0000C220F21AD48FFF74FF90C221146AC4818
:102EB000FFF74AF90C221146AA48FFF745F90F20FF
:102EC0000890002009903C200A9000200B900C9064
:102ED0000D900E9009200190002002900820039090
:102EE0000020049005900690079006200F90002087
:102EF00010901190102012900020139015901490B3
:102F0000169017904FF480501890002019904FF4AD
:102F100080401A9000201B9008A81C9001A81D90CA
:102F20000FA8FDF71FFE01210620FDF701FE32204C
:102F300007F0B0FA0121002004F0BEFA322007F0B9
:102F4000A9FA002003F0C6FA8749888008468088DD
:102F5000FF280ADB084680884FF6FF71884204D0BC
:102F600081488088B0F5134F7ED1D32004F08EFACB
:102F700003F0A6FA7C49888003F0A2FA7A49888097
:102F800003F09EFA78498880084680884FF6FF71E2
:102F900001EA00207449888003F092FA7249898816
:102FA0000843714988800846808849F24131884247
:102FB00078D0BF2004F06AFA03F082FA6A49888068
:102FC00003F07EFA6849888003F07AFA66498880BF
:102FD00003F076FA64498880084680884FF6FF71CE
:102FE00001EA00206049888003F06AFA5E49898816
:102FF00008435D4988800846808846F60401884277
:1030000050D0D42004F042FA03F05AFA564988808E
:1030100003F056FA5449888003F052FA52498880E6
:10302000084680884FF6FF7101EA00204E498880EB
:1030300003F046FA4C49898808434B498880084682
:10304000808845F2103188422CD04FF45A4004F069
:103050001DFA03F035FA444988804FF45B4004F0D0
:1030600015FA03F02DFA00E01CE03F49888008467D
:1030700080884FF6FF7101EA00203B4988804FF4B9
:103080005C4004F003FA03F01BFA374989880843CF
:103090003549888008468088B0F5004F02D145F256
:1030A000105088803048808849F2413188420BD0E6
:1030B0002D48808845F21031884205D02A48808802
:1030C00045F2105188421DD12848006820F00F00B9
:1030D0004FF02041C1F81C010846D0F81C0120F433
:1030E0007060C1F81C010846D0F81C0140F00300D4
:1030F000C1F81C010846D0F81C0140F40070C1F86A
:103100001C0137E01848808846F60401884205D043
:10311000154880884CF2055188422BD1134800682D
:1031200020F00F004FF02041C1F81C010846D0F8F4
:103130001C0120F47060C1F81C010846D0F81C0185
:1031400040F00A00C1F81C010846D0F81C0140F408
:1031500040600DE000040240000C024000100240FC
:1031600000140240001802403C0000201C0100A096
:10317000C1F81C01FE488188FEA006F003F8FC4857
:10318000808849F2413188427ED1CF2004F07EF917
:10319000002004F06FF92098401C2090C12004F01A
:1031A00069F9302004F066F9ED2004F06FF964202D
:1031B00004F060F9032004F05DF9122004F05AF9DC
:1031C000812004F057F9E82004F060F9852004F02C
:1031D00051F9102004F04EF97A2004F04BF9CB207D
:1031E00004F054F9392004F045F92C2004F042F998
:1031F000002004F03FF9342004F03CF9022004F0F0
:1032000039F9F72004F042F9202004F033F9EA20DC
:1032100004F03CF9002004F02DF9002004F02AF914
:10322000C02004F033F91B2004F024F9C12004F07D
:103230002DF9012004F01EF9C52004F027F93020F3
:1032400004F018F9302004F015F9C72004F01EF935
:10325000B72004F00FF9362004F018F9482004F0E4
:1032600009F93A2004F012F9552004F003F9B120CD
:1032700004F00CF9002004F0FDF81A2004F0FAF82C
:10328000B62004F003F900E09AE00A2004F0F2F816
:10329000A22004F0EFF8F22004F0F8F8002004F087
:1032A000E9F8262004F0F2F8012004F0E3F8E02029
:1032B00004F0ECF80F2004F0DDF82A2004F0DAF82E
:1032C000282004F0D7F8082004F0D4F80E2004F0E9
:1032D000D1F8082004F0CEF8542004F0CBF8A9204F
:1032E00004F0C8F8432004F0C5F80A2004F0C2F83E
:1032F0000F2004F0BFF8002004F0BCF8002004F018
:10330000B9F8002004F0B6F8002004F0B3F8E1208A
:1033100004F0BCF8002004F0ADF8152004F0AAF881
:10332000172004F0A7F8072004F0A4F8112004F0F7
:10333000A1F8062004F09EF82B2004F09BF85620FC
:1033400004F098F83C2004F095F8052004F092F879
:10335000102004F08FF80F2004F08CF83F2004F0C8
:1033600089F83F2004F086F80F2004F083F82B2022
:1033700004F08CF8002004F07DF8002004F07AF8C6
:10338000012004F077F83F2004F074F82A2004F0BC
:103390007DF8002004F06EF8002004F06BF80020A7
:1033A00004F068F8EF2004F065F8112004F06EF8DE
:1033B000782007F06FF8292004F068F803F064B86B
:1033C0006B48808846F6040188427CD1112004F0C5
:1033D0005DF8142007F05EF8D02004F057F80720BD
:1033E00004F048F8422004F045F81D2004F042F8AB
:1033F000D12004F04BF8002004F03CF81A2004F02F
:1034000039F8092004F036F8D22004F03FF8012002
:1034100004F030F8222004F02DF8C02004F036F833
:10342000102004F027F83B2004F024F8002004F0DA
:1034300021F8022004F01EF8112004F01BF8C5202A
:1034400004F024F8032004F015F8C82004F01EF856
:10345000002004F00FF8252004F00CF8212004F0DF
:1034600009F8052004F006F8002004F003F80A200B
:1034700004F000F8652003F0FDFF252003F0FAFFBB
:10348000772003F0F7FF502003F0F4FF0F2003F044
:10349000F1FF002003F0EEFFF82003F0F7FF01201A
:1034A00003F0E8FFFE2003F0F1FF002003F0E2FF4D
:1034B000022003F0DFFF202003F0E8FF362003F0B6
:1034C000E5FF082000E02CE003F0D4FF3A2003F0F1
:1034D000DDFF552003F0CEFF2B2003F0D7FF0020A7
:1034E00003F0C8FF002003F0C5FF012003F0C2FF76
:1034F0003F2003F0BFFF2A2003F0C8FF002003F0A5
:10350000B9FF002003F0B6FF012003F0B3FFDF2076
:1035100003F0B0FF782006F0BDFF292003F0B6FFCE
:103520004CE71348808845F21031884240F0848788
:10353000ED2003F0ABFF012003F09CFFFE2003F021
:1035400099FFEE2003F0A2FFDE2003F093FF21207D
:1035500003F090FFF12003F099FF012003F08AFFB0
:10356000DF2003F093FF102003F084FFC42009E064
:103570003C000020204C43442049443A25780D0A61
:103580000000000003F082FF8F2003F073FFC620CD
:1035900003F07CFF002003F06DFFE22003F06AFFE0
:1035A000E22003F067FFE22003F064FFBF2003F096
:1035B0006DFFAA2003F05EFFB02003F067FF0D202F
:1035C00003F058FF002003F055FF0D2003F052FFD9
:1035D000002003F04FFF112003F04CFF002003F008
:1035E00049FF192003F046FF002003F043FF21208C
:1035F00003F040FF002003F03DFF2D2003F03AFFD1
:10360000002003F037FF3D2003F034FF002003F0DB
:1036100031FF5D2003F02EFF002003F02BFF5D2023
:1036200003F028FF002003F025FFB12003F02EFF58
:10363000802003F01FFF002003F01CFF8B2003F00D
:1036400019FF002003F016FF962003F013FF00205F
:1036500003F010FFB22003F019FF002003F00AFF6F
:10366000002003F007FF022003F004FF002003F016
:1036700001FF032003F0FEFE002003F0FBFEB32059
:1036800003F004FF002003F0F5FE002003F0F2FE3B
:10369000002003F0EFFE002003F0ECFE002003F01A
:1036A000E9FE002003F0E6FE002003F0E3FE002028
:1036B00003F0E0FE002003F0DDFE002003F0DAFE60
:1036C000002003F0D7FE002003F0D4FE002003F01A
:1036D000D1FE002003F0CEFE002003F0CBFE002040
:1036E00003F0C8FE002003F0C5FE002003F0C2FE78
:1036F000002003F0BFFE002003F0BCFE002003F01A
:10370000B9FE002003F0B6FE002003F0B3FE002057
:1037100003F0B0FEB42003F0B9FE8B2003F0AAFE44
:10372000002003F0A7FE962003F0A4FE002003F083
:10373000A1FEA12003F09EFE002003F09BFEB52019
:1037400003F0A4FE022003F095FE002003F092FE99
:10375000032003F08FFE002003F08CFE042003F012
:1037600089FE002003F086FEB62003F08FFE0020C5
:1037700003F080FE002003F07DFEB72003F086FEFC
:10378000002003F077FE002003F074FE3F2003F0DA
:1037900071FE002003F06EFE5E2003F06BFE002041
:1037A00003F068FE642003F065FE002003F062FE73
:1037B0008C2003F05FFE002003F05CFEAC2003F0E1
:1037C00059FE002003F056FEDC2003F053FE0020DB
:1037D00003F050FE702003F04DFE002003F04AFE7F
:1037E000902003F047FE002003F044FEEB2003F09E
:1037F00041FE002003F03EFEDC2003F03BFE0020F3
:1038000003F038FEB82003F041FE002003F032FE42
:10381000002003F02FFE002003F02CFE002003F018
:1038200029FE002003F026FE002003F023FE0020E6
:1038300003F020FE002003F01DFEBA2003F026FE58
:10384000242003F017FE002003F014FE002003F0F4
:1038500011FE002003F00EFEC12003F017FE202011
:1038600003F008FE002003F005FE542003F002FEE2
:10387000002003F0FFFDFF2003F0FCFD002003F01B
:10388000F9FDC22003F002FE0A2003F0F3FD002040
:1038900003F0F0FD042003F0EDFD002003F0EAFD4D
:1038A000C32003F0F3FD3C2003F0E4FD002003F00F
:1038B000E1FD3A2003F0DEFD002003F0DBFD3920BE
:1038C00003F0D8FD002003F0D5FD372003F0D2FD32
:1038D000002003F0CFFD3C2003F0CCFD002003F0DE
:1038E000C9FD362003F0C6FD002003F0C3FD3220E1
:1038F00003F0C0FD002003F0BDFD2F2003F0BAFD52
:10390000002003F0B7FD2C2003F0B4FD002003F0ED
:10391000B1FD292003F0AEFD002003F0ABFD262011
:1039200003F0A8FD002003F0A5FD242003F0A2FD74
:10393000002003F09FFD242003F09CFD002003F0F5
:1039400099FD232003F096FD002003F093FD3C2019
:1039500003F090FD002003F08DFD362003F08AFD7A
:10396000002003F087FD322003F084FD002003F0E7
:1039700081FD2F2003F07EFD002003F07BFD2C2035
:1039800003F078FD002003F075FD292003F072FD9F
:10399000002003F06FFD262003F06CFD002003F0F3
:1039A00069FD242003F066FD002003F063FD242060
:1039B00003F060FD002003F05DFD232003F05AFDBD
:1039C000002003F057FDC42003F060FD622003F0E7
:1039D00051FD002003F04EFD052003F04BFD0020BB
:1039E00003F048FD842003F045FD002003F042FD74
:1039F000F02003F03FFD002003F03CFD182003F011
:103A000039FD002003F036FDA42003F033FD002033
:103A100003F030FD182003F02DFD002003F02AFDF7
:103A2000502003F027FD002003F024FD0C2003F0BC
:103A300021FD002003F01EFD172003F01BFD0020D8
:103A400003F018FD952003F015FD002003F012FD92
:103A5000F32003F00FFD002003F00CFDE62003F03F
:103A600009FD002003F006FDC52003F00FFD322004
:103A700003F000FD002003F0FDFC442003F0FAFCFD
:103A8000002003F0F7FC652003F0F4FC002003F0B5
:103A9000F1FC762003F0EEFC002003F0EBFC882024
:103AA00003F0E8FC002003F0E5FCC62003F0EEFC88
:103AB000202003F0DFFC002003F0DCFC172003F0E3
:103AC000D9FC002003F0D6FC012003F0D3FC002039
:103AD00003F0D0FCC72003F0D9FC002003F0CAFC9F
:103AE000002003F0C7FC002003F0C4FC002003F01A
:103AF000C1FCC82003F0CAFC002003F0BBFC00207E
:103B000003F0B8FC002003F0B5FC002003F0B2FC89
:103B1000C92003F0BBFC002003F0ACFC002003F044
:103B2000A9FC002003F0A6FC002003F0A3FC002069
:103B300003F0A0FC002003F09DFC002003F09AFCA1
:103B4000002003F097FC002003F094FC002003F019
:103B500091FC002003F08EFC002003F08BFC002081
:103B600003F088FC002003F085FC002003F082FCB9
:103B7000002003F07FFCE02003F088FC162003F017
:103B800079FC002003F076FC1C2003F073FC00207D
:103B900003F070FC212003F06DFC002003F06AFCB0
:103BA000362003F067FC002003F064FC462003F09D
:103BB00061FC002003F05EFC522003F05BFC00205F
:103BC00003F058FC642003F055FC002003F052FC85
:103BD0007A2003F04FFC002003F04CFC8B2003F014
:103BE00049FC002003F046FC992003F043FC002030
:103BF00003F040FCA82003F03DFC002003F03AFC59
:103C0000B92003F037FC002003F034FCC42003F09B
:103C100031FC002003F02EFCCA2003F02BFC002016
:103C200003F028FCD22003F025FC002003F022FC46
:103C3000D92003F01FFC002003F01CFCE02003F05F
:103C400019FC002003F016FCF32003F013FC002005
:103C500003F010FCE12003F019FC162003F00AFC2D
:103C6000002003F007FC1C2003F004FC002003F0FC
:103C700001FC222003F0FEFB002003F0FBFB3620BA
:103C800003F0F8FB002003F0F5FB452003F0F2FB06
:103C9000002003F0EFFB522003F0ECFB002003F0C8
:103CA000E9FB642003F0E6FB002003F0E3FB7A204D
:103CB00003F0E0FB002003F0DDFB8B2003F0DAFBD8
:103CC000002003F0D7FB992003F0D4FB002003F081
:103CD000D1FBA82003F0CEFB002003F0CBFBB920E2
:103CE00003F0C8FB002003F0C5FBC42003F0C2FBB7
:103CF000002003F0BFFBCA2003F0BCFB002003F050
:103D0000B9FBD22003F0B6FB002003F0B3FBD820B0
:103D100003F0B0FB002003F0ADFBE02003F0AAFBB2
:103D2000002003F0A7FBF32003F0A4FB002003F026
:103D3000A1FBE22003F0AAFB052003F09BFB00207F
:103D400003F098FB0B2003F095FB002003F092FB9F
:103D50001B2003F08FFB002003F08CFB342003F0CA
:103D600089FB002003F086FB442003F083FB002046
:103D700003F080FB4F2003F07DFB002003F07AFB73
:103D8000612003F077FB002003F074FB792003F03F
:103D900071FB002003F06EFB882003F06BFB00201A
:103DA00003F068FB972003F065FB002003F062FB43
:103DB000A62003F05FFB002003F05CFBB72003F0BC
:103DC00059FB002003F056FBC22003F053FB0020F8
:103DD00003F050FBC72003F04DFB002003F04AFB2B
:103DE000D12003F047FB002003F044FBD62003F072
:103DF00041FB002003F03EFBDD2003F03BFB0020F5
:103E000003F038FBF32003F035FB002003F032FB16
:103E1000E32003F03BFB052003F02CFB002003F024
:103E200029FB0A2003F026FB002003F023FB1C20C3
:103E300003F020FB002003F01DFB332003F01AFBEE
:103E4000002003F017FB442003F014FB002003F0D4
:103E500011FB502003F00EFB002003F00BFB62204F
:103E600003F008FB002003F005FB782003F002FBC1
:103E7000002003F0FFFA882003F0FCFA002003F092
:103E8000F9FA972003F0F6FA002003F0F3FAA620DF
:103E900003F0F0FA002003F0EDFAB72003F0EAFA9D
:103EA000002003F0E7FAC22003F0E4FA002003F058
:103EB000E1FAC72003F0DEFA002003F0DBFAD1209C
:103EC00003F0D8FA002003F0D5FAD52003F0D2FA97
:103ED000002003F0CFFADD2003F0CCFA002003F03D
:103EE000C9FAF32003F0C6FA002003F0C3FAE42075
:103EF00003F0CCFA012003F0BDFA002003F0BAFA77
:103F0000012003F0B7FA002003F0B4FA022003F016
:103F1000B1FA002003F0AEFA2A2003F0ABFA002039
:103F200003F0A8FA3C2003F0A5FA002003F0A2FA5F
:103F30004B2003F09FFA002003F09CFA5D2003F071
:103F400099FA002003F096FA742003F093FA002007
:103F500003F090FA842003F08DFA002003F08AFA2F
:103F6000932003F087FA002003F084FAA22003F0E4
:103F700081FA002003F07EFAB32003F07BFA0020E0
:103F800003F078FABE2003F075FA002003F072FA0D
:103F9000C42003F06FFA002003F06CFACD2003F088
:103FA00069FA002003F066FAD32003F063FA0020D8
:103FB00003F060FADD2003F05DFA002003F05AFA06
:103FC000F32003F057FA002003F054FAE52003F041
:103FD0005DFA002003F04EFA002003F04BFA0020B7
:103FE00003F048FA002003F045FA022003F042FAF9
:103FF000002003F03FFA292003F03CFA002003F0F0
:1040000039FA3C2003F036FA002003F033FA4B2053
:1040100003F030FA002003F02DFA5D2003F02AFAB5
:10402000002003F027FA742003F024FA002003F0A4
:1040300021FA842003F01EFA002003F01BFA9320DB
:1040400003F018FA002003F015FAA22003F012FA88
:10405000002003F00FFAB32003F00CFA002003F065
:1040600009FABE2003F006FA002003F003FAC42088
:1040700003F000FA002003F0FDF9CD2003F0FAF977
:10408000002003F0F7F9D32003F0F4F9002003F047
:10409000F1F9DC2003F0EEF9002003F0EBF9F32056
:1040A00003F0E8F9002003F0E5F9E62003F0EEF96B
:1040B000112003F0DFF9002003F0DCF9342003F0D5
:1040C000D9F9002003F0D6F9562003F0D3F90020E7
:1040D00003F0D0F9762003F0CDF9002003F0CAF9FF
:1040E000772003F0C7F9002003F0C4F9662003F03D
:1040F000C1F9002003F0BEF9882003F0BBF90020CD
:1041000003F0B8F9992003F0B5F9002003F0B2F9F3
:10411000BB2003F0AFF9002003F0ACF9992003F0C5
:10412000A9F9002003F0A6F9662003F0A3F9002006
:1041300003F0A0F9552003F09DF9002003F09AF94F
:10414000552003F097F9002003F094F9452003F07F
:1041500091F9002003F08EF9432003F08BF9002041
:1041600003F088F9442003F085F9002003F082F978
:10417000E72003F08BF9322003F07CF9002003F0F4
:1041800079F9552003F076F9002003F073F97620D1
:1041900003F070F9002003F06DF9662003F06AF96E
:1041A000002003F067F9672003F064F9002003F0B2
:1041B00061F9672003F05EF9002003F05BF98720C6
:1041C00003F058F9002003F055F9992003F052F953
:1041D000002003F04FF9BB2003F04CF9002003F05E
:1041E00049F9992003F046F9002003F043F97720BC
:1041F00003F040F9002003F03DF9442003F03AF9C0
:10420000002003F037F9562003F034F9002003F0C2
:1042100031F9232003F02EF9002003F02BF933208D
:1042200003F028F9002003F025F9452003F022F9D6
:10423000002003F01FF9E82003F028F9002003F024
:1042400019F9002003F016F9992003F013F9002062
:1042500003F010F9872003F00DF9002003F00AF9AC
:10426000882003F007F9002003F004F9772003F019
:1042700001F9002003F0FEF8662003F0FBF80020AF
:1042800003F0F8F8882003F0F5F8002003F0F2F8C6
:10429000AA2003F0EFF8002003F0ECF8BB2003F0B5
:1042A000E9F8002003F0E6F8992003F0E3F8002095
:1042B00003F0E0F8662003F0DDF8002003F0DAF800
:1042C000552003F0D7F8002003F0D4F8552003F070
:1042D000D1F8002003F0CEF8442003F0CBF8002002
:1042E00003F0C8F8442003F0C5F8002003F0C2F83A
:1042F000552003F0BFF8002003F0BCF8E92003F0DC
:10430000C5F8AA2003F0B6F8002003F0B3F80020A7
:1043100003F0B0F8002003F0ADF8002003F0B6F889
:10432000AA2003F0A7F8CF2003F0B0F8002003F094
:10433000A1F8002003F09EF8002003F09BF8002075
:1043400003F098F8002003F095F8002003F092F8AD
:10435000002003F08FF8002003F08CF8002003F019
:1043600089F8002003F086F8002003F083F800208D
:1043700003F080F8002003F07DF8002003F07AF8C5
:10438000002003F077F8002003F074F8002003F019
:1043900071F8F02003F07AF8002003F06BF8502059
:1043A00003F068F8002003F065F8002003F062F8DD
:1043B000002003F05FF8F32003F068F8002003F01A
:1043C00059F8F92003F062F8062003F053F81020A2
:1043D00003F050F8292003F04DF8002003F04AF8CC
:1043E0003A2003F053F8552003F044F8112003F06D
:1043F0004DF8642006F04EF8292003F047F83520E8
:1044000003F044F8002003F035F8512003F03EF8A3
:10441000FF2003F02FF8532003F038F82C2003F08E
:1044200029F8552003F032F8822003F023F82C20DD
:1044300003F02CF802F028B8FE48808845F21051AD
:1044400088427DD155214FF4704003F035F8AA2100
:104450004FF2010003F030F852214FF2020003F056
:104460002BF808214FF2030003F026F801214FF248
:10447000040003F021F80D214FF4304003F01CF844
:104480000D214BF2010003F017F80D214BF2020051
:1044900003F012F834214FF4364003F00DF83421C4
:1044A0004BF2016003F008F834214BF2026003F094
:1044B00003F80D214FF4314002F0FEFF0D214BF2C5
:1044C000011002F0F9FF0D214BF2021002F0F4FF8F
:1044D00034214FF4374002F0EFFF34214BF20170EA
:1044E00002F0EAFF34214BF2027002F0E5FF0021F6
:1044F0004FF4324002F0E0FF00214BF2012002F0C5
:10450000DBFF00214BF2022002F0D6FF24214FF402
:10451000384002F0D1FF24214BF6010002F0CCFF1D
:1045200024214BF6020002F0C7FF01214FF43F4067
:1045300002F0C2FF0F214FF4334002F0BDFF00E054
:10454000FDE30F214BF2013002F0B6FF0F214BF2D9
:10455000023002F0B1FF34214FF4394002F0ACFFD9
:1045600034214BF6011002F0A7FF34214BF6021064
:1045700002F0A2FF08214FF4354002F09DFF082110
:104580004BF2015002F098FF08214BF2025002F06A
:1045900093FF03214FF4424002F08EFF24214FF499
:1045A0003A4002F089FF24214BF6012002F084FFFB
:1045B00024214BF6022002F07FFF00214FF43C4003
:1045C00002F07AFF78214BF6014002F075FF0021DE
:1045D0004BF6024002F070FF00214FF43D4002F024
:1045E0006BFF78214BF6015002F066FF00214BF67D
:1045F000025002F061FF00214FF43E4002F05CFFE8
:1046000064214BF6016002F057FF00214FF4514046
:1046100002F052FF33214DF2011002F04DFF002154
:104620004DF2021002F048FF34214DF2031002F067
:1046300043FF00214DF2041002F03EFF3A214DF2FB
:10464000051002F039FF00214DF2061002F034FF90
:104650004A214DF2071002F02FFF00214DF2081001
:1046600002F02AFF5C214DF2091002F025FF002123
:104670004DF20A1002F020FF81214DF20B1002F0E2
:104680001BFF00214DF20C1002F016FFA6214DF287
:104690000D1002F011FF00214DF20E1002F00CFF80
:1046A000E5214DF20F1002F007FF01214DF210102D
:1046B00002F002FF13214DF2111002F0FDFE012164
:1046C0004DF2121002F0F8FE54214DF2131002F0D8
:1046D000F3FE01214DF2141002F0EEFE82214DF2A4
:1046E000151002F0E9FE01214DF2161002F0E4FE71
:1046F000CA214DF2171002F0DFFE02214DF2181010
:1047000002F0DAFE00214DF2191002F0D5FE02216E
:104710004DF21A1002F0D0FE01214DF21B1002F0F2
:10472000CBFE02214DF21C1002F0C6FE34214DF2E8
:104730001D1002F0C1FE02214DF21E1002F0BCFE5F
:1047400067214DF21F1002F0B7FE02214DF220103A
:1047500002F0B2FE84214DF2211002F0ADFE0221E2
:104760004DF2221002F0A8FEA4214DF2231002F017
:10477000A3FE02214DF2241002F09EFEB7214DF25D
:10478000251002F099FE02214DF2261002F094FE4F
:10479000CF214DF2271002F08FFE02214DF228109A
:1047A00002F08AFEDE214DF2291002F085FE022180
:1047B0004DF22A1002F080FEF2214DF22B1002F091
:1047C0007BFE02214DF22C1002F076FEFE214DF20E
:1047D0002D1002F071FE03214DF22E1002F06CFE3E
:1047E00010214DF22F1002F067FE03214DF2301020
:1047F00002F062FE33214DF2311002F05DFE032122
:104800004DF2321002F058FE6D214DF2331002F0DD
:1048100053FE00214FF4524002F04EFE33214DF280
:10482000012002F049FE00214DF2022002F044FE78
:10483000342101E03C0000204DF2032002F03CFE58
:1048400000214DF2042002F037FE3A214DF20520FE
:1048500002F032FE00214DF2062002F02DFE4A2128
:104860004DF2072002F028FE00214DF2082002F050
:1048700023FE5C214DF2092002F01EFE00214DF2C4
:104880000A2002F019FE81214DF20B2002F014FEE5
:1048900000214DF20C2002F00FFEA6214DF20D205A
:1048A00002F00AFE00214DF20E2002F005FEE52185
:1048B0004DF20F2002F000FE01214DF2102002F017
:1048C000FBFD13214DF2112002F0F6FD01214DF206
:1048D000122002F0F1FD54214DF2132002F0ECFD04
:1048E00001214DF2142002F0E7FD82214DF2152046
:1048F00002F0E2FD01214DF2162002F0DDFDCA2199
:104900004DF2172002F0D8FD02214DF2182002F0DE
:10491000D3FD00214DF2192002F0CEFD02214DF20F
:104920001A2002F0C9FD01214DF21B2002F0C4FD46
:1049300002214DF21C2002F0BFFD34214DF21D205A
:1049400002F0BAFD02214DF21E2002F0B5FD6721F2
:104950004DF21F2002F0B0FD02214DF2202002F0A6
:10496000ABFD84214DF2212002F0A6FD02214DF283
:10497000222002F0A1FDA4214DF2232002F09CFD93
:1049800002214DF2242002F097FDB7214DF225209F
:1049900002F092FD02214DF2262002F08DFDCF2182
:1049A0004DF2272002F088FD02214DF2282002F06E
:1049B00083FDDE214DF2292002F07EFD02214DF221
:1049C0002A2002F079FDF2214DF22B2002F074FD35
:1049D00002214DF22C2002F06FFDFE214DF22D2020
:1049E00002F06AFD03214DF22E2002F065FD102138
:1049F0004DF22F2002F060FD03214DF2302002F035
:104A00005BFD33214DF2312002F056FD03214DF2C2
:104A1000322002F051FD6D214DF2332002F04CFDA9
:104A200000214FF4534002F047FD33214DF2013095
:104A300002F042FD00214DF2023002F03DFD342132
:104A40004DF2033002F038FD00214DF2043002F047
:104A500033FD3A214DF2053002F02EFD00214DF2DA
:104A6000063002F029FD4A214DF2073002F024FD04
:104A700000214DF2083002F01FFD5C214DF209309B
:104A800002F01AFD00214DF20A3002F015FD8121DD
:104A90004DF20B3002F010FD00214DF20C3002F00F
:104AA0000BFDA6214DF20D3002F006FD00214DF266
:104AB0000E3002F001FDE5214DF20F3002F0FCFC5A
:104AC00001214DF2103002F0F7FC13214DF21130AC
:104AD00002F0F2FC01214DF2123002F0EDFC542103
:104AE0004DF2133002F0E8FC01214DF2143002F0D7
:104AF000E3FC82214DF2153002F0DEFC01214DF283
:104B0000163002F0D9FCCA214DF2173002F0D4FC65
:104B100002214DF2183002F0CFFC00214DF2193085
:104B200002F0CAFC02214DF21A3002F0C5FC01214C
:104B30004DF21B3002F0C0FC02214DF21C3002F09D
:104B4000BBFC34214DF21D3002F0B6FC02214DF2C7
:104B50001E3002F0B1FC67214DF21F3002F0ACFCB8
:104B600002214DF2203002F0A7FC84214DF22130C9
:104B700002F0A2FC02214DF2223002F09DFCA421A1
:104B80004DF2233002F098FC02214DF2243002F065
:104B900093FCB7214DF2253002F08EFC02214DF23C
:104BA000263002F089FCCF214DF2273002F084FC40
:104BB00002214DF2283002F07FFCDE214DF2293037
:104BC00002F07AFC02214DF22A3002F075FCF2214B
:104BD0004DF22B3002F070FC02214DF22C3002F02D
:104BE0006BFCFE214DF22D3002F066FC03214DF2EC
:104BF0002E3002F061FC10214DF22F3002F05CFCEF
:104C000003214DF2303002F057FC33214DF23130A8
:104C100002F052FC03214DF2323002F04DFC6D21C6
:104C20004DF2333002F048FC00214FF4544002F0C2
:104C300043FC33214DF2014002F03EFC00214DF2D5
:104C4000024002F039FC34214DF2034002F034FC02
:104C500000214DF2044002F02FFC3A214DF20540B4
:104C600002F02AFC00214DF2064002F025FC4A2108
:104C70004DF2074002F020FC00214DF2084002F006
:104C80001BFC5C214DF2094002F016FC00214DF2A4
:104C90000A4002F011FC81214DF20B4002F00CFCA5
:104CA00000214DF20C4002F007FCA6214DF20D4010
:104CB00002F002FC00214DF20E4002F0FDFBE52166
:104CC0004DF20F4002F0F8FB01214DF2104002F0CE
:104CD000F3FB13214DF2114002F0EEFB01214DF2E6
:104CE000124002F0E9FB54214DF2134002F0E4FBC4
:104CF00001214DF2144002F0DFFB82214DF21540FC
:104D000002F0DAFB01214DF2164002F0D5FBCA2178
:104D10004DF2174002F0D0FB02214DF2184002F094
:104D2000CBFB00214DF2194002F0C6FB02214DF2EF
:104D30001A4002F0C1FB01214DF21B4000E006E3E6
:104D400002F0BAFB02214DF21C4002F0B5FB342107
:104D50004DF21D4002F0B0FB02214DF21E4002F068
:104D6000ABFB67214DF21F4002F0A6FB02214DF282
:104D7000204002F0A1FB84214DF2214002F09CFB77
:104D800002214DF2224002F097FBA4214DF2234074
:104D900002F092FB02214DF2244002F08DFBB7217C
:104DA0004DF2254002F088FB02214DF2264002F030
:104DB00083FBCF214DF2274002F07EFB02214DF212
:104DC000284002F079FBDE214DF2294002F074FB0D
:104DD00002214DF22A4002F06FFBF2214DF22B40EE
:104DE00002F06AFB02214DF22C4002F065FBFE212D
:104DF0004DF22D4002F060FB03214DF22E4002F0F7
:104E00005BFB10214DF22F4002F056FB03214DF2C7
:104E1000304002F051FB33214DF2314002F04CFBA7
:104E200003214DF2324002F047FB6D214DF2334039
:104E300002F042FB00214FF4554002F03DFB3321CC
:104E40004DF2015002F038FB00214DF2025002F009
:104E500033FB34214DF2035002F02EFB00214DF2C2
:104E6000045002F029FB3A214DF2055002F024FBD8
:104E700000214DF2065002F01FFB4A214DF207506F
:104E800002F01AFB00214DF2085002F015FB5C21E4
:104E90004DF2095002F010FB00214DF20A5002F0D1
:104EA0000BFB81214DF20B5002F006FB00214DF26D
:104EB0000C5002F001FBA6214DF20D5002F0FCFA5D
:104EC00000214DF20E5002F0F7FAE5214DF20F509D
:104ED00002F0F2FA01214DF2105002F0EDFA132126
:104EE0004DF2115002F0E8FA01214DF2125002F099
:104EF000E3FA54214DF2135002F0DEFA01214DF293
:104F0000145002F0D9FA82214DF2155002F0D4FA71
:104F100001214DF2165002F0CFFACA214DF217507E
:104F200002F0CAFA02214DF2185002F0C5FA00212F
:104F30004DF2195002F0C0FA02214DF21A5002F05F
:104F4000BBFA01214DF21B5002F0B6FA02214DF2DC
:104F50001C5002F0B1FA34214DF21D5002F0ACFAAF
:104F600002214DF21E5002F0A7FA67214DF21F50A8
:104F700002F0A2FA02214DF2205002F09DFA8421A3
:104F80004DF2215002F098FA02214DF2225002F027
:104F900093FAA4214DF2235002F08EFA02214DF231
:104FA000245002F089FAB7214DF2255002F084FA1C
:104FB00002214DF2265002F07FFACF214DF2275008
:104FC00002F07AFA02214DF2285002F075FADE2141
:104FD0004DF2295002F070FA02214DF22A5002F0EF
:104FE0006BFAF2214DF22B5002F066FA02214DF2DB
:104FF0002C5002F061FAFE214DF22D5002F05CFAC5
:1050000003214DF22E5002F057FA10214DF22F508D
:1050100002F052FA03214DF2305002F04DFA3321E2
:105020004DF2315002F048FA03214DF2325002F0B5
:1050300043FA6D214DF2335002F03EFA00214FF455
:10504000564002F039FA33214DF2016002F034FA91
:1050500000214DF2026002F02FFA34214DF203607C
:1050600002F02AFA00214DF2046002F025FA3A21FA
:105070004DF2056002F020FA00214DF2066002F0C8
:105080001BFA4A214DF2076002F016FA00214DF298
:10509000086002F011FA5C214DF2096002F00CFA8E
:1050A00000214DF20A6002F007FA81214DF20B60F7
:1050B00002F002FA00214DF20C6002F0FDF9A62187
:1050C0004DF20D6002F0F8F900214DF20E6002F091
:1050D000F3F9E5214DF20F6002F0EEF901214DF2F6
:1050E000106002F0E9F913214DF2116002F0E4F9C9
:1050F00001214DF2126002F0DFF954214DF21360EC
:1051000002F0DAF901214DF2146002F0D5F98221A2
:105110004DF2156002F0D0F901214DF2166002F057
:10512000CBF9CA214DF2176002F0C6F902214DF207
:10513000186002F0C1F900214DF2196002F0BCF9CB
:1051400002214DF21A6002F0B7F901214DF21B6005
:1051500002F0B2F902214DF21C6002F0ADF93421E7
:105160004DF21D6002F0A8F902214DF21E6002F01E
:10517000A3F967214DF21F6002F09EF902214DF262
:10518000206002F099F984214DF2216002F094F937
:1051900002214DF2226002F08FF9A4214DF223602A
:1051A00002F08AF902214DF2246002F085F9B7215C
:1051B0004DF2256002F080F902214DF2266002F0E6
:1051C0007BF9CF214DF2276002F076F902214DF2F2
:1051D000286002F071F9DE214DF2296002F06CF9CD
:1051E00002214DF22A6002F067F9F2214DF22B60A4
:1051F00002F062F902214DF22C6002F05DF9FE210D
:105200004DF22D6002F058F903214DF22E6002F0AC
:1052100053F910214DF22F6002F04EF903214DF2A7
:10522000306002F049F933214DF2316002F044F967
:1052300003214DF2326002F03FF96D214DF23360EF
:1052400002F03AF955214FF4704002F035F9AA21E5
:105250004FF2010002F030F952214FF2020002F049
:105260002BF908214FF2030002F026F900214FF23A
:10527000040002F021F9CC214FF4314002F01CF976
:1052800000214BF2011002F017F905214FF43640CE
:1052900002F012F970214FF4374002F00DF970213D
:1052A0004BF2017002F008F901214FF4384002F08E
:1052B00003F903214BF6010002F0FEF803214BF63F
:1052C000020002F0F9F803214BF6030002F0F4F8B3
:1052D00002214FF43C4002F0EFF800214BF6014070
:1052E00002F0EAF800214BF6024002F0E5F8D02186
:1052F0004FF4494002F0E0F802214CF6011002F0B0
:10530000DBF850214CF6021002F0D6F850214CF692
:10531000031002F0D1F850214CF6041002F0CCF842
:1053200000214FF4545002F0C7F855214FF4685053
:1053300002F0C2F84FF4885002F0A8F8782005F087
:10534000C5F84FF4245002F0A1F801F09DB8FE48D2
:10535000808849F2253188427ED147F6F001E52068
:1053600002F0AAF84FF48071012002F0A5F84FF482
:10537000E061022002F0A0F841F23001032002F0C7
:105380009BF80021042002F097F840F20221082047
:1053900002F092F80021092002F08EF800210A2084
:1053A00002F08AF800210C2002F086F800210D207E
:1053B00002F082F800210F2002F07EF80021102078
:1053C00002F07AF80721112002F076F8002112206D
:1053D00002F072F80021132002F06EF8002107207D
:1053E00002F06AF841F29061102002F065F840F294
:1053F0002721112002F060F89D21122002F05CF8B4
:105400004FF4C851132002F057F82521292002F04B
:1054100053F80D212B2002F04FF80721302002F025
:105420004BF840F20331312002F046F803213220DC
:1054300002F042F840F20621352002F03DF8082142
:10544000362002F039F840F20641372002F034F8F5
:105450004FF44171382000E057E002F02DF80721A9
:10546000392002F029F840F202613C2002F024F8D1
:1054700008213D2002F020F80021502002F01CF805
:10548000EF21512002F018F80021522002F014F808
:1054900040F23F11532002F00FF84FF427416020F3
:1054A00002F00AF80121612002F006F800216A20CA
:1054B00002F002F80021802001F0FEFF002181208F
:1054C00001F0FAFF0021822001F0F6FF0021832085
:1054D00001F0F2FF0021842001F0EEFF0021852081
:1054E00001F0EAFF1021902001F0E6FF4FF4C061C7
:1054F000922001F0E1FF40F23311072001F0DCFFC0
:105500002221002001F0D8FF1FE78F48808849F250
:10551000283188427ED141F28F01EC2001F0CCFF8E
:1055200041F23421EF2001F0C7FF4FF480710120D8
:1055300001F0C2FF4FF4E061022001F0BDFF41F233
:105540003001032001F0B8FF0021042001F0B4FF76
:1055500040F20221082001F0AFFF0021092001F0F4
:10556000ABFF00210A2001F0A7FF01210C2001F070
:10557000A3FF00210D2001F09FFF00210F2001F06B
:105580009BFF0021102001F097FF0721112001F05F
:1055900093FF0021122001F08FFF0021132001F062
:1055A0008BFF0121072001F087FF322004F072FFFA
:1055B00041F29041102001F07FFF40F2272111209D
:1055C00001F07AFF322004F065FF8A21122001F0F9
:1055D00073FF322004F05EFF4FF4D051132001F02E
:1055E0006BFF0621292001F067FF0D212B2001F020
:1055F00063FF322004F04EFF0021202001F05CFF09
:105600000021212001F058FF322004F043FF002147
:10561000302000E074E001F04FFF40F204613120DF
:1056200001F04AFF40F20531322001F045FF002130
:10563000352001F041FF40F60941362001F03CFFE2
:105640004FF40171372001F037FF40F2013138206B
:1056500001F032FF40F20771392001F02DFF0021E7
:105660003C2001F029FF40F60A213D2001F024FFF3
:10567000322004F00FFF0021502001F01DFFEF2128
:10568000512001F019FF0021522001F015FF40F2D6
:105690003F11532001F010FF4FF42741602001F02B
:1056A0000BFF0121612001F007FF00216A2001F0BA
:1056B00003FF0021802001F0FFFE0021812001F086
:1056C000FBFE0021822001F0F7FE0021832001F083
:1056D000F3FE0021842001F0EFFE0021852001F07F
:1056E000EBFE1021902001F0E7FE4FF4C061922004
:1056F00001F0E2FE40F23311072001F0DDFE24E666
:105700001148808849F2203188427DD10021084625
:1057100001F0D2FE4FF48071012001F0CDFE4FF474
:10572000E061022001F0C8FE41F23001032001F0E7
:10573000C3FE0021042001F0BFFE40F20221082038
:1057400001F0BAFE002101E03C000020092001F038
:10575000B3FE00210A2001F0AFFE01210C2001F070
:10576000ABFE00210D2001F0A7FE00210F2001F06B
:10577000A3FE322004F08EFE40F20111072001F05A
:105780009BFE322004F086FE4FF48651102001F07B
:1057900093FE0721112001F08FFE4FF48871122033
:1057A00001F08AFE4FF43061132001F085FE0021E4
:1057B000292001F081FE44F210012B2001F07CFE33
:1057C0000021502001F078FEEF21512001F074FEFD
:1057D0000021522001F070FE40F23F11532001F0F1
:1057E0006BFE4FF41C51602001F066FE0121612028
:1057F00001F062FE00216A2001F05EFE002180209F
:1058000001F05AFE002100E031E0812001F054FE59
:105810000021822001F050FE0021832001F04CFE87
:105820000021842001F048FE0021852001F044FE83
:105830001021902001F040FE0021922001F03CFE5A
:105840000121932001F038FE4FF48871952001F07A
:1058500033FE0021972001F02FFE0021982001F057
:105860002BFE40F27311072001F026FE6DE5FE4885
:10587000808849F2313188427DD141F21401E7201C
:1058800001F01AFE4FF48071012001F015FE4FF473
:105890000071022001F010FE41F23801032001F0F6
:1058A0000BFE40F20221082001F006FE0021092033
:1058B00001F002FE00210A2001F0FEFD00210C2073
:1058C00001F0FAFD00210D2001F0F6FD00210F206E
:1058D00001F0F2FD0021102001F0EEFD0721112062
:1058E00001F0EAFD0021122001F0E6FD0021132065
:1058F00001F0E2FDC82004F0CDFD41F290611020DE
:1059000001F0DAFD40F22721112001F0D5FD32200F
:1059100004F0C0FD0C21122001F0CEFD322004F075
:10592000B9FD4FF40061132001F0C6FD11212920BB
:1059300001F0C2FD0B212B2001F0BEFD322004F04E
:10594000A9FD0021202001F0B7FD40F23F112120E8
:1059500001F0B2FD0021302001F0AEFD4FF4837163
:10596000312001F0A9FD0021322001F0A5FD4FF406
:105970000171352000E064E001F09EFD41F20A6112
:10598000362001F099FD40F20771372001F094FDB7
:105990004FF48371382001F08FFD40F207713920F8
:1059A00001F08AFD40F202413C2001F085FD40F605
:1059B0000F413D2001F080FD0021502001F07CFDD1
:1059C000EF21512001F078FD0021522001F074FDFB
:1059D00040F23F11532001F06FFD4FF41C51602045
:1059E00001F06AFD0121612001F066FD00216A20BD
:1059F00001F062FD0021802001F05EFD0021812088
:105A000001F05AFD0021822001F056FD0021832083
:105A100001F052FD0021842001F04EFD002185207F
:105A200001F04AFD1021902001F046FD4FF4C061C5
:105A3000922001F041FD40F23311072001F03CFDBE
:105A400083E48948808845F2084188427ED14FF43A
:105A50008071012001F030FD4FF4E061022001F07F
:105A60002BFD41F23001032001F026FD002104202E
:105A700001F022FD40F20721082001F01DFD002168
:105A8000092001F019FD00210A2001F015FD002177
:105A90000C2001F011FD00210D2001F00DFD002171
:105AA0000F2001F009FD142004F0F4FC41F2B06174
:105AB000102001F001FD0121112001F0FDFC012168
:105AC000172001F0F9FC4FF49C71122001F0F4FC56
:105AD0004FF40061132001F0EFFC0921292001F0AF
