:020000040800F2
:10000000100700209D0100082D5D0008010E00086A
:10001000295D0008FD0700086B760008000000005D
:10002000000000000000000000000000496000081F
:10003000F508000800000000FB5D000851620008A0
:10004000B7010008B7010008B7010008B7010008B0
:10005000B7010008B7010008B7010008B7010008A0
:10006000B7010008B7010008B7010008B701000890
:10007000B7010008B7010008B7010008B701000880
:10008000B7010008B7010008B7010008B701000870
:10009000B7010008B7010008B7010008B701000860
:1000A000B701000819650008B7010008E1630008FE
:1000B00091650008B7010008B7010008B701000802
:1000C000B7010008B7010008B7010008B701000830
:1000D000B70100086D72000839730008F573000855
:1000E000B7010008B7010008B7010008B701000810
:1000F000B7010008B7010008B7010008B701000800
:10010000B7010008B7010008B7010008B7010008EF
:10011000B7010008B7010008B7010008B7010008DF
:10012000B7010008B7010008B7010008B7010008CF
:10013000B7010008B7010008B7010008B7010008BF
:10014000B7010008B7010008B7010008B7010008AF
:10015000B7010008B7010008B7010008B70100089F
:10016000B7010008B7010008B7010008B70100088F
:10017000B7010008B7010008B7010008B70100087F
:10018000B7010008B7010008DFF80CD000F038FA1A
:10019000004800479987000810070020064880475C
:1001A00006480047FEE7FEE7FEE7FEE7FEE7FEE75C
:1001B000FEE7FEE7FEE7FEE755620008890100085A
:1001C00000F0004230F000400AD0C10D01F560712E
:1001D000C0F3160042EA0151C208400711437047BC
:1001E00000200146704701F0004330B421F0004187
:1001F00050EA010206D00A0DA2F56072C1F31301A4
:10020000002A02DC30BC00207047440F44EAC104DD
:10021000C100E01830BC00EBC25000F031B82DE94D
:10022000F05F0546002092469B468846064681467A
:1002300040241BE0284641464746224600F001FA8A
:1002400053465A46C01A914110D3114618462246C9
:1002500000F0E8F92D1A67EB01084F46224601200D
:10026000002100F0DFF917EB00094E41201EA4F138
:100270000104DFDC484631462A464346BDE8F09F8C
:100280000029A8BF7047401C490008BF20F00100AA
:10029000704710B4B0FA80FC00FA0CF050EA010488
:1002A00004BF10BC704749B1CCF1200421FA04F41A
:1002B00011FA0CF118BF012121430843A3EB0C01F3
:1002C000CB1D4FEA00614FEA102042BF002010BC56
:1002D000704700EBC35010440029A4BF10BC704706
:1002E000401C490008BF20F0010010BC70472DE9F8
:1002F000FE4F804681EA0300C00F0C46009021F0BB
:10030000004123F00045B8EB0200A94105D2404668
:10031000214690461C460B46024623F000401043FF
:1003200047D0270DC7F30A00C3F30A510290401AC1
:10033000019040286BDAC3F3130040F4801B00984F
:10034000924620B10023D2EB030A63EB0B0B01981A
:100350005946C0F14002504600F064F906460D4689
:1003600050465946019A00F07CF910EB08006141B3
:10037000002487EA115284EAE7731A4340D0009AB6
:1003800062B3019A012A4FEA075215DC001B61EBA8
:1003900002014FF0004202EA0752CDE90042001C80
:1003A00041F5801132462B4600F07CF903B0BDE8E0
:1003B000F08F40462146F9E7001B61EB0201001C6B
:1003C00041F5801300185B412018A2F5001747EB98
:1003D000030140EAD570B6196D4111E06D084FEA8E
:1003E000360645EAC0754FEA0752001B61EB020171
:1003F000001C41F5801149084FEA300000195141B5
:1004000032462B4603B0BDE8F04F00F03CB90098EF
:10041000012240000023D0EB020263EBE07300985E
:1004200021464FEAE074B8EB000061EB0401E9E714
:1004300083F000435BE781F0004158E72DE9FE4F70
:1004400081EA030404F0004421F0004100944FF0DD
:10045000000B23F0004350EA01045ED052EA03048B
:100460005BD0C3F30A54C1F30A552C44A4F2F3340D
:100470000194A0FB0254C1F3130141F48011C3F3B2
:10048000130343F4801301FB024400FB034E840A70
:10049000970A44EA815447EA8357A4FB0768029508
:1004A0008D0A05FB07854FEA932C04FB0C542705A6
:1004B000029D4FEA065847EA1637B5EB08056EEB82
:1004C000070C870E920E47EA811742EA8312A7FBB8
:1004D0000201B6EB0B0164EB00042B0D43EA0C3375
:1004E0005E1844EB1C50DA465146E7FB0201C5F3A7
:1004F00013044FEA0B3343EA14534FEA0432019CCE
:1005000043EA0603A4F10C040294009CCDE900B474
:1005100000F0C8F803B0BDE8F08F00200146F9E70D
:100520002DE9F04D81EA030404F0004B21F0004571
:1005300014464FF0000A23F0004150EA050220D093
:1005400054EA01021DD0C5F30A570246C5F313034E
:10055000C1F31300C1F30A5640F4801543F480132D
:10056000A7EB0608101BD64608F2FD3873EB050012
:1005700002D308F1010801E092185B41B8F1000FC5
:1005800003DA00200146BDE8F08D00204FF4801111
:10059000064684460EE0171B73EB050705D3121BB6
:1005A00063EB050306434CEA010C49084FEA3000AF
:1005B00092185B4150EA0107EDD152EA030012D0D4
:1005C00082EA040083EA0501084305D0101BAB4111
:1005D00006D20122002306E000224FF0004302E091
:1005E0006FF0010253101AEB06004CEB085110EBB0
:1005F0000A0041EB0B01BDE8F04D00F044B80000EB
:10060000064C074D06E0E06840F0010394E807005F
:1006100098471034AC42F6D3FFF7BAFD08A10008A2
:1006200028A10008202A04DB203A00FA02F1002069
:1006300070479140C2F1200320FA03F31943904020
:100640007047202A04DB203A21FA02F0002170478B
:1006500021FA02F3D040C2F120029140084319462A
:100660007047202A06DBCB17203A41FA02F043EA12
:10067000E07306E041FA02F3D040C2F1200291405B
:1006800008431946704710B5141E73F1000408DAC8
:10069000401C41F1000192185B411A4301D120F046
:1006A000010010BD2DE9F04D92469B4611B1B1FA03
:1006B00081F202E0B0FA80F220329046FFF7B2FFFA
:1006C00004460F4640EA0A0041EA0B0153465A46E7
:1006D000084313D0114653EA010019D0C8F1400273
:1006E0005046FFF7AEFF05460E4650465946424675
:1006F000FFF798FF084305D0012004E02046394663
:10070000BDE8F08D0020054346EAE0762C433743F0
:100710000A986305E40AA0EB08000022FD0A44EAF7
:1007200047540A3002D500200146E9E701051019B7
:100730006941DDE9084500196941BDE8F04DA2E7CE
:100740000EB5C10F80EAE0700844CA07002140F2EC
:1007500033438DE80E000A460B46FFF7A3FF03B0B4
:1007600000BD0EB540F2334102910021CDE90011E8
:100770000A460B46FFF796FF03B000BD70B5C1F304
:100780000A5201F000450024C1F3130140F2FF3387
:1007900041F480119A4201DA002070BD40F23343E7
:1007A0009A42A2F2334203DC5242FFF74AFF00E0D2
:1007B00090402C43F1D0404270BD00001CB5012197
:1007C000202005F01BFB4FF48070009001208DF875
:1007D000040000208DF8060003208DF8050002209B
:1007E0008DF807006946044800F0A3F94FF48071C2
:1007F000014800F009FA1CBD0014024000BFFEE7EA
:100800001CB50121402005F0F9FA4020009001209C
:100810008DF8040000208DF8060003208DF80500F7
:1008200001208DF807006946034800F082F9402155
:10083000014800F0E9F91CBD0018024010B59FED19
:10084000290A294880ED000A9FED260A80ED010A59
:100850009FED240A80ED040A9FED220A80ED040A30
:100860009FED200A80ED060A9FED1E0A80ED070A23
:100870009FED1C0A80ED080A9FED1A0A80ED0A0A16
:100880009FED180A80ED0B0A9FED160A80ED090A0C
:100890009FED140A80ED0D0A9FED120A80ED0E0AFD
:1008A0009FED100A80ED0C0A9FED0E0A80ED120AF2
:1008B0009FED0C0A80ED130A00200C494860086087
:1008C0000B49086048609FED071ADFED060A9FEDAF
:1008D000050A05F0DBFB05F0E9F905F0E7F905F09D
:1008E000E5F910BD00000000BC020020400000201F
:1008F0004800002070470EB50121880305F0AEFACC
:100900000021022005F0A2FB0121022005F09EFB40
:100910000120009000208DF8040008208DF80500CB
:1009200000208DF80600684600F02CF802200090A8
:1009300000208DF8040008208DF8050000208DF8B7
:100940000600684600F01EF806208DF8080000201A
:100950008DF8090001208DF80A008DF80B0002A81F
:1009600005F0E6F907208DF8080000208DF8090051
:100970008DF80A0001208DF80B0002A805F0D8F9C7
:100980000EBD0000002123498279002A3AD00A4690
:10099000126803689A430B461A600A1D12680368BE
:1009A0009A430B1D1A60027911440A6803681A43BE
:1009B0000A60184A0832126803689A43154B0833D4
:1009C0001A601A1D126803689A43124B0C331A609E
:1009D0004279102A0ED11A1F126803681A430D4B70
:1009E00008331A601A1D126803681A43094B0C3346
:1009F0001A600DE00749427911440A6803681A43F6
:100A00000A6005E0027911440A6803689A430A60A3
:100A100070470000003C014051B18200A2F1C04289
:100A2000126842F001038200A2F1C042136009E0A3
:100A30008200A2F1C0421268034B1A408300A3F166
:100A4000C0431A6070470000FEFF0F00D0E901129A
:100A50001143C2681143026911434269114382691B
:100A60001143C2691143026A1143426A1143826A07
:100A70001143C26A1143026B114302689200A2F152
:100A8000C0421160816808290BD101688900A1F179
:100A9000C041096841F0400201688900A1F1C041EC
:100AA0000A60416B0968426B526841EA0211426B6D
:100AB000926841EA0221426B928941EA0241426B0B
:100AC000128A41EA0251426B127D41EA0261426B95
:100AD000926911430268521C9200A2F1C042116057
:100AE000C16AB1F5804F1BD1816B0968826B526876
:100AF00041EA0211826B926841EA0221826B128AFA
:100B000041EA0251826B127D41EA0261826B926975
:100B1000114302689200A2F1C042C2F8041107E03A
:100B20006FF0704201688900A1F1C041C1F8042151
:100B30007047F0B50A4600210023002400BF3DE0C5
:100B4000012505FA01F3156805EA03049C4234D136
:100B500005684F000326BE40B543056015794E0079
:100B6000B5400668354305601579012D02D0157929
:100B7000022D16D185684F000326BE40B54385601F
:100B800055794E00B5408668354385604568012635
:100B90008E40B5434560456896798E40B6B2354380
:100BA0004560C5684F000326BE40B543C560D57992
:100BB0004E00B540C6683543C560491C1029BFD3F7
:100BC000F0BDF0B5002300244D07ED0E02FA05F349
:100BD000CE1000F1200555F826504E07F70E0F26CF
:100BE000BE40B543CF1000F1200646F82750CE1086
:100BF00000F1200555F8265045EA0304CE1000F117
:100C0000200545F82640F0BD4183704701837047B9
:100C100000B52DED088B85B0574890ED040AD0ED56
:100C2000120A30EE600AF0EE409A90ED040A80ED70
:100C3000120A90ED040A10EE101A0846FFF7C0FAE7
:100C400041EC1B0BB0EE4B0AF0EE6B0A06F064FDB4
:100C5000B0EE40AAF0EE60AA51EC1A0BFFF7C3FA0F
:100C600001909DED030AB1EE400A8DED020A424863
:100C700090ED040A10EE101A0846FFF7A1FA41ECB5
:100C80001B0BB0EE4B0AF0EE6B0A06F0A9FDB0EEBE
:100C900040AAF0EE60AA51EC1A0BFFF7A4FA0390F9
:100CA0009DED010A8DED040A334890ED0C0ADFED4D
:100CB000330A20EE200AB0EE408AB1EE480AB0EEC8
:100CC000408A90ED0D0ADFED2D0A20EE200AB0EEED
:100CD000409AB5EEC08AF1EE10FA16D190ED000AF6
:100CE000DFED270A30EE200A80ED000AB0EE000AA0
:100CF00069EE000A9FED231A80EE810AD0ED010A09
:100D000030EE200A80ED010A32E0F0EE000AB0EE8B
:100D1000480A00EE890ADFED1B0A68EE200AC0EEE1
:100D2000208A28EE280ADDED030A20EE200ADDEDF8
:100D3000010A08EE200A1048D0ED000A30EE200A21
:100D400080ED000A28EE280ADDED040A20EE200AD4
:100D5000DDED020A08EE200AD0ED010A30EE200A8D
:100D600080ED010A9FED080A29EE800A80ED080A4D
:100D700005B0BDEC088B00BDBC0200200AD7233CA7
:100D800000000000D7B3DD3F0000C8421A4A1268D5
:100D9000D1B208464206100E184AD2F81822D1B233
:100DA00008434206100E144A083A1268D1B20843AA
:100DB0004206100E114AD2F81022D1B20843420660
:100DC000100E0D4A103A1268D1B208434206100EB6
:100DD0000A4AD2F80822D1B208434206100E064A47
:100DE000183A1268D1B208434206100E034AD2F8EC
:100DF0000022D1B2084370471C8242420080424226
:100E000000BFFEE71CB50121202004F0F7FF4FF4DE
:100E10000070009000208DF8040003208DF805007C
:100E200001208DF8070069460148FFF782FE1CBDCE
:100E30000014024070B50446002617480588408813
:100E400045431548808846F60401884216D1124869
:100E50008079012812D100200F4988712A20488109
:100E60002B2088810021084603F09EFE01200A49BC
:100E700088712B2048812A20888103E000210846C0
:100E800003F092FE04F0B8FE002602E0034804805E
:100E9000761CAE42FAD370BD540000208000006C76
:100EA00010B50446002C52D158498871F0200880B2
:100EB0004FF4A07048800846808849F2413188424A
:100EC0000BD05248808846F60401884205D04F482E
:100ED000808845F2103188421AD12C204B49088174
:100EE0002A2048812B2088810846808846F6040104
:100EF000884205D04548808845F21031884206D1A5
:100F00004FF4A070414908804FF4F070488079E0B8
:100F10003E48808845F21051884210D14FF430503D
:100F20003A4908814FF4285048814FF42C50888169
:100F30004FF4F07008804FF44870488062E022203F
:100F40003249088120204881212088815AE00120EF
:100F50002E4988714FF4A0700880F0204880084620
:100F6000808849F24131884205D02848808845F27E
:100F70001031884207D12C20244908812A20488139
:100F80002B2088812BE02148808846F60401884286
:100F900007D12C201D4908812B2048812A208881D7
:100FA0001DE01A48808845F21051884210D14FF454
:100FB0003050164908814FF4285048814FF42C5086
:100FC00088814FF4487008804FF4F070488006E044
:100FD00022200E49088121204881202088810B4849
:100FE000808846F60401884205D00848808845F28A
:100FF0001031884206D14FF4F070044908804FF454
:10100000A0704880002003F079FC10BD540000203F
:1010100070B504460D4616464348808849F2413172
:10102000884205D04048808845F21031884214D16A
:101030003D49488904F0D4FD201204F0C5FDE0B21A
:1010400004F0C2FD3849888904F0CAFD281204F072
:10105000BBFDE8B204F0B8FD5DE03348808845F29E
:101060001051884220D13049488904F0B9FD20123E
:1010700004F0AAFD2C494989491C88B204F0B0FD4E
:10108000E0B204F0A1FD2849888904F0A9FD2812E6
:1010900004F09AFD24498989491C88B204F0A0FD16
:1010A000E8B204F091FD36E01F48808846F604015E
:1010B00088421DD11C488079012804D11A48008833
:1010C000401E001B84B21849488904F089FD201293
:1010D00004F07AFDE0B204F077FD1349888904F04A
:1010E0007FFD281204F070FDE8B204F06DFD12E0FF
:1010F0000D488079012804D10B480088401E001B50
:1011000084B209494889214604F080FD064988894E
:10111000294604F07BFD04480089044908804FF00B
:10112000D840A0F8806070BD540000207E00006CA4
:1011300000B5A1B00020209001217A2004F05EFECD
:101140000121084604F06AFE4FF400401E90012081
:101150008DF87C0000208DF87E0002208DF87D0047
:1011600001208DF87F001EA9FE48FFF7E2FC4CF23B
:1011700033701E9002208DF87C0000208DF87E00D8
:1011800003208DF87D0001208DF87F001EA9F64810
:10119000FFF7CFFC4FF680701E9002208DF87C0088
:1011A00000208DF87E0003208DF87D0001208DF851
:1011B0007F001EA9ED48FFF7BCFC4FF480501E9045
:1011C00002208DF87C0000208DF87E0003208DF831
:1011D0007D0001208DF87F001EA9E548FFF7A9FCDE
:1011E0004FF480501E9002208DF87C0000208DF876
:1011F0007E0003208DF87D0001208DF87F001EA960
:10120000DC48FFF796FC0C220021D748FFF7D9FCF9
:101210000C220121D448FFF7D4FC0C220421D2482F
:10122000FFF7CFFC0C220521CF48FFF7CAFC0C22A8
:101230000821CD48FFF7C5FC0C220921CA48FFF759
:10124000C0FC0C220A21C848FFF7BBFC0C220E216F
:10125000C548FFF7B6FC0C220F21C348FFF7B1FCCD
:101260000C220721C148FFF7ACFC0C220821BF4823
:10127000FFF7A7FC0C220921BC48FFF7A2FC0C22B7
:101280000A21BA48FFF79DFC0C220B21B748FFF753
:1012900098FC0C221146B548FFF793FC0C220D2157
:1012A000B248FFF78EFC0C220E21B048FFF789FCF4
:1012B0000C220F21AD48FFF784FC0C221146AC48EC
:1012C000FFF77FFC0C221146AA48FFF77AFC0F209B
:1012D0000890002009903C200A9000200B900C9070
:1012E0000D900E900920019000200290082003909C
:1012F0000020049005900690079006200F90002093
:1013000010901190102012900020139015901490BE
:10131000169017904FF480501890002019904FF4B9
:1013200080401A9000201B9008A81C9001A81D90D6
:101330000FA8FFF78BFB01210620FFF76DFB322082
:1013400007F05AF80121002004F060FC322007F079
:1013500053F8002003F0C6FA874988800846808841
:10136000FF280ADB084680884FF6FF71884204D0C8
:1013700081488088B0F5134F7ED1D32004F030FC33
:1013800003F0A6FA7C49888003F0A2FA7A498880A3
:1013900003F09EFA78498880084680884FF6FF71EE
:1013A00001EA00207449888003F092FA7249898822
:1013B0000843714988800846808849F24131884253
:1013C00078D0BF2004F00CFC03F082FA6A498880D0
:1013D00003F07EFA6849888003F07AFA66498880CB
:1013E00003F076FA64498880084680884FF6FF71DA
:1013F00001EA00206049888003F06AFA5E49898822
:1014000008435D4988800846808846F60401884282
:1014100050D0D42004F0E4FB03F05AFA56498880F7
:1014200003F056FA5449888003F052FA52498880F2
:10143000084680884FF6FF7101EA00204E498880F7
:1014400003F046FA4C49898808434B49888008468E
:10145000808845F2103188422CD04FF45A4004F075
:10146000BFFB03F035FA444988804FF45B4004F039
:10147000B7FB03F02DFA00E01CE03F4988800846E6
:1014800080884FF6FF7101EA00203B4988804FF4C5
:101490005C4004F0A5FB03F01BFA37498988084338
:1014A0003549888008468088B0F5004F02D145F262
:1014B000105088803048808849F2413188420BD0F2
:1014C0002D48808845F21031884205D02A4880880E
:1014D00045F2105188421DD12848006820F00F00C5
:1014E0004FF02041C1F81C010846D0F81C0120F43F
:1014F0007060C1F81C010846D0F81C0140F00300E0
:10150000C1F81C010846D0F81C0140F40070C1F875
:101510001C0137E01848808846F60401884205D04F
:10152000154880884CF2055188422BD11348006839
:1015300020F00F004FF02041C1F81C010846D0F800
:101540001C0120F47060C1F81C010846D0F81C0191
:1015500040F00A00C1F81C010846D0F81C0140F414
:1015600040600DE000040240000C02400010024008
:101570000014024000180240540000201C0100A08A
:10158000C1F81C01FE488188FEA006F09BF8FC48CB
:10159000808849F2413188427ED1CF2004F020FB7F
:1015A000002004F011FB2098401C2090C12004F082
:1015B0000BFB302004F008FBED2004F011FB64204D
:1015C00004F002FB032004F0FFFA122004F0FCFAFE
:1015D000812004F0F9FAE82004F002FB852004F0F1
:1015E000F3FA102004F0F0FA7A2004F0EDFACB20A0
:1015F00004F0F6FA392004F0E7FA2C2004F0E4FABB
:10160000002004F0E1FA342004F0DEFA022004F0B5
:10161000DBFAF72004F0E4FA202004F0D5FAEA20FF
:1016200004F0DEFA002004F0CFFA002004F0CCFA37
:10163000C02004F0D5FA1B2004F0C6FAC12004F043
:10164000CFFA012004F0C0FAC52004F0C9FA302016
:1016500004F0BAFA302004F0B7FAC72004F0C0FA58
:10166000B72004F0B1FA362004F0BAFA482004F0AA
:10167000ABFA3A2004F0B4FA552004F0A5FAB120F0
:1016800004F0AEFA002004F09FFA1A2004F09CFA4D
:10169000B62004F0A5FA00E09AE00A2004F094FADB
:1016A000A22004F091FAF22004F09AFA002004F04B
:1016B0008BFA262004F094FA012004F085FAE02049
:1016C00004F08EFA0F2004F07FFA2A2004F07CFA4E
:1016D000282004F079FA082004F076FA0E2004F0AD
:1016E00073FA082004F070FA542004F06DFAA9206F
:1016F00004F06AFA432004F067FA0A2004F064FA5E
:101700000F2004F061FA002004F05EFA002004F0DB
:101710005BFA002004F058FA002004F055FAE120AA
:1017200004F05EFA002004F04FFA152004F04CFAA1
:10173000172004F049FA072004F046FA112004F0BB
:1017400043FA062004F040FA2B2004F03DFA56201C
:1017500004F03AFA3C2004F037FA052004F034FA99
:10176000102004F031FA0F2004F02EFA3F2004F08C
:101770002BFA3F2004F028FA0F2004F025FA2B2042
:1017800004F02EFA002004F01FFA002004F01CFAE6
:10179000012004F019FA3F2004F016FA2A2004F080
:1017A0001FFA002004F010FA002004F00DFA0020C7
:1017B00004F00AFAEF2004F007FA112004F010FAFE
:1017C000782006F019FE292004F00AFA03F064B824
:1017D0006B48808846F6040188427CD1112004F0D1
:1017E000FFF9142006F008FED02004F0F9F90720D4
:1017F00004F0EAF9422004F0E7F91D2004F0E4F9CE
:10180000D12004F0EDF9002004F0DEF91A2004F0F4
:10181000DBF9092004F0D8F9D22004F0E1F9012025
:1018200004F0D2F9222004F0CFF9C02004F0D8F956
:10183000102004F0C9F93B2004F0C6F9002004F0A0
:10184000C3F9022004F0C0F9112004F0BDF9C5204D
:1018500004F0C6F9032004F0B7F9C82004F0C0F979
:10186000002004F0B1F9252004F0AEF9212004F0A5
:10187000ABF9052004F0A8F9002004F0A5F90A202E
:1018800004F0A2F9652004F09FF9252004F09CF9EA
:10189000772004F099F9502004F096F90F2004F015
:1018A00093F9002004F090F9F82004F099F9012050
:1018B00004F08AF9FE2004F093F9002004F084F982
:1018C000022004F081F9202004F08AF9362004F087
:1018D00087F9082000E02CE004F076F93A2004F0C3
:1018E0007FF9552004F070F92B2004F079F90020DD
:1018F00004F06AF9002004F067F9012004F064F9AB
:101900003F2004F061F92A2004F06AF9002004F075
:101910005BF9002004F058F9012004F055F9DF20AC
:1019200004F052F9782006F067FD292004F058F9F8
:101930004CE71348808845F21031884240F0848794
:10194000ED2004F04DF9012004F03EF9FE2004F0F2
:101950003BF9EE2004F044F9DE2004F035F92120B3
:1019600004F032F9F12004F03BF9012004F02CF9E5
:10197000DF2004F035F9102004F026F9C42009E036
:1019800054000020204C43442049443A25780D0A55
:101990000000000004F024F98F2004F015F9C6209F
:1019A00004F01EF9002004F00FF9E22004F00CF915
:1019B000E22004F009F9E22004F006F9BF2004F067
:1019C0000FF9AA2004F000F9B02004F009F90D2065
:1019D00004F0FAF8002004F0F7F80D2004F0F4F811
:1019E000002004F0F1F8112004F0EEF8002004F0DB
:1019F000EBF8192004F0E8F8002004F0E5F82120C5
:101A000004F0E2F8002004F0DFF82D2004F0DCF808
:101A1000002004F0D9F83D2004F0D6F8002004F0AE
:101A2000D3F85D2004F0D0F8002004F0CDF85D205C
:101A300004F0CAF8002004F0C7F8B12004F0D0F890
:101A4000802004F0C1F8002004F0BEF88B2004F0E0
:101A5000BBF8002004F0B8F8962004F0B5F8002098
:101A600004F0B2F8B22004F0BBF8002004F0ACF8A7
:101A7000002004F0A9F8022004F0A6F8002004F0E9
:101A8000A3F8032004F0A0F8002004F09DF8B32090
:101A900004F0A6F8002004F097F8002004F094F871
:101AA000002004F091F8002004F08EF8002004F0EB
:101AB0008BF8002004F088F8002004F085F800205E
:101AC00004F082F8002004F07FF8002004F07CF895
:101AD000002004F079F8002004F076F8002004F0EB
:101AE00073F8002004F070F8002004F06DF8002076
:101AF00004F06AF8002004F067F8002004F064F8AD
:101B0000002004F061F8002004F05EF8002004F0EA
:101B10005BF8002004F058F8002004F055F800208D
:101B200004F052F8B42004F05BF88B2004F04CF879
:101B3000002004F049F8962004F046F8002004F054
:101B400043F8A12004F040F8002004F03DF8B5204F
:101B500004F046F8022004F037F8002004F034F8CE
:101B6000032004F031F8002004F02EF8042004F0E3
:101B70002BF8002004F028F8B62004F031F80020FB
:101B800004F022F8002004F01FF8B72004F028F831
:101B9000002004F019F8002004F016F83F2004F0AB
:101BA00013F8002004F010F85E2004F00DF8002077
:101BB00004F00AF8642004F007F8002004F004F8A8
:101BC0008C2004F001F8002003F0FEFFAC2003F0AD
:101BD000FBFF002003F0F8FFDC2003F0F5FF0020FE
:101BE00003F0F2FF702003F0EFFF002003F0ECFFA2
:101BF000902003F0E9FF002003F0E6FFEB2003F064
:101C0000E3FF002003F0E0FFDC2003F0DDFF002015
:101C100003F0DAFFB82003F0E3FF002003F0D4FF65
:101C2000002003F0D1FF002003F0CEFF002003F0DE
:101C3000CBFF002003F0C8FF002003F0C5FF002009
:101C400003F0C2FF002003F0BFFFBA2003F0C8FF7B
:101C5000242003F0B9FF002003F0B6FF002003F0BA
:101C6000B3FF002003F0B0FFC12003F0B9FF202034
:101C700003F0AAFF002003F0A7FF542003F0A4FF05
:101C8000002003F0A1FFFF2003F09EFF002003F0DF
:101C90009BFFC22003F0A4FF0A2003F095FF002061
:101CA00003F092FF042003F08FFF002003F08CFF6D
:101CB000C32003F095FF3C2003F086FF002003F0D3
:101CC00083FF3A2003F080FF002003F07DFF3920DE
:101CD00003F07AFF002003F077FF372003F074FF52
:101CE000002003F071FF3C2003F06EFF002003F0A2
:101CF0006BFF362003F068FF002003F065FF322001
:101D000003F062FF002003F05FFF2F2003F05CFF71
:101D1000002003F059FF2C2003F056FF002003F0B1
:101D200053FF292003F050FF002003F04DFF262031
:101D300003F04AFF002003F047FF242003F044FF94
:101D4000002003F041FF242003F03EFF002003F0B9
:101D50003BFF232003F038FF002003F035FF3C2039
:101D600003F032FF002003F02FFF362003F02CFF9A
:101D7000002003F029FF322003F026FF002003F0AB
:101D800023FF2F2003F020FF002003F01DFF2C2055
:101D900003F01AFF002003F017FF292003F014FFBF
:101DA000002003F011FF262003F00EFF002003F0B7
:101DB0000BFF242003F008FF002003F005FF242080
:101DC00003F002FF002003F0FFFE232003F0FCFEDF
:101DD000002003F0F9FEC42003F002FF622003F0AC
:101DE000F3FE002003F0F0FE052003F0EDFE0020DE
:101DF00003F0EAFE842003F0E7FE002003F0E4FE97
:101E0000F02003F0E1FE002003F0DEFE182003F0D6
:101E1000DBFE002003F0D8FEA42003F0D5FE002056
:101E200003F0D2FE182003F0CFFE002003F0CCFE1A
:101E3000502003F0C9FE002003F0C6FE0C2003F082
:101E4000C3FE002003F0C0FE172003F0BDFE0020FB
:101E500003F0BAFE952003F0B7FE002003F0B4FEB5
:101E6000F32003F0B1FE002003F0AEFEE62003F005
:101E7000ABFE002003F0A8FEC52003F0B1FE322027
:101E800003F0A2FE002003F09FFE442003F09CFE1E
:101E9000002003F099FE652003F096FE002003F079
:101EA00093FE762003F090FE002003F08DFE882044
:101EB00003F08AFE002003F087FEC62003F090FEA8
:101EC000202003F081FE002003F07EFE172003F0A7
:101ED0007BFE002003F078FE012003F075FE002059
:101EE00003F072FEC72003F07BFE002003F06CFEBF
:101EF000002003F069FE002003F066FE002003F0DE
:101F000063FEC82003F06CFE002003F05DFE00209D
:101F100003F05AFE002003F057FE002003F054FEA9
:101F2000C92003F05DFE002003F04EFE002003F008
:101F30004BFE002003F048FE002003F045FE002089
:101F400003F042FE002003F03FFE002003F03CFEC1
:101F5000002003F039FE002003F036FE002003F0DD
:101F600033FE002003F030FE002003F02DFE0020A1
:101F700003F02AFE002003F027FE002003F024FED9
:101F8000002003F021FEE02003F02AFE162003F0DB
:101F90001BFE002003F018FE1C2003F015FE00209D
:101FA00003F012FE212003F00FFE002003F00CFED0
:101FB000362003F009FE002003F006FE462003F061
:101FC00003FE002003F000FE522003F0FDFD002080
:101FD00003F0FAFD642003F0F7FD002003F0F4FDA8
:101FE0007A2003F0F1FD002003F0EEFD8B2003F0DA
:101FF000EBFD002003F0E8FD992003F0E5FD002053
:1020000003F0E2FDA82003F0DFFD002003F0DCFD7B
:10201000B92003F0D9FD002003F0D6FDC42003F061
:10202000D3FD002003F0D0FDCA2003F0CDFD002039
:1020300003F0CAFDD22003F0C7FD002003F0C4FD69
:10204000D92003F0C1FD002003F0BEFDE02003F025
:10205000BBFD002003F0B8FDF32003F0B5FD002028
:1020600003F0B2FDE12003F0BBFD162003F0ACFD50
:10207000002003F0A9FD1C2003F0A6FD002003F0C2
:10208000A3FD222003F0A0FD002003F09DFD3620DB
:1020900003F09AFD002003F097FD452003F094FD26
:1020A000002003F091FD522003F08EFD002003F08C
:1020B0008BFD642003F088FD002003F085FD7A206D
:1020C00003F082FD002003F07FFD8B2003F07CFDF8
:1020D000002003F079FD992003F076FD002003F045
:1020E00073FDA82003F070FD002003F06DFDB92002
:1020F00003F06AFD002003F067FDC42003F064FDD7
:10210000002003F061FDCA2003F05EFD002003F013
:102110005BFDD22003F058FD002003F055FDD820D0
:1021200003F052FD002003F04FFDE02003F04CFDD2
:10213000002003F049FDF32003F046FD002003F0EA
:1021400043FDE22003F04CFD052003F03DFD00209F
:1021500003F03AFD0B2003F037FD002003F034FDBF
:102160001B2003F031FD002003F02EFD342003F08E
:102170002BFD002003F028FD442003F025FD002066
:1021800003F022FD4F2003F01FFD002003F01CFD93
:10219000612003F019FD002003F016FD792003F003
:1021A00013FD002003F010FD882003F00DFD00203A
:1021B00003F00AFD972003F007FD002003F004FD63
:1021C000A62003F001FD002003F0FEFCB72003F081
:1021D000FBFC002003F0F8FCC22003F0F5FC00201B
:1021E00003F0F2FCC72003F0EFFC002003F0ECFC4E
:1021F000D12003F0E9FC002003F0E6FCD62003F038
:10220000E3FC002003F0E0FCDD2003F0DDFC002017
:1022100003F0DAFCF32003F0D7FC002003F0D4FC39
:10222000E32003F0DDFC052003F0CEFC002003F0EA
:10223000CBFC0A2003F0C8FC002003F0C5FC1C20E6
:1022400003F0C2FC002003F0BFFC332003F0BCFC11
:10225000002003F0B9FC442003F0B6FC002003F09A
:10226000B3FC502003F0B0FC002003F0ADFC622072
:1022700003F0AAFC002003F0A7FC782003F0A4FCE4
:10228000002003F0A1FC882003F09EFC002003F056
:102290009BFC972003F098FC002003F095FCA620FF
:1022A00003F092FC002003F08FFCB72003F08CFCBD
:1022B000002003F089FCC22003F086FC002003F01C
:1022C00083FCC72003F080FC002003F07DFCD120BC
:1022D00003F07AFC002003F077FCD52003F074FCB7
:1022E000002003F071FCDD2003F06EFC002003F001
:1022F0006BFCF32003F068FC002003F065FCE42095
:1023000003F06EFC012003F05FFC002003F05CFC96
:10231000012003F059FC002003F056FC022003F0DA
:1023200053FC002003F050FC2A2003F04DFC002059
:1023300003F04AFC3C2003F047FC002003F044FC7F
:102340004B2003F041FC002003F03EFC5D2003F035
:102350003BFC002003F038FC742003F035FC002027
:1023600003F032FC842003F02FFC002003F02CFC4F
:10237000932003F029FC002003F026FCA22003F0A8
:1023800023FC002003F020FCB32003F01DFC002000
:1023900003F01AFCBE2003F017FC002003F014FC2D
:1023A000C42003F011FC002003F00EFCCD2003F04C
:1023B0000BFC002003F008FCD32003F005FC0020F8
:1023C00003F002FCDD2003F0FFFB002003F0FCFB28
:1023D000F32003F0F9FB002003F0F6FBE52003F007
:1023E000FFFB002003F0F0FB002003F0EDFB0020DA
:1023F00003F0EAFB002003F0E7FB022003F0E4FB1C
:10240000002003F0E1FB292003F0DEFB002003F0B5
:10241000DBFB3C2003F0D8FB002003F0D5FB4B2076
:1024200003F0D2FB002003F0CFFB5D2003F0CCFBD8
:10243000002003F0C9FB742003F0C6FB002003F06A
:10244000C3FB842003F0C0FB002003F0BDFB9320FE
:1024500003F0BAFB002003F0B7FBA22003F0B4FBAB
:10246000002003F0B1FBB32003F0AEFB002003F02B
:10247000ABFBBE2003F0A8FB002003F0A5FBC420AB
:1024800003F0A2FB002003F09FFBCD2003F09CFB98
:10249000002003F099FBD32003F096FB002003F00B
:1024A00093FBDC2003F090FB002003F08DFBF32076
:1024B00003F08AFB002003F087FBE62003F090FB8B
:1024C000112003F081FB002003F07EFB342003F099
:1024D0007BFB002003F078FB562003F075FB002007
:1024E00003F072FB762003F06FFB002003F06CFB1F
:1024F000772003F069FB002003F066FB662003F001
:1025000063FB002003F060FB882003F05DFB0020EC
:1025100003F05AFB992003F057FB002003F054FB13
:10252000BB2003F051FB002003F04EFB992003F089
:102530004BFB002003F048FB662003F045FB002026
:1025400003F042FB552003F03FFB002003F03CFB6F
:10255000552003F039FB002003F036FB452003F043
:1025600033FB002003F030FB432003F02DFB002061
:1025700003F02AFB442003F027FB002003F024FB98
:10258000E72003F02DFB322003F01EFB002003F0B8
:102590001BFB552003F018FB002003F015FB7620F1
:1025A00003F012FB002003F00FFB662003F00CFB8E
:1025B000002003F009FB672003F006FB002003F076
:1025C00003FB672003F000FB002003F0FDFA8720E7
:1025D00003F0FAFA002003F0F7FA992003F0F4FA76
:1025E000002003F0F1FABB2003F0EEFA002003F024
:1025F000EBFA992003F0E8FA002003F0E5FA7720DF
:1026000003F0E2FA002003F0DFFA442003F0DCFAE2
:10261000002003F0D9FA562003F0D6FA002003F088
:10262000D3FA232003F0D0FA002003F0CDFA3320B0
:1026300003F0CAFA002003F0C7FA452003F0C4FAF9
:10264000002003F0C1FAE82003F0CAFA002003F0EA
:10265000BBFA002003F0B8FA992003F0B5FA002085
:1026600003F0B2FA872003F0AFFA002003F0ACFACF
:10267000882003F0A9FA002003F0A6FA772003F0DF
:10268000A3FA002003F0A0FA662003F09DFA0020D0
:1026900003F09AFA882003F097FA002003F094FAE6
:1026A000AA2003F091FA002003F08EFABB2003F079
:1026B0008BFA002003F088FA992003F085FA0020B5
:1026C00003F082FA662003F07FFA002003F07CFA20
:1026D000552003F079FA002003F076FA552003F034
:1026E00073FA002003F070FA442003F06DFA002022
:1026F00003F06AFA442003F067FA002003F064FA5A
:10270000552003F061FA002003F05EFAE92003F09F
:1027100067FAAA2003F058FA002003F055FA0020C7
:1027200003F052FA002003F04FFA002003F058FAA9
:10273000AA2003F049FACF2003F052FA002003F058
:1027400043FA002003F040FA002003F03DFA002095
:1027500003F03AFA002003F037FA002003F034FACD
:10276000002003F031FA002003F02EFA002003F0DD
:102770002BFA002003F028FA002003F025FA0020AD
:1027800003F022FA002003F01FFA002003F01CFAE5
:10279000002003F019FA002003F016FA002003F0DD
:1027A00013FAF02003F01CFA002003F00DFA502079
:1027B00003F00AFA002003F007FA002003F004FAFD
:1027C000002003F001FAF32003F00AFA002003F0DE
:1027D000FBF9F92003F004FA062003F0F5F91020C4
:1027E00003F0F2F9292003F0EFF9002003F0ECF9EF
:1027F0003A2003F0F5F9552003F0E6F9112003F033
:10280000EFF9642005F0F8FD292003F0E9F93520FF
:1028100003F0E6F9002003F0D7F9512003F0E0F9C6
:10282000FF2003F0D1F9532003F0DAF92C2003F054
:10283000CBF9552003F0D4F9822003F0C5F92C2000
:1028400003F0CEF902F028B8FE48808845F2105116
:1028500088427DD155214FF4704003F0D7F9AA2169
:102860004FF2010003F0D2F952214FF2020003F0BF
:10287000CDF908214FF2030003F0C8F901214FF20E
:10288000040003F0C3F90D214FF4304003F0BEF90A
:102890000D214BF2010003F0B9F90D214BF20200BA
:1028A00003F0B4F934214FF4364003F0AFF934218A
:1028B0004BF2016003F0AAF934214BF2026003F0FD
:1028C000A5F90D214FF4314003F0A0F90D214BF291
:1028D000011003F09BF90D214BF2021003F096F961
:1028E00034214FF4374003F091F934214BF2017059
:1028F00003F08CF934214BF2027003F087F90021C8
:102900004FF4324003F082F900214BF2012003F032
:102910007DF900214BF2022003F078F924214FF4D5
:10292000384003F073F924214BF6010003F06EF9EF
:1029300024214BF6020003F069F901214FF43F40D6
:1029400003F064F90F214FF4334003F05FF900E026
:10295000FDE30F214BF2013003F058F90F214BF248
:10296000023003F053F934214FF4394003F04EF9AB
:1029700034214BF6011003F049F934214BF60210D3
:1029800003F044F908214FF4354003F03FF90821E2
:102990004BF2015003F03AF908214BF2025003F0D8
:1029A00035F903214FF4424003F030F924214FF46C
:1029B0003A4003F02BF924214BF6012003F026F9CD
:1029C00024214BF6022003F021F900214FF43C4072
:1029D00003F01CF978214BF6014003F017F90021B0
:1029E0004BF6024003F012F900214FF43D4003F092
:1029F0000DF978214BF6015003F008F900214BF650
:102A0000025003F003F900214FF43E4003F0FEF8BA
:102A100064214BF6016003F0F9F800214FF45140B6
:102A200003F0F4F833214DF2011003F0EFF8002128
:102A30004DF2021003F0EAF834214DF2031003F0D6
:102A4000E5F800214DF2041003F0E0F83A214DF2D0
:102A5000051003F0DBF800214DF2061003F0D6F864
:102A60004A214DF2071003F0D1F800214DF2081071
:102A700003F0CCF85C214DF2091003F0C7F80021F7
:102A80004DF20A1003F0C2F881214DF20B1003F051
:102A9000BDF800214DF20C1003F0B8F8A6214DF25C
:102AA0000D1003F0B3F800214DF20E1003F0AEF854
:102AB000E5214DF20F1003F0A9F801214DF210109D
:102AC00003F0A4F813214DF2111003F09FF8012137
:102AD0004DF2121003F09AF854214DF2131003F046
:102AE00095F801214DF2141003F090F882214DF277
:102AF000151003F08BF801214DF2161003F086F843
:102B0000CA214DF2171003F081F802214DF218107E
:102B100003F07CF800214DF2191003F077F8022140
:102B20004DF21A1003F072F801214DF21B1003F060
:102B30006DF802214DF21C1003F068F834214DF2BB
:102B40001D1003F063F802214DF21E1003F05EF831
:102B500067214DF21F1003F059F802214DF22010A9
:102B600003F054F884214DF2211003F04FF80221B4
:102B70004DF2221003F04AF8A4214DF2231003F085
:102B800045F802214DF2241003F040F8B7214DF230
:102B9000251003F03BF802214DF2261003F036F821
:102BA000CF214DF2271003F031F802214DF2281009
:102BB00003F02CF8DE214DF2291003F027F8022152
:102BC0004DF22A1003F022F8F2214DF22B1003F0FF
:102BD0001DF802214DF22C1003F018F8FE214DF2E1
:102BE0002D1003F013F803214DF22E1003F00EF810
:102BF00010214DF22F1003F009F803214DF230108F
:102C000003F004F833214DF2311002F0FFFF0321ED
:102C10004DF2321002F0FAFF6D214DF2331002F046
:102C2000F5FF00214FF4524002F0F0FF33214DF246
:102C3000012002F0EBFF00214DF2022002F0E6FF3E
:102C4000342101E0540000204DF2032002F0DEFFA9
:102C500000214DF2042002F0D9FF3A214DF2052067
:102C600002F0D4FF00214DF2062002F0CFFF4A21EE
:102C70004DF2072002F0CAFF00214DF2082002F0B9
:102C8000C5FF5C214DF2092002F0C0FF00214DF28A
:102C90000A2002F0BBFF81214DF20B2002F0B6FFAB
:102CA00000214DF20C2002F0B1FFA6214DF20D20C3
:102CB00002F0ACFF00214DF20E2002F0A7FFE5214B
:102CC0004DF20F2002F0A2FF01214DF2102002F080
:102CD0009DFF13214DF2112002F098FF01214DF2CA
:102CE000122002F093FF54214DF2132002F08EFFC8
:102CF00001214DF2142002F089FF82214DF21520AE
:102D000002F084FF01214DF2162002F07FFFCA215C
:102D10004DF2172002F07AFF02214DF2182002F046
:102D200075FF00214DF2192002F070FF02214DF2D3
:102D30001A2002F06BFF01214DF21B2002F066FF0A
:102D400002214DF21C2002F061FF34214DF21D20C2
:102D500002F05CFF02214DF21E2002F057FF6721B6
:102D60004DF21F2002F052FF02214DF2202002F00E
:102D70004DFF84214DF2212002F048FF02214DF247
:102D8000222002F043FFA4214DF2232002F03EFF57
:102D900002214DF2242002F039FFB7214DF2252007
:102DA00002F034FF02214DF2262002F02FFFCF2146
:102DB0004DF2272002F02AFF02214DF2282002F0D6
:102DC00025FFDE214DF2292002F020FF02214DF2E5
:102DD0002A2002F01BFFF2214DF22B2002F016FFF9
:102DE00002214DF22C2002F011FFFE214DF22D2088
:102DF00002F00CFF03214DF22E2002F007FF1021FC
:102E00004DF22F2002F002FF03214DF2302002F09C
:102E1000FDFE33214DF2312002F0F8FE03214DF288
:102E2000322002F0F3FE6D214DF2332002F0EEFE6F
:102E300000214FF4534002F0E9FE33214DF20130FE
:102E400002F0E4FE00214DF2023002F0DFFE3421F8
:102E50004DF2033002F0DAFE00214DF2043002F0B0
:102E6000D5FE3A214DF2053002F0D0FE00214DF2A0
:102E7000063002F0CBFE4A214DF2073002F0C6FECA
:102E800000214DF2083002F0C1FE5C214DF2093004
:102E900002F0BCFE00214DF20A3002F0B7FE8121A3
:102EA0004DF20B3002F0B2FE00214DF20C3002F078
:102EB000ADFEA6214DF20D3002F0A8FE00214DF22C
:102EC0000E3002F0A3FEE5214DF20F3002F09EFE1F
:102ED00001214DF2103002F099FE13214DF2113014
:102EE00002F094FE01214DF2123002F08FFE5421C7
:102EF0004DF2133002F08AFE01214DF2143002F03F
:102F000085FE82214DF2153002F080FE01214DF246
:102F1000163002F07BFECA214DF2173002F076FE29
:102F200002214DF2183002F071FE00214DF21930ED
:102F300002F06CFE02214DF21A3002F067FE012110
:102F40004DF21B3002F062FE02214DF21C3002F005
:102F50005DFE34214DF21D3002F058FE02214DF28B
:102F60001E3002F053FE67214DF21F3002F04EFE7C
:102F700002214DF2203002F049FE84214DF2213031
:102F800002F044FE02214DF2223002F03FFEA42165
:102F90004DF2233002F03AFE02214DF2243002F0CD
:102FA00035FEB7214DF2253002F030FE02214DF200
:102FB000263002F02BFECF214DF2273002F026FE04
:102FC00002214DF2283002F021FEDE214DF229309F
:102FD00002F01CFE02214DF22A3002F017FEF2210F
:102FE0004DF22B3002F012FE02214DF22C3002F095
:102FF0000DFEFE214DF22D3002F008FE03214DF2B0
:103000002E3002F003FE10214DF22F3002F0FEFDB3
:1030100003214DF2303002F0F9FD33214DF2313011
:1030200002F0F4FD03214DF2323002F0EFFD6D218C
:103030004DF2333002F0EAFD00214FF4544002F02B
:10304000E5FD33214DF2014002F0E0FD00214DF29B
:10305000024002F0DBFD34214DF2034002F0D6FDC8
:1030600000214DF2044002F0D1FD3A214DF205401D
:1030700002F0CCFD00214DF2064002F0C7FD4A21CE
:103080004DF2074002F0C2FD00214DF2084002F06F
:10309000BDFD5C214DF2094002F0B8FD00214DF26A
:1030A0000A4002F0B3FD81214DF20B4002F0AEFD6B
:1030B00000214DF20C4002F0A9FDA6214DF20D4079
:1030C00002F0A4FD00214DF20E4002F09FFDE5212B
:1030D0004DF20F4002F09AFD01214DF2104002F036
:1030E00095FD13214DF2114002F090FD01214DF2AA
:1030F000124002F08BFD54214DF2134002F086FD88
:1031000001214DF2144002F081FD82214DF2154063
:1031100002F07CFD01214DF2164002F077FDCA213C
:103120004DF2174002F072FD02214DF2184002F0FC
:103130006DFD00214DF2194002F068FD02214DF2B3
:103140001A4002F063FD01214DF21B4000E006E34E
:1031500002F05CFD02214DF21C4002F057FD3421CB
:103160004DF21D4002F052FD02214DF21E4002F0D0
:103170004DFD67214DF21F4002F048FD02214DF246
:10318000204002F043FD84214DF2214002F03EFD3B
:1031900002214DF2224002F039FDA4214DF22340DC
:1031A00002F034FD02214DF2244002F02FFDB72140
:1031B0004DF2254002F02AFD02214DF2264002F098
:1031C00025FDCF214DF2274002F020FD02214DF2D6
:1031D000284002F01BFDDE214DF2294002F016FDD1
:1031E00002214DF22A4002F011FDF2214DF22B4056
:1031F00002F00CFD02214DF22C4002F007FDFE21F1
:103200004DF22D4002F002FD03214DF22E4002F05E
:10321000FDFC10214DF22F4002F0F8FC03214DF28D
:10322000304002F0F3FC33214DF2314002F0EEFC6D
:1032300003214DF2324002F0E9FC6D214DF23340A2
:1032400002F0E4FC00214FF4554002F0DFFC332192
:103250004DF2015002F0DAFC00214DF2025002F072
:10326000D5FC34214DF2035002F0D0FC00214DF288
:10327000045002F0CBFC3A214DF2055002F0C6FC9E
:1032800000214DF2065002F0C1FC4A214DF20750D8
:1032900002F0BCFC00214DF2085002F0B7FC5C21AA
:1032A0004DF2095002F0B2FC00214DF20A5002F03A
:1032B000ADFC81214DF20B5002F0A8FC00214DF233
:1032C0000C5002F0A3FCA6214DF20D5002F09EFC22
:1032D00000214DF20E5002F099FCE5214DF20F5005
:1032E00002F094FC01214DF2105002F08FFC1321EA
:1032F0004DF2115002F08AFC01214DF2125002F001
:1033000085FC54214DF2135002F080FC01214DF256
:10331000145002F07BFC82214DF2155002F076FC35
:1033200001214DF2165002F071FCCA214DF21750E6
:1033300002F06CFC02214DF2185002F067FC0021F3
:103340004DF2195002F062FC02214DF21A5002F0C7
:103350005DFC01214DF21B5002F058FC02214DF2A0
:103360001C5002F053FC34214DF21D5002F04EFC73
:1033700002214DF21E5002F049FC67214DF21F5010
:1033800002F044FC02214DF2205002F03FFC842167
:103390004DF2215002F03AFC02214DF2225002F08F
:1033A00035FCA4214DF2235002F030FC02214DF2F5
:1033B000245002F02BFCB7214DF2255002F026FCE0
:1033C00002214DF2265002F021FCCF214DF2275070
:1033D00002F01CFC02214DF2285002F017FCDE2105
:1033E0004DF2295002F012FC02214DF22A5002F057
:1033F0000DFCF2214DF22B5002F008FC02214DF29F
:103400002C5002F003FCFE214DF22D5002F0FEFB89
:1034100003214DF22E5002F0F9FB10214DF22F50F6
:1034200002F0F4FB03214DF2305002F0EFFB3321A8
:103430004DF2315002F0EAFB03214DF2325002F01E
:10344000E5FB6D214DF2335002F0E0FB00214FF41B
:10345000564002F0DBFB33214DF2016002F0D6FB57
:1034600000214DF2026002F0D1FB34214DF20360E5
:1034700002F0CCFB00214DF2046002F0C7FB3A21C0
:103480004DF2056002F0C2FB00214DF2066002F031
:10349000BDFB4A214DF2076002F0B8FB00214DF25E
:1034A000086002F0B3FB5C214DF2096002F0AEFB54
:1034B00000214DF20A6002F0A9FB81214DF20B6060
:1034C00002F0A4FB00214DF20C6002F09FFBA6214C
:1034D0004DF20D6002F09AFB00214DF20E6002F0F9
:1034E00095FBE5214DF20F6002F090FB01214DF2BA
:1034F000106002F08BFB13214DF2116002F086FB8D
:1035000001214DF2126002F081FB54214DF2136053
:1035100002F07CFB01214DF2146002F077FB822166
:103520004DF2156002F072FB01214DF2166002F0BF
:103530006DFBCA214DF2176002F068FB02214DF2CB
:10354000186002F063FB00214DF2196002F05EFB8F
:1035500002214DF21A6002F059FB01214DF21B606D
:1035600002F054FB02214DF21C6002F04FFB3421AB
:103570004DF21D6002F04AFB02214DF21E6002F086
:1035800045FB67214DF21F6002F040FB02214DF226
:10359000206002F03BFB84214DF2216002F036FBFB
:1035A00002214DF2226002F031FBA4214DF2236092
:1035B00002F02CFB02214DF2246002F027FBB72120
:1035C0004DF2256002F022FB02214DF2266002F04E
:1035D0001DFBCF214DF2276002F018FB02214DF2B6
:1035E000286002F013FBDE214DF2296002F00EFB91
:1035F00002214DF22A6002F009FBF2214DF22B600C
:1036000002F004FB02214DF22C6002F0FFFAFE21D1
:103610004DF22D6002F0FAFA03214DF22E6002F015
:10362000F5FA10214DF22F6002F0F0FA03214DF26D
:10363000306002F0EBFA33214DF2316002F0E6FA2D
:1036400003214DF2326002F0E1FA6D214DF2336058
:1036500002F0DCFA55214FF4704002F0D7FAAA21AB
:103660004FF2010002F0D2FA52214FF2020002F0B2
:10367000CDFA08214FF2030002F0C8FA00214FF200
:10368000040002F0C3FACC214FF4314002F0BEFA3C
:1036900000214BF2011002F0B9FA05214FF4364037
:1036A00002F0B4FA70214FF4374002F0AFFA702103
:1036B0004BF2017002F0AAFA01214FF4384002F0F7
:1036C000A5FA03214BF6010002F0A0FA03214BF604
:1036D000020002F09BFA03214BF6030002F096FA77
:1036E00002214FF43C4002F091FA00214BF60140D8
:1036F00002F08CFA00214BF6024002F087FAD0214A
:103700004FF4494002F082FA02214CF6011002F017
:103710007DFA50214CF6021002F078FA50214CF656
:10372000031002F073FA50214CF6041002F06EFA06
:1037300000214FF4545002F069FA55214FF46850BB
:1037400002F064FA4FF4885002F04AFA782004F04C
:103750006FFE4FF4245002F043FA01F09DB8FE488A
:10376000808849F2253188427ED147F6F001E52074
:1037700002F04CFA4FF48071012002F047FA4FF446
:10378000E061022002F042FA41F23001032002F02F
:103790003DFA0021042002F039FA40F2022108200B
:1037A00002F034FA0021092002F030FA00210A2048
:1037B00002F02CFA00210C2002F028FA00210D2042
:1037C00002F024FA00210F2002F020FA002110203C
:1037D00002F01CFA0721112002F018FA0021122031
:1037E00002F014FA0021132002F010FA0021072041
:1037F00002F00CFA41F29061102002F007FA40F258
:103800002721112002F002FA9D21122002F0FEF978
:103810004FF4C851132002F0F9F92521292002F0B4
:10382000F5F90D212B2002F0F1F90721302002F0EB
:10383000EDF940F20331312002F0E8F903213220A2
:1038400002F0E4F940F20621352002F0DFF9082108
:10385000362002F0DBF940F20641372002F0D6F9BB
:103860004FF44171382000E057E002F0CFF9072112
:10387000392002F0CBF940F202613C2002F0C6F997
:1038800008213D2002F0C2F90021502002F0BEF9CB
:10389000EF21512002F0BAF90021522002F0B6F9CE
:1038A00040F23F11532002F0B1F94FF4274160205C
:1038B00002F0ACF90121612002F0A8F900216A2090
:1038C00002F0A4F90021802002F0A0F9002181205B
:1038D00002F09CF90021822002F098F90021832057
:1038E00002F094F90021842002F090F90021852053
:1038F00002F08CF91021902002F088F94FF4C06199
:10390000922002F083F940F23311072002F07EF991
:103910002221002002F07AF91FE78F48808849F2BF
:10392000283188427ED141F28F01EC2002F06EF9FD
:1039300041F23421EF2002F069F94FF48071012047
:1039400002F064F94FF4E061022002F05FF941F205
:103950003001032002F05AF90021042002F056F948
:1039600040F20221082002F051F90021092002F062
:103970004DF900210A2002F049F901210C2002F042
:1039800045F900210D2002F041F900210F2002F03D
:103990003DF90021102002F039F90721112002F031
:1039A00035F90021122002F031F90021132002F034
:1039B0002DF90121072002F029F9322004F01CFD25
:1039C00041F29041102002F021F940F2272111200C
:1039D00002F01CF9322004F00FFD8A21122002F0BF
:1039E00015F9322004F008FD4FF4D051132002F0F5
:1039F0000DF90621292002F009F90D212B2002F0F2
:103A000005F9322004F0F8FC0021202002F0FEF835
:103A10000021212002F0FAF8322004F0EDFC002110
:103A2000302000E074E002F0F1F840F2046131204F
:103A300002F0ECF840F20531322002F0E7F8002104
:103A4000352002F0E3F840F60941362002F0DEF8B6
:103A50004FF40171372002F0D9F840F201313820DB
:103A600002F0D4F840F20771392002F0CFF80021BB
:103A70003C2002F0CBF840F60A213D2002F0C6F8C7
:103A8000322004F0B9FC0021502002F0BFF8EF21F1
:103A9000512002F0BBF80021522002F0B7F840F2AA
:103AA0003F11532002F0B2F84FF42741602002F09A
:103AB000ADF80121612002F0A9F800216A2002F08E
:103AC000A5F80021802002F0A1F80021812002F059
:103AD0009DF80021822002F099F80021832002F055
:103AE00095F80021842002F091F80021852002F051
:103AF0008DF81021902002F089F84FF4C0619220D7
:103B000002F084F840F23311072002F07FF824E637
:103B10001148808849F2203188427DD10021084631
:103B200002F074F84FF48071012002F06FF84FF446
:103B3000E061022002F06AF841F23001032002F055
:103B400065F80021042002F061F840F2022108200B
:103B500002F05CF8002101E054000020092002F08E
:103B600055F800210A2002F051F801210C2002F042
:103B70004DF800210D2002F049F800210F2002F03D
:103B800045F8322004F038FC40F20111072002F021
:103B90003DF8322004F030FC4FF48651102002F042
:103BA00035F80721112002F031F84FF48871122006
:103BB00002F02CF84FF43061132002F027F80021B6
:103BC000292002F023F844F210012B2002F01EF805
:103BD0000021502002F01AF8EF21512002F016F8CF
:103BE0000021522002F012F840F23F11532002F05F
:103BF0000DF84FF41C51602002F008F801216120FB
:103C000002F004F800216A2002F000F80021802070
:103C100001F0FCFF002100E031E0812001F0F6FF1F
:103C20000021822001F0F2FF0021832001F0EEFF4D
:103C30000021842001F0EAFF0021852001F0E6FF49
:103C40001021902001F0E2FF0021922001F0DEFF20
:103C50000121932001F0DAFF4FF48871952001F0E3
:103C6000D5FF0021972001F0D1FF0021982001F01D
:103C7000CDFF40F27311072001F0C8FF6DE5FE484B
:103C8000808849F2313188427DD141F21401E72028
:103C900001F0BCFF4FF48071012001F0B7FF4FF439
:103CA0000071022001F0B2FF41F23801032001F05F
:103CB000ADFF40F20221082001F0A8FF00210920F9
:103CC00001F0A4FF00210A2001F0A0FF00210C2038
:103CD00001F09CFF00210D2001F098FF00210F2032
:103CE00001F094FF0021102001F090FF0721112026
:103CF00001F08CFF0021122001F088FF0021132029
:103D000001F084FFC82004F077FB41F2906110209D
:103D100001F07CFF40F22721112001F077FF3220D3
:103D200004F06AFB0C21122001F070FF322004F035
:103D300063FB4FF40061132001F068FF112129207B
:103D400001F064FF0B212B2001F060FF322004F012
:103D500053FB0021202001F059FF40F23F112120A8
:103D600001F054FF0021302001F050FF4FF4837127
:103D7000312001F04BFF0021322001F047FF4FF4CA
:103D80000171352000E064E001F040FF41F20A617A
:103D9000362001F03BFF40F20771372001F036FF7B
:103DA0004FF48371382001F031FF40F20771392060
:103DB00001F02CFF40F202413C2001F027FF40F6C9
:103DC0000F413D2001F022FF0021502001F01EFF95
:103DD000EF21512001F01AFF0021522001F016FFBF
:103DE00040F23F11532001F011FF4FF41C516020AD
:103DF00001F00CFF0121612001F008FF00216A2081
:103E000001F004FF0021802001F000FF002181204B
:103E100001F0FCFE0021822001F0F8FE0021832049
:103E200001F0F4FE0021842001F0F0FE0021852045
:103E300001F0ECFE1021902001F0E8FE4FF4C0618B
:103E4000922001F0E3FE40F23311072001F0DEFE84
:103E500083E48948808845F2084188427ED14FF446
:103E60008071012001F0D2FE4FF4E061022001F0E8
:103E7000CDFE41F23001032001F0C8FE00210420F4
:103E800001F0C4FE40F20721082001F0BFFE00212E
:103E9000092001F0BBFE00210A2001F0B7FE00213D
:103EA0000C2001F0B3FE00210D2001F0AFFE002137
:103EB0000F2001F0ABFE142004F09EFA41F2B06135
:103EC000102001F0A3FE0121112001F09FFE01212D
:103ED000172001F09BFE4FF49C71122001F096FE1A
:103EE0004FF40061132001F091FE0921292001F017
:103EF0008DFE09212A2001F089FE0021A42001F075
:103F000085FE0021502001F081FEEF21512001F0BB
:103F10007DFE0021522001F079FE40F23F11532036
:103F200001F074FE4FF41C51602001F06FFE01217E
:103F3000612001F06BFE00216A2001F067FE002184
:103F4000802001F063FE0021812001F05FFE00214E
:103F5000822001F05BFE0021832000E023E001F0DD
:103F600055FE0021842001F051FE0021852001F042
:103F70004DFE1321902001F049FE0021922001F016
:103F800045FE0321932001F041FE4FF488719520F6
:103F900001F03CFE40F27311072001F037FE3220A1
:103FA00004F02AFAB8E43448808841F20551884286
:103FB0007ED10021072001F029FE322004F01CFAF6
:103FC0004FF48E71122001F021FE0121A42001F096
:103FD0001DFE0F21082001F019FE08210A2001F022
:103FE00015FE08210D2001F011FE40F2077130206E
:103FF00001F00CFE0721312001F008FE40F20361C0
:10400000322001F003FE4FF4E061332001F0FEFDA9
:1040100040F20221342001F0F9FD0221352001F0A7
:10402000F5FD41F60F71362001F0F0FD40F2077109
:10403000372001F0EBFD0021382001F0E7FD0021E1
:10404000392001F0E3FD40F207713A2001F0DEFD76
:1040500000213B2001F0DAFD07213C2001F0D6FDD4
:1040600000213D2001F0D2FD322004F0C5F90121EC
:10407000072001F0CBFD01E05400002001211720B2
:1040800001F0C4FD322004F0B7F94FF4BD51102007
:1040900001F0BCFD40F21721112001F0B7FD4FF4F3
:1040A0008F71122001F0B2FD4FF47061132000E017
:1040B00097E001F0ABFD00212A2001F0A7FD0A21C5
:1040C000292001F0A3FD4FF49F71122001F09EFD05
:1040D0000021502001F09AFDEF21512001F096FDC2
:1040E0000021522001F092FD40F23F11532001F0D7
:1040F0008DFD4FF41C51602001F088FD01216120ED
:1041000001F084FD00216A2001F080FD0021802063
:1041100001F07CFD0021812001F078FD002182204A
:1041200001F074FD0021832001F070FD0021842046
:1041300001F06CFD0021852001F068FD1321902025
:1041400001F064FD4FF44071922001F05FFD052104
:10415000932001F05BFD0021952001F057FD002127
:10416000972001F053FD0021982001F04FFD4FF4FE
:104170008071012001F04AFD4FF4E061022001F05E
:1041800045FD41F23801032001F040FD00210420EB
:1041900001F03CFD00210C2001F038FD00210F2032
:1041A00001F034FD0021202001F030FD002121200C
:1041B00001F02CFD2121072001F028FD142004F03E
:1041C0001BF96121072001F021FD142004F014F9EE
:1041D00040F27311072001F019FD142004F00CF9CE
:1041E0005AE3FE4880884BF2055188427ED1002177
:1041F000084601F00BFD0021084601F007FD0021F3
:10420000084601F003FD0021084601F0FFFC0121F2
:10421000A42001F0FBFC142004F0EEF84FF41C5134
:10422000602001F0F3FC40F20221082001F0EEFCD6
:104230004FF40571302001F0E9FC43F21571312093
:1042400001F0E4FC40F20461322001F0DFFC40F6B2
:104250001661332001F0DAFC42F21121342001F022
:10426000D5FC4FF4A851352001F0D0FC48F207519D
:10427000362001F0CBFC41F20741372001F0C6FCAB
:1042800041F20341382001F0C1FC2021392001F026
:10429000BDFC1A21902001F0B9FC0021102001F092
:1042A000B5FC0721112001F0B1FC0021122001F022
:1042B000ADFC0021132001F0A9FC142004F09CF8AF
:1042C0004FF4E661102001F0A1FC40F237111120FB
:1042D00001F09CFC142004F08FF84FF4DC711220E4
:1042E00001F094FC142004F087F800E083E04FF420
:1042F0007061132001F08AFC80212A2001F086FCE5
:104300004821292001F082FC142004F075F84FF4B4
:104310008071012001F07AFC4FF4E061022001F08D
:1043200075FC41F23801032001F070FC40F20221DB
:10433000082001F06BFC00210A2001F067FC00213D
:104340000C2001F063FC00210D2001F05FFC302106
:104350000E2001F05BFC0021502001F057FCEF2102
:10436000512001F053FC0021522001F04FFC40F29B
:104370003F11532001F04AFC4FF41C51602001F022
:1043800045FC0121612001F041FC00216A2001F07F
:104390003DFC1121902001F039FC4FF4C0619220C6
:1043A00001F034FC40F20241932001F02FFC022185
:1043B000942001F02BFC142004F01EF801210720AA
:1043C00001F024FC142004F017F86121072001F00B
:1043D0001DFC40F27311072001F018FC0021202081
:1043E00001F014FC0021212001F010FC222100200A
:1043F00001F00CFC50E2794880884CF2055188426B
:104400007ED10021084601F001FC0021084601F0A0
:10441000FDFB142003F0F0FF0021084601F0F6FB3D
:104420000021084601F0F2FB0021084601F0EEFBF6
:104430000021084601F0EAFB0121A42001F0E6FB7F
:10444000142003F0D9FF4FF41C51602001F0DEFB73
:1044500040F60601082001F0D9FB40F2037130203C
:1044600001F0D4FB0121312001F0D0FB04213220E6
:1044700001F0CCFB4FF48171332001F0C7FB4FF406
:104480004071342001F0C2FB40F20311352001F0ED
:10449000BDFB1F21362001F0B9FB40F2037137202C
:1044A00001F0B4FB0121382001F0B0FB04213920D8
:1044B00001F0ACFB1521902001F0A8FB4FF48261C4
:1044C000102001F0A3FB40F24721112001F09EFBD8
:1044D0004FF4DE71122001F099FB4FF4606113205C
:1044E00001F094FB782003F087FF4FF480710120E6
:1044F00001F08CFB4FF40071022001F087FB00E01B
:1045000050E041F23001032001F080FB08210A2035
:1045100001F07CFB00210C2001F078FB20210E2013
:1045200001F074FB00210F2001F070FB002120201E
:1045300001F06CFB0021212001F068FB3D212A20C5
:1045400001F064FB142003F057FF2D21292001F016
:104550005DFB0021502001F059FB4DF2EF0151208D
:1045600001F054FB0021522001F050FB40F23F11BA
:10457000532001F04BFB0021612001F047FB00219B
:104580006A2001F043FB4FF44071922001F03EFBA2
:104590000521932001F03AFB4FF48071072001F0D0
:1045A00035FB79E10D48808844F2315188427CD155
:1045B0000121002001F02AFB0A2003F01DFF41F237
:1045C0002861102001F022FB0E21122001F01EFBB9
:1045D00040F63921132001F019FB01E054000020BE
:1045E0000A2003F009FF4021112001F00FFB5021A8
:1045F000152001F00BFB0A2003F0FEFE1E21122005
:1046000001F004FB0A2003F0F7FE4FF4B151102033
:1046100001F0FCFA42F63921132001F0F7FA0A20E2
:1046200003F0EAFE4FF48071012001F0EFFA4FF43D
:104630004071022001F0EAFA41F23801032001F052
:10464000E5FA40F20221082001F0E0FA08210A20F0
:1046500001F0DCFA0021302001F0D8FA40F20241EA
:10466000312001F0D3FA4FF48371322001F0CEFAF9
:1046700040F20351332001F0C9FA4FF48271342023
:1046800001F0C4FA40F20131352001F0BFFA40F2E6
:104690000771362001F0BAFA40F20531372001F0F7
:1046A000B5FA4FF40271382000E040E001F0AEFAB4
:1046B00040F60B71392001F0A9FA0221412001F0E6
:1046C000A5FA4FF41C51602001F0A0FA01216120ED
:1046D00001F09CFA4FF40471902001F097FA4FF426
:1046E0008571922001F092FA0421932001F08EFA54
:1046F0004FF48071A02001F089FA0121072001F018
:1047000085FA2121072001F081FA2321072001F0F9
:104710007DFA3321072001F079FA40F233110720A6
:1047200001F074FA0021A02001F070FAB4E06048B2
:10473000808844F235518842F8D13021152001F0AB
:1047400065FA10219A2001F061FA2021112001F070
:104750005DFA43F22841102001F058FA022112209C
:1047600001F054FA41F23801132001F04FFA2820E9
:1047700003F042FE1221084601F048FA282003F017
:104780003BFE43F22041102001F040FA43F2380191
:10479000132001F03BFA462003F02EFE00213020CA
:1047A00001F034FA40F20241312001F02FFA40F2D8
:1047B0000731322001F02AFA4FF44171332001F021
:1047C00025FA0421342001F021FA40F2014135207C
:1047D00001F01CFA40F20771362001F017FA40F29E
:1047E0000531372001F012FA4FF4C261382001F090
:1047F0000DFA4FF4C261392001F008FA4FF48071CC
:10480000012001F003FA4FF44071022001F0FEF99B
:1048100041F23001032001F0F9F940F608010820C7
:1048200001F0F4F908210A2001F0F0F94FF41C51CD
:10483000602001F0EBF90121612001F0E7F94FF46C
:104840009F71902001F0E2F94FF48071922001F005
:10485000DDF94FF48071932001F0D8F94FF4405105
:10486000A02001F0D3F91021A32001F0CFF90121FC
:10487000072001F0CBF92121072001F0C7F92321FE
:10488000072001F0C3F93321072001F0BFF940F2FE
:104890003311072001F0BAF90020FCF701FB0120D9
:1048A000044908604FF6FF70FCF7C4FA21B000BD60
:1048B00054000020BC82404210B50246012000E0B6
:1048C00050430B00A1F10104E1B2F9D110BD000089
:1048D00008B5034800880090BDF8000008BD00003E
:1048E0008000006C01B5BDF8000001F079F90520E9
:1048F00003F09EFDFFF7ECFF08BD0000F0B5054694
:1049000000240027A748807901281ED1A548808867
:1049100046F60401884218D0082D15D2DFE805F0CC
:104920000406080A0C0E101206250DE007250BE000
:10493000042509E0052507E0012505E0002503E041
:10494000032501E0022500BF00BF9648808849F298
:104950004131884211D09348808846F6040188424C
:104960000BD09048808845F21031884205D08D48A0
:10497000808845F2105188427ED1082D1CD2DFE894
:1049800005F00406090C0F12151800BF14E044F0DE
:10499000800411E044F040040EE044F0C0040BE059
:1049A00044F0200408E044F0600405E044F0A00472
:1049B00002E044F0E00400BF00BF7A48808845F27E
:1049C0001051884202D14FF4585700E036277548FD
:1049D000808845F21031884207D07248808845F2BD
:1049E0001051884201D044F008046E48808846F691
:1049F0000401884201D144F002042146384601F006
:104A000005F904F0200068B16648008865494988C6
:104A1000884214DA6348068840886249088008465C
:104A200046800CE05F4800885E494988884206DD80
:104A30005C48068840885B4908800846468059489B
:104A4000808845F21051884254D15649488901F076
:104A5000C7F8002001F0B8F852494989491C88B2CA
:104A600001F0BEF8002001F0AFF84E494989891CD9
:104A700088B201F0B5F800E06BE04A490988491EA8
:104A8000C1F30F2001F0A0F846494989C91C88B23A
:104A900001F0A6F843490978491EC8B201F094F81C
:104AA0004049888901F09CF8002001F08DF83D49CB
:104AB0008989491C88B201F093F8002001F084F83C
:104AC00038498989891C88B201F08AF835494988B2
:104AD000491EC1F30F2001F077F832498989C91CBA
:104AE00088B201F07DF82F498978491EC8B201F0DB
:104AF0006BF855E02B49488901F072F8002001F06D
:104B000063F8002001F060F826490988491EC1F3C6
:104B10000F2001F059F823490978491EC8B201F065
:104B200053F82049888901F05BF8002001F04CF827
:104B3000002001F049F81B494988491EC1F30F20A4
:104B400001F042F817498978491EC8B201F03CF8D3
:104B500026E0082D1CD2DFE805F004070A0D0F122D
:104B6000151844F0300413E044F0100410E044F051
:104B700020040DE000BF0BE044F0380408E044F0EE
:104B8000280405E044F0180402E044F0080400BFE3
:104B900000BF032744F480542146384601F036F81C
:104BA000F0BD00005400002030B504460D464048DA
:104BB000808849F24131884205D03D48808845F2DD
:104BC0001031884214D13A49488901F009F820127D
:104BD00000F0FAFFE0B200F0F7FF3549888900F0F5
:104BE000FFFF281200F0F0FFE8B200F0EDFF5DE0FB
:104BF0002F48808846F6040188421DD12C488079D0
:104C0000012804D12A480088401E001B84B228498C
:104C1000488900F0E5FF201200F0D6FFE0B200F076
:104C2000D3FF2349888900F0DBFF281200F0CCFF76
:104C3000E8B200F0C9FF39E01D48808845F2105104
:104C4000884220D11A49488900F0CAFF201200F09A
:104C5000BBFF17494989491C88B200F0C1FFE0B287
:104C600000F0B2FF1249888900F0BAFF281200F064
:104C7000ABFF0F498989491C88B200F0B1FFE8B247
:104C800000F0A2FF12E00A488079012804D1084808
:104C90000088401E001B84B205494889214600F067
:104CA000B5FF03498889294600F0B0FF30BD0000F8
:104CB000540000202DE9F84F80460E4617461C464A
:104CC000B3462046E31704EB5373DB1021464FEA4B
:104CD000E47C04EB5C7C4FEAEC0CA4EBCC0CBCF168
:104CE000000F02D04FF0010C01E04FF0000C6344C4
:104CF000224604EBD27C4FEA6C0C03FB0CF3DBB2D4
:104D00000093A7F12000C7B2002556E00C2C07D174
:104D100007EB47002B4901EB800010F8059013E0EA
:104D2000102C05D1284800EB071010F805900BE077
:104D3000182C07D107EBC700244901EB800010F8BD
:104D4000059001E0BDE8F88F4FF0000A2FE009F070
:104D5000800030B11E48028831464046FCF758F9C1
:104D600007E00A9828B91B48028831464046FCF7FC
:104D70004FF94FEA49604FEA1069701C86B2164835
:104D80004088B04200DCDDE7A6EB0B00A0420AD170
:104D90005E4608F101001FFA80F80F480088404580
:104DA00000DCCFE706E00AF1010000F0FF0ABAF1EB
:104DB000080FCCDB00BF681CC5B200988542A5DB9C
:104DC00000BFBFE724880008988C0008889200087C
:104DD0001000002012000020540000202DE9F847A8
:104DE00004460D4690469946DDE9096704F0FF0A3E
:104DF00008EB04001FFA80F809EB05001FFA80F9A0
:104E000016E0444502DB5446A81985B24D4500DB47
:104E100014E0002000903A78334629462046FFF7F8
:104E200049FF304606EBD07104EB61018CB27F1C68
:104E300038787E2802DC38782028E2DA00BFBDE826
:104E4000F88700000CB51F209749088097A0102113
:104E50000B46C822CDE90010AA211E20FFF7BEFF95
:104E600095A010210B46C822CDE9001011461E2046
:104E7000FFF7B4FF96A010210B46C822CDE9001021
:104E8000DC211E20FFF7AAFF97A010210B46C822A5
:104E9000CDE90010F0211E20FFF7A0FF98A01021FF
:104EA0000B46C822CDE900101146E620FFF796FF19
:104EB00099A010210B46C822CDE90010DC21E62084
:104EC000FFF78CFF9AA010210B46C822CDE90010F5
:104ED000F021E620FFF782FF9BA010210B46C8229D
:104EE000CDE900104FF48271E620FFF777FF98A01C
:104EF00010210B46C822CDE900104FF48C71E6203A
:104F0000FFF76CFF94A010210B46C822CDE90010DA
:104F10004FF49671E620FFF761FF91A010210B4638
:104F2000C822CDE900104FF482711E20FFF756FF12
:104F300090A010210B46C822CDE900104FF48C71CF
:104F40001E20FFF74BFF8DA010210B46C822CDE994
:104F500000104FF496711E20FFF740FF89A010212A
:104F60000B46C822CDE900104FF4A0711E20FFF7B8
:104F700035FF85A010210B46C822CDE900104FF463
:104F8000AA711E20FFF72AFF80A010210B46C8221D
:104F9000CDE900104FF4B4711E20FFF71FFF7CA075
:104FA00010210B46C822CDE900104FF4BE711E201F
:104FB000FFF714FF78A010210B46C822CDE900109E
:104FC0004FF4E1711E20FFF709FF78A010210B4676
:104FD000C822CDE900104FF4EB711E20FFF7FEFE52
:104FE00075A010210B46C822CDE900104FF4F571D1
:104FF0001E20FFF7F3FE74A010210B46C822CDE956
:1050000000104FF4FF711E20FFF7E8FE71A0102181
:105010000B46C822CDE9001040F212211E20FFF7F6
:10502000DDFE6EA010210B46C822CDE9001040F233
:1050300026211E20FFF7D2FE6AA010210B46C822AF
:10504000CDE9001040F23A211E20FFF7C7FE67A00D
:1050500010210B46C822CDE900104FF4A071E620C4
:10506000FFF7BCFE63A010210B46C822CDE900105B
:105070004FF4AA71E620FFF7B1FE5FA010210B46A6
:10508000C822CDE900104FF4B471E620FFF7A6FE68
:105090005BA010210B46C822CDE900105100E6208C
:1050A000FFF79CFE0CBD00001000002055504C4F37
:1050B0004144204F4E20000056313A20202020202D
:1050C000202020202020202020206D2F7300000091
:1050D00056323A202020202020202020202020206E
:1050E00020206D2F7300000056333A20202020200E
:1050F000202020202020202020206D2F7300000061
:105100004C434A313A2020202020202020202020FB
:1051100020202020202000004C434A323A2020202A
:1051200020202020202020202020202020200000BF
:105130004C434A333A2020202020202020202020C9
:10514000202020202020000070776D313A000000E0
:1051500070776D323A00000070776D333A000000CE
:1051600020596177203A2020202020202020202054
:10517000430000002076782000000000207679208F
:105180000000000020772000205820002059200037
:1051900020546865746120004578706C6F72657288
:1051A0002053544D333246340000000052454D4FD9
:1051B000544520544553540041544F4D40414C49AF
:1051C000454E54454B000000323031342F352F37D7
:1051D000000000004B455956414C3A004B4559439D
:1051E0004E543A0053594D424F4C3A006368656E35
:1051F00067787500716975006368616E676469003E
:105200002020202020202020000000003CB5002489
:1052100000257E48D0ED060AB0EE600AB5EEC00A61
:10522000F1EE10FA0DD2F1EE400AB0EE600A002065
:1052300010232D224FF48C7100903C20FFF73AFD93
:1052400008E00020102320224FF48C7100903C20B5
:10525000FFF730FDFCEEC00A10EE900A84B200EEBB
:10526000904AF8EE600A70EE600A9FED691A60EEEF
:10527000810AFCEEE00A10EE900A85B200201021AF
:1052800003232246CDE900104FF48C715A2000F020
:105290003BFC002010232E224FF48C7100907320D1
:1052A000FFF708FD0020102103232A46CDE9001056
:1052B0004FF48C717E2000F027FC5448D0ED070A93
:1052C000B0EE600AB5EEC00AF1EE10FA0DD2F1EEC2
:1052D000400AB0EE600A002010232D224FF4967190
:1052E00000903C20FFF7E6FC08E00020102320227D
:1052F0004FF4967100903C20FFF7DCFCFCEEC00AF6
:1053000010EE900A84B200EE904AF8EE600A70EE59
:10531000600A9FED3F1A60EE810AFCEEE00A10EE93
:10532000900A85B20020102103232246CDE9001007
:105330004FF496715A2000F0E7FB002010232E2234
:105340004FF4967100907320FFF7B4FC00201021F9
:1053500003232A46CDE900104FF496717E2000F019
:10536000D3FB2A48D0ED080AB0EE600AB5EEC00AB9
:10537000F1EE10FA0DD2F1EE400AB0EE600A002014
:1053800010232D224FF4A07100903C20FFF792FCD7
:1053900008E00020102320224FF4A07100903C2050
:1053A000FFF788FCFCEEC00A10EE900A84B200EE13
:1053B000904AF8EE600A70EE600A9FED151A60EEF2
:1053C000810AFCEEE00A10EE900A85B2002010215E
:1053D00003232246CDE900104FF4A0715A2000F0BB
:1053E00093FB002010232E224FF4A0710090732015
:1053F000FFF760FC0020102103232A46CDE90010AE
:105400004FF4A0717E2000F07FFB3CBDBC02002069
:1054100000007A443CB5002500248BE0474800EBAF
:105420008400D0ED000AB0EE600AB5EEC00AF1EEDD
:1054300010FA28D2F1EE400AB0EE600A24B1012C35
:105440000CD0022C1ED113E0002010232D22C821E5
:1054500000904FF48770FFF72DFC13E0002010231D
:105460002D22DC2100904FF48770FFF723FC09E028
:10547000002010232D22F02100904FF48770FFF7B9
:1054800019FC00BF24E024B1012C0CD0022C1ED149
:1054900013E0002010232022C82100904FF48770D1
:1054A000FFF708FC13E0002010232022DC210090ED
:1054B0004FF48770FFF7FEFB09E000201023202245
:1054C000F02100904FF48770FFF7F4FB00BF00BF9E
:1054D000FCEEC00A10EE900A85B224B1012C0ED069
:1054E000022C24D117E0002010210A232A46CDE9FE
:1054F0000010C8214FF4917000F006FB17E0002067
:1055000010210A232A46CDE90010DC214FF49170C6
:1055100000F0FAFA0BE0002010210A232A46CDE918
:105520000010F0214FF4917000F0EEFA00BF00BFC0
:10553000601CC4B2032C7FF771AF3CBDE0020020B9
:105540003CB5002400257E48D0ED000AB0EE600A8C
:10555000B5EEC00AF1EE10FA0DD2F1EE400AB0EE4F
:10556000600A002010232D224FF4AA7100906420BD
:10557000FFF7A0FB08E00020102320224FF4AA71BF
:1055800000906420FFF796FBFCEEC00A10EE900A34
:1055900084B200EE904AF8EE600A70EE600A9FED69
:1055A000691A60EE810AFCEEE00A10EE900A85B2FC
:1055B0000020102103232246CDE900104FF4AA71E8
:1055C000822000F0A1FA002010232E224FF4AA71AD
:1055D00000909B20FFF76EFB0020102103232A463A
:1055E000CDE900104FF4AA71A62000F08DFA5448BE
:1055F000D0ED010AB0EE600AB5EEC00AF1EE10FA85
:105600000CD2F1EE400AB0EE600A002010232D22E9
:10561000D10000906420FFF74DFB08E0002010232C
:1056200020224FF4B47100906420FFF743FBFCEE9E
:10563000C00A10EE900A84B200EE904AF8EE600ABA
:1056400070EE600A9FED3F1A60EE810AFCEEE00A00
:1056500010EE900A85B20020102103232246CDE9E6
:1056600000104FF4B471822000F04EFA0020102395
:105670002E224FF4B47100909B20FFF71BFB0020FB
:10568000102103232A46CDE900104FF4B471A6205F
:1056900000F03AFA2A48D0ED040AB0EE600AB5EEFE
:1056A000C00AF1EE10FA0DD2F1EE400AB0EE600A37
:1056B000002010232D224FF4BE7100906420FFF7CC
:1056C000F9FA08E00020102320224FF4BE71009068
:1056D0006420FFF7EFFAFCEEC00A10EE900A84B2E5
:1056E00000EE904AF8EE600A70EE600A9FED151A1F
:1056F00060EE810AFCEEE00A10EE900A85B200200E
:10570000102103232246CDE900104FF4BE71822000
:1057100000F0FAF9002010232E224FF4BE71009001
:105720009B20FFF7C7FA0020102103232A46CDE96A
:1057300000104FF4BE71A62000F0E6F93CBD000059
:10574000BC02002000007A4430B52DED028B83B0FE
:10575000002400257F4890ED020AB0EE408AB5EEA5
:10576000C08AF1EE10FA0DD2B1EE480AB0EE408ACE
:10577000002010232D224FF4077100906420FFF7C2
:1057800099FA08E00020102320224FF407710090BE
:105790006420FFF78FFABCEEC80A10EE100A84B23C
:1057A00000EE104AB8EE400A38EE400ADFED6A0A11
:1057B00020EE200ABCEEC00A10EE100A85B20020CE
:1057C000102103232246CDE900104FF407718220F7
:1057D00000F09AF9002010232E2240F24E21009072
:1057E0009B20FFF767FA0020102103232A46CDE90A
:1057F000001040F24E21A62000F086F9554890EDA9
:10580000030AB0EE408AB5EEC08AF1EE10FA0DD26E
:10581000B1EE480AB0EE408A002010232D2240F25B
:10582000622100906420FFF745FA08E00020102371
:10583000202240F2622100906420FFF73BFABCEE88
:10584000C80A10EE100A84B200EE104AB8EE400A00
:1058500038EE400ADFED400A20EE200ABCEEC00A16
:1058600010EE100A85B20020102103232246CDE954
:10587000001040F26221822000F046F9002010233F
:105880002E2240F2622100909B20FFF713FA0020A5
:10589000102103232A46CDE9001040F26221A62000
:1058A00000F032F92B4890ED040AB0EE408AB5EED4
:1058B000C08AF1EE10FA0DD2B1EE480AB0EE408A7D
:1058C000002010232D2240F2762100906420FFF763
:1058D000F1F908E000201023202240F27621009008
:1058E0006420FFF7E7F9BCEEC80A10EE100A84B294
:1058F00000EE104AB8EE400A38EE400ADFED160A14
:1059000020EE200ABCEEC00A10EE100A85B200207C
:10591000102103232246CDE9001040F27621822097
:1059200000F0F2F8002010232E2240F276210090A1
:105930009B20FFF7BFF90020102103232A46CDE961
:10594000001040F27621A62000F0DEF803B0BDEC96
:10595000028B30BDBC02002000007A447CB50025DB
:1059600000260024C7E0664800EB8400D0ED000A62
:10597000B0EE600AB5EEC00AF1EE10FA25D2F1EEF3
:10598000400AB0EE600A24B1012C0BD0022C1BD1CE
:1059900011E0002010232D22C82100903C20FFF7A9
:1059A00089F911E0002010232D22DC2100903C20F9
:1059B000FFF780F908E0002010232D22F02100904D
:1059C0003C20FFF777F900BF21E024B1012C0BD078
:1059D000022C1BD111E0002010232022C8210090AE
:1059E0003C20FFF767F911E0002010232022DC2182
:1059F00000903C20FFF75EF908E0002010232022F1
:105A0000F02100903C20FFF755F900BF00BFFCEEED
:105A1000C00A10EE900A85B200EE905AF8EE600AC5
:105A200070EE600A9FED371A60EE810AFCEEE00A24
:105A300010EE900A86B224B1012C1FD0022C57D14F
:105A400039E00020102103232A46CDE90010C821A7
:105A50005A2000F059F8002010232E22C82100906F
:105A60007320FFF727F90020102103233246CDE9E8
:105A70000010C8217E2000F047F839E000201021F6
:105A800003232A46CDE90010DC215A2000F03CF81F
:105A9000002010232E22DC2100907320FFF70AF94A
:105AA0000020102103233246CDE90010DC217E20A6
:105AB00000F02AF81CE00020102103232A46CDE93B
:105AC0000010F0215A2000F01FF8002010232E2291
:105AD000F02100907320FFF7EDF800201021032340
