:020000040800F2
:10000000F00400209D010008495800084D10000828
:1000100045580008890900088569000800000000AB
:10002000000000000000000000000000395B000834
:10003000B50A0008000000000F590008415D0008E3
:10004000B7010008B7010008B7010008B7010008B0
:10005000B7010008B7010008B7010008B7010008A0
:10006000B7010008B7010008B7010008B701000890
:10007000B7010008B7010008B7010008B701000880
:10008000B7010008B7010008B7010008B701000870
:10009000B7010008B7010008B7010008B701000860
:1000A000B7010008E55E0008B7010008AD5D000873
:1000B0005D5F0008B7010008B7010008B70100083C
:1000C000B7010008B7010008B7010008B701000830
:1000D000B7010008156800081768000819680008CB
:1000E000B7010008B7010008B7010008B701000810
:1000F000B7010008B7010008B7010008B701000800
:10010000B7010008B7010008B7010008B7010008EF
:10011000B7010008B7010008B7010008B7010008DF
:10012000B7010008B7010008B7010008B7010008CF
:10013000B7010008B7010008B7010008B7010008BF
:10014000B7010008B7010008B7010008B7010008AF
:10015000B7010008B7010008B7010008B70100089F
:10016000B7010008B7010008B7010008B70100088F
:10017000B7010008B7010008B7010008B70100087F
:10018000B7010008B7010008DFF80CD000F038FA1A
:100190000048004715780008F00400200648804712
:1001A00006480047FEE7FEE7FEE7FEE7FEE7FEE75C
:1001B000FEE7FEE7FEE7FEE7455D0008890100086F
:1001C00000F0004230F000400AD0C10D01F560712E
:1001D000C0F3160042EA0151C208400711437047BC
:1001E00000200146704701F0004330B421F0004187
:1001F00050EA010206D00A0DA2F56072C1F31301A4
:10020000002A02DC30BC00207047440F44EAC104DD
:10021000C100E01830BC00EBC25000F031B82DE94D
:10022000F05F0546002092469B468846064681467A
:1002300040241BE0284641464746224600F001FA8A
:1002400053465A46C01A914110D3114618462246C9
:1002500000F0E8F92D1A67EB01084F46224601200D
:10026000002100F0DFF917EB00094E41201EA4F138
:100270000104DFDC484631462A464346BDE8F09F8C
:100280000029A8BF7047401C490008BF20F00100AA
:10029000704710B4B0FA80FC00FA0CF050EA010488
:1002A00004BF10BC704749B1CCF1200421FA04F41A
:1002B00011FA0CF118BF012121430843A3EB0C01F3
:1002C000CB1D4FEA00614FEA102042BF002010BC56
:1002D000704700EBC35010440029A4BF10BC704706
:1002E000401C490008BF20F0010010BC70472DE9F8
:1002F000FE4F804681EA0300C00F0C46009021F0BB
:10030000004123F00045B8EB0200A94105D2404668
:10031000214690461C460B46024623F000401043FF
:1003200047D0270DC7F30A00C3F30A510290401AC1
:10033000019040286BDAC3F3130040F4801B00984F
:10034000924620B10023D2EB030A63EB0B0B01981A
:100350005946C0F14002504600F064F906460D4689
:1003600050465946019A00F07CF910EB08006141B3
:10037000002487EA115284EAE7731A4340D0009AB6
:1003800062B3019A012A4FEA075215DC001B61EBA8
:1003900002014FF0004202EA0752CDE90042001C80
:1003A00041F5801132462B4600F07CF903B0BDE8E0
:1003B000F08F40462146F9E7001B61EB0201001C6B
:1003C00041F5801300185B412018A2F5001747EB98
:1003D000030140EAD570B6196D4111E06D084FEA8E
:1003E000360645EAC0754FEA0752001B61EB020171
:1003F000001C41F5801149084FEA300000195141B5
:1004000032462B4603B0BDE8F04F00F03CB90098EF
:10041000012240000023D0EB020263EBE07300985E
:1004200021464FEAE074B8EB000061EB0401E9E714
:1004300083F000435BE781F0004158E72DE9FE4F70
:1004400081EA030404F0004421F0004100944FF0DD
:10045000000B23F0004350EA01045ED052EA03048B
:100460005BD0C3F30A54C1F30A552C44A4F2F3340D
:100470000194A0FB0254C1F3130141F48011C3F3B2
:10048000130343F4801301FB024400FB034E840A70
:10049000970A44EA815447EA8357A4FB0768029508
:1004A0008D0A05FB07854FEA932C04FB0C542705A6
:1004B000029D4FEA065847EA1637B5EB08056EEB82
:1004C000070C870E920E47EA811742EA8312A7FBB8
:1004D0000201B6EB0B0164EB00042B0D43EA0C3375
:1004E0005E1844EB1C50DA465146E7FB0201C5F3A7
:1004F00013044FEA0B3343EA14534FEA0432019CCE
:1005000043EA0603A4F10C040294009CCDE900B474
:1005100000F0C8F803B0BDE8F08F00200146F9E70D
:100520002DE9F04D81EA030404F0004B21F0004571
:1005300014464FF0000A23F0004150EA050220D093
:1005400054EA01021DD0C5F30A570246C5F313034E
:10055000C1F31300C1F30A5640F4801543F480132D
:10056000A7EB0608101BD64608F2FD3873EB050012
:1005700002D308F1010801E092185B41B8F1000FC5
:1005800003DA00200146BDE8F08D00204FF4801111
:10059000064684460EE0171B73EB050705D3121BB6
:1005A00063EB050306434CEA010C49084FEA3000AF
:1005B00092185B4150EA0107EDD152EA030012D0D4
:1005C00082EA040083EA0501084305D0101BAB4111
:1005D00006D20122002306E000224FF0004302E091
:1005E0006FF0010253101AEB06004CEB085110EBB0
:1005F0000A0041EB0B01BDE8F04D00F044B80000EB
:10060000064C074D06E0E06840F0010394E807005F
:1006100098471034AC42F6D3FFF7BAFDB09100080A
:10062000D0910008202A04DB203A00FA02F10020D1
:1006300070479140C2F1200320FA03F31943904020
:100640007047202A04DB203A21FA02F0002170478B
:1006500021FA02F3D040C2F120029140084319462A
:100660007047202A06DBCB17203A41FA02F043EA12
:10067000E07306E041FA02F3D040C2F1200291405B
:1006800008431946704710B5141E73F1000408DAC8
:10069000401C41F1000192185B411A4301D120F046
:1006A000010010BD2DE9F04D92469B4611B1B1FA03
:1006B00081F202E0B0FA80F220329046FFF7B2FFFA
:1006C00004460F4640EA0A0041EA0B0153465A46E7
:1006D000084313D0114653EA010019D0C8F1400273
:1006E0005046FFF7AEFF05460E4650465946424675
:1006F000FFF798FF084305D0012004E02046394663
:10070000BDE8F08D0020054346EAE0762C433743F0
:100710000A986305E40AA0EB08000022FD0A44EAF7
:1007200047540A3002D500200146E9E701051019B7
:100730006941DDE9084500196941BDE8F04DA2E7CE
:100740000EB5C10F80EAE0700844CA07002140F2EC
:1007500033438DE80E000A460B46FFF7A3FF03B0B4
:1007600000BD0EB540F2334102910021CDE90011E8
:100770000A460B46FFF796FF03B000BD70B5C1F304
:100780000A5201F000450024C1F3130140F2FF3387
:1007900041F480119A4201DA002070BD40F23343E7
:1007A0009A42A2F2334203DC5242FFF74AFF00E0D2
:1007B00090402C43F1D0404270BD10B504F0FCFFD6
:1007C00000F0C2F800F0E2F805F088FA05F014F83D
:1007D00000F066FC10BD0000F0EE400A9FED4F1ADD
:1007E000B0EE410AF5EEC00AF1EE10FA09DD9FED18
:1007F0004C1AF4EEC10AF1EE10FA02D2B0EE600A21
:1008000055E0F5EEC00AF1EE10FA11DD9FED441A45
:10081000F4EEC10AF1EE10FA0ADB9FED421A31EE56
:10082000601AF0EE410AB1EE601AB0EE410A3EE005
:10083000F5EEC00AF1EE10FA0FD29FED3B1AF4EE7E
:10084000C10AF1EE10FA08DBB1EE601AF0EE410ACF
:10085000B1EE601AB0EE410A29E0F5EEC00AF1EE01
:1008600010FA0FD29FED301AF4EEC10AF1EE10FA31
:1008700008D29FED2C1A30EE811AF0EE410AB0EE4C
:10088000600A14E09FED291AF4EEC10AF1EE10FAA5
:100890000DD2B5EEC00AF1EE10FA04DD9FED241A78
:1008A000B0EE410A03E09FED231AB0EE410AB3EE29
:1008B0000E1AF4EEC10AF1EE10FA0FD2B3EE0E1AD0
:1008C000B4EEC10AF1EE10FA04DD9FED1B1AB0EE92
:1008D000410A03E09FED191AB0EE410AB1EE041A85
:1008E000F4EEC10AF1EE10FA0DD2B5EEC00AF1EE47
:1008F00010FA04DD9FED121AB0EE410A03E09FEDFD
:10090000111AB0EE410AF5EEC00AF1EE10FA03D169
:100910009FED021AB0EE410A70470000000000008F
:10092000000034430000B443000034C300007042B0
:1009300000007A4400007AC400004843000048C325
:1009400000002042000020C21CB50121082004F054
:10095000DFFF4020009001208DF8040000208DF87A
:10096000060003208DF8050002208DF80700694677
:10097000044800F0BEF94FF48071024800F024FAF8
:100980001CBD0000000C024000BFFEE71CB50121A9
:10099000402004F0BDFF4020009001208DF80400AD
:1009A00000208DF8060003208DF8050001208DF849
:1009B00007006946034800F09CF94021014800F017
:1009C00003FA1CBD0018024010B59FED360A3648E8
:1009D00080ED000A9FED330A80ED010A9FED310A98
:1009E00080ED020A9FED2F0A80ED020A9FED2D0A8D
:1009F00080ED040A9FED2B0A80ED050A9FED290A80
:100A000080ED060A9FED270A80ED070A9FED250A73
:100A100080ED080A9FED230A80ED090A9FED210A67
:100A200080ED0A0A9FED1F0A80ED0B0A9FED1D0A5B
:100A300080ED0C0A9FED1B0A80ED0E0A9FED190A4E
:100A400080ED0F0A9FED170A80ED0D0A9FED150A44
:100A500080ED110A9FED130A80ED120A9FED110A35
:100A600080ED100A9FED0F0A80ED160A9FED0D0A2A
:100A700080ED170A00200D49C86188610C49886122
:100A8000C8619FED081ADFED070A9FED060A05F021
:100A900075F8002006F0F6FE00F0DAFA00F0D8FA59
:100AA00010BD00000000000048000020A800002049
:100AB000CC00002070470EB50121880304F058FFD8
:100AC0000021022005F03AF80121022005F036F855
:100AD0000120009000208DF8040008208DF805000A
:100AE00000208DF80600684600F02CF802200090E7
:100AF00000208DF8040008208DF8050000208DF8F6
:100B00000600684600F01EF806208DF80800002058
:100B10008DF8090001208DF80A008DF80B0002A85D
:100B200004F094FE07208DF8080000208DF80900DD
:100B30008DF80A0001208DF80B0002A804F086FE53
:100B40000EBD0000002123498279002A3AD00A46CE
:100B5000126803689A430B461A600A1D12680368FC
:100B60009A430B1D1A60027911440A6803681A43FC
:100B70000A60184A0832126803689A43154B083312
:100B80001A601A1D126803689A43124B0C331A60DC
:100B90004279102A0ED11A1F126803681A430D4BAE
:100BA00008331A601A1D126803681A43094B0C3384
:100BB0001A600DE00749427911440A6803681A4334
:100BC0000A6005E0027911440A6803689A430A60E2
:100BD00070470000003C014051B18200A2F1C042C8
:100BE000126842F001038200A2F1C042136009E0E2
:100BF0008200A2F1C0421268034B1A408300A3F1A5
:100C0000C0431A6070470000FEFF0F00D0E90112D8
:100C10001143C26811430269114342691143826959
:100C20001143C2691143026A1143426A1143826A45
:100C30001143C26A1143026B114302689200A2F190
:100C4000C0421160816808290BD101688900A1F1B7
:100C5000C041096841F0400201688900A1F1C0412A
:100C60000A60416B0968426B526841EA0211426BAB
:100C7000926841EA0221426B928941EA0241426B49
:100C8000128A41EA0251426B127D41EA0261426BD3
:100C9000926911430268521C9200A2F1C042116095
:100CA000C16AB1F5804F1BD1816B0968826B5268B4
:100CB00041EA0211826B926841EA0221826B128A38
:100CC00041EA0251826B127D41EA0261826B9269B4
:100CD000114302689200A2F1C042C2F8041107E079
:100CE0006FF0704201688900A1F1C041C1F8042190
:100CF0007047F0B50A4600210023002400BF3DE004
:100D0000012505FA01F3156805EA03049C4234D174
:100D100005684F000326BE40B543056015794E00B7
:100D2000B5400668354305601579012D02D0157967
:100D3000022D16D185684F000326BE40B54385605D
:100D400055794E00B5408668354385604568012673
:100D50008E40B5434560456896798E40B6B23543BE
:100D60004560C5684F000326BE40B543C560D579D0
:100D70004E00B540C6683543C560491C1029BFD335
:100D8000F0BDF0B5002300244D07ED0E02FA05F387
:100D9000CE1000F1200555F826504E07F70E0F260D
:100DA000BE40B543CF1000F1200646F82750CE10C4
:100DB00000F1200555F8265045EA0304CE1000F155
:100DC000200545F82640F0BD4183704701837047F8
:100DD00070B52DED0A8B9EB0B0EE408AF0EE608AC1
:100DE000B0EE419AB6EE000A8DED150A9FED920A1B
:100DF0008DED160A9FED910A8DED170ABFEE000AE0
:100E00008DED180A9FED8E0A8DED190A9FED8B0A64
:100E10008DED1A0AB6EE000A8DED1B0A9FED890AC8
:100E20008DED1C0A9FED850A8DED1D0A864890ED1B
:100E3000020A10EE101A0846FFF7C2F941EC1B0B2C
:100E4000B0EE4B0AF0EE6B0A05F0F2FDB0EE40AAF0
:100E5000F0EE60AA51EC1A0BFFF7C5F90C907A4836
:100E600090ED020A10EE101A0846FFF7A9F941ECBE
:100E70001B0BB0EE4B0AF0EE6B0A05F03DFEB0EE38
:100E800040AAF0EE60AA51EC1A0BFFF7ACF90D90F6
:100E90009FED6B0A8DED0E0A6B4890ED020A10EE85
:100EA000101A0846FFF78CF941EC1C0BB0EE4C0A07
:100EB000F0EE6C0A05F020FEB0EE40BAF0EE60BA3B
:100EC00051EC1B0B81F0004141EC1A0BFFF78BF941
:100ED0000F905D4890ED020A10EE101A0846FFF7D9
:100EE0006FF941EC1B0BB0EE4B0AF0EE6B0A05F00C
:100EF0009FFDB0EE40AAF0EE60AA51EC1A0BFFF78E
:100F000072F910909FED4E0A8DED110A9FED4C0A7B
:100F10008DED120A9FED4A0A8DED130AB7EE000A15
:100F20008DED140AB1EE480AF2EE040A20EE200A12
:100F30008DED090AB1EE680A8DED0A0AB1EE490A93
:100F40008DED0B0A00243EE0002538E09FED3C0AC1
:100F500004EB4400694601EB800000EB850080ED66
:100F6000000A002627E004EB4400694601EB8000FC
:100F700000EB850090ED000A04EB440015A901EB9D
:100F8000800000EB8600D0ED000A06EB46000CA9BD
:100F900001EB800000EB850090ED001A00EE810A65
:100FA00004EB4400694601EB800000EB850080ED16
:100FB000000A701CC6B2032ED5DB681CC5B2032D17
:100FC000C4DB601CC4B2032CBEDB00242BE09FED0D
:100FD0001C0A1D484C3000EB840080ED000A0025FF
:100FE0001DE004EB4400694601EB800000EB850046
:100FF000D0ED000A09A800EB850090ED001A124818
:101000004C3000EB840090ED000A00EE810A0E489F
:101010004C3000EB840080ED000A681CC5B2032D43
:10102000DFDB601CC4B2032CD1DB04F03DFA1EB040
:10103000BDEC0A8B70BD0000D7B35D3F96214EBE5C
:1010400000000000D7B35DBF4800002000BFFEE7EE
:1010500010B5FF21114805F091FC00BF40210F4859
:1010600005F0F0FB0128F9D1AA210C4805F086FC17
:1010700000BF4021094805F0E5FB0128F9D15221C4
:10108000064805F07BFC00BF4021044805F0DAFB70
:101090000128F9D10A2006F03BFB10BD00440040B6
:1010A0001CB50121042004F033FC04200090002032
:1010B0008DF8040003208DF8050001208DF807004D
:1010C00069460248FFF715FE1CBD000000080240FB
:1010D00070B50446002617480588408845431548E2
:1010E000808846F60401884216D11248807901288A
:1010F00012D100200F4988712A2048812B20888135
:101100000021084603F09EFE01200A4988712B2029
:1011100048812A20888103E00021084603F092FEDE
:1011200004F032FB002602E003480480761CAE4245
:10113000FAD370BD380000208000006C10B5044662
:10114000002C52D158498871F02008804FF4A070CB
:1011500048800846808849F2413188420BD0524885
:10116000808846F60401884205D04F48808845F2C1
:10117000103188421AD12C204B4908812A204881FD
:101180002B2088810846808846F60401884205D0D5
:101190004548808845F21031884206D14FF4A0704E
:1011A000414908804FF4F070488079E03E488088DB
:1011B00045F21051884210D14FF430503A4908811D
:1011C0004FF4285048814FF42C5088814FF4F07030
:1011D00008804FF44870488062E02220324908813C
:1011E00020204881212088815AE001202E498871E1
:1011F0004FF4A0700880F02048800846808849F2AB
:101200004131884205D02848808845F21031884213
:1012100007D12C20244908812A2048812B2088814D
:101220002BE02148808846F60401884207D12C2013
:101230001D4908812B2048812A2088811DE01A48F9
:10124000808845F21051884210D14FF43050164931
:1012500008814FF4285048814FF42C5088814FF476
:10126000487008804FF4F070488006E022200E4954
:10127000088121204881202088810B48808846F6FB
:101280000401884205D00848808845F21031884220
:1012900006D14FF4F070044908804FF4A0704880E4
:1012A000002003F079FC10BD3800002070B5044622
:1012B0000D4616464348808849F24131884205D0A0
:1012C0004048808845F21031884214D13D49488910
:1012D00004F04EFA201204F03FFAE0B204F03CFAB7
:1012E0003849888904F044FA281204F035FAE8B243
:1012F00004F032FA5DE03348808845F210518842AC
:1013000020D13049488904F033FA201204F024FA3D
:101310002C494989491C88B204F02AFAE0B204F049
:101320001BFA2849888904F023FA281204F014FAD9
:1013300024498989491C88B204F01AFAE8B204F0F9
:101340000BFA36E01F48808846F6040188421DD11A
:101350001C488079012804D11A480088401E001BCF
:1013600084B21849488904F003FA201204F0F4F911
:10137000E0B204F0F1F91349888904F0F9F9281270
:1013800004F0EAF9E8B204F0E7F912E00D488079D8
:10139000012804D10B480088401E001B84B2094973
:1013A0004889214604F0FAF906498889294604F05B
:1013B000F5F904480089044908804FF0D840A0F8A6
:1013C000806070BD380000207E00006C00B5A1B0C8
:1013D0000020209001217A2004F09AFA0121084689
:1013E00004F0A6FA4FF400401E9001208DF87C0016
:1013F00000208DF87E0002208DF87D0001208DF800
:101400007F001EA9FE48FFF774FC4CF233701E905B
:1014100002208DF87C0000208DF87E0003208DF8DE
:101420007D0001208DF87F001EA9F648FFF761FCC2
:101430004FF680701E9002208DF87C0000208DF801
:101440007E0003208DF87D0001208DF87F001EA90D
:10145000ED48FFF74EFC4FF480501E9002208DF8AF
:101460007C0000208DF87E0003208DF87D00012097
:101470008DF87F001EA9E548FFF73BFC4FF4805034
:101480001E9002208DF87C0000208DF87E00032045
:101490008DF87D0001208DF87F001EA9DC48FFF744
:1014A00028FC0C220021D748FFF76BFC0C220121FD
:1014B000D448FFF766FC0C220421D248FFF761FCF8
:1014C0000C220521CF48FFF75CFC0C220821CD48F7
:1014D000FFF757FC0C220921CA48FFF752FC0C22E7
:1014E0000A21C848FFF74DFC0C220E21C548FFF722
:1014F00048FC0C220F21C348FFF743FC0C220721B4
:10150000C148FFF73EFC0C220821BF48FFF739FC19
:101510000C220921BC48FFF734FC0C220A21BA48EE
:10152000FFF72FFC0C220B21B748FFF72AFC0C22F7
:101530001146B548FFF725FC0C220D21B248FFF7F4
:1015400020FC0C220E21B048FFF71BFC0C220F21BF
:10155000AD48FFF716FC0C221146AC48FFF711FC12
:101560000C221146AA48FFF70CFC0F20089000201F
:1015700009903C200A9000200B900C900D900E904A
:101580000920019000200290082003900020049080
:1015900005900690079006200F9000201090119063
:1015A0001020129000201390159014901690179010
:1015B0004FF480501890002019904FF480401A90FA
:1015C00000201B9008A81C9001A81D900FA8FFF7F1
:1015D0001DFB01210620FFF7FFFA322006F098F8E4
:1015E0000121002004F0DAF8322006F091F8002002
:1015F00003F0C6FA8749888008468088FF280ADBFE
:10160000084680884FF6FF71884204D08148808860
:10161000B0F5134F7ED1D32004F0AAF803F0A6FA58
:101620007C49888003F0A2FA7A49888003F09EFA08
:1016300078498880084680884FF6FF7101EA0020CB
:101640007449888003F092FA724989880843714985
:1016500088800846808849F24131884278D0BF208E
:1016600004F086F803F082FA6A49888003F07EFA73
:101670006849888003F07AFA6649888003F076FA30
:1016800064498880084680884FF6FF7101EA00208F
:101690006049888003F06AFA5E49898808435D4999
:1016A00088800846808846F60401884250D0D420BD
:1016B00004F05EF803F05AFA5649888003F056FAAF
:1016C0005449888003F052FA52498880084680883D
:1016D0004FF6FF7101EA00204E49888003F046FA78
:1016E0004C49898808434B4988800846808845F2E0
:1016F000103188422CD04FF45A4004F039F803F0EE
:1017000035FA444988804FF45B4004F031F803F027
:101710002DFA00E01CE03F498880084680884FF69B
:10172000FF7101EA00203B4988804FF45C4004F0DF
:101730001FF803F01BFA3749898808433549888028
:1017400008468088B0F5004F02D145F210508880DD
:101750003048808849F2413188420BD02D4880883A
:1017600045F21031884205D02A48808845F2105150
:1017700088421DD12848006820F00F004FF020411A
:10178000C1F81C010846D0F81C0120F47060C1F8B3
:101790001C010846D0F81C0140F00300C1F81C01F0
:1017A0000846D0F81C0140F40070C1F81C0137E075
:1017B0001848808846F60401884205D0154880887C
:1017C0004CF2055188422BD11348006820F00F00DD
:1017D0004FF02041C1F81C010846D0F81C0120F44C
:1017E0007060C1F81C010846D0F81C0140F00A00E6
:1017F000C1F81C010846D0F81C0140F440600DE01F
:1018000000040240000C024000100240001402409C
:1018100000180240380000201C0100A0C1F81C0183
:10182000FE488188FEA005F0D9F8FC48808849F27E
:10183000413188427ED1CF2003F09AFF002003F08F
:101840008BFF2098401C2090C12003F085FF3020A2
:1018500003F082FFED2003F08BFF642003F07CFF98
:10186000032003F079FF122003F076FF812003F0BC
:1018700073FFE82003F07CFF852003F06DFF10204C
:1018800003F06AFF7A2003F067FFCB2003F070FFBC
:10189000392003F061FF2C2003F05EFF002003F0ED
:1018A0005BFF342003F058FF022003F055FFF720C0
:1018B00003F05EFF202003F04FFFEA2003F058FF03
:1018C000002003F049FF002003F046FFC02003F092
:1018D0004FFF1B2003F040FFC12003F049FF012010
:1018E00003F03AFFC52003F043FF302003F034FF3C
:1018F000302003F031FFC72003F03AFFB72003F098
:101900002BFF362003F034FF482003F025FF3A2058
:1019100003F02EFF552003F01FFFB12003F028FF36
:10192000002003F019FF1A2003F016FFB62003F081
:101930001FFF00E09AE00A2003F00EFFA22003F050
:101940000BFFF22003F014FF002003F005FF262018
:1019500003F00EFF012003F0FFFEE02003F008FF7C
:101960000F2003F0F9FE2A2003F0F6FE282003F0F2
:10197000F3FE082003F0F0FE0E2003F0EDFE082039
:1019800003F0EAFE542003F0E7FEA92003F0E4FE92
:10199000432003F0E1FE0A2003F0DEFE0F2003F0F7
:1019A000DBFE002003F0D8FE002003F0D5FE00206F
:1019B00003F0D2FE002003F0CFFEE12003F0D8FEBA
:1019C000002003F0C9FE152003F0C6FE172003F027
:1019D000C3FE072003F0C0FE112003F0BDFE062069
:1019E00003F0BAFE2B2003F0B7FE562003F0B4FE3E
:1019F0003C2003F0B1FE052003F0AEFE102003F002
:101A0000ABFE0F2003F0A8FE3F2003F0A5FE3F2011
:101A100003F0A2FE0F2003F09FFE2B2003F0A8FE90
:101A2000002003F099FE002003F096FE012003F051
:101A300093FE3F2003F090FE2A2003F099FE002041
:101A400003F08AFE002003F087FE002003F084FEEE
:101A5000EF2003F081FE112003F08AFE782005F0CC
:101A600057FE292003F084FE03F064B86B48808899
:101A700046F6040188427CD1112003F079FE14203F
:101A800005F046FED02003F073FE072003F064FE4D
:101A9000422003F061FE1D2003F05EFED12003F022
:101AA00067FE002003F058FE1A2003F055FE0920BF
:101AB00003F052FED22003F05BFE012003F04CFE47
:101AC000222003F049FEC02003F052FE102003F054
:101AD00043FE3B2003F040FE002003F03DFE0220C9
:101AE00003F03AFE112003F037FEC52003F040FE5C
:101AF000032003F031FEC82003F03AFE002003F07B
:101B00002BFE252003F028FE212003F025FE0520D2
:101B100003F022FE002003F01FFE0A2003F01CFE4B
:101B2000652003F019FE252003F016FE772003F050
:101B300013FE502003F010FE0F2003F00DFE0020D6
:101B400003F00AFEF82003F013FE012003F004FE68
:101B5000FE2003F00DFE002003F0FEFD022003F046
:101B6000FBFD202003F004FE362003F001FE0820D8
:101B700000E02CE003F0F0FD3A2003F0F9FD5520E1
:101B800003F0EAFD2B2003F0F3FD002003F0E4FD59
:101B9000002003F0E1FD012003F0DEFD3F2003F013
:101BA000DBFD2A2003F0E4FD002003F0D5FD00203A
:101BB00003F0D2FD012003F0CFFDDF2003F0CCFDC8
:101BC000782005F0A5FD292003F0D2FD4CE713484D
:101BD000808845F21031884240F08487ED2003F080
:101BE000C7FD012003F0B8FDFE2003F0B5FDEE2097
:101BF00003F0BEFDDE2003F0AFFD212003F0ACFDBD
:101C0000F12003F0B5FD012003F0A6FDDF2003F075
:101C1000AFFD102003F0A0FDC42009E03800002033
:101C2000204C43442049443A25780D0A0000000026
:101C300003F09EFD8F2003F08FFDC62003F098FD7A
:101C4000002003F089FDE22003F086FDE22003F08E
:101C500083FDE22003F080FDBF2003F089FDAA2070
:101C600003F07AFDB02003F083FD0D2003F074FD36
:101C7000002003F071FD0D2003F06EFD002003F045
:101C80006BFD112003F068FD002003F065FD1920B5
:101C900003F062FD002003F05FFD212003F05CFDF6
:101CA000002003F059FD2D2003F056FD002003F025
:101CB00053FD3D2003F050FD002003F04DFD5D205D
:101CC00003F04AFD002003F047FD5D2003F044FDD2
:101CD000002003F041FDB12003F04AFD802003F015
:101CE0003BFD002003F038FD8B2003F035FD002084
:101CF00003F032FD962003F02FFD002003F02CFDB1
:101D0000B22003F035FD002003F026FD002003F093
:101D100023FD022003F020FD002003F01DFD032021
:101D200003F01AFD002003F017FDB32003F020FD9F
:101D3000002003F011FD002003F00EFD002003F051
:101D40000BFD002003F008FD002003F005FD00203E
:101D500003F002FD002003F0FFFC002003F0FCFC78
:101D6000002003F0F9FC002003F0F6FC002003F053
:101D7000F3FC002003F0F0FC002003F0EDFC002059
:101D800003F0EAFC002003F0E7FC002003F0E4FC91
:101D9000002003F0E1FC002003F0DEFC002003F053
:101DA000DBFC002003F0D8FC002003F0D5FC002071
:101DB00003F0D2FC002003F0CFFC002003F0CCFCA9
:101DC000B42003F0D5FC8B2003F0C6FC002003F008
:101DD000C3FC962003F0C0FC002003F0BDFCA12052
:101DE00003F0BAFC002003F0B7FCB52003F0C0FC00
:101DF000022003F0B1FC002003F0AEFC032003F04E
:101E0000ABFC002003F0A8FC042003F0A5FC00209C
:101E100003F0A2FCB62003F0ABFC002003F09CFC16
:101E2000002003F099FCB72003F0A2FC002003F08F
:101E300093FC002003F090FC3F2003F08DFC002079
:101E400003F08AFC5E2003F087FC002003F084FC92
:101E5000642003F081FC002003F07EFC8C2003F062
:101E60007BFC002003F078FCAC2003F075FC002024
:101E700003F072FCDC2003F06FFC002003F06CFC2C
:101E8000702003F069FC002003F066FC902003F052
:101E900063FC002003F060FCEB2003F05DFC0020FD
:101EA00003F05AFCDC2003F057FC002003F054FC44
:101EB000B82003F05DFC002003F04EFC002003F08E
:101EC0004BFC002003F048FC002003F045FC002000
:101ED00003F042FC002003F03FFC002003F03CFC38
:101EE000002003F039FCBA2003F042FC242003F068
:101EF00033FC002003F030FC002003F02DFC002018
:101F000003F02AFCC12003F033FC202003F024FC62
:101F1000002003F021FC542003F01EFC002003F0FD
:101F20001BFCFF2003F018FC002003F015FCC2206E
:101F300003F01EFC0A2003F00FFC002003F00CFC51
:101F4000042003F009FC002003F006FCC32003F08A
:101F50000FFC3C2003F000FC002003F0FDFB3A20C6
:101F600003F0FAFB002003F0F7FB392003F0F4FB49
:101F7000002003F0F1FB372003F0EEFB002003F01C
:101F8000EBFB3C2003F0E8FB002003F0E5FB3620F0
:101F900003F0E2FB002003F0DFFB322003F0DCFB68
:101FA000002003F0D9FB2F2003F0D6FB002003F024
:101FB000D3FB2C2003F0D0FB002003F0CDFB292025
:101FC00003F0CAFB002003F0C7FB262003F0C4FB8C
:101FD000002003F0C1FB242003F0BEFB002003F02F
:101FE000BBFB242003F0B8FB002003F0B5FB23204B
:101FF00003F0B2FB002003F0AFFB3C2003F0ACFB8E
:10200000002003F0A9FB362003F0A6FB002003F01C
:10201000A3FB322003F0A0FB002003F09DFB2F2048
:1020200003F09AFB002003F097FB2C2003F094FBB5
:10203000002003F091FB292003F08EFB002003F029
:102040008BFB262003F088FB002003F085FB242077
:1020500003F082FB002003F07FFB242003F07CFBD5
:10206000002003F079FB232003F076FB002003F02F
:1020700073FBC42003F07CFB622003F06DFB0020A7
:1020800003F06AFB052003F067FB002003F064FB0C
:10209000842003F061FB002003F05EFBF02003F0DE
:1020A0005BFB002003F058FB182003F055FB0020D9
:1020B00003F052FBA42003F04FFB002003F04CFB85
:1020C000182003F049FB002003F046FB502003F0EA
:1020D00043FB002003F040FB0C2003F03DFB0020FD
:1020E00003F03AFB172003F037FB002003F034FB2A
:1020F000952003F031FB002003F02EFBF32003F0CA
:102100002BFB002003F028FBE62003F025FB00203A
:1021100003F022FBC52003F02BFB322003F01CFB55
:10212000002003F019FB442003F016FB002003F00D
:1021300013FB652003F010FB002003F00DFB76205D
:1021400003F00AFB002003F007FB882003F004FBE8
:10215000002003F001FBC62003F00AFB202003F05F
:10216000FBFA002003F0F8FA172003F0F5FA00203C
:1021700003F0F2FA012003F0EFFA002003F0ECFA8A
:10218000C72003F0F5FA002003F0E6FA002003F080
:10219000E3FA002003F0E0FA002003F0DDFAC820A3
:1021A00003F0E6FA002003F0D7FA002003F0D4FA97
:1021B000002003F0D1FA002003F0CEFAC92003F08A
:1021C000D7FA002003F0C8FA002003F0C5FA002077
:1021D00003F0C2FA002003F0BFFA002003F0BCFABB
:1021E000002003F0B9FA002003F0B6FA002003F053
:1021F000B3FA002003F0B0FA002003F0ADFA00209B
:1022000003F0AAFA002003F0A7FA002003F0A4FAD2
:10221000002003F0A1FA002003F09EFA002003F052
:102220009BFAE02003F0A4FA162003F095FA0020B0
:1022300003F092FA1C2003F08FFA002003F08CFACE
:10224000212003F089FA002003F086FA362003F0FB
:1022500083FA002003F080FA462003F07DFA002084
:1022600003F07AFA522003F077FA002003F074FAB0
:10227000642003F071FA002003F06EFA7A2003F074
:102280006BFA002003F068FA8B2003F065FA002057
:1022900003F062FA992003F05FFA002003F05CFA81
:1022A000A82003F059FA002003F056FAB92003F0F1
:1022B00053FA002003F050FAC42003F04DFA002036
:1022C00003F04AFACA2003F047FA002003F044FA68
:1022D000D22003F041FA002003F03EFAD92003F0A7
:1022E0003BFA002003F038FAE02003F035FA002032
:1022F00003F032FAF32003F02FFA002003F02CFA57
:10230000E12003F035FA162003F026FA002003F04E
:1023100023FA1C2003F020FA002003F01DFA2220EB
:1023200003F01AFA002003F017FA362003F014FA2B
:10233000002003F011FA452003F00EFA002003F00C
:102340000BFA522003F008FA002003F005FA64208B
:1023500003F002FA002003F0FFF97A2003F0FCF901
:10236000002003F0F9F98B2003F0F6F9002003F0C8
:10237000F3F9992003F0F0F9002003F0EDF9A8201B
:1023800003F0EAF9002003F0E7F9B92003F0E4F9DB
:10239000002003F0E1F9C42003F0DEF9002003F08F
:1023A000DBF9CA2003F0D8F9002003F0D5F9D220D8
:1023B00003F0D2F9002003F0CFF9D82003F0CCF9D4
:1023C000002003F0C9F9E02003F0C6F9002003F073
:1023D000C3F9F32003F0C0F9002003F0BDF9E220B7
:1023E00003F0C6F9052003F0B7F9002003F0B4F9B3
:1023F0000B2003F0B1F9002003F0AEF91B2003F02D
:10240000ABF9002003F0A8F9342003F0A5F900206F
:1024100003F0A2F9442003F09FF9002003F09CF997
:102420004F2003F099F9002003F096F9612003F0A2
:1024300093F9002003F090F9792003F08DF9002042
:1024400003F08AF9882003F087F9002003F084F96B
:10245000972003F081F9002003F07EF9A62003F015
:102460007BF9002003F078F9B72003F075F900201C
:1024700003F072F9C22003F06FF9002003F06CF949
:10248000C72003F069F9002003F066F9D12003F0BA
:1024900063F9002003F060F9D62003F05DF9002015
:1024A00003F05AF9DD2003F057F9002003F054F946
:1024B000F32003F051F9002003F04EF9E32003F07C
:1024C00057F9052003F048F9002003F045F90A20E8
:1024D00003F042F9002003F03FF91C2003F03CF91F
:1024E000002003F039F9332003F036F9002003F01F
:1024F00033F9442003F030F9002003F02DF9502087
:1025000003F02AF9002003F027F9622003F024F9F0
:10251000002003F021F9782003F01EF9002003F0D9
:102520001BF9882003F018F9002003F015F9972013
:1025300003F012F9002003F00FF9A62003F00CF9C4
:10254000002003F009F9B72003F006F9002003F09A
:1025500003F9C22003F000F9002003F0FDF8C720C2
:1025600003F0FAF8002003F0F7F8D12003F0F4F8B4
:10257000002003F0F1F8D52003F0EEF8002003F07E
:10258000EBF8DD2003F0E8F8002003F0E5F8F32095
:1025900003F0E2F8002003F0DFF8E42003F0E8F8AD
:1025A000012003F0D9F8002003F0D6F8012003F051
:1025B000D3F8002003F0D0F8022003F0CDF800207B
:1025C00003F0CAF82A2003F0C7F8002003F0C4F88B
:1025D0003C2003F0C1F8002003F0BEF84B2003F0CC
:1025E000BBF8002003F0B8F85D2003F0B5F8002038
:1025F00003F0B2F8742003F0AFF8002003F0ACF859
:10260000842003F0A9F8002003F0A6F8932003F03B
:10261000A3F8002003F0A0F8A22003F09DF800200A
:1026200003F09AF8B32003F097F8002003F094F831
:10263000BE2003F091F8002003F08EF8C42003F0D0
:102640008BF8002003F088F8CD2003F085F80020F7
:1026500003F082F8D32003F07FF8002003F07CF829
:10266000DD2003F079F8002003F076F8F32003F082
:1026700073F8002003F070F8E52003F079F80020EB
:1026800003F06AF8002003F067F8002003F064F814
:10269000002003F061F8022003F05EF8002003F050
:1026A0005BF8292003F058F8002003F055F83C208F
:1026B00003F052F8002003F04FF84B2003F04CF8E1
:1026C000002003F049F85D2003F046F8002003F0F5
:1026D00043F8742003F040F8002003F03DF8842014
:1026E00003F03AF8002003F037F8932003F034F8B1
:1026F000002003F031F8A22003F02EF8002003F0B0
:102700002BF8B32003F028F8002003F025F8BE20B2
:1027100003F022F8002003F01FF8C42003F01CF897
:10272000002003F019F8CD2003F016F8002003F084
:1027300013F8D32003F010F8002003F00DF8DC208C
:1027400003F00AF8002003F007F8F32003F004F880
:10275000002003F001F8E62003F00AF8112002F04F
:10276000FBFF002002F0F8FF342002F0F5FF00200C
:1027700002F0F2FF562002F0EFFF002002F0ECFF23
:10278000762002F0E9FF002002F0E6FF772002F059
:10279000E3FF002002F0E0FF662002F0DDFF0020F2
:1027A00002F0DAFF882002F0D7FF002002F0D4FF09
:1027B000992002F0D1FF002002F0CEFFBB2002F0F2
:1027C000CBFF002002F0C8FF992002F0C5FF0020D7
:1027D00002F0C2FF662002F0BFFF002002F0BCFF43
:1027E000552002F0B9FF002002F0B6FF552002F09C
:1027F000B3FF002002F0B0FF452002F0ADFF002043
:1028000002F0AAFF432002F0A7FF002002F0A4FF7D
:10281000442002F0A1FF002002F09EFFE72002F01A
:10282000A7FF322002F098FF002002F095FF55200C
:1028300002F092FF002002F08FFF762002F08CFF62
:10284000002002F089FF662002F086FF002002F0DF
:1028500083FF672002F080FF002002F07DFF6720E9
:1028600002F07AFF002002F077FF872002F074FF69
:10287000002002F071FF992002F06EFF002002F0AC
:102880006BFFBB2002F068FF002002F065FF99207B
:1028900002F062FF002002F05FFF772002F05CFF91
:1028A000002002F059FF442002F056FF002002F001
:1028B00053FF562002F050FF002002F04DFF23206E
:1028C00002F04AFF002002F047FF332002F044FFED
:1028D000002002F041FF452002F03EFF002002F000
:1028E0003BFFE82002F044FF002002F035FF00200B
:1028F00002F032FF992002F02FFF002002F02CFF9F
:10290000872002F029FF002002F026FF882002F035
:1029100023FF002002F020FF772002F01DFF00209F
:1029200002F01AFF662002F017FF002002F014FFE9
:10293000882002F011FF002002F00EFFAA2002F012
:102940000BFF002002F008FFBB2002F005FF002073
:1029500002F002FF992002F0FFFE002002F0FCFED0
:10296000662002F0F9FE002002F0F6FE552002F08B
:10297000F3FE002002F0F0FE552002F0EDFE0020F4
:1029800002F0EAFE442002F0E7FE002002F0E4FE3E
:10299000442002F0E1FE002002F0DEFE552002F0AD
:1029A000DBFE002002F0D8FEE92002F0E1FEAA20C2
:1029B00002F0D2FE002002F0CFFE002002F0CCFE9A
:1029C000002002F0C9FE002002F0D2FEAA2002F090
:1029D000C3FECF2002F0CCFE002002F0BDFE00209E
:1029E00002F0BAFE002002F0B7FE002002F0B4FEB2
:1029F000002002F0B1FE002002F0AEFE002002F046
:102A0000ABFE002002F0A8FE002002F0A5FE002090
:102A100002F0A2FE002002F09FFE002002F09CFEC9
:102A2000002002F099FE002002F096FE002002F045
:102A300093FE002002F090FE002002F08DFEF020B8
:102A400002F096FE002002F087FE502002F084FE85
:102A5000002002F081FE002002F07EFE002002F045
:102A60007BFEF32002F084FE002002F075FEF920C8
:102A700002F07EFE062002F06FFE102002F06CFED7
:102A8000292002F069FE002002F066FE3A2002F0E2
:102A90006FFE552002F060FE112002F069FE6420F6
:102AA00004F036FE292002F063FE352002F060FEBD
:102AB000002002F051FE512002F05AFEFF2002F0E9
:102AC0004BFE532002F054FE2C2002F045FE552010
:102AD00002F04EFE822002F03FFE2C2002F048FE63
:102AE00002F028B8FE48808845F2105188427DD116
:102AF00055214FF4704002F051FEAA214FF201001F
:102B000002F04CFE52214FF2020002F047FE082173
:102B10004FF2030002F042FE01214FF2040002F0E6
:102B20003DFE0D214FF4304002F038FE0D214BF2F6
:102B3000010002F033FE0D214BF2020002F02EFEE6
:102B400034214FF4364002F029FE34214BF201606B
:102B500002F024FE34214BF2026002F01FFE0D2130
:102B60004FF4314002F01AFE0D214BF2011002F039
:102B700015FE0D214BF2021002F010FE34214FF42D
:102B8000374002F00BFE34214BF2017002F006FEDA
:102B900034214BF2027002F001FE00214FF432406A
:102BA00002F0FCFD00214BF2012002F0F7FD0021B4
:102BB0004BF2022002F0F2FD24214FF4384002F0E3
:102BC000EDFD24214BF6010002F0E8FD24214BF637
:102BD000020002F0E3FD01214FF43F4002F0DEFD70
:102BE0000F214FF4334002F0D9FD00E0FDE30F2147
:102BF0004BF2013002F0D2FD0F214BF2023002F015
:102C0000CDFD34214FF4394002F0C8FD34214BF69C
:102C1000011002F0C3FD34214BF6021002F0BEFD9C
:102C200008214FF4354002F0B9FD08214BF2015064
:102C300002F0B4FD08214BF2025002F0AFFD032177
:102C40004FF4424002F0AAFD24214FF43A4002F032
:102C5000A5FD24214BF6012002F0A0FD24214BF616
:102C6000022002F09BFD00214FF43C4002F096FD53
:102C700078214BF6014002F091FD00214BF6024015
:102C800002F08CFD00214FF43D4002F087FD7821D9
:102C90004BF6015002F082FD00214BF6025002F08B
:102CA0007DFD00214FF43E4002F078FD64214BF69B
:102CB000016002F073FD00214FF4514002F06EFDFF
:102CC00033214DF2011002F069FD00214DF2021096
:102CD00002F064FD34214DF2031002F05FFD00218B
:102CE0004DF2041002F05AFD3A214DF2051002F0A7
:102CF00055FD00214DF2061002F050FD4A214DF223
:102D0000071002F04BFD00214DF2081002F046FDC5
:102D10005C214DF2091002F041FD00214DF20A1034
:102D200002F03CFD81214DF20B1002F037FD002135
:102D30004DF20C1002F032FDA6214DF20D1002F002
:102D40002DFD00214DF20E1002F028FDE5214DF27F
:102D50000F1002F023FD01214DF2101002F01EFDB4
:102D600013214DF2111002F019FD01214DF2121044
:102D700002F014FD54214DF2131002F00FFD012159
:102D80004DF2141002F00AFD82214DF2151002F0EE
:102D900005FD01214DF2161002F000FDCA214DF291
:102DA000171002F0FBFC02214DF2181002F0F6FCA5
:102DB00000214DF2191002F0F1FC02214DF21A101F
:102DC00002F0ECFC01214DF21B1002F0E7FC0221A5
:102DD0004DF21C1002F0E2FC34214DF21D1002F005
:102DE000DDFC02214DF21E1002F0D8FC67214DF2ED
:102DF0001F1002F0D3FC02214DF2201002F0CEFC95
:102E000084214DF2211002F0C9FC02214DF2221062
:102E100002F0C4FCA4214DF2231002F0BFFC0221F9
:102E20004DF2241002F0BAFCB7214DF2251002F049
:102E3000B5FC02214DF2261002F0B0FCCF214DF27C
:102E4000271002F0ABFC02214DF2281002F0A6FC84
:102E5000DE214DF2291002F0A1FC02214DF22A10D0
:102E600002F09CFCF2214DF22B1002F097FC0221A3
:102E70004DF22C1002F092FCFE214DF22D1002F0CA
:102E80008DFC03214DF22E1002F088FC10214DF232
:102E90002F1002F083FC03214DF2301002F07EFC73
:102EA00033214DF2311002F079FC03214DF2321042
:102EB00002F074FC6D214DF2331002F06FFC002122
:102EC0004FF4524002F06AFC33214DF2012002F02F
:102ED00065FC00214DF2022002F060FC342101E08B
:102EE000380000204DF2032002F058FC00214DF282
:102EF000042002F053FC3A214DF2052002F04EFC72
:102F000000214DF2062002F049FC4A214DF2072033
:102F100002F044FC00214DF2082002F03FFC5C214D
:102F20004DF2092002F03AFC00214DF20A2002F095
:102F300035FC81214DF20B2002F030FC00214DF2D6
:102F40000C2002F02BFCA6214DF20D2002F026FCF5
:102F500000214DF20E2002F021FCE5214DF20F2060
:102F600002F01CFC01214DF2102002F017FC13218D
:102F70004DF2112002F012FC01214DF2122002F05C
:102F80000DFC54214DF2132002F008FC01214DF2FA
:102F9000142002F003FC82214DF2152002F0FEFB0A
:102FA00001214DF2162002F0F9FBCA214DF2172043
:102FB00002F0F4FB02214DF2182002F0EFFB002199
:102FC0004DF2192002F0EAFB02214DF21A2002F024
:102FD000E5FB01214DF21B2002F0E0FB02214DF246
:102FE0001C2002F0DBFB34214DF21D2002F0D6FB49
:102FF00002214DF21E2002F0D1FB67214DF21F206D
:1030000002F0CCFB02214DF2202002F0C7FB84210C
:103010004DF2212002F0C2FB02214DF2222002F0EB
:10302000BDFBA4214DF2232002F0B8FB02214DF29A
:10303000242002F0B3FBB7214DF2252002F0AEFBB5
:1030400002214DF2262002F0A9FBCF214DF22720CC
:1030500002F0A4FB02214DF2282002F09FFBDE21AA
:103060004DF2292002F09AFB02214DF22A2002F0B3
:1030700095FBF2214DF22B2002F090FB02214DF244
:103080002C2002F08BFBFE214DF22D2002F086FB5E
:1030900003214DF22E2002F081FB10214DF22F2052
:1030A00002F07CFB03214DF2302002F077FB33214C
:1030B0004DF2312002F072FB03214DF2322002F07A
:1030C0006DFB6D214DF2332002F068FB00214FF4BF
:1030D000534002F063FB33214DF2013002F05EFBFE
:1030E00000214DF2023002F059FB34214DF2033041
:1030F00002F054FB00214DF2043002F04FFB3A2164
:103100004DF2053002F04AFB00214DF2063002F08C
:1031100045FB4A214DF2073002F040FB00214DF201
:10312000083002F03BFB5C214DF2093002F036FB27
:1031300000214DF20A3002F031FB81214DF20B30BB
:1031400002F02CFB00214DF20C3002F027FBA621EF
:103150004DF20D3002F022FB00214DF20E3002F054
:103160001DFBE5214DF20F3002F018FB01214DF25D
:10317000103002F013FB13214DF2113002F00EFB60
:1031800001214DF2123002F009FB54214DF21330AF
:1031900002F004FB01214DF2143002F0FFFA82210B
:1031A0004DF2153002F0FAFA01214DF2163002F01C
:1031B000F5FACA214DF2173002F0F0FA02214DF271
:1031C000183002F0EBFA00214DF2193002F0E6FA65
:1031D00002214DF21A3002F0E1FA01214DF21B30CA
:1031E00002F0DCFA02214DF21C3002F0D7FA342151
:1031F0004DF21D3002F0D2FA02214DF21E3002F0E3
:10320000CDFA67214DF21F3002F0C8FA02214DF2CB
:10321000203002F0C3FA84214DF2213002F0BEFAD0
:1032200002214DF2223002F0B9FAA4214DF22330EE
:1032300002F0B4FA02214DF2243002F0AFFAB721C5
:103240004DF2253002F0AAFA02214DF2263002F0AA
:10325000A5FACF214DF2273002F0A0FA02214DF25B
:10326000283002F09BFADE214DF2293002F096FA66
:1032700002214DF22A3002F091FAF2214DF22B3068
:1032800002F08CFA02214DF22C3002F087FAFE2176
:103290004DF22D3002F082FA03214DF22E3002F071
:1032A0007DFA10214DF22F3002F078FA03214DF211
:1032B000303002F073FA33214DF2313002F06EFA01
:1032C00003214DF2323002F069FA6D214DF23330B4
:1032D00002F064FA00214FF4544002F05FFA332107
:1032E0004DF2014002F05AFA00214DF2024002F084
:1032F00055FA34214DF2034002F050FA00214DF20C
:10330000044002F04BFA3A214DF2054002F046FA31
:1033100000214DF2064002F041FA4A214DF20740E9
:1033200002F03CFA00214DF2084002F037FA5C212D
:103330004DF2094002F032FA00214DF20A4002F04B
:103340002DFA81214DF20B4002F028FA00214DF2B6
:103350000C4002F023FAA6214DF20D4002F01EFAB5
:1033600000214DF20E4002F019FAE5214DF20F4016
:1033700002F014FA01214DF2104002F00FFA13216D
:103380004DF2114002F00AFA01214DF2124002F012
:1033900005FA54214DF2134002F000FA01214DF2DA
:1033A000144002F0FBF982214DF2154002F0F6F9CB
:1033B00001214DF2164002F0F1F9CA214DF21740F9
:1033C00002F0ECF902214DF2184002F0E7F9002179
:1033D0004DF2194002F0E2F902214DF21A4002F0DA
:1033E000DDF901214DF21B4000E006E302F0D6F9C1
:1033F00002214DF21C4002F0D1F934214DF21D4062
:1034000002F0CCF902214DF21E4002F0C7F967210B
:103410004DF21F4002F0C2F902214DF2204002F0AD
:10342000BDF984214DF2214002F0B8F902214DF29C
:10343000224002F0B3F9A4214DF2234002F0AEF98C
:1034400002214DF2244002F0A9F9B7214DF22540A6
:1034500002F0A4F902214DF2264002F09FF9CF219B
:103460004DF2274002F09AF902214DF2284002F075
:1034700095F9DE214DF2294002F090F902214DF23A
:103480002A4002F08BF9F2214DF22B4002F086F92E
:1034900002214DF22C4002F081F9FE214DF22D4027
:1034A00002F07CF903214DF22E4002F077F9102151
:1034B0004DF22F4002F072F903214DF2304002F03C
:1034C0006DF933214DF2314002F068F903214DF2DC
:1034D000324002F063F96D214DF2334002F05EF9A3
:1034E00000214FF4554002F059F933214DF20150BB
:1034F00002F054F900214DF2025002F04FF934214C
:103500004DF2035002F04AF900214DF2045002F04E
:1035100045F93A214DF2055002F040F900214DF2F3
:10352000065002F03BF94A214DF2075002F036F9FD
:1035300000214DF2085002F031F95C214DF20950A2
:1035400002F02CF900214DF20A5002F027F98121F6
:103550004DF20B5002F022F900214DF20C5002F016
:103560001DF9A6214DF20D5002F018F900214DF27F
:103570000E5002F013F9E5214DF20F5002F00EF952
:1035800001214DF2105002F009F913214DF21150B2
:1035900002F004F901214DF2125002F0FFF854211B
:1035A0004DF2135002F0FAF801214DF2145002F0DE
:1035B000F5F882214DF2155002F0F0F801214DF29C
:1035C000165002F0EBF8CA214DF2175002F0E6F85F
:1035D00002214DF2185002F0E1F800214DF219508D
:1035E00002F0DCF802214DF21A5002F0D7F8012166
:1035F0004DF21B5002F0D2F802214DF21C5002F0A5
:10360000CDF834214DF21D5002F0C8F802214DF2E0
:103610001E5002F0C3F867214DF21F5002F0BEF8B1
:1036200002214DF2205002F0B9F884214DF22150D0
:1036300002F0B4F802214DF2225002F0AFF8A421BA
:103640004DF2235002F0AAF802214DF2245002F06C
:10365000A5F8B7214DF2255002F0A0F802214DF255
:10366000265002F09BF8CF214DF2275002F096F839
:1036700002214DF2285002F091F8DE214DF229503E
:1036800002F08CF802214DF22A5002F087F8F22164
:103690004DF22B5002F082F802214DF22C5002F034
:1036A0007DF8FE214DF22D5002F078F803214DF205
:1036B0002E5002F073F810214DF22F5002F06EF8E8
:1036C00003214DF2305002F069F833214DF23150B0
:1036D00002F064F803214DF2325002F05FF86D21E0
:1036E0004DF2335002F05AF800214FF4564002F0E8
:1036F00055F833214DF2016002F050F800214DF2EF
:10370000026002F04BF834214DF2036002F046F8FB
:1037100000214DF2046002F041F83A214DF20560BB
:1037200002F03CF800214DF2066002F037F84A2121
:103730004DF2076002F032F800214DF2086002F00D
:103740002DF85C214DF2096002F028F800214DF2BD
:103750000A6002F023F881214DF20B6002F01EF89E
:1037600000214DF20C6002F019F8A6214DF20D6017
:1037700002F014F800214DF20E6002F00FF8E5217E
:103780004DF20F6002F00AF801214DF2106002F0D4
:1037900005F813214DF2116002F000F801214DF2FD
:1037A000126001F0FBFF54214DF2136001F0F6FFAF
:1037B00001214DF2146001F0F1FF82214DF21560FC
:1037C00001F0ECFF01214DF2166001F0E7FFCA2184
:1037D0004DF2176001F0E2FF02214DF2186001F096
:1037E000DDFF00214DF2196001F0D8FF02214DF2FA
:1037F0001A6001F0D3FF01214DF21B6001F0CEFFF2
:1038000002214DF21C6001F0C9FF34214DF21D6010
:1038100001F0C4FF02214DF21E6001F0BFFF6721DD
:103820004DF21F6001F0BAFF02214DF2206001F05D
:10383000B5FF84214DF2216001F0B0FF02214DF26D
:10384000226001F0ABFFA4214DF2236001F0A6FF3E
:1038500002214DF2246001F0A1FFB7214DF2256055
:1038600001F09CFF02214DF2266001F097FFCF216D
:103870004DF2276001F092FF02214DF2286001F025
:103880008DFFDE214DF2296001F088FF02214DF20B
:103890002A6001F083FFF2214DF22B6001F07EFFE0
:1038A00002214DF22C6001F079FFFE214DF22D60D6
:1038B00001F074FF03214DF22E6001F06FFF102123
:1038C0004DF22F6001F06AFF03214DF2306001F0EC
:1038D00065FF33214DF2316001F060FF03214DF2AD
:1038E000326001F05BFF6D214DF2336001F056FF55
:1038F00055214FF4704001F051FFAA214FF2010011
:1039000001F04CFF52214FF2020001F047FF082165
:103910004FF2030001F042FF00214FF2040001F0DA
:103920003DFFCC214FF4314001F038FF00214BF234
:10393000011001F033FF05214FF4364001F02EFF56
:1039400070214FF4374001F029FF70214BF20170D4
:1039500001F024FF01214FF4384001F01FFF032143
:103960004BF6010001F01AFF03214BF6020001F0B3
:1039700015FF03214BF6030001F010FF02214FF465
:103980003C4001F00BFF00214BF6014001F006FF27
:1039900000214BF6024001F001FFD0214FF44940D5
:1039A00001F0FCFE02214CF6011001F0F7FE50215F
:1039B0004CF6021001F0F2FE50214CF6031001F01B
:1039C000EDFE50214CF6041001F0E8FE00214FF40A
:1039D000545001F0E3FE55214FF4685001F0DEFE33
:1039E0004FF4885001F0C4FE782003F0ADFE4FF490
:1039F000245001F0BDFE01F09DB8FE48808849F2D8
:103A0000253188427ED147F6F001E52001F0C6FE5F
:103A10004FF48071012001F0C1FE4FF4E0610220FB
:103A200001F0BCFE41F23001032001F0B7FE00219D
:103A3000042001F0B3FE40F20221082001F0AEFEA6
:103A40000021092001F0AAFE00210A2001F0A6FEB3
:103A500000210C2001F0A2FE00210D2001F09EFEAD
:103A600000210F2001F09AFE0021102001F096FEA7
:103A70000721112001F092FE0021122001F08EFE9C
:103A80000021132001F08AFE0021072001F086FEAC
:103A900041F29061102001F081FE40F227211120B7
:103AA00001F07CFE9D21122001F078FE4FF4C851F8
:103AB000132001F073FE2521292001F06FFE0D2156
:103AC0002B2001F06BFE0721302001F067FE40F251
:103AD0000331312001F062FE0321322001F05EFE4D
:103AE00040F20621352001F059FE0821362001F070
:103AF00055FE40F20641372001F050FE4FF441716F
:103B0000382000E057E001F049FE0721392001F09C
:103B100045FE40F202613C2001F040FE08213D20BC
:103B200001F03CFE0021502001F038FEEF21512031
:103B300001F034FE0021522001F030FE40F23F112E
:103B4000532001F02BFE4FF42741602001F026FEA8
:103B50000121612001F022FE00216A2001F01EFEF9
:103B60000021802001F01AFE0021812001F016FEC4
:103B70000021822001F012FE0021832001F00EFEC0
:103B80000021842001F00AFE0021852001F006FEBC
:103B90001021902001F002FE4FF4C061922001F04C
:103BA000FDFD40F23311072001F0F8FD2221002035
:103BB00001F0F4FD1FE78F48808849F228318842E0
:103BC0007ED141F28F01EC2001F0E8FD41F2342179
:103BD000EF2001F0E3FD4FF48071012001F0DEFDE4
:103BE0004FF4E061022001F0D9FD41F230010320E1
:103BF00001F0D4FD0021042001F0D0FD40F20221AB
:103C0000082001F0CBFD0021092001F0C7FD0021B3
:103C10000A2001F0C3FD01210C2001F0BFFD0021AD
:103C20000D2001F0BBFD00210F2001F0B7FD0021A8
:103C3000102001F0B3FD0721112001F0AFFD00219C
:103C4000122001F0ABFD0021132001F0A7FD01219E
:103C5000072001F0A3FD322003F05AFD41F290410C
:103C6000102001F09BFD40F22721112001F096FD6C
:103C7000322003F04DFD8A21122001F08FFD322009
:103C800003F046FD4FF4D051132001F087FD0621CB
:103C9000292001F083FD0D212B2001F07FFD322032
:103CA00003F036FD0021202001F078FD00212120C5
:103CB00001F074FD322003F02BFD0021302000E0E4
:103CC00074E001F06BFD40F20461312001F066FD0B
:103CD00040F20531322001F061FD0021352001F074
:103CE0005DFD40F60941362001F058FD4FF40171A9
:103CF000372001F053FD40F20131382001F04EFD34
:103D000040F20771392001F049FD00213C2001F00B
:103D100045FD40F60A213D2001F040FD322003F030
:103D2000F7FC0021502001F039FDEF21512001F076
:103D300035FD0021522001F031FD40F23F115320AA
:103D400001F02CFD4FF42741602001F027FD0121F7
:103D5000612001F023FD00216A2001F01FFD0021F8
:103D6000802001F01BFD0021812001F017FD0021C2
:103D7000822001F013FD0021832001F00FFD0021BE
:103D8000842001F00BFD0021852001F007FD1021AA
:103D9000902001F003FD4FF4C061922001F0FEFC81
:103DA00040F23311072001F0F9FC24E61148808825
:103DB00049F2203188427DD10021084601F0EEFC15
:103DC0004FF48071012001F0E9FC4FF4E061022022
:103DD00001F0E4FC41F23001032001F0DFFC00219E
:103DE000042001F0DBFC40F20221082001F0D6FCA7
:103DF000002101E038000020092001F0CFFC002163
:103E00000A2001F0CBFC01210C2001F0C7FC0021AD
:103E10000D2001F0C3FC00210F2001F0BFFC322077
:103E200003F076FC40F20111072001F0B7FC3220CC
:103E300003F06EFC4FF48651102001F0AFFC072117
:103E4000112001F0ABFC4FF48871122001F0A6FCA8
:103E50004FF43061132001F0A1FC0021292001F072
:103E60009DFC44F210012B2001F098FC0021502011
:103E700001F094FCEF21512001F090FC0021522030
:103E800001F08CFC40F23F11532001F087FC4FF40D
:103E90001C51602001F082FC0121612001F07EFCB8
:103EA00000216A2001F07AFC0021802001F076FCDC
:103EB000002100E031E0812001F070FC002182202F
:103EC00001F06CFC0021832001F068FC00218420BB
:103ED00001F064FC0021852001F060FC102190209D
:103EE00001F05CFC0021922001F058FC012193209C
:103EF00001F054FC4FF48871952001F04FFC002133
:103F0000972001F04BFC0021982001F047FC40F283
:103F10007311072001F042FC6DE5FE48808849F2EC
:103F2000313188427DD141F21401E72001F036FCA5
:103F30004FF48071012001F031FC4FF40071022038
:103F400001F02CFC41F23801032001F027FC40F283
:103F50000221082001F022FC0021092001F01EFCB2
:103F600000210A2001F01AFC00210C2001F016FCAF
:103F700000210D2001F012FC00210F2001F00EFCA9
:103F80000021102001F00AFC0721112001F006FC9D
:103F90000021122001F002FC0021132001F0FEFBA1
:103FA000C82003F0B5FB41F29061102001F0F6FB50
:103FB00040F22721112001F0F1FB322003F0A8FB91
:103FC0000C21122001F0EAFB322003F0A1FB4FF498
:103FD0000061132001F0E2FB1121292001F0DEFB3A
:103FE0000B212B2001F0DAFB322003F091FB0021A2
:103FF000202001F0D3FB40F23F11212001F0CEFB45
:104000000021302001F0CAFB4FF48371312001F010
:10401000C5FB0021322001F0C1FB4FF401713520B6
:1040200000E064E001F0BAFB41F20A61362001F0E1
:10403000B5FB40F20771372001F0B0FB4FF48371FC
:10404000382001F0ABFB40F20771392001F0A6FBEC
:1040500040F202413C2001F0A1FB40F60F413D201F
:1040600001F09CFB0021502001F098FBEF21512032
:1040700001F094FB0021522001F090FB40F23F112F
:10408000532001F08BFB4FF41C51602001F086FBA4
:104090000121612001F082FB00216A2001F07EFBFA
:1040A0000021802001F07AFB0021812001F076FBC5
:1040B0000021822001F072FB0021832001F06EFBC1
:1040C0000021842001F06AFB0021852001F066FBBD
:1040D0001021902001F062FB4FF4C061922001F0AA
:1040E0005DFB40F23311072001F058FB83E489485F
:1040F000808845F2084188427ED14FF480710120CA
:1041000001F04CFB4FF4E061022001F047FB41F26B
:104110003001032001F042FB0021042001F03EFBAE
:1041200040F20721082001F039FB0021092001F0AD
:1041300035FB00210A2001F031FB00210C2001F0A9
:104140002DFB00210D2001F029FB00210F2001F0A3
:1041500025FB142003F0DCFA41F2B061102001F0DD
:104160001DFB0121112001F019FB0121172001F095
:1041700015FB4FF49C71122001F010FB4FF400610D
:10418000132001F00BFB0921292001F007FB092175
:104190002A2001F003FB0021A42001F0FFFA0021F6
:1041A000502001F0FBFAEF21512001F0F7FA002135
:1041B000522001F0F3FA40F23F11532001F0EEFAE1
:1041C0004FF41C51602001F0E9FA0121612001F057
:1041D000E5FA00216A2001F0E1FA0021802001F0D7
:1041E000DDFA0021812001F0D9FA0021822001F0BE
:1041F000D5FA0021832000E023E001F0CFFA00216E
:10420000842001F0CBFA0021852001F0C7FA1321A8
:10421000902001F0C3FA0021922001F0BFFA03219F
:10422000932001F0BBFA4FF48871952001F0B6FAA3
:1042300040F27311072001F0B1FA322003F068FA5E
:10424000B8E43448808841F2055188427ED100218B
:10425000072001F0A3FA322003F05AFA4FF48E71CE
:10426000122001F09BFA0121A42001F097FA0F21FE
:10427000082001F093FA08210A2001F08FFA0821A2
:104280000D2001F08BFA40F20771302001F086FA20
:104290000721312001F082FA40F20361322001F05F
:1042A0007DFA4FF4E061332001F078FA40F2022108
:1042B000342001F073FA0221352001F06FFA41F643
:1042C0000F71362001F06AFA40F20771372001F0D1
:1042D00065FA0021382001F061FA0021392001F04F
:1042E0005DFA40F207713A2001F058FA00213B20B4
:1042F00001F054FA07213C2001F050FA00213D2042
:1043000001F04CFA322003F003FA0121072001F0FA
:1043100045FA01E0380000200121172001F03EFAA3
:10432000322003F0F5F94FF4BD51102001F036FAB8
:1043300040F21721112001F031FA4FF48F71122051
:1043400001F02CFA4FF47061132000E097E001F0C7
:1043500025FA00212A2001F021FA0A21292001F062
:104360001DFA4FF49F71122001F018FA002150201D
:1043700001F014FAEF21512001F010FA002152202F
:1043800001F00CFA40F23F11532001F007FA4FF40C
:104390001C51602001F002FA0121612001F0FEF9B8
:1043A00000216A2001F0FAF90021802001F0F6F9DD
:1043B0000021812001F0F2F90021822001F0EEF9C4
:1043C0000021832001F0EAF90021842001F0E6F9C0
:1043D0000021852001F0E2F91321902001F0DEF99F
:1043E0004FF44071922001F0D9F90521932001F09A
:1043F000D5F90021952001F0D1F90021972001F095
:10440000CDF90021982001F0C9F94FF48071012005
:1044100001F0C4F94FF4E061022001F0BFF941F26C
:104420003801032001F0BAF90021042001F0B6F9A7
:1044300000210C2001F0B2F900210F2001F0AEF9AB
:104440000021202001F0AAF90021212001F0A6F985
:104450002121072001F0A2F9142003F059F961216C
:10446000072001F09BF9142003F052F940F2731178
:10447000072001F093F9142003F04AF95AE3FE48AB
:1044800080884BF2055188427ED10021084601F018
:1044900085F90021084601F081F90021084601F064
:1044A0007DF90021084601F079F90121A42001F0ED
:1044B00075F9142003F02CF94FF41C51602001F021
:1044C0006DF940F20221082001F068F94FF40571FE
:1044D000302001F063F943F21571312001F05EF9EB
:1044E00040F20461322001F059F940F616613320A0
:1044F00001F054F942F21121342001F04FF94FF448
:10450000A851352001F04AF948F20751362001F050
:1045100045F941F20741372001F040F941F20341EA
:10452000382001F03BF92021392001F037F91A2118
:10453000902001F033F90021102001F02FF907211C
:10454000112001F02BF90021122001F027F90021A0
:10455000132001F023F9142003F0DAF84FF4E66198
:10456000102001F01BF940F23711112001F016F96B
:10457000142003F0CDF84FF4DC71122001F00EF995
:10458000142003F0C5F800E083E04FF470611320BD
:1045900001F004F980212A2001F000F948212920A6
:1045A00001F0FCF8142003F0B3F84FF480710120FF
:1045B00001F0F4F84FF4E061022001F0EFF841F26D
:1045C0003801032001F0EAF840F20221082001F04E
:1045D000E5F800210A2001F0E1F800210C2001F0AB
:1045E000DDF800210D2001F0D9F830210E2001F076
:1045F000D5F80021502001F0D1F8EF21512001F031
:10460000CDF80021522001F0C9F840F23F115320AB
:1046100001F0C4F84FF41C51602001F0BFF80121F3
:10462000612001F0BBF800216A2001F0B7F81121E8
:10463000902001F0B3F84FF4C061922001F0AEF881
:1046400040F20241932001F0A9F80221942001F0E8
:10465000A5F8142003F05CF80121072001F09EF872
:10466000142003F055F86121072001F097F840F27B
:104670007311072001F092F80021202001F08EF83C
:104680000021212001F08AF82221002001F086F883
:1046900050E2794880884CF2055188427ED1002151
:1046A000084601F07BF80021084601F077F8142055
:1046B00003F02EF80021084601F070F800210846AA
:1046C00001F06CF80021084601F068F80021084666
:1046D00001F064F80121A42001F060F8142003F037
:1046E00017F84FF41C51602001F058F840F606010D
:1046F000082001F053F840F20371302001F04EF829
:104700000121312001F04AF80421322001F046F85D
:104710004FF48171332001F041F84FF4407134209F
:1047200001F03CF840F20311352001F037F81F2169
:10473000362001F033F840F20371372001F02EF8F3
:104740000121382001F02AF80421392001F026F84F
:104750001521902001F022F84FF48261102001F021
:104760001DF840F24721112001F018F84FF4DE71D6
:10477000122001F013F84FF46061132001F00EF8DD
:10478000782002F0C5FF4FF48071012001F006F897
:104790004FF40071022001F001F800E050E041F216
:1047A0003001032000F0FAFF08210A2000F0F6FF94
:1047B00000210C2000F0F2FF20210E2000F0EEFF7F
:1047C00000210F2000F0EAFF0021202000F0E6FF8A
:1047D0000021212000F0E2FF3D212A2000F0DEFF31
:1047E000142002F095FF2D21292000F0D7FF002191
:1047F000502000F0D3FF4DF2EF01512000F0CEFF2A
:104800000021522000F0CAFF40F23F11532000F077
:10481000C5FF0021612000F0C1FF00216A2000F0E7
:10482000BDFF4FF44071922000F0B8FF05219320A6
:1048300000F0B4FF4FF48071072000F0AFFF79E182
:104840000D48808844F2315188427CD101210020FA
:1048500000F0A4FF0A2002F05BFF41F22861102063
:1048600000F09CFF0E21122000F098FF40F6392145
:10487000132000F093FF01E0380000200A2002F02E
:1048800047FF4021112000F089FF5021152000F042
:1048900085FF0A2002F03CFF1E21122000F07EFF5F
:1048A0000A2002F035FF4FF4B151102000F076FFDE
:1048B00042F63921132000F071FF0A2002F028FF90
:1048C0004FF48071012000F069FF4FF44071022025
:1048D00000F064FF41F23801032000F05FFF40F276
:1048E0000221082000F05AFF08210A2000F056FF9C
:1048F0000021302000F052FF40F20241312000F050
:104900004DFF4FF48371322000F048FF40F2035115
:10491000332000F043FF4FF48271342000F03EFF5B
:1049200040F20131352000F039FF40F207713620A6
:1049300000F034FF40F20531372000F02FFF4FF434
:104940000271382000E040E000F028FF40F60B71D3
:10495000392000F023FF0221412000F01FFF4FF417
:104960001C51602000F01AFF0121612000F016FFA9
:104970004FF40471902000F011FF4FF485719220E4
:1049800000F00CFF0421932000F008FF4FF4807129
:10499000A02000F003FF0121072000F0FFFE2121ED
:1049A000072000F0FBFE2321072000F0F7FE332153
:1049B000072000F0F3FE40F23311072000F0EEFE76
:1049C0000021A02000F0EAFEB4E06048808844F2B4
:1049D00035518842F8D13021152000F0DFFE10213A
:1049E0009A2000F0DBFE2021112000F0D7FE43F2D8
:1049F0002841102000F0D2FE0221122000F0CEFE4D
:104A000041F23801132000F0C9FE282002F080FE98
:104A10001221084600F0C2FE282002F079FE43F27F
:104A20002041102000F0BAFE43F23801132000F0BC
:104A3000B5FE462002F06CFE0021302000F0AEFEF4
:104A400040F20241312000F0A9FE40F2073132204D
:104A500000F0A4FE4FF44171332000F09FFE0421CA
:104A6000342000F09BFE40F20141352000F096FE1C
:104A700040F20771362000F091FE40F205313720F8
:104A800000F08CFE4FF4C261382000F087FE4FF436
:104A9000C261392000F082FE4FF48071012000F0E5
:104AA0007DFE4FF44071022000F078FE41F23001AB
:104AB000032000F073FE40F60801082000F06EFEAF
:104AC00008210A2000F06AFE4FF41C51602000F01B
:104AD00065FE0121612000F061FE4FF49F7190207E
:104AE00000F05CFE4FF48071922000F057FE4FF40E
:104AF0008071932000F052FE4FF44051A02000F04E
:104B00004DFE1021A32000F049FE0121072000F0F6
:104B100045FE2121072000F041FE2321072000F05F
:104B20003DFE3321072000F039FE40F2331107200B
:104B300000F034FE0020FCF701FB0120044908606E
:104B40004FF6FF70FCF7C4FA21B000BD380000201A
:104B5000BC82404210B50246012000E050430B00E9
:104B6000A1F10104E1B2F9D110BD000008B503487C
:104B700000880090BDF8000008BD00008000006CB7
:104B800001B5BDF8000000F0F3FD052002F0DCFDEA
:104B9000FFF7ECFF08BD0000F0B505460024002734
:104BA000A748807901281ED1A548808846F60401CF
:104BB000884218D0082D15D2DFE805F00406080A4F
:104BC0000C0E101206250DE007250BE0042509E068
:104BD000052507E0012505E0002503E0032501E0A8
:104BE000022500BF00BF9648808849F241318842C3
:104BF00011D09348808846F6040188420BD0904833
:104C0000808845F21031884205D08D48808845F271
:104C1000105188427ED1082D1CD2DFE805F0040631
:104C2000090C0F12151800BF14E044F0800411E0C5
:104C300044F040040EE044F0C0040BE044F02004D3
:104C400008E044F0600405E044F0A00402E044F011
:104C5000E00400BF00BF7A48808845F210518842C6
:104C600002D14FF4585700E036277548808845F246
:104C70001031884207D07248808845F2105188422E
:104C800001D044F008046E48808846F6040188424A
:104C900001D144F002042146384600F07FFD04F0C3
:104CA000200068B16648008865494988884214DA5E
:104CB00063480688408862490880084646800CE0C0
:104CC0005F4800885E494988884206DD5C4806885E
:104CD00040885B490880084646805948808845F2EC
:104CE0001051884254D15649488900F041FD0020B6
:104CF00000F032FD52494989491C88B200F038FD64
:104D0000002000F029FD4E494989891C88B200F035
:104D10002FFD00E06BE04A490988491EC1F30F20CE
:104D200000F01AFD46494989C91C88B200F020FDEF
:104D300043490978491EC8B200F00EFD40498889F0
:104D400000F016FD002000F007FD3D498989491C4F
:104D500088B200F00DFD002000F0FEFC3849898982
:104D6000891C88B200F004FD35494988491EC1F309
:104D70000F2000F0F1FC32498989C91C88B200F08B
:104D8000F7FC2F498978491EC8B200F0E5FC55E0D0
:104D90002B49488900F0ECFC002000F0DDFC0020ED
:104DA00000F0DAFC26490988491EC1F30F2000F003
:104DB000D3FC23490978491EC8B200F0CDFC204934
:104DC000888900F0D5FC002000F0C6FC002000F02F
:104DD000C3FC1B494988491EC1F30F2000F0BCFCED
:104DE00017498978491EC8B200F0B6FC26E0082DA4
:104DF0001CD2DFE805F004070A0D0F12151844F065
:104E0000300413E044F0100410E044F020040DE0FE
:104E100000BF0BE044F0380408E044F0280405E04B
:104E200044F0180402E044F0080400BF00BF032768
:104E300044F480542146384600F0B0FCF0BD000038
:104E40003800002030B504460D464048808849F2BD
:104E50004131884205D03D48808845F21031884272
:104E600014D13A49488900F083FC201200F074FC08
:104E7000E0B200F071FC3549888900F079FC281215
:104E800000F06AFCE8B200F067FC5DE02F48808823
:104E900046F6040188421DD12C488079012804D1AE
:104EA0002A480088401E001B84B22849488900F027
:104EB0005FFC201200F050FCE0B200F04DFC2349F2
:104EC000888900F055FC281200F046FCE8B200F09A
:104ED00043FC39E01D48808845F21051884220D1BA
:104EE0001A49488900F044FC201200F035FC1749AB
:104EF0004989491C88B200F03BFCE0B200F02CFC70
:104F00001249888900F034FC281200F025FC0F4972
:104F10008989491C88B200F02BFCE8B200F01CFC27
:104F200012E00A488079012804D108480088401E10
:104F3000001B84B205494889214600F02FFC034933
:104F40008889294600F02AFC30BD00003800002086
:104F50002DE9F84F80460E4617461C46B3462046BC
:104F6000E31704EB5373DB1021464FEAE47C04EBB8
:104F70005C7C4FEAEC0CA4EBCC0CBCF1000F02D033
:104F80004FF0010C01E04FF0000C6344224604EBAB
:104F9000D27C4FEA6C0C03FB0CF3DBB20093A7F15D
:104FA0002000C7B2002556E00C2C07D107EB4700C4
:104FB0002B4901EB800010F8059013E0102C05D16F
:104FC000284800EB071010F805900BE0182C07D1CB
:104FD00007EBC700244901EB800010F8059001E0C1
:104FE000BDE8F88F4FF0000A2FE009F0800030B1E3
:104FF0001E48028831464046FCF758F907E00A98F7
:1050000028B91B48028831464046FCF74FF94FEA61
:1050100049604FEA1069701C86B216484088B04259
:1050200000DCDDE7A6EB0B00A0420AD15E4608F1EA
:1050300001001FFA80F80F480088404500DCCFE7E8
:1050400006E00AF1010000F0FF0ABAF1080FCCDB1C
:1050500000BF681CC5B200988542A5DB00BFBFE752
:10506000D0780008447D0008348300081000002038
:1050700012000020380000202DE9F84704460D46B4
:1050800090469946DDE9096704F0FF0A08EB040041
:105090001FFA80F809EB05001FFA80F916E0444575
:1050A00002DB5446A81985B24D4500DB14E0002010
:1050B00000903A78334629462046FFF749FF3046AC
:1050C00006EBD07104EB61018CB27F1C38787E282E
:1050D00002DC38782028E2DA00BFBDE8F88700005B
:1050E0000CB51F209749088097A010210B46C822B5
:1050F000CDE90010AA211E20FFF7BEFF95A01021C8
:105100000B46C822CDE9001011461E20FFF7B4FF60
:1051100096A010210B46C822CDE90010DC211E20EC
:10512000FFF7AAFF97A010210B46C822CDE9001077
:10513000F0211E20FFF7A0FF98A010210B46C822E7
:10514000CDE900101146E620FFF796FF99A0102147
:105150000B46C822CDE90010DC21E620FFF78CFFCA
:105160009AA010210B46C822CDE90010F021E620BC
:10517000FFF782FF9BA010210B46C822CDE900104B
:105180004FF48271E620FFF777FF98A010210B46BD
:10519000C822CDE900104FF48C71E620FFF76CFFB8
:1051A00094A010210B46C822CDE900104FF496714F
:1051B000E620FFF761FF91A010210B46C822CDE940
:1051C00000104FF482711E20FFF756FF90A01021AF
:1051D0000B46C822CDE900104FF48C711E20FFF75A
:1051E0004BFF8DA010210B46C822CDE900104FF4D3
:1051F00096711E20FFF740FF89A010210B46C822A0
:10520000CDE900104FF4A0711E20FFF735FF85A0F7
:1052100010210B46C822CDE900104FF4AA711E20C0
:10522000FFF72AFF80A010210B46C822CDE900100D
:105230004FF4B4711E20FFF71FFF7CA010210B4616
:10524000C822CDE900104FF4BE711E20FFF714FFF5
:1052500078A010210B46C822CDE900104FF4E1716F
:105260001E20FFF709FF78A010210B46C822CDE9C8
:1052700000104FF4EB711E20FFF7FEFE75A0102109
:105280000B46C822CDE900104FF4F5711E20FFF740
:10529000F3FE74A010210B46C822CDE900104FF494
:1052A000FF711E20FFF7E8FE71A010210B46C822F7
:1052B000CDE9001040F212211E20FFF7DDFE6EA0A6
:1052C00010210B46C822CDE9001040F226211E20F5
:1052D000FFF7D2FE6AA010210B46C822CDE90010CC
:1052E00040F23A211E20FFF7C7FE67A010210B46AF
:1052F000C822CDE900104FF4A071E620FFF7BCFEF4
:1053000063A010210B46C822CDE900104FF4AA710A
:10531000E620FFF7B1FE5FA010210B46C822CDE9C1
:1053200000104FF4B471E620FFF7A6FE5BA0102139
:105330000B46C822CDE900105100E620FFF79CFE85
:105340000CBD00001000002055504C4F4144204F30
:105350004E20000056313A202020202020202020FE
:105360002020202020206D2F7300000056323A208C
:1053700020202020202020202020202020206D2FD1
:105380007300000056333A202020202020202020C7
:105390002020202020206D2F730000004C434A3134
:1053A0003A202020202020202020202020202020E3
:1053B000202000004C434A323A2020202020202088
:1053C0002020202020202020202000004C434A3391
:1053D0003A202020202020202020202020202020B3
:1053E0002020000070776D313A00000070776D3238
:1053F0003A00000070776D333A0000002059617761
:10540000203A2020202020202020202043000000BF
:10541000207678200000000020767920000000002F
:105420002077200020582000205920002054686553
:10543000746120004578706C6F7265722053544D12
:10544000333246340000000052454D4F544520543D
:105450004553540041544F4D40414C49454E5445ED
:105460004B000000323031342F352F370000000060
:105470004B455956414C3A004B4559434E543A001E
:1054800053594D424F4C3A006368656E677875001A
:10549000716975006368616E67646900202020206F
:1054A00020202020000000007CB5002500260024DC
:1054B000EAE0774800EB8400D0ED000AB0EE600A25
:1054C000734800EB8400D0ED000AF5EEC00AF1EE5F
:1054D00010FA2BD2F1EE400AB0EE600A24B1012C92
:1054E0000DD0022C21D115E0002010232D224FF4E5
:1054F000827100904FF48770FFF72AFD15E00020BD
:1055000010232D224FF48C7100904FF48770FFF719
:105510001FFD0AE0002010232D224FF49671009009
:105520004FF48770FFF714FD00BF27E024B1012C72
:105530000DD0022C21D115E00020102320224FF4A1
:10554000827100904FF48770FFF702FD15E0002094
:10555000102320224FF48C7100904FF48770FFF7D6
:10556000F7FC0AE00020102320224FF496710090EF
:105570004FF48770FFF7ECFC00BF00BFFCEEC00AE1
:1055800010EE900A85B200EE905AF8EE600A70EEC6
:10559000600A9FED401A60EE810AFCEEE00A10EE10
:1055A000900A86B224B1012C25D0022C69D145E0A5
:1055B0000020102103232A46CDE900104FF4827108
:1055C0004FF4917000F068F8002010232E224FF461
:1055D0008271009040F23B10FFF7BAFC00201021CE
:1055E00003233246CDE900104FF482714FF4A370CB
:1055F00000F052F845E00020102103232A46CDE9AF
:1056000000104FF48C714FF4917000F045F80020B9
:1056100010232E224FF48C71009040F23B10FFF7C4
:1056200097FC0020102103233246CDE900104FF4EF
:105630008C714FF4A37000F02FF822E000201021AD
:1056400003232A46CDE900104FF496714FF4917070
:1056500000F022F8002010232E224FF496710090C3
:1056600040F23B10FFF774FC002010210323324668
:10567000CDE900104FF496714FF4A37000F00CF8D0
:1056800000BF00BF601CC4B2032C7FF712AF7CBD0B
:105690009400002000007A442DE9FF4F82B00646B6
:1056A00092461F46DDE90F480020019000254DE09D
:1056B000781B401EC1B20A20FFF74CFABAFBF0F08B
:1056C0000A21B0FBF1F201FB1209019850BB781ED0
:1056D000A84227DDB9F1000F22D108F0800078B18F
:1056E00008F00100A34604EBDB71491001FB0561E2
:1056F000009088B2234630220399FFF729FC0EE080
:1057000008F00100A34604EBDB71491001FB0561C1
:10571000009088B2234620220399FFF719FC13E07A
:105720000120019008F00100A34604EBDB71491051
:1057300001FB0561009088B209F13001CAB223462D
:105740000399FFF705FC00BF681CC5B2BD42AFDB83
:1057500006B0BDE8F08F000001B5BDF80000009074
:10576000BDF800000149088008BD00008000006C01
:1057700001B5BDF800000090BDF8000001490880A7
:1057800008BD00007E00006C0248008902490880C4
:1057900070470000380000207E00006C03B5BDF8A3
:1057A000000004490880BDF804004FF0D841A1F87A
:1057B00080000CBD7E00006C1CB50121202000F093
:1057C000A7F84FF4C060009001208DF8040000207D
:1057D0008DF8060003208DF8050001208DF80700E4
:1057E00069460448FBF785FA4FF4C0610148FBF7AE
:1057F000EDFA1CBD001402401CB50121042000F08C
:1058000087F80120009000208DF8040003208DF817
:10581000050001208DF8070069460948FBF769FA81
:105820000220009000208DF8040003208DF8050070
:1058300001208DF8070069460148FBF75AFA1CBDA4
:105840000008024000BFFEE77047000070B500216D
:1058500000230F22C4781CB3174C246804F4E064BE
:10586000C4F5E064C4F30721C1F10404E3B20A41C2
:1058700044789C40E1B28478144021430C07210E07
:105880000E4C05786155047804F01F050124AC40E6
:1058900005786D11AD0005F1E025C5F8004109E07E
:1058A000047804F01F050124AC40054D06787611FC
:1058B00045F8264070BD00000CED00E000E400E07B
:1058C00080E100E002490143024A11607047000094
:1058D0000000FA050CED00E010B5532140F69F7072
:1058E00000F06AFC532140F69F7000F0B5FC532194
:1058F00040F2CF7000F03CFB532140F2CF7000F03B
:1059000087FB532140F2CF7000F0D2FB10BD7047EF
:1059100029B1064A12680243044B1A6004E0034AA4
:1059200012688243014B1A60704700003038024011
:1059300029B1064A12680243044B1A6004E0034A84
:1059400012688243014B1A607047000038380240E9
:1059500029B1064A12680243044B1A6004E0034A64
:1059600012688243014B1A607047000040380240C1
:1059700029B1064A12680243044B1A6004E0034A44
:1059800012688243014B1A6070470000443802409D
:10599000F0B5002100220024022500260223324F08
:1059A0003F6807F00C0121B1042905D0082937D13F
:1059B00005E02E4F076036E02D4F076033E02A4F99
:1059C0003F1F3F68C7F38056274F3F1F3F6807F0D0
:1059D0003F036EB1264FB7FBF3F7DFF88CC0ACF195
:1059E000040CDCF800C0CCF3881C07FB0CF40CE0C2
:1059F0001E4FB7FBF3F7DFF870C0ACF1040CDCF816
:105A000000C0CCF3881C07FB0CF4174F3F1F3F6806
:105A1000C7F301477F1C7D00B4FBF5F7076002E088
:105A2000124F076000BF00BF0F4F3F6807F0F00143
:105A30000909104F7A5C0768D74047600A4F3F68F2
:105A400007F4E051890A0B4F7A5C4768D7408760BA
:105A5000054F3F6807F46041490B064F7A5C476881
:105A6000D740C760F0BD0000083802400024F400B1
:105A700000127A000000002010B52DED048BB0EE6E
:105A8000408A9FED2B0AB0EE409A9FED290A38EE2E
:105A9000400AF0EE408AB0EE680AFAF79DFEB0EEDA
:105AA000409A23E0B0EE491ADFED210A9FED200A6B
:105AB000FBF78EF91F48D0ED151AB0EE611AD0ED44
:105AC000141AF0EE610AD0ED131AB0EE610A00F07C
:105AD00055F8184890ED030A38EE400AF0EE408A77
